{
	"contracts/Admin.sol": {
		"AdminContract": {
			"abi": [
				{
					"inputs": [],
					"stateMutability": "nonpayable",
					"type": "constructor"
				},
				{
					"anonymous": false,
					"inputs": [
						{
							"indexed": true,
							"internalType": "uint256",
							"name": "_id",
							"type": "uint256"
						},
						{
							"indexed": false,
							"internalType": "string",
							"name": "_name",
							"type": "string"
						},
						{
							"indexed": false,
							"internalType": "address",
							"name": "_candidateAddress",
							"type": "address"
						}
					],
					"name": "CandidateAdded",
					"type": "event"
				},
				{
					"anonymous": false,
					"inputs": [
						{
							"indexed": true,
							"internalType": "uint256",
							"name": "_id",
							"type": "uint256"
						}
					],
					"name": "CandidateDeleted",
					"type": "event"
				},
				{
					"anonymous": false,
					"inputs": [
						{
							"indexed": false,
							"internalType": "address",
							"name": "_voter",
							"type": "address"
						}
					],
					"name": "VoterRegistered",
					"type": "event"
				},
				{
					"anonymous": false,
					"inputs": [
						{
							"indexed": false,
							"internalType": "address",
							"name": "_voter",
							"type": "address"
						}
					],
					"name": "VoterUnregistered",
					"type": "event"
				},
				{
					"inputs": [
						{
							"internalType": "string",
							"name": "_name",
							"type": "string"
						},
						{
							"internalType": "address",
							"name": "_candidateAddress",
							"type": "address"
						}
					],
					"name": "addCandidate",
					"outputs": [],
					"stateMutability": "nonpayable",
					"type": "function"
				},
				{
					"inputs": [],
					"name": "admin",
					"outputs": [
						{
							"internalType": "address",
							"name": "",
							"type": "address"
						}
					],
					"stateMutability": "view",
					"type": "function"
				},
				{
					"inputs": [
						{
							"internalType": "uint256",
							"name": "",
							"type": "uint256"
						}
					],
					"name": "candidates",
					"outputs": [
						{
							"internalType": "uint256",
							"name": "id",
							"type": "uint256"
						},
						{
							"internalType": "string",
							"name": "name",
							"type": "string"
						},
						{
							"internalType": "address",
							"name": "candidateAddress",
							"type": "address"
						}
					],
					"stateMutability": "view",
					"type": "function"
				},
				{
					"inputs": [
						{
							"internalType": "uint256",
							"name": "_id",
							"type": "uint256"
						}
					],
					"name": "deleteCandidate",
					"outputs": [],
					"stateMutability": "nonpayable",
					"type": "function"
				},
				{
					"inputs": [
						{
							"internalType": "uint256",
							"name": "_id",
							"type": "uint256"
						}
					],
					"name": "getCandidate",
					"outputs": [
						{
							"internalType": "uint256",
							"name": "id",
							"type": "uint256"
						},
						{
							"internalType": "string",
							"name": "name",
							"type": "string"
						},
						{
							"internalType": "address",
							"name": "candidateAddress",
							"type": "address"
						}
					],
					"stateMutability": "view",
					"type": "function"
				},
				{
					"inputs": [],
					"name": "getCandidateCount",
					"outputs": [
						{
							"internalType": "uint256",
							"name": "",
							"type": "uint256"
						}
					],
					"stateMutability": "view",
					"type": "function"
				},
				{
					"inputs": [],
					"name": "getVoters",
					"outputs": [
						{
							"internalType": "bool[]",
							"name": "",
							"type": "bool[]"
						}
					],
					"stateMutability": "view",
					"type": "function"
				},
				{
					"inputs": [
						{
							"internalType": "address",
							"name": "_address",
							"type": "address"
						}
					],
					"name": "isVoter",
					"outputs": [
						{
							"internalType": "bool",
							"name": "",
							"type": "bool"
						}
					],
					"stateMutability": "view",
					"type": "function"
				},
				{
					"inputs": [
						{
							"internalType": "address",
							"name": "_voter",
							"type": "address"
						}
					],
					"name": "registerVoter",
					"outputs": [],
					"stateMutability": "nonpayable",
					"type": "function"
				},
				{
					"inputs": [
						{
							"internalType": "address",
							"name": "_voter",
							"type": "address"
						}
					],
					"name": "unregisterVoter",
					"outputs": [],
					"stateMutability": "nonpayable",
					"type": "function"
				},
				{
					"inputs": [
						{
							"internalType": "address",
							"name": "",
							"type": "address"
						}
					],
					"name": "voters",
					"outputs": [
						{
							"internalType": "bool",
							"name": "",
							"type": "bool"
						}
					],
					"stateMutability": "view",
					"type": "function"
				}
			],
			"devdoc": {
				"kind": "dev",
				"methods": {},
				"version": 1
			},
			"evm": {
				"assembly": "    /* \"contracts/Admin.sol\":57:3218  contract AdminContract {... */\n  mstore(0x40, 0x80)\n    /* \"contracts/Admin.sol\":1136:1185  constructor() {... */\n  callvalue\n  dup1\n  iszero\n  tag_1\n  jumpi\n  0x00\n  dup1\n  revert\ntag_1:\n  pop\n    /* \"contracts/Admin.sol\":1168:1178  msg.sender */\n  caller\n    /* \"contracts/Admin.sol\":1160:1165  admin */\n  0x00\n  dup1\n    /* \"contracts/Admin.sol\":1160:1178  admin = msg.sender */\n  0x0100\n  exp\n  dup2\n  sload\n  dup2\n  0xffffffffffffffffffffffffffffffffffffffff\n  mul\n  not\n  and\n  swap1\n  dup4\n  0xffffffffffffffffffffffffffffffffffffffff\n  and\n  mul\n  or\n  swap1\n  sstore\n  pop\n    /* \"contracts/Admin.sol\":57:3218  contract AdminContract {... */\n  dataSize(sub_0)\n  dup1\n  dataOffset(sub_0)\n  0x00\n  codecopy\n  0x00\n  return\nstop\n\nsub_0: assembly {\n        /* \"contracts/Admin.sol\":57:3218  contract AdminContract {... */\n      mstore(0x40, 0x80)\n      callvalue\n      dup1\n      iszero\n      tag_1\n      jumpi\n      0x00\n      dup1\n      revert\n    tag_1:\n      pop\n      jumpi(tag_2, lt(calldatasize, 0x04))\n      shr(0xe0, calldataload(0x00))\n      dup1\n      0x4a2a84c5\n      gt\n      tag_14\n      jumpi\n      dup1\n      0x4a2a84c5\n      eq\n      tag_8\n      jumpi\n      dup1\n      0x7ed17751\n      eq\n      tag_9\n      jumpi\n      dup1\n      0xa3ec138d\n      eq\n      tag_10\n      jumpi\n      dup1\n      0xa7771ee3\n      eq\n      tag_11\n      jumpi\n      dup1\n      0xcdd72253\n      eq\n      tag_12\n      jumpi\n      dup1\n      0xf851a440\n      eq\n      tag_13\n      jumpi\n      jump(tag_2)\n    tag_14:\n      dup1\n      0x1e620cd4\n      eq\n      tag_3\n      jumpi\n      dup1\n      0x30a56347\n      eq\n      tag_4\n      jumpi\n      dup1\n      0x3477ee2e\n      eq\n      tag_5\n      jumpi\n      dup1\n      0x35b8e820\n      eq\n      tag_6\n      jumpi\n      dup1\n      0x38db6dd3\n      eq\n      tag_7\n      jumpi\n    tag_2:\n      0x00\n      dup1\n      revert\n        /* \"contracts/Admin.sol\":2165:2374  function deleteCandidate(uint _id) public onlyAdmin {... */\n    tag_3:\n      tag_15\n      0x04\n      dup1\n      calldatasize\n      sub\n      dup2\n      add\n      swap1\n      tag_16\n      swap2\n      swap1\n      tag_17\n      jump\t// in\n    tag_16:\n      tag_18\n      jump\t// in\n    tag_15:\n      stop\n        /* \"contracts/Admin.sol\":1588:1685  function getCandidateCount() public view returns (uint) {... */\n    tag_4:\n      tag_19\n      tag_20\n      jump\t// in\n    tag_19:\n      mload(0x40)\n      tag_21\n      swap2\n      swap1\n      tag_22\n      jump\t// in\n    tag_21:\n      mload(0x40)\n      dup1\n      swap2\n      sub\n      swap1\n      return\n        /* \"contracts/Admin.sol\":350:379  Candidate[] public candidates */\n    tag_5:\n      tag_23\n      0x04\n      dup1\n      calldatasize\n      sub\n      dup2\n      add\n      swap1\n      tag_24\n      swap2\n      swap1\n      tag_17\n      jump\t// in\n    tag_24:\n      tag_25\n      jump\t// in\n    tag_23:\n      mload(0x40)\n      tag_26\n      swap4\n      swap3\n      swap2\n      swap1\n      tag_27\n      jump\t// in\n    tag_26:\n      mload(0x40)\n      dup1\n      swap2\n      sub\n      swap1\n      return\n        /* \"contracts/Admin.sol\":1732:2094  function getCandidate(uint _id) public view returns (uint id, string memory name, address candidateAddress) { // Updated return values... */\n    tag_6:\n      tag_28\n      0x04\n      dup1\n      calldatasize\n      sub\n      dup2\n      add\n      swap1\n      tag_29\n      swap2\n      swap1\n      tag_17\n      jump\t// in\n    tag_29:\n      tag_30\n      jump\t// in\n    tag_28:\n      mload(0x40)\n      tag_31\n      swap4\n      swap3\n      swap2\n      swap1\n      tag_27\n      jump\t// in\n    tag_31:\n      mload(0x40)\n      dup1\n      swap2\n      sub\n      swap1\n      return\n        /* \"contracts/Admin.sol\":2416:2548  function registerVoter(address _voter) public onlyAdmin {... */\n    tag_7:\n      tag_32\n      0x04\n      dup1\n      calldatasize\n      sub\n      dup2\n      add\n      swap1\n      tag_33\n      swap2\n      swap1\n      tag_34\n      jump\t// in\n    tag_33:\n      tag_35\n      jump\t// in\n    tag_32:\n      stop\n        /* \"contracts/Admin.sol\":1253:1528  function addCandidate(string memory _name, address _candidateAddress) public onlyAdmin {... */\n    tag_8:\n      tag_36\n      0x04\n      dup1\n      calldatasize\n      sub\n      dup2\n      add\n      swap1\n      tag_37\n      swap2\n      swap1\n      tag_38\n      jump\t// in\n    tag_37:\n      tag_39\n      jump\t// in\n    tag_36:\n      stop\n        /* \"contracts/Admin.sol\":2592:2728  function unregisterVoter(address _voter) public onlyAdmin {... */\n    tag_9:\n      tag_40\n      0x04\n      dup1\n      calldatasize\n      sub\n      dup2\n      add\n      swap1\n      tag_41\n      swap2\n      swap1\n      tag_34\n      jump\t// in\n    tag_41:\n      tag_42\n      jump\t// in\n    tag_40:\n      stop\n        /* \"contracts/Admin.sol\":440:478  mapping(address => bool) public voters */\n    tag_10:\n      tag_43\n      0x04\n      dup1\n      calldatasize\n      sub\n      dup2\n      add\n      swap1\n      tag_44\n      swap2\n      swap1\n      tag_34\n      jump\t// in\n    tag_44:\n      tag_45\n      jump\t// in\n    tag_43:\n      mload(0x40)\n      tag_46\n      swap2\n      swap1\n      tag_47\n      jump\t// in\n    tag_46:\n      mload(0x40)\n      dup1\n      swap2\n      sub\n      swap1\n      return\n        /* \"contracts/Admin.sol\":2795:2897  function isVoter(address _address) public view returns (bool) {... */\n    tag_11:\n      tag_48\n      0x04\n      dup1\n      calldatasize\n      sub\n      dup2\n      add\n      swap1\n      tag_49\n      swap2\n      swap1\n      tag_34\n      jump\t// in\n    tag_49:\n      tag_50\n      jump\t// in\n    tag_48:\n      mload(0x40)\n      tag_51\n      swap2\n      swap1\n      tag_47\n      jump\t// in\n    tag_51:\n      mload(0x40)\n      dup1\n      swap2\n      sub\n      swap1\n      return\n        /* \"contracts/Admin.sol\":2943:3216  function getVoters() public view returns (bool[] memory) {... */\n    tag_12:\n      tag_52\n      tag_53\n      jump\t// in\n    tag_52:\n      mload(0x40)\n      tag_54\n      swap2\n      swap1\n      tag_55\n      jump\t// in\n    tag_54:\n      mload(0x40)\n      dup1\n      swap2\n      sub\n      swap1\n      return\n        /* \"contracts/Admin.sol\":86:106  address public admin */\n    tag_13:\n      tag_56\n      tag_57\n      jump\t// in\n    tag_56:\n      mload(0x40)\n      tag_58\n      swap2\n      swap1\n      tag_59\n      jump\t// in\n    tag_58:\n      mload(0x40)\n      dup1\n      swap2\n      sub\n      swap1\n      return\n        /* \"contracts/Admin.sol\":2165:2374  function deleteCandidate(uint _id) public onlyAdmin {... */\n    tag_18:\n        /* \"contracts/Admin.sol\":1025:1030  admin */\n      0x00\n      dup1\n      sload\n      swap1\n      0x0100\n      exp\n      swap1\n      div\n      0xffffffffffffffffffffffffffffffffffffffff\n      and\n        /* \"contracts/Admin.sol\":1011:1030  msg.sender == admin */\n      0xffffffffffffffffffffffffffffffffffffffff\n      and\n        /* \"contracts/Admin.sol\":1011:1021  msg.sender */\n      caller\n        /* \"contracts/Admin.sol\":1011:1030  msg.sender == admin */\n      0xffffffffffffffffffffffffffffffffffffffff\n      and\n      eq\n        /* \"contracts/Admin.sol\":1003:1068  require(msg.sender == admin, \"Only admin can call this function\") */\n      tag_61\n      jumpi\n      mload(0x40)\n      0x08c379a000000000000000000000000000000000000000000000000000000000\n      dup2\n      mstore\n      0x04\n      add\n      tag_62\n      swap1\n      tag_63\n      jump\t// in\n    tag_62:\n      mload(0x40)\n      dup1\n      swap2\n      sub\n      swap1\n      revert\n    tag_61:\n        /* \"contracts/Admin.sol\":2241:2242  0 */\n      0x00\n        /* \"contracts/Admin.sol\":2235:2238  _id */\n      dup2\n        /* \"contracts/Admin.sol\":2235:2242  _id > 0 */\n      gt\n        /* \"contracts/Admin.sol\":2235:2270  _id > 0 && _id <= candidates.length */\n      dup1\n      iszero\n      tag_65\n      jumpi\n      pop\n        /* \"contracts/Admin.sol\":2253:2263  candidates */\n      0x01\n        /* \"contracts/Admin.sol\":2253:2270  candidates.length */\n      dup1\n      sload\n      swap1\n      pop\n        /* \"contracts/Admin.sol\":2246:2249  _id */\n      dup2\n        /* \"contracts/Admin.sol\":2246:2270  _id <= candidates.length */\n      gt\n      iszero\n        /* \"contracts/Admin.sol\":2235:2270  _id > 0 && _id <= candidates.length */\n    tag_65:\n        /* \"contracts/Admin.sol\":2227:2295  require(_id > 0 && _id <= candidates.length, \"Invalid candidate ID\") */\n      tag_66\n      jumpi\n      mload(0x40)\n      0x08c379a000000000000000000000000000000000000000000000000000000000\n      dup2\n      mstore\n      0x04\n      add\n      tag_67\n      swap1\n      tag_68\n      jump\t// in\n    tag_67:\n      mload(0x40)\n      dup1\n      swap2\n      sub\n      swap1\n      revert\n    tag_66:\n        /* \"contracts/Admin.sol\":2312:2322  candidates */\n      0x01\n        /* \"contracts/Admin.sol\":2329:2330  1 */\n      dup1\n        /* \"contracts/Admin.sol\":2323:2326  _id */\n      dup3\n        /* \"contracts/Admin.sol\":2323:2330  _id - 1 */\n      tag_69\n      swap2\n      swap1\n      tag_70\n      jump\t// in\n    tag_69:\n        /* \"contracts/Admin.sol\":2312:2331  candidates[_id - 1] */\n      dup2\n      sload\n      dup2\n      lt\n      tag_71\n      jumpi\n      mstore(0x00, 0x4e487b7100000000000000000000000000000000000000000000000000000000)\n      mstore(0x04, 0x32)\n      revert(0x00, 0x24)\n    tag_71:\n      swap1\n      0x00\n      mstore\n      keccak256(0x00, 0x20)\n      swap1\n      0x03\n      mul\n      add\n      0x00\n        /* \"contracts/Admin.sol\":2305:2331  delete candidates[_id - 1] */\n      dup1\n      dup3\n      add\n      0x00\n      swap1\n      sstore\n      0x01\n      dup3\n      add\n      0x00\n      tag_73\n      swap2\n      swap1\n      tag_74\n      jump\t// in\n    tag_73:\n      0x02\n      dup3\n      add\n      exp(0x0100, 0x00)\n      dup2\n      sload\n      swap1\n      0xffffffffffffffffffffffffffffffffffffffff\n      mul\n      not\n      and\n      swap1\n      sstore\n      pop\n      pop\n        /* \"contracts/Admin.sol\":2363:2366  _id */\n      dup1\n        /* \"contracts/Admin.sol\":2346:2367  CandidateDeleted(_id) */\n      0x5768df5843e58ec5b2fc92eb6ef81241e9ec50a0b93fd074dec58b39efc41720\n      mload(0x40)\n      mload(0x40)\n      dup1\n      swap2\n      sub\n      swap1\n      log2\n        /* \"contracts/Admin.sol\":2165:2374  function deleteCandidate(uint _id) public onlyAdmin {... */\n      pop\n      jump\t// out\n        /* \"contracts/Admin.sol\":1588:1685  function getCandidateCount() public view returns (uint) {... */\n    tag_20:\n        /* \"contracts/Admin.sol\":1638:1642  uint */\n      0x00\n        /* \"contracts/Admin.sol\":1661:1671  candidates */\n      0x01\n        /* \"contracts/Admin.sol\":1661:1678  candidates.length */\n      dup1\n      sload\n      swap1\n      pop\n        /* \"contracts/Admin.sol\":1654:1678  return candidates.length */\n      swap1\n      pop\n        /* \"contracts/Admin.sol\":1588:1685  function getCandidateCount() public view returns (uint) {... */\n      swap1\n      jump\t// out\n        /* \"contracts/Admin.sol\":350:379  Candidate[] public candidates */\n    tag_25:\n      0x01\n      dup2\n      dup2\n      sload\n      dup2\n      lt\n      tag_76\n      jumpi\n      0x00\n      dup1\n      revert\n    tag_76:\n      swap1\n      0x00\n      mstore\n      keccak256(0x00, 0x20)\n      swap1\n      0x03\n      mul\n      add\n      0x00\n      swap2\n      pop\n      swap1\n      pop\n      dup1\n      0x00\n      add\n      sload\n      swap1\n      dup1\n      0x01\n      add\n      dup1\n      sload\n      tag_78\n      swap1\n      tag_79\n      jump\t// in\n    tag_78:\n      dup1\n      0x1f\n      add\n      0x20\n      dup1\n      swap2\n      div\n      mul\n      0x20\n      add\n      mload(0x40)\n      swap1\n      dup2\n      add\n      0x40\n      mstore\n      dup1\n      swap3\n      swap2\n      swap1\n      dup2\n      dup2\n      mstore\n      0x20\n      add\n      dup3\n      dup1\n      sload\n      tag_80\n      swap1\n      tag_79\n      jump\t// in\n    tag_80:\n      dup1\n      iszero\n      tag_81\n      jumpi\n      dup1\n      0x1f\n      lt\n      tag_82\n      jumpi\n      0x0100\n      dup1\n      dup4\n      sload\n      div\n      mul\n      dup4\n      mstore\n      swap2\n      0x20\n      add\n      swap2\n      jump(tag_81)\n    tag_82:\n      dup3\n      add\n      swap2\n      swap1\n      0x00\n      mstore\n      keccak256(0x00, 0x20)\n      swap1\n    tag_83:\n      dup2\n      sload\n      dup2\n      mstore\n      swap1\n      0x01\n      add\n      swap1\n      0x20\n      add\n      dup1\n      dup4\n      gt\n      tag_83\n      jumpi\n      dup3\n      swap1\n      sub\n      0x1f\n      and\n      dup3\n      add\n      swap2\n    tag_81:\n      pop\n      pop\n      pop\n      pop\n      pop\n      swap1\n      dup1\n      0x02\n      add\n      0x00\n      swap1\n      sload\n      swap1\n      0x0100\n      exp\n      swap1\n      div\n      0xffffffffffffffffffffffffffffffffffffffff\n      and\n      swap1\n      pop\n      dup4\n      jump\t// out\n        /* \"contracts/Admin.sol\":1732:2094  function getCandidate(uint _id) public view returns (uint id, string memory name, address candidateAddress) { // Updated return values... */\n    tag_30:\n        /* \"contracts/Admin.sol\":1785:1792  uint id */\n      0x00\n        /* \"contracts/Admin.sol\":1794:1812  string memory name */\n      0x60\n        /* \"contracts/Admin.sol\":1814:1838  address candidateAddress */\n      0x00\n        /* \"contracts/Admin.sol\":1889:1890  0 */\n      dup1\n        /* \"contracts/Admin.sol\":1883:1886  _id */\n      dup5\n        /* \"contracts/Admin.sol\":1883:1890  _id > 0 */\n      gt\n        /* \"contracts/Admin.sol\":1883:1918  _id > 0 && _id <= candidates.length */\n      dup1\n      iszero\n      tag_85\n      jumpi\n      pop\n        /* \"contracts/Admin.sol\":1901:1911  candidates */\n      0x01\n        /* \"contracts/Admin.sol\":1901:1918  candidates.length */\n      dup1\n      sload\n      swap1\n      pop\n        /* \"contracts/Admin.sol\":1894:1897  _id */\n      dup5\n        /* \"contracts/Admin.sol\":1894:1918  _id <= candidates.length */\n      gt\n      iszero\n        /* \"contracts/Admin.sol\":1883:1918  _id > 0 && _id <= candidates.length */\n    tag_85:\n        /* \"contracts/Admin.sol\":1875:1943  require(_id > 0 && _id <= candidates.length, \"Invalid candidate ID\") */\n      tag_86\n      jumpi\n      mload(0x40)\n      0x08c379a000000000000000000000000000000000000000000000000000000000\n      dup2\n      mstore\n      0x04\n      add\n      tag_87\n      swap1\n      tag_68\n      jump\t// in\n    tag_87:\n      mload(0x40)\n      dup1\n      swap2\n      sub\n      swap1\n      revert\n    tag_86:\n        /* \"contracts/Admin.sol\":1953:1979  Candidate memory candidate */\n      0x00\n        /* \"contracts/Admin.sol\":1982:1992  candidates */\n      0x01\n        /* \"contracts/Admin.sol\":1999:2000  1 */\n      dup1\n        /* \"contracts/Admin.sol\":1993:1996  _id */\n      dup7\n        /* \"contracts/Admin.sol\":1993:2000  _id - 1 */\n      tag_88\n      swap2\n      swap1\n      tag_70\n      jump\t// in\n    tag_88:\n        /* \"contracts/Admin.sol\":1982:2001  candidates[_id - 1] */\n      dup2\n      sload\n      dup2\n      lt\n      tag_89\n      jumpi\n      mstore(0x00, 0x4e487b7100000000000000000000000000000000000000000000000000000000)\n      mstore(0x04, 0x32)\n      revert(0x00, 0x24)\n    tag_89:\n      swap1\n      0x00\n      mstore\n      keccak256(0x00, 0x20)\n      swap1\n      0x03\n      mul\n      add\n        /* \"contracts/Admin.sol\":1953:2001  Candidate memory candidate = candidates[_id - 1] */\n      mload(0x40)\n      dup1\n      0x60\n      add\n      0x40\n      mstore\n      swap1\n      dup2\n      0x00\n      dup3\n      add\n      sload\n      dup2\n      mstore\n      0x20\n      add\n      0x01\n      dup3\n      add\n      dup1\n      sload\n      tag_91\n      swap1\n      tag_79\n      jump\t// in\n    tag_91:\n      dup1\n      0x1f\n      add\n      0x20\n      dup1\n      swap2\n      div\n      mul\n      0x20\n      add\n      mload(0x40)\n      swap1\n      dup2\n      add\n      0x40\n      mstore\n      dup1\n      swap3\n      swap2\n      swap1\n      dup2\n      dup2\n      mstore\n      0x20\n      add\n      dup3\n      dup1\n      sload\n      tag_92\n      swap1\n      tag_79\n      jump\t// in\n    tag_92:\n      dup1\n      iszero\n      tag_93\n      jumpi\n      dup1\n      0x1f\n      lt\n      tag_94\n      jumpi\n      0x0100\n      dup1\n      dup4\n      sload\n      div\n      mul\n      dup4\n      mstore\n      swap2\n      0x20\n      add\n      swap2\n      jump(tag_93)\n    tag_94:\n      dup3\n      add\n      swap2\n      swap1\n      0x00\n      mstore\n      keccak256(0x00, 0x20)\n      swap1\n    tag_95:\n      dup2\n      sload\n      dup2\n      mstore\n      swap1\n      0x01\n      add\n      swap1\n      0x20\n      add\n      dup1\n      dup4\n      gt\n      tag_95\n      jumpi\n      dup3\n      swap1\n      sub\n      0x1f\n      and\n      dup3\n      add\n      swap2\n    tag_93:\n      pop\n      pop\n      pop\n      pop\n      pop\n      dup2\n      mstore\n      0x20\n      add\n      0x02\n      dup3\n      add\n      0x00\n      swap1\n      sload\n      swap1\n      0x0100\n      exp\n      swap1\n      div\n      0xffffffffffffffffffffffffffffffffffffffff\n      and\n      0xffffffffffffffffffffffffffffffffffffffff\n      and\n      0xffffffffffffffffffffffffffffffffffffffff\n      and\n      dup2\n      mstore\n      pop\n      pop\n      swap1\n      pop\n        /* \"contracts/Admin.sol\":2019:2028  candidate */\n      dup1\n        /* \"contracts/Admin.sol\":2019:2031  candidate.id */\n      0x00\n      add\n      mload\n        /* \"contracts/Admin.sol\":2033:2042  candidate */\n      dup2\n        /* \"contracts/Admin.sol\":2033:2047  candidate.name */\n      0x20\n      add\n      mload\n        /* \"contracts/Admin.sol\":2049:2058  candidate */\n      dup3\n        /* \"contracts/Admin.sol\":2049:2075  candidate.candidateAddress */\n      0x40\n      add\n      mload\n        /* \"contracts/Admin.sol\":2011:2076  return (candidate.id, candidate.name, candidate.candidateAddress) */\n      swap4\n      pop\n      swap4\n      pop\n      swap4\n      pop\n      pop\n        /* \"contracts/Admin.sol\":1732:2094  function getCandidate(uint _id) public view returns (uint id, string memory name, address candidateAddress) { // Updated return values... */\n      swap2\n      swap4\n      swap1\n      swap3\n      pop\n      jump\t// out\n        /* \"contracts/Admin.sol\":2416:2548  function registerVoter(address _voter) public onlyAdmin {... */\n    tag_35:\n        /* \"contracts/Admin.sol\":1025:1030  admin */\n      0x00\n      dup1\n      sload\n      swap1\n      0x0100\n      exp\n      swap1\n      div\n      0xffffffffffffffffffffffffffffffffffffffff\n      and\n        /* \"contracts/Admin.sol\":1011:1030  msg.sender == admin */\n      0xffffffffffffffffffffffffffffffffffffffff\n      and\n        /* \"contracts/Admin.sol\":1011:1021  msg.sender */\n      caller\n        /* \"contracts/Admin.sol\":1011:1030  msg.sender == admin */\n      0xffffffffffffffffffffffffffffffffffffffff\n      and\n      eq\n        /* \"contracts/Admin.sol\":1003:1068  require(msg.sender == admin, \"Only admin can call this function\") */\n      tag_97\n      jumpi\n      mload(0x40)\n      0x08c379a000000000000000000000000000000000000000000000000000000000\n      dup2\n      mstore\n      0x04\n      add\n      tag_98\n      swap1\n      tag_63\n      jump\t// in\n    tag_98:\n      mload(0x40)\n      dup1\n      swap2\n      sub\n      swap1\n      revert\n    tag_97:\n        /* \"contracts/Admin.sol\":2499:2503  true */\n      0x01\n        /* \"contracts/Admin.sol\":2482:2488  voters */\n      0x02\n        /* \"contracts/Admin.sol\":2482:2496  voters[_voter] */\n      0x00\n        /* \"contracts/Admin.sol\":2489:2495  _voter */\n      dup4\n        /* \"contracts/Admin.sol\":2482:2496  voters[_voter] */\n      0xffffffffffffffffffffffffffffffffffffffff\n      and\n      0xffffffffffffffffffffffffffffffffffffffff\n      and\n      dup2\n      mstore\n      0x20\n      add\n      swap1\n      dup2\n      mstore\n      0x20\n      add\n      0x00\n      keccak256\n      0x00\n        /* \"contracts/Admin.sol\":2482:2503  voters[_voter] = true */\n      0x0100\n      exp\n      dup2\n      sload\n      dup2\n      0xff\n      mul\n      not\n      and\n      swap1\n      dup4\n      iszero\n      iszero\n      mul\n      or\n      swap1\n      sstore\n      pop\n        /* \"contracts/Admin.sol\":2518:2541  VoterRegistered(_voter) */\n      0xb6be2187d059cc2a55fe29e0e503b566e1e0f8c8780096e185429350acffd3dd\n        /* \"contracts/Admin.sol\":2534:2540  _voter */\n      dup2\n        /* \"contracts/Admin.sol\":2518:2541  VoterRegistered(_voter) */\n      mload(0x40)\n      tag_100\n      swap2\n      swap1\n      tag_59\n      jump\t// in\n    tag_100:\n      mload(0x40)\n      dup1\n      swap2\n      sub\n      swap1\n      log1\n        /* \"contracts/Admin.sol\":2416:2548  function registerVoter(address _voter) public onlyAdmin {... */\n      pop\n      jump\t// out\n        /* \"contracts/Admin.sol\":1253:1528  function addCandidate(string memory _name, address _candidateAddress) public onlyAdmin {... */\n    tag_39:\n        /* \"contracts/Admin.sol\":1025:1030  admin */\n      0x00\n      dup1\n      sload\n      swap1\n      0x0100\n      exp\n      swap1\n      div\n      0xffffffffffffffffffffffffffffffffffffffff\n      and\n        /* \"contracts/Admin.sol\":1011:1030  msg.sender == admin */\n      0xffffffffffffffffffffffffffffffffffffffff\n      and\n        /* \"contracts/Admin.sol\":1011:1021  msg.sender */\n      caller\n        /* \"contracts/Admin.sol\":1011:1030  msg.sender == admin */\n      0xffffffffffffffffffffffffffffffffffffffff\n      and\n      eq\n        /* \"contracts/Admin.sol\":1003:1068  require(msg.sender == admin, \"Only admin can call this function\") */\n      tag_102\n      jumpi\n      mload(0x40)\n      0x08c379a000000000000000000000000000000000000000000000000000000000\n      dup2\n      mstore\n      0x04\n      add\n      tag_103\n      swap1\n      tag_63\n      jump\t// in\n    tag_103:\n      mload(0x40)\n      dup1\n      swap2\n      sub\n      swap1\n      revert\n    tag_102:\n        /* \"contracts/Admin.sol\":1350:1360  candidates */\n      0x01\n        /* \"contracts/Admin.sol\":1366:1424  Candidate(candidates.length + 1, _name, _candidateAddress) */\n      mload(0x40)\n      dup1\n      0x60\n      add\n      0x40\n      mstore\n      dup1\n        /* \"contracts/Admin.sol\":1396:1397  1 */\n      0x01\n        /* \"contracts/Admin.sol\":1376:1386  candidates */\n      dup1\n        /* \"contracts/Admin.sol\":1376:1393  candidates.length */\n      dup1\n      sload\n      swap1\n      pop\n        /* \"contracts/Admin.sol\":1376:1397  candidates.length + 1 */\n      tag_105\n      swap2\n      swap1\n      tag_106\n      jump\t// in\n    tag_105:\n        /* \"contracts/Admin.sol\":1366:1424  Candidate(candidates.length + 1, _name, _candidateAddress) */\n      dup2\n      mstore\n      0x20\n      add\n        /* \"contracts/Admin.sol\":1399:1404  _name */\n      dup5\n        /* \"contracts/Admin.sol\":1366:1424  Candidate(candidates.length + 1, _name, _candidateAddress) */\n      dup2\n      mstore\n      0x20\n      add\n        /* \"contracts/Admin.sol\":1406:1423  _candidateAddress */\n      dup4\n        /* \"contracts/Admin.sol\":1366:1424  Candidate(candidates.length + 1, _name, _candidateAddress) */\n      0xffffffffffffffffffffffffffffffffffffffff\n      and\n      dup2\n      mstore\n      pop\n        /* \"contracts/Admin.sol\":1350:1425  candidates.push(Candidate(candidates.length + 1, _name, _candidateAddress)) */\n      swap1\n      dup1\n      0x01\n      dup2\n      sload\n      add\n      dup1\n      dup3\n      sstore\n      dup1\n      swap2\n      pop\n      pop\n      0x01\n      swap1\n      sub\n      swap1\n      0x00\n      mstore\n      keccak256(0x00, 0x20)\n      swap1\n      0x03\n      mul\n      add\n      0x00\n      swap1\n      swap2\n      swap1\n      swap2\n      swap1\n      swap2\n      pop\n      0x00\n      dup3\n      add\n      mload\n      dup2\n      0x00\n      add\n      sstore\n      0x20\n      dup3\n      add\n      mload\n      dup2\n      0x01\n      add\n      swap1\n      dup1\n      mload\n      swap1\n      0x20\n      add\n      swap1\n      tag_108\n      swap3\n      swap2\n      swap1\n      tag_109\n      jump\t// in\n    tag_108:\n      pop\n      0x40\n      dup3\n      add\n      mload\n      dup2\n      0x02\n      add\n      exp(0x0100, 0x00)\n      dup2\n      sload\n      dup2\n      0xffffffffffffffffffffffffffffffffffffffff\n      mul\n      not\n      and\n      swap1\n      dup4\n      0xffffffffffffffffffffffffffffffffffffffff\n      and\n      mul\n      or\n      swap1\n      sstore\n      pop\n      pop\n      pop\n        /* \"contracts/Admin.sol\":1466:1476  candidates */\n      0x01\n        /* \"contracts/Admin.sol\":1466:1483  candidates.length */\n      dup1\n      sload\n      swap1\n      pop\n        /* \"contracts/Admin.sol\":1451:1510  CandidateAdded(candidates.length, _name, _candidateAddress) */\n      0xf119bb07245e20116d1c56128be14390dbc24c94fc13ee0a9bc023da18bab01d\n        /* \"contracts/Admin.sol\":1485:1490  _name */\n      dup4\n        /* \"contracts/Admin.sol\":1492:1509  _candidateAddress */\n      dup4\n        /* \"contracts/Admin.sol\":1451:1510  CandidateAdded(candidates.length, _name, _candidateAddress) */\n      mload(0x40)\n      tag_110\n      swap3\n      swap2\n      swap1\n      tag_111\n      jump\t// in\n    tag_110:\n      mload(0x40)\n      dup1\n      swap2\n      sub\n      swap1\n      log2\n        /* \"contracts/Admin.sol\":1253:1528  function addCandidate(string memory _name, address _candidateAddress) public onlyAdmin {... */\n      pop\n      pop\n      jump\t// out\n        /* \"contracts/Admin.sol\":2592:2728  function unregisterVoter(address _voter) public onlyAdmin {... */\n    tag_42:\n        /* \"contracts/Admin.sol\":1025:1030  admin */\n      0x00\n      dup1\n      sload\n      swap1\n      0x0100\n      exp\n      swap1\n      div\n      0xffffffffffffffffffffffffffffffffffffffff\n      and\n        /* \"contracts/Admin.sol\":1011:1030  msg.sender == admin */\n      0xffffffffffffffffffffffffffffffffffffffff\n      and\n        /* \"contracts/Admin.sol\":1011:1021  msg.sender */\n      caller\n        /* \"contracts/Admin.sol\":1011:1030  msg.sender == admin */\n      0xffffffffffffffffffffffffffffffffffffffff\n      and\n      eq\n        /* \"contracts/Admin.sol\":1003:1068  require(msg.sender == admin, \"Only admin can call this function\") */\n      tag_113\n      jumpi\n      mload(0x40)\n      0x08c379a000000000000000000000000000000000000000000000000000000000\n      dup2\n      mstore\n      0x04\n      add\n      tag_114\n      swap1\n      tag_63\n      jump\t// in\n    tag_114:\n      mload(0x40)\n      dup1\n      swap2\n      sub\n      swap1\n      revert\n    tag_113:\n        /* \"contracts/Admin.sol\":2667:2673  voters */\n      0x02\n        /* \"contracts/Admin.sol\":2667:2681  voters[_voter] */\n      0x00\n        /* \"contracts/Admin.sol\":2674:2680  _voter */\n      dup3\n        /* \"contracts/Admin.sol\":2667:2681  voters[_voter] */\n      0xffffffffffffffffffffffffffffffffffffffff\n      and\n      0xffffffffffffffffffffffffffffffffffffffff\n      and\n      dup2\n      mstore\n      0x20\n      add\n      swap1\n      dup2\n      mstore\n      0x20\n      add\n      0x00\n      keccak256\n      0x00\n        /* \"contracts/Admin.sol\":2660:2681  delete voters[_voter] */\n      0x0100\n      exp\n      dup2\n      sload\n      swap1\n      0xff\n      mul\n      not\n      and\n      swap1\n      sstore\n        /* \"contracts/Admin.sol\":2696:2721  VoterUnregistered(_voter) */\n      0x25fc2460244a2fff1d6879302ea1d6f3e684e599d76c012a22e42d5bb61cc5d7\n        /* \"contracts/Admin.sol\":2714:2720  _voter */\n      dup2\n        /* \"contracts/Admin.sol\":2696:2721  VoterUnregistered(_voter) */\n      mload(0x40)\n      tag_116\n      swap2\n      swap1\n      tag_59\n      jump\t// in\n    tag_116:\n      mload(0x40)\n      dup1\n      swap2\n      sub\n      swap1\n      log1\n        /* \"contracts/Admin.sol\":2592:2728  function unregisterVoter(address _voter) public onlyAdmin {... */\n      pop\n      jump\t// out\n        /* \"contracts/Admin.sol\":440:478  mapping(address => bool) public voters */\n    tag_45:\n      mstore(0x20, 0x02)\n      dup1\n      0x00\n      mstore\n      keccak256(0x00, 0x40)\n      0x00\n      swap2\n      pop\n      sload\n      swap1\n      0x0100\n      exp\n      swap1\n      div\n      0xff\n      and\n      dup2\n      jump\t// out\n        /* \"contracts/Admin.sol\":2795:2897  function isVoter(address _address) public view returns (bool) {... */\n    tag_50:\n        /* \"contracts/Admin.sol\":2851:2855  bool */\n      0x00\n        /* \"contracts/Admin.sol\":2874:2880  voters */\n      0x02\n        /* \"contracts/Admin.sol\":2874:2890  voters[_address] */\n      0x00\n        /* \"contracts/Admin.sol\":2881:2889  _address */\n      dup4\n        /* \"contracts/Admin.sol\":2874:2890  voters[_address] */\n      0xffffffffffffffffffffffffffffffffffffffff\n      and\n      0xffffffffffffffffffffffffffffffffffffffff\n      and\n      dup2\n      mstore\n      0x20\n      add\n      swap1\n      dup2\n      mstore\n      0x20\n      add\n      0x00\n      keccak256\n      0x00\n      swap1\n      sload\n      swap1\n      0x0100\n      exp\n      swap1\n      div\n      0xff\n      and\n        /* \"contracts/Admin.sol\":2867:2890  return voters[_address] */\n      swap1\n      pop\n        /* \"contracts/Admin.sol\":2795:2897  function isVoter(address _address) public view returns (bool) {... */\n      swap2\n      swap1\n      pop\n      jump\t// out\n        /* \"contracts/Admin.sol\":2943:3216  function getVoters() public view returns (bool[] memory) {... */\n    tag_53:\n        /* \"contracts/Admin.sol\":2985:2998  bool[] memory */\n      0x60\n        /* \"contracts/Admin.sol\":3010:3035  bool[] memory voterStatus */\n      0x00\n        /* \"contracts/Admin.sol\":3049:3059  candidates */\n      0x01\n        /* \"contracts/Admin.sol\":3049:3066  candidates.length */\n      dup1\n      sload\n      swap1\n      pop\n        /* \"contracts/Admin.sol\":3038:3067  new bool[](candidates.length) */\n      0xffffffffffffffff\n      dup2\n      gt\n      iszero\n      tag_119\n      jumpi\n      mstore(0x00, 0x4e487b7100000000000000000000000000000000000000000000000000000000)\n      mstore(0x04, 0x41)\n      revert(0x00, 0x24)\n    tag_119:\n      mload(0x40)\n      swap1\n      dup1\n      dup3\n      mstore\n      dup1\n      0x20\n      mul\n      0x20\n      add\n      dup3\n      add\n      0x40\n      mstore\n      dup1\n      iszero\n      tag_120\n      jumpi\n      dup2\n      0x20\n      add\n      0x20\n      dup3\n      mul\n      dup1\n      calldatasize\n      dup4\n      calldatacopy\n      dup1\n      dup3\n      add\n      swap2\n      pop\n      pop\n      swap1\n      pop\n    tag_120:\n      pop\n        /* \"contracts/Admin.sol\":3010:3067  bool[] memory voterStatus = new bool[](candidates.length) */\n      swap1\n      pop\n        /* \"contracts/Admin.sol\":3082:3088  uint i */\n      0x00\n        /* \"contracts/Admin.sol\":3077:3182  for (uint i = 0; i < candidates.length; i++) {... */\n    tag_121:\n        /* \"contracts/Admin.sol\":3098:3108  candidates */\n      0x01\n        /* \"contracts/Admin.sol\":3098:3115  candidates.length */\n      dup1\n      sload\n      swap1\n      pop\n        /* \"contracts/Admin.sol\":3094:3095  i */\n      dup2\n        /* \"contracts/Admin.sol\":3094:3115  i < candidates.length */\n      lt\n        /* \"contracts/Admin.sol\":3077:3182  for (uint i = 0; i < candidates.length; i++) {... */\n      iszero\n      tag_122\n      jumpi\n        /* \"contracts/Admin.sol\":3153:3159  voters */\n      0x02\n        /* \"contracts/Admin.sol\":3153:3171  voters[msg.sender] */\n      0x00\n        /* \"contracts/Admin.sol\":3160:3170  msg.sender */\n      caller\n        /* \"contracts/Admin.sol\":3153:3171  voters[msg.sender] */\n      0xffffffffffffffffffffffffffffffffffffffff\n      and\n      0xffffffffffffffffffffffffffffffffffffffff\n      and\n      dup2\n      mstore\n      0x20\n      add\n      swap1\n      dup2\n      mstore\n      0x20\n      add\n      0x00\n      keccak256\n      0x00\n      swap1\n      sload\n      swap1\n      0x0100\n      exp\n      swap1\n      div\n      0xff\n      and\n        /* \"contracts/Admin.sol\":3136:3147  voterStatus */\n      dup3\n        /* \"contracts/Admin.sol\":3148:3149  i */\n      dup3\n        /* \"contracts/Admin.sol\":3136:3150  voterStatus[i] */\n      dup2\n      mload\n      dup2\n      lt\n      tag_124\n      jumpi\n      mstore(0x00, 0x4e487b7100000000000000000000000000000000000000000000000000000000)\n      mstore(0x04, 0x32)\n      revert(0x00, 0x24)\n    tag_124:\n      0x20\n      mul\n      0x20\n      add\n      add\n        /* \"contracts/Admin.sol\":3136:3171  voterStatus[i] = voters[msg.sender] */\n      swap1\n      iszero\n      iszero\n      swap1\n      dup2\n      iszero\n      iszero\n      dup2\n      mstore\n      pop\n      pop\n        /* \"contracts/Admin.sol\":3117:3120  i++ */\n      dup1\n      dup1\n      tag_125\n      swap1\n      tag_126\n      jump\t// in\n    tag_125:\n      swap2\n      pop\n      pop\n        /* \"contracts/Admin.sol\":3077:3182  for (uint i = 0; i < candidates.length; i++) {... */\n      jump(tag_121)\n    tag_122:\n      pop\n        /* \"contracts/Admin.sol\":3198:3209  voterStatus */\n      dup1\n        /* \"contracts/Admin.sol\":3191:3209  return voterStatus */\n      swap2\n      pop\n      pop\n        /* \"contracts/Admin.sol\":2943:3216  function getVoters() public view returns (bool[] memory) {... */\n      swap1\n      jump\t// out\n        /* \"contracts/Admin.sol\":86:106  address public admin */\n    tag_57:\n      0x00\n      dup1\n      sload\n      swap1\n      0x0100\n      exp\n      swap1\n      div\n      0xffffffffffffffffffffffffffffffffffffffff\n      and\n      dup2\n      jump\t// out\n    tag_74:\n      pop\n      dup1\n      sload\n      tag_127\n      swap1\n      tag_79\n      jump\t// in\n    tag_127:\n      0x00\n      dup3\n      sstore\n      dup1\n      0x1f\n      lt\n      tag_129\n      jumpi\n      pop\n      jump(tag_128)\n    tag_129:\n      0x1f\n      add\n      0x20\n      swap1\n      div\n      swap1\n      0x00\n      mstore\n      keccak256(0x00, 0x20)\n      swap1\n      dup2\n      add\n      swap1\n      tag_130\n      swap2\n      swap1\n      tag_131\n      jump\t// in\n    tag_130:\n    tag_128:\n      pop\n      jump\t// out\n    tag_109:\n      dup3\n      dup1\n      sload\n      tag_132\n      swap1\n      tag_79\n      jump\t// in\n    tag_132:\n      swap1\n      0x00\n      mstore\n      keccak256(0x00, 0x20)\n      swap1\n      0x1f\n      add\n      0x20\n      swap1\n      div\n      dup2\n      add\n      swap3\n      dup3\n      tag_134\n      jumpi\n      0x00\n      dup6\n      sstore\n      jump(tag_133)\n    tag_134:\n      dup3\n      0x1f\n      lt\n      tag_135\n      jumpi\n      dup1\n      mload\n      not(0xff)\n      and\n      dup4\n      dup1\n      add\n      or\n      dup6\n      sstore\n      jump(tag_133)\n    tag_135:\n      dup3\n      dup1\n      add\n      0x01\n      add\n      dup6\n      sstore\n      dup3\n      iszero\n      tag_133\n      jumpi\n      swap2\n      dup3\n      add\n    tag_136:\n      dup3\n      dup2\n      gt\n      iszero\n      tag_137\n      jumpi\n      dup3\n      mload\n      dup3\n      sstore\n      swap2\n      0x20\n      add\n      swap2\n      swap1\n      0x01\n      add\n      swap1\n      jump(tag_136)\n    tag_137:\n    tag_133:\n      pop\n      swap1\n      pop\n      tag_138\n      swap2\n      swap1\n      tag_131\n      jump\t// in\n    tag_138:\n      pop\n      swap1\n      jump\t// out\n    tag_131:\n    tag_139:\n      dup1\n      dup3\n      gt\n      iszero\n      tag_140\n      jumpi\n      0x00\n      dup2\n      0x00\n      swap1\n      sstore\n      pop\n      0x01\n      add\n      jump(tag_139)\n    tag_140:\n      pop\n      swap1\n      jump\t// out\n        /* \"#utility.yul\":7:351   */\n    tag_142:\n      0x00\n        /* \"#utility.yul\":110:175   */\n      tag_144\n        /* \"#utility.yul\":125:174   */\n      tag_145\n        /* \"#utility.yul\":167:173   */\n      dup5\n        /* \"#utility.yul\":125:174   */\n      tag_146\n      jump\t// in\n    tag_145:\n        /* \"#utility.yul\":110:175   */\n      tag_147\n      jump\t// in\n    tag_144:\n        /* \"#utility.yul\":101:175   */\n      swap1\n      pop\n        /* \"#utility.yul\":198:204   */\n      dup3\n        /* \"#utility.yul\":191:196   */\n      dup2\n        /* \"#utility.yul\":184:205   */\n      mstore\n        /* \"#utility.yul\":236:240   */\n      0x20\n        /* \"#utility.yul\":229:234   */\n      dup2\n        /* \"#utility.yul\":225:241   */\n      add\n        /* \"#utility.yul\":274:277   */\n      dup5\n        /* \"#utility.yul\":265:271   */\n      dup5\n        /* \"#utility.yul\":260:263   */\n      dup5\n        /* \"#utility.yul\":256:272   */\n      add\n        /* \"#utility.yul\":253:278   */\n      gt\n        /* \"#utility.yul\":250:252   */\n      iszero\n      tag_148\n      jumpi\n        /* \"#utility.yul\":291:292   */\n      0x00\n        /* \"#utility.yul\":288:289   */\n      dup1\n        /* \"#utility.yul\":281:293   */\n      revert\n        /* \"#utility.yul\":250:252   */\n    tag_148:\n        /* \"#utility.yul\":304:345   */\n      tag_149\n        /* \"#utility.yul\":338:344   */\n      dup5\n        /* \"#utility.yul\":333:336   */\n      dup3\n        /* \"#utility.yul\":328:331   */\n      dup6\n        /* \"#utility.yul\":304:345   */\n      tag_150\n      jump\t// in\n    tag_149:\n        /* \"#utility.yul\":91:351   */\n      pop\n      swap4\n      swap3\n      pop\n      pop\n      pop\n      jump\t// out\n        /* \"#utility.yul\":357:496   */\n    tag_151:\n      0x00\n        /* \"#utility.yul\":441:447   */\n      dup2\n        /* \"#utility.yul\":428:448   */\n      calldataload\n        /* \"#utility.yul\":419:448   */\n      swap1\n      pop\n        /* \"#utility.yul\":457:490   */\n      tag_153\n        /* \"#utility.yul\":484:489   */\n      dup2\n        /* \"#utility.yul\":457:490   */\n      tag_154\n      jump\t// in\n    tag_153:\n        /* \"#utility.yul\":409:496   */\n      swap3\n      swap2\n      pop\n      pop\n      jump\t// out\n        /* \"#utility.yul\":516:789   */\n    tag_155:\n      0x00\n        /* \"#utility.yul\":621:624   */\n      dup3\n        /* \"#utility.yul\":614:618   */\n      0x1f\n        /* \"#utility.yul\":606:612   */\n      dup4\n        /* \"#utility.yul\":602:619   */\n      add\n        /* \"#utility.yul\":598:625   */\n      slt\n        /* \"#utility.yul\":588:590   */\n      tag_157\n      jumpi\n        /* \"#utility.yul\":639:640   */\n      0x00\n        /* \"#utility.yul\":636:637   */\n      dup1\n        /* \"#utility.yul\":629:641   */\n      revert\n        /* \"#utility.yul\":588:590   */\n    tag_157:\n        /* \"#utility.yul\":679:685   */\n      dup2\n        /* \"#utility.yul\":666:686   */\n      calldataload\n        /* \"#utility.yul\":704:783   */\n      tag_158\n        /* \"#utility.yul\":779:782   */\n      dup5\n        /* \"#utility.yul\":771:777   */\n      dup3\n        /* \"#utility.yul\":764:768   */\n      0x20\n        /* \"#utility.yul\":756:762   */\n      dup7\n        /* \"#utility.yul\":752:769   */\n      add\n        /* \"#utility.yul\":704:783   */\n      tag_142\n      jump\t// in\n    tag_158:\n        /* \"#utility.yul\":695:783   */\n      swap2\n      pop\n        /* \"#utility.yul\":578:789   */\n      pop\n      swap3\n      swap2\n      pop\n      pop\n      jump\t// out\n        /* \"#utility.yul\":795:934   */\n    tag_159:\n      0x00\n        /* \"#utility.yul\":879:885   */\n      dup2\n        /* \"#utility.yul\":866:886   */\n      calldataload\n        /* \"#utility.yul\":857:886   */\n      swap1\n      pop\n        /* \"#utility.yul\":895:928   */\n      tag_161\n        /* \"#utility.yul\":922:927   */\n      dup2\n        /* \"#utility.yul\":895:928   */\n      tag_162\n      jump\t// in\n    tag_161:\n        /* \"#utility.yul\":847:934   */\n      swap3\n      swap2\n      pop\n      pop\n      jump\t// out\n        /* \"#utility.yul\":940:1202   */\n    tag_34:\n      0x00\n        /* \"#utility.yul\":1048:1050   */\n      0x20\n        /* \"#utility.yul\":1036:1045   */\n      dup3\n        /* \"#utility.yul\":1027:1034   */\n      dup5\n        /* \"#utility.yul\":1023:1046   */\n      sub\n        /* \"#utility.yul\":1019:1051   */\n      slt\n        /* \"#utility.yul\":1016:1018   */\n      iszero\n      tag_164\n      jumpi\n        /* \"#utility.yul\":1064:1065   */\n      0x00\n        /* \"#utility.yul\":1061:1062   */\n      dup1\n        /* \"#utility.yul\":1054:1066   */\n      revert\n        /* \"#utility.yul\":1016:1018   */\n    tag_164:\n        /* \"#utility.yul\":1107:1108   */\n      0x00\n        /* \"#utility.yul\":1132:1185   */\n      tag_165\n        /* \"#utility.yul\":1177:1184   */\n      dup5\n        /* \"#utility.yul\":1168:1174   */\n      dup3\n        /* \"#utility.yul\":1157:1166   */\n      dup6\n        /* \"#utility.yul\":1153:1175   */\n      add\n        /* \"#utility.yul\":1132:1185   */\n      tag_151\n      jump\t// in\n    tag_165:\n        /* \"#utility.yul\":1122:1185   */\n      swap2\n      pop\n        /* \"#utility.yul\":1078:1195   */\n      pop\n        /* \"#utility.yul\":1006:1202   */\n      swap3\n      swap2\n      pop\n      pop\n      jump\t// out\n        /* \"#utility.yul\":1208:1728   */\n    tag_38:\n      0x00\n      dup1\n        /* \"#utility.yul\":1343:1345   */\n      0x40\n        /* \"#utility.yul\":1331:1340   */\n      dup4\n        /* \"#utility.yul\":1322:1329   */\n      dup6\n        /* \"#utility.yul\":1318:1341   */\n      sub\n        /* \"#utility.yul\":1314:1346   */\n      slt\n        /* \"#utility.yul\":1311:1313   */\n      iszero\n      tag_167\n      jumpi\n        /* \"#utility.yul\":1359:1360   */\n      0x00\n        /* \"#utility.yul\":1356:1357   */\n      dup1\n        /* \"#utility.yul\":1349:1361   */\n      revert\n        /* \"#utility.yul\":1311:1313   */\n    tag_167:\n        /* \"#utility.yul\":1430:1431   */\n      0x00\n        /* \"#utility.yul\":1419:1428   */\n      dup4\n        /* \"#utility.yul\":1415:1432   */\n      add\n        /* \"#utility.yul\":1402:1433   */\n      calldataload\n        /* \"#utility.yul\":1460:1478   */\n      0xffffffffffffffff\n        /* \"#utility.yul\":1452:1458   */\n      dup2\n        /* \"#utility.yul\":1449:1479   */\n      gt\n        /* \"#utility.yul\":1446:1448   */\n      iszero\n      tag_168\n      jumpi\n        /* \"#utility.yul\":1492:1493   */\n      0x00\n        /* \"#utility.yul\":1489:1490   */\n      dup1\n        /* \"#utility.yul\":1482:1494   */\n      revert\n        /* \"#utility.yul\":1446:1448   */\n    tag_168:\n        /* \"#utility.yul\":1520:1583   */\n      tag_169\n        /* \"#utility.yul\":1575:1582   */\n      dup6\n        /* \"#utility.yul\":1566:1572   */\n      dup3\n        /* \"#utility.yul\":1555:1564   */\n      dup7\n        /* \"#utility.yul\":1551:1573   */\n      add\n        /* \"#utility.yul\":1520:1583   */\n      tag_155\n      jump\t// in\n    tag_169:\n        /* \"#utility.yul\":1510:1583   */\n      swap3\n      pop\n        /* \"#utility.yul\":1373:1593   */\n      pop\n        /* \"#utility.yul\":1632:1634   */\n      0x20\n        /* \"#utility.yul\":1658:1711   */\n      tag_170\n        /* \"#utility.yul\":1703:1710   */\n      dup6\n        /* \"#utility.yul\":1694:1700   */\n      dup3\n        /* \"#utility.yul\":1683:1692   */\n      dup7\n        /* \"#utility.yul\":1679:1701   */\n      add\n        /* \"#utility.yul\":1658:1711   */\n      tag_151\n      jump\t// in\n    tag_170:\n        /* \"#utility.yul\":1648:1711   */\n      swap2\n      pop\n        /* \"#utility.yul\":1603:1721   */\n      pop\n        /* \"#utility.yul\":1301:1728   */\n      swap3\n      pop\n      swap3\n      swap1\n      pop\n      jump\t// out\n        /* \"#utility.yul\":1734:1996   */\n    tag_17:\n      0x00\n        /* \"#utility.yul\":1842:1844   */\n      0x20\n        /* \"#utility.yul\":1830:1839   */\n      dup3\n        /* \"#utility.yul\":1821:1828   */\n      dup5\n        /* \"#utility.yul\":1817:1840   */\n      sub\n        /* \"#utility.yul\":1813:1845   */\n      slt\n        /* \"#utility.yul\":1810:1812   */\n      iszero\n      tag_172\n      jumpi\n        /* \"#utility.yul\":1858:1859   */\n      0x00\n        /* \"#utility.yul\":1855:1856   */\n      dup1\n        /* \"#utility.yul\":1848:1860   */\n      revert\n        /* \"#utility.yul\":1810:1812   */\n    tag_172:\n        /* \"#utility.yul\":1901:1902   */\n      0x00\n        /* \"#utility.yul\":1926:1979   */\n      tag_173\n        /* \"#utility.yul\":1971:1978   */\n      dup5\n        /* \"#utility.yul\":1962:1968   */\n      dup3\n        /* \"#utility.yul\":1951:1960   */\n      dup6\n        /* \"#utility.yul\":1947:1969   */\n      add\n        /* \"#utility.yul\":1926:1979   */\n      tag_159\n      jump\t// in\n    tag_173:\n        /* \"#utility.yul\":1916:1979   */\n      swap2\n      pop\n        /* \"#utility.yul\":1872:1989   */\n      pop\n        /* \"#utility.yul\":1800:1996   */\n      swap3\n      swap2\n      pop\n      pop\n      jump\t// out\n        /* \"#utility.yul\":2002:2169   */\n    tag_174:\n      0x00\n        /* \"#utility.yul\":2086:2126   */\n      tag_176\n        /* \"#utility.yul\":2122:2125   */\n      dup4\n        /* \"#utility.yul\":2114:2120   */\n      dup4\n        /* \"#utility.yul\":2086:2126   */\n      tag_177\n      jump\t// in\n    tag_176:\n        /* \"#utility.yul\":2158:2162   */\n      0x20\n        /* \"#utility.yul\":2153:2156   */\n      dup4\n        /* \"#utility.yul\":2149:2163   */\n      add\n        /* \"#utility.yul\":2135:2163   */\n      swap1\n      pop\n        /* \"#utility.yul\":2076:2169   */\n      swap3\n      swap2\n      pop\n      pop\n      jump\t// out\n        /* \"#utility.yul\":2175:2293   */\n    tag_178:\n        /* \"#utility.yul\":2262:2286   */\n      tag_180\n        /* \"#utility.yul\":2280:2285   */\n      dup2\n        /* \"#utility.yul\":2262:2286   */\n      tag_181\n      jump\t// in\n    tag_180:\n        /* \"#utility.yul\":2257:2260   */\n      dup3\n        /* \"#utility.yul\":2250:2287   */\n      mstore\n        /* \"#utility.yul\":2240:2293   */\n      pop\n      pop\n      jump\t// out\n        /* \"#utility.yul\":2323:3031   */\n    tag_182:\n      0x00\n        /* \"#utility.yul\":2465:2516   */\n      tag_184\n        /* \"#utility.yul\":2510:2515   */\n      dup3\n        /* \"#utility.yul\":2465:2516   */\n      tag_185\n      jump\t// in\n    tag_184:\n        /* \"#utility.yul\":2532:2615   */\n      tag_186\n        /* \"#utility.yul\":2608:2614   */\n      dup2\n        /* \"#utility.yul\":2603:2606   */\n      dup6\n        /* \"#utility.yul\":2532:2615   */\n      tag_187\n      jump\t// in\n    tag_186:\n        /* \"#utility.yul\":2525:2615   */\n      swap4\n      pop\n        /* \"#utility.yul\":2639:2692   */\n      tag_188\n        /* \"#utility.yul\":2686:2691   */\n      dup4\n        /* \"#utility.yul\":2639:2692   */\n      tag_189\n      jump\t// in\n    tag_188:\n        /* \"#utility.yul\":2715:2722   */\n      dup1\n        /* \"#utility.yul\":2746:2747   */\n      0x00\n        /* \"#utility.yul\":2731:3006   */\n    tag_190:\n        /* \"#utility.yul\":2756:2762   */\n      dup4\n        /* \"#utility.yul\":2753:2754   */\n      dup2\n        /* \"#utility.yul\":2750:2763   */\n      lt\n        /* \"#utility.yul\":2731:3006   */\n      iszero\n      tag_192\n      jumpi\n        /* \"#utility.yul\":2832:2838   */\n      dup2\n        /* \"#utility.yul\":2826:2839   */\n      mload\n        /* \"#utility.yul\":2859:2916   */\n      tag_193\n        /* \"#utility.yul\":2912:2915   */\n      dup9\n        /* \"#utility.yul\":2897:2910   */\n      dup3\n        /* \"#utility.yul\":2859:2916   */\n      tag_174\n      jump\t// in\n    tag_193:\n        /* \"#utility.yul\":2852:2916   */\n      swap8\n      pop\n        /* \"#utility.yul\":2939:2996   */\n      tag_194\n        /* \"#utility.yul\":2989:2995   */\n      dup4\n        /* \"#utility.yul\":2939:2996   */\n      tag_195\n      jump\t// in\n    tag_194:\n        /* \"#utility.yul\":2929:2996   */\n      swap3\n      pop\n        /* \"#utility.yul\":2791:3006   */\n      pop\n        /* \"#utility.yul\":2778:2779   */\n      0x01\n        /* \"#utility.yul\":2775:2776   */\n      dup2\n        /* \"#utility.yul\":2771:2780   */\n      add\n        /* \"#utility.yul\":2766:2780   */\n      swap1\n      pop\n        /* \"#utility.yul\":2731:3006   */\n      jump(tag_190)\n    tag_192:\n        /* \"#utility.yul\":2735:2749   */\n      pop\n        /* \"#utility.yul\":3022:3025   */\n      dup6\n        /* \"#utility.yul\":3015:3025   */\n      swap4\n      pop\n        /* \"#utility.yul\":2441:3031   */\n      pop\n      pop\n      pop\n      swap3\n      swap2\n      pop\n      pop\n      jump\t// out\n        /* \"#utility.yul\":3037:3136   */\n    tag_177:\n        /* \"#utility.yul\":3108:3129   */\n      tag_197\n        /* \"#utility.yul\":3123:3128   */\n      dup2\n        /* \"#utility.yul\":3108:3129   */\n      tag_198\n      jump\t// in\n    tag_197:\n        /* \"#utility.yul\":3103:3106   */\n      dup3\n        /* \"#utility.yul\":3096:3130   */\n      mstore\n        /* \"#utility.yul\":3086:3136   */\n      pop\n      pop\n      jump\t// out\n        /* \"#utility.yul\":3142:3251   */\n    tag_199:\n        /* \"#utility.yul\":3223:3244   */\n      tag_201\n        /* \"#utility.yul\":3238:3243   */\n      dup2\n        /* \"#utility.yul\":3223:3244   */\n      tag_198\n      jump\t// in\n    tag_201:\n        /* \"#utility.yul\":3218:3221   */\n      dup3\n        /* \"#utility.yul\":3211:3245   */\n      mstore\n        /* \"#utility.yul\":3201:3251   */\n      pop\n      pop\n      jump\t// out\n        /* \"#utility.yul\":3257:3621   */\n    tag_202:\n      0x00\n        /* \"#utility.yul\":3373:3412   */\n      tag_204\n        /* \"#utility.yul\":3406:3411   */\n      dup3\n        /* \"#utility.yul\":3373:3412   */\n      tag_205\n      jump\t// in\n    tag_204:\n        /* \"#utility.yul\":3428:3499   */\n      tag_206\n        /* \"#utility.yul\":3492:3498   */\n      dup2\n        /* \"#utility.yul\":3487:3490   */\n      dup6\n        /* \"#utility.yul\":3428:3499   */\n      tag_207\n      jump\t// in\n    tag_206:\n        /* \"#utility.yul\":3421:3499   */\n      swap4\n      pop\n        /* \"#utility.yul\":3508:3560   */\n      tag_208\n        /* \"#utility.yul\":3553:3559   */\n      dup2\n        /* \"#utility.yul\":3548:3551   */\n      dup6\n        /* \"#utility.yul\":3541:3545   */\n      0x20\n        /* \"#utility.yul\":3534:3539   */\n      dup7\n        /* \"#utility.yul\":3530:3546   */\n      add\n        /* \"#utility.yul\":3508:3560   */\n      tag_209\n      jump\t// in\n    tag_208:\n        /* \"#utility.yul\":3585:3614   */\n      tag_210\n        /* \"#utility.yul\":3607:3613   */\n      dup2\n        /* \"#utility.yul\":3585:3614   */\n      tag_211\n      jump\t// in\n    tag_210:\n        /* \"#utility.yul\":3580:3583   */\n      dup5\n        /* \"#utility.yul\":3576:3615   */\n      add\n        /* \"#utility.yul\":3569:3615   */\n      swap2\n      pop\n        /* \"#utility.yul\":3349:3621   */\n      pop\n      swap3\n      swap2\n      pop\n      pop\n      jump\t// out\n        /* \"#utility.yul\":3627:3945   */\n    tag_212:\n      0x00\n        /* \"#utility.yul\":3790:3857   */\n      tag_214\n        /* \"#utility.yul\":3854:3856   */\n      0x14\n        /* \"#utility.yul\":3849:3852   */\n      dup4\n        /* \"#utility.yul\":3790:3857   */\n      tag_207\n      jump\t// in\n    tag_214:\n        /* \"#utility.yul\":3783:3857   */\n      swap2\n      pop\n        /* \"#utility.yul\":3887:3909   */\n      0x496e76616c69642063616e646964617465204944000000000000000000000000\n        /* \"#utility.yul\":3883:3884   */\n      0x00\n        /* \"#utility.yul\":3878:3881   */\n      dup4\n        /* \"#utility.yul\":3874:3885   */\n      add\n        /* \"#utility.yul\":3867:3910   */\n      mstore\n        /* \"#utility.yul\":3936:3938   */\n      0x20\n        /* \"#utility.yul\":3931:3934   */\n      dup3\n        /* \"#utility.yul\":3927:3939   */\n      add\n        /* \"#utility.yul\":3920:3939   */\n      swap1\n      pop\n        /* \"#utility.yul\":3773:3945   */\n      swap2\n      swap1\n      pop\n      jump\t// out\n        /* \"#utility.yul\":3951:4316   */\n    tag_215:\n      0x00\n        /* \"#utility.yul\":4114:4181   */\n      tag_217\n        /* \"#utility.yul\":4178:4180   */\n      0x21\n        /* \"#utility.yul\":4173:4176   */\n      dup4\n        /* \"#utility.yul\":4114:4181   */\n      tag_207\n      jump\t// in\n    tag_217:\n        /* \"#utility.yul\":4107:4181   */\n      swap2\n      pop\n        /* \"#utility.yul\":4211:4245   */\n      0x4f6e6c792061646d696e2063616e2063616c6c20746869732066756e6374696f\n        /* \"#utility.yul\":4207:4208   */\n      0x00\n        /* \"#utility.yul\":4202:4205   */\n      dup4\n        /* \"#utility.yul\":4198:4209   */\n      add\n        /* \"#utility.yul\":4191:4246   */\n      mstore\n        /* \"#utility.yul\":4277:4280   */\n      0x6e00000000000000000000000000000000000000000000000000000000000000\n        /* \"#utility.yul\":4272:4274   */\n      0x20\n        /* \"#utility.yul\":4267:4270   */\n      dup4\n        /* \"#utility.yul\":4263:4275   */\n      add\n        /* \"#utility.yul\":4256:4281   */\n      mstore\n        /* \"#utility.yul\":4307:4309   */\n      0x40\n        /* \"#utility.yul\":4302:4305   */\n      dup3\n        /* \"#utility.yul\":4298:4310   */\n      add\n        /* \"#utility.yul\":4291:4310   */\n      swap1\n      pop\n        /* \"#utility.yul\":4097:4316   */\n      swap2\n      swap1\n      pop\n      jump\t// out\n        /* \"#utility.yul\":4322:4440   */\n    tag_218:\n        /* \"#utility.yul\":4409:4433   */\n      tag_220\n        /* \"#utility.yul\":4427:4432   */\n      dup2\n        /* \"#utility.yul\":4409:4433   */\n      tag_221\n      jump\t// in\n    tag_220:\n        /* \"#utility.yul\":4404:4407   */\n      dup3\n        /* \"#utility.yul\":4397:4434   */\n      mstore\n        /* \"#utility.yul\":4387:4440   */\n      pop\n      pop\n      jump\t// out\n        /* \"#utility.yul\":4446:4668   */\n    tag_59:\n      0x00\n        /* \"#utility.yul\":4577:4579   */\n      0x20\n        /* \"#utility.yul\":4566:4575   */\n      dup3\n        /* \"#utility.yul\":4562:4580   */\n      add\n        /* \"#utility.yul\":4554:4580   */\n      swap1\n      pop\n        /* \"#utility.yul\":4590:4661   */\n      tag_223\n        /* \"#utility.yul\":4658:4659   */\n      0x00\n        /* \"#utility.yul\":4647:4656   */\n      dup4\n        /* \"#utility.yul\":4643:4660   */\n      add\n        /* \"#utility.yul\":4634:4640   */\n      dup5\n        /* \"#utility.yul\":4590:4661   */\n      tag_178\n      jump\t// in\n    tag_223:\n        /* \"#utility.yul\":4544:4668   */\n      swap3\n      swap2\n      pop\n      pop\n      jump\t// out\n        /* \"#utility.yul\":4674:5035   */\n    tag_55:\n      0x00\n        /* \"#utility.yul\":4849:4851   */\n      0x20\n        /* \"#utility.yul\":4838:4847   */\n      dup3\n        /* \"#utility.yul\":4834:4852   */\n      add\n        /* \"#utility.yul\":4826:4852   */\n      swap1\n      pop\n        /* \"#utility.yul\":4898:4907   */\n      dup2\n        /* \"#utility.yul\":4892:4896   */\n      dup2\n        /* \"#utility.yul\":4888:4908   */\n      sub\n        /* \"#utility.yul\":4884:4885   */\n      0x00\n        /* \"#utility.yul\":4873:4882   */\n      dup4\n        /* \"#utility.yul\":4869:4886   */\n      add\n        /* \"#utility.yul\":4862:4909   */\n      mstore\n        /* \"#utility.yul\":4926:5028   */\n      tag_225\n        /* \"#utility.yul\":5023:5027   */\n      dup2\n        /* \"#utility.yul\":5014:5020   */\n      dup5\n        /* \"#utility.yul\":4926:5028   */\n      tag_182\n      jump\t// in\n    tag_225:\n        /* \"#utility.yul\":4918:5028   */\n      swap1\n      pop\n        /* \"#utility.yul\":4816:5035   */\n      swap3\n      swap2\n      pop\n      pop\n      jump\t// out\n        /* \"#utility.yul\":5041:5251   */\n    tag_47:\n      0x00\n        /* \"#utility.yul\":5166:5168   */\n      0x20\n        /* \"#utility.yul\":5155:5164   */\n      dup3\n        /* \"#utility.yul\":5151:5169   */\n      add\n        /* \"#utility.yul\":5143:5169   */\n      swap1\n      pop\n        /* \"#utility.yul\":5179:5244   */\n      tag_227\n        /* \"#utility.yul\":5241:5242   */\n      0x00\n        /* \"#utility.yul\":5230:5239   */\n      dup4\n        /* \"#utility.yul\":5226:5243   */\n      add\n        /* \"#utility.yul\":5217:5223   */\n      dup5\n        /* \"#utility.yul\":5179:5244   */\n      tag_199\n      jump\t// in\n    tag_227:\n        /* \"#utility.yul\":5133:5251   */\n      swap3\n      swap2\n      pop\n      pop\n      jump\t// out\n        /* \"#utility.yul\":5257:5680   */\n    tag_111:\n      0x00\n        /* \"#utility.yul\":5436:5438   */\n      0x40\n        /* \"#utility.yul\":5425:5434   */\n      dup3\n        /* \"#utility.yul\":5421:5439   */\n      add\n        /* \"#utility.yul\":5413:5439   */\n      swap1\n      pop\n        /* \"#utility.yul\":5485:5494   */\n      dup2\n        /* \"#utility.yul\":5479:5483   */\n      dup2\n        /* \"#utility.yul\":5475:5495   */\n      sub\n        /* \"#utility.yul\":5471:5472   */\n      0x00\n        /* \"#utility.yul\":5460:5469   */\n      dup4\n        /* \"#utility.yul\":5456:5473   */\n      add\n        /* \"#utility.yul\":5449:5496   */\n      mstore\n        /* \"#utility.yul\":5513:5591   */\n      tag_229\n        /* \"#utility.yul\":5586:5590   */\n      dup2\n        /* \"#utility.yul\":5577:5583   */\n      dup6\n        /* \"#utility.yul\":5513:5591   */\n      tag_202\n      jump\t// in\n    tag_229:\n        /* \"#utility.yul\":5505:5591   */\n      swap1\n      pop\n        /* \"#utility.yul\":5601:5673   */\n      tag_230\n        /* \"#utility.yul\":5669:5671   */\n      0x20\n        /* \"#utility.yul\":5658:5667   */\n      dup4\n        /* \"#utility.yul\":5654:5672   */\n      add\n        /* \"#utility.yul\":5645:5651   */\n      dup5\n        /* \"#utility.yul\":5601:5673   */\n      tag_178\n      jump\t// in\n    tag_230:\n        /* \"#utility.yul\":5403:5680   */\n      swap4\n      swap3\n      pop\n      pop\n      pop\n      jump\t// out\n        /* \"#utility.yul\":5686:6105   */\n    tag_68:\n      0x00\n        /* \"#utility.yul\":5890:5892   */\n      0x20\n        /* \"#utility.yul\":5879:5888   */\n      dup3\n        /* \"#utility.yul\":5875:5893   */\n      add\n        /* \"#utility.yul\":5867:5893   */\n      swap1\n      pop\n        /* \"#utility.yul\":5939:5948   */\n      dup2\n        /* \"#utility.yul\":5933:5937   */\n      dup2\n        /* \"#utility.yul\":5929:5949   */\n      sub\n        /* \"#utility.yul\":5925:5926   */\n      0x00\n        /* \"#utility.yul\":5914:5923   */\n      dup4\n        /* \"#utility.yul\":5910:5927   */\n      add\n        /* \"#utility.yul\":5903:5950   */\n      mstore\n        /* \"#utility.yul\":5967:6098   */\n      tag_232\n        /* \"#utility.yul\":6093:6097   */\n      dup2\n        /* \"#utility.yul\":5967:6098   */\n      tag_212\n      jump\t// in\n    tag_232:\n        /* \"#utility.yul\":5959:6098   */\n      swap1\n      pop\n        /* \"#utility.yul\":5857:6105   */\n      swap2\n      swap1\n      pop\n      jump\t// out\n        /* \"#utility.yul\":6111:6530   */\n    tag_63:\n      0x00\n        /* \"#utility.yul\":6315:6317   */\n      0x20\n        /* \"#utility.yul\":6304:6313   */\n      dup3\n        /* \"#utility.yul\":6300:6318   */\n      add\n        /* \"#utility.yul\":6292:6318   */\n      swap1\n      pop\n        /* \"#utility.yul\":6364:6373   */\n      dup2\n        /* \"#utility.yul\":6358:6362   */\n      dup2\n        /* \"#utility.yul\":6354:6374   */\n      sub\n        /* \"#utility.yul\":6350:6351   */\n      0x00\n        /* \"#utility.yul\":6339:6348   */\n      dup4\n        /* \"#utility.yul\":6335:6352   */\n      add\n        /* \"#utility.yul\":6328:6375   */\n      mstore\n        /* \"#utility.yul\":6392:6523   */\n      tag_234\n        /* \"#utility.yul\":6518:6522   */\n      dup2\n        /* \"#utility.yul\":6392:6523   */\n      tag_215\n      jump\t// in\n    tag_234:\n        /* \"#utility.yul\":6384:6523   */\n      swap1\n      pop\n        /* \"#utility.yul\":6282:6530   */\n      swap2\n      swap1\n      pop\n      jump\t// out\n        /* \"#utility.yul\":6536:6758   */\n    tag_22:\n      0x00\n        /* \"#utility.yul\":6667:6669   */\n      0x20\n        /* \"#utility.yul\":6656:6665   */\n      dup3\n        /* \"#utility.yul\":6652:6670   */\n      add\n        /* \"#utility.yul\":6644:6670   */\n      swap1\n      pop\n        /* \"#utility.yul\":6680:6751   */\n      tag_236\n        /* \"#utility.yul\":6748:6749   */\n      0x00\n        /* \"#utility.yul\":6737:6746   */\n      dup4\n        /* \"#utility.yul\":6733:6750   */\n      add\n        /* \"#utility.yul\":6724:6730   */\n      dup5\n        /* \"#utility.yul\":6680:6751   */\n      tag_218\n      jump\t// in\n    tag_236:\n        /* \"#utility.yul\":6634:6758   */\n      swap3\n      swap2\n      pop\n      pop\n      jump\t// out\n        /* \"#utility.yul\":6764:7297   */\n    tag_27:\n      0x00\n        /* \"#utility.yul\":6971:6973   */\n      0x60\n        /* \"#utility.yul\":6960:6969   */\n      dup3\n        /* \"#utility.yul\":6956:6974   */\n      add\n        /* \"#utility.yul\":6948:6974   */\n      swap1\n      pop\n        /* \"#utility.yul\":6984:7055   */\n      tag_238\n        /* \"#utility.yul\":7052:7053   */\n      0x00\n        /* \"#utility.yul\":7041:7050   */\n      dup4\n        /* \"#utility.yul\":7037:7054   */\n      add\n        /* \"#utility.yul\":7028:7034   */\n      dup7\n        /* \"#utility.yul\":6984:7055   */\n      tag_218\n      jump\t// in\n    tag_238:\n        /* \"#utility.yul\":7102:7111   */\n      dup2\n        /* \"#utility.yul\":7096:7100   */\n      dup2\n        /* \"#utility.yul\":7092:7112   */\n      sub\n        /* \"#utility.yul\":7087:7089   */\n      0x20\n        /* \"#utility.yul\":7076:7085   */\n      dup4\n        /* \"#utility.yul\":7072:7090   */\n      add\n        /* \"#utility.yul\":7065:7113   */\n      mstore\n        /* \"#utility.yul\":7130:7208   */\n      tag_239\n        /* \"#utility.yul\":7203:7207   */\n      dup2\n        /* \"#utility.yul\":7194:7200   */\n      dup6\n        /* \"#utility.yul\":7130:7208   */\n      tag_202\n      jump\t// in\n    tag_239:\n        /* \"#utility.yul\":7122:7208   */\n      swap1\n      pop\n        /* \"#utility.yul\":7218:7290   */\n      tag_240\n        /* \"#utility.yul\":7286:7288   */\n      0x40\n        /* \"#utility.yul\":7275:7284   */\n      dup4\n        /* \"#utility.yul\":7271:7289   */\n      add\n        /* \"#utility.yul\":7262:7268   */\n      dup5\n        /* \"#utility.yul\":7218:7290   */\n      tag_178\n      jump\t// in\n    tag_240:\n        /* \"#utility.yul\":6938:7297   */\n      swap5\n      swap4\n      pop\n      pop\n      pop\n      pop\n      jump\t// out\n        /* \"#utility.yul\":7303:7586   */\n    tag_147:\n      0x00\n        /* \"#utility.yul\":7369:7371   */\n      0x40\n        /* \"#utility.yul\":7363:7372   */\n      mload\n        /* \"#utility.yul\":7353:7372   */\n      swap1\n      pop\n        /* \"#utility.yul\":7411:7415   */\n      dup2\n        /* \"#utility.yul\":7403:7409   */\n      dup2\n        /* \"#utility.yul\":7399:7416   */\n      add\n        /* \"#utility.yul\":7518:7524   */\n      dup2\n        /* \"#utility.yul\":7506:7516   */\n      dup2\n        /* \"#utility.yul\":7503:7525   */\n      lt\n        /* \"#utility.yul\":7482:7500   */\n      0xffffffffffffffff\n        /* \"#utility.yul\":7470:7480   */\n      dup3\n        /* \"#utility.yul\":7467:7501   */\n      gt\n        /* \"#utility.yul\":7464:7526   */\n      or\n        /* \"#utility.yul\":7461:7463   */\n      iszero\n      tag_242\n      jumpi\n        /* \"#utility.yul\":7529:7547   */\n      tag_243\n      tag_244\n      jump\t// in\n    tag_243:\n        /* \"#utility.yul\":7461:7463   */\n    tag_242:\n        /* \"#utility.yul\":7569:7579   */\n      dup1\n        /* \"#utility.yul\":7565:7567   */\n      0x40\n        /* \"#utility.yul\":7558:7580   */\n      mstore\n        /* \"#utility.yul\":7343:7586   */\n      pop\n      swap2\n      swap1\n      pop\n      jump\t// out\n        /* \"#utility.yul\":7592:7924   */\n    tag_146:\n      0x00\n        /* \"#utility.yul\":7744:7762   */\n      0xffffffffffffffff\n        /* \"#utility.yul\":7736:7742   */\n      dup3\n        /* \"#utility.yul\":7733:7763   */\n      gt\n        /* \"#utility.yul\":7730:7732   */\n      iszero\n      tag_246\n      jumpi\n        /* \"#utility.yul\":7766:7784   */\n      tag_247\n      tag_244\n      jump\t// in\n    tag_247:\n        /* \"#utility.yul\":7730:7732   */\n    tag_246:\n        /* \"#utility.yul\":7851:7855   */\n      0x1f\n        /* \"#utility.yul\":7847:7856   */\n      not\n        /* \"#utility.yul\":7840:7844   */\n      0x1f\n        /* \"#utility.yul\":7832:7838   */\n      dup4\n        /* \"#utility.yul\":7828:7845   */\n      add\n        /* \"#utility.yul\":7824:7857   */\n      and\n        /* \"#utility.yul\":7816:7857   */\n      swap1\n      pop\n        /* \"#utility.yul\":7912:7916   */\n      0x20\n        /* \"#utility.yul\":7906:7910   */\n      dup2\n        /* \"#utility.yul\":7902:7917   */\n      add\n        /* \"#utility.yul\":7894:7917   */\n      swap1\n      pop\n        /* \"#utility.yul\":7659:7924   */\n      swap2\n      swap1\n      pop\n      jump\t// out\n        /* \"#utility.yul\":7930:8059   */\n    tag_189:\n      0x00\n        /* \"#utility.yul\":8017:8020   */\n      dup2\n        /* \"#utility.yul\":8009:8020   */\n      swap1\n      pop\n        /* \"#utility.yul\":8047:8051   */\n      0x20\n        /* \"#utility.yul\":8042:8045   */\n      dup3\n        /* \"#utility.yul\":8038:8052   */\n      add\n        /* \"#utility.yul\":8030:8052   */\n      swap1\n      pop\n        /* \"#utility.yul\":7999:8059   */\n      swap2\n      swap1\n      pop\n      jump\t// out\n        /* \"#utility.yul\":8065:8176   */\n    tag_185:\n      0x00\n        /* \"#utility.yul\":8163:8168   */\n      dup2\n        /* \"#utility.yul\":8157:8169   */\n      mload\n        /* \"#utility.yul\":8147:8169   */\n      swap1\n      pop\n        /* \"#utility.yul\":8136:8176   */\n      swap2\n      swap1\n      pop\n      jump\t// out\n        /* \"#utility.yul\":8182:8281   */\n    tag_205:\n      0x00\n        /* \"#utility.yul\":8268:8273   */\n      dup2\n        /* \"#utility.yul\":8262:8274   */\n      mload\n        /* \"#utility.yul\":8252:8274   */\n      swap1\n      pop\n        /* \"#utility.yul\":8241:8281   */\n      swap2\n      swap1\n      pop\n      jump\t// out\n        /* \"#utility.yul\":8287:8397   */\n    tag_195:\n      0x00\n        /* \"#utility.yul\":8386:8390   */\n      0x20\n        /* \"#utility.yul\":8381:8384   */\n      dup3\n        /* \"#utility.yul\":8377:8391   */\n      add\n        /* \"#utility.yul\":8369:8391   */\n      swap1\n      pop\n        /* \"#utility.yul\":8359:8397   */\n      swap2\n      swap1\n      pop\n      jump\t// out\n        /* \"#utility.yul\":8403:8584   */\n    tag_187:\n      0x00\n        /* \"#utility.yul\":8533:8539   */\n      dup3\n        /* \"#utility.yul\":8528:8531   */\n      dup3\n        /* \"#utility.yul\":8521:8540   */\n      mstore\n        /* \"#utility.yul\":8573:8577   */\n      0x20\n        /* \"#utility.yul\":8568:8571   */\n      dup3\n        /* \"#utility.yul\":8564:8578   */\n      add\n        /* \"#utility.yul\":8549:8578   */\n      swap1\n      pop\n        /* \"#utility.yul\":8511:8584   */\n      swap3\n      swap2\n      pop\n      pop\n      jump\t// out\n        /* \"#utility.yul\":8590:8759   */\n    tag_207:\n      0x00\n        /* \"#utility.yul\":8708:8714   */\n      dup3\n        /* \"#utility.yul\":8703:8706   */\n      dup3\n        /* \"#utility.yul\":8696:8715   */\n      mstore\n        /* \"#utility.yul\":8748:8752   */\n      0x20\n        /* \"#utility.yul\":8743:8746   */\n      dup3\n        /* \"#utility.yul\":8739:8753   */\n      add\n        /* \"#utility.yul\":8724:8753   */\n      swap1\n      pop\n        /* \"#utility.yul\":8686:8759   */\n      swap3\n      swap2\n      pop\n      pop\n      jump\t// out\n        /* \"#utility.yul\":8765:9070   */\n    tag_106:\n      0x00\n        /* \"#utility.yul\":8824:8844   */\n      tag_255\n        /* \"#utility.yul\":8842:8843   */\n      dup3\n        /* \"#utility.yul\":8824:8844   */\n      tag_221\n      jump\t// in\n    tag_255:\n        /* \"#utility.yul\":8819:8844   */\n      swap2\n      pop\n        /* \"#utility.yul\":8858:8878   */\n      tag_256\n        /* \"#utility.yul\":8876:8877   */\n      dup4\n        /* \"#utility.yul\":8858:8878   */\n      tag_221\n      jump\t// in\n    tag_256:\n        /* \"#utility.yul\":8853:8878   */\n      swap3\n      pop\n        /* \"#utility.yul\":9012:9013   */\n      dup3\n        /* \"#utility.yul\":8944:9010   */\n      0xffffffffffffffffffffffffffffffffffffffffffffffffffffffffffffffff\n        /* \"#utility.yul\":8940:9014   */\n      sub\n        /* \"#utility.yul\":8937:8938   */\n      dup3\n        /* \"#utility.yul\":8934:9015   */\n      gt\n        /* \"#utility.yul\":8931:8933   */\n      iszero\n      tag_257\n      jumpi\n        /* \"#utility.yul\":9018:9036   */\n      tag_258\n      tag_259\n      jump\t// in\n    tag_258:\n        /* \"#utility.yul\":8931:8933   */\n    tag_257:\n        /* \"#utility.yul\":9062:9063   */\n      dup3\n        /* \"#utility.yul\":9059:9060   */\n      dup3\n        /* \"#utility.yul\":9055:9064   */\n      add\n        /* \"#utility.yul\":9048:9064   */\n      swap1\n      pop\n        /* \"#utility.yul\":8809:9070   */\n      swap3\n      swap2\n      pop\n      pop\n      jump\t// out\n        /* \"#utility.yul\":9076:9267   */\n    tag_70:\n      0x00\n        /* \"#utility.yul\":9136:9156   */\n      tag_261\n        /* \"#utility.yul\":9154:9155   */\n      dup3\n        /* \"#utility.yul\":9136:9156   */\n      tag_221\n      jump\t// in\n    tag_261:\n        /* \"#utility.yul\":9131:9156   */\n      swap2\n      pop\n        /* \"#utility.yul\":9170:9190   */\n      tag_262\n        /* \"#utility.yul\":9188:9189   */\n      dup4\n        /* \"#utility.yul\":9170:9190   */\n      tag_221\n      jump\t// in\n    tag_262:\n        /* \"#utility.yul\":9165:9190   */\n      swap3\n      pop\n        /* \"#utility.yul\":9209:9210   */\n      dup3\n        /* \"#utility.yul\":9206:9207   */\n      dup3\n        /* \"#utility.yul\":9203:9211   */\n      lt\n        /* \"#utility.yul\":9200:9202   */\n      iszero\n      tag_263\n      jumpi\n        /* \"#utility.yul\":9214:9232   */\n      tag_264\n      tag_259\n      jump\t// in\n    tag_264:\n        /* \"#utility.yul\":9200:9202   */\n    tag_263:\n        /* \"#utility.yul\":9259:9260   */\n      dup3\n        /* \"#utility.yul\":9256:9257   */\n      dup3\n        /* \"#utility.yul\":9252:9261   */\n      sub\n        /* \"#utility.yul\":9244:9261   */\n      swap1\n      pop\n        /* \"#utility.yul\":9121:9267   */\n      swap3\n      swap2\n      pop\n      pop\n      jump\t// out\n        /* \"#utility.yul\":9273:9369   */\n    tag_181:\n      0x00\n        /* \"#utility.yul\":9339:9363   */\n      tag_266\n        /* \"#utility.yul\":9357:9362   */\n      dup3\n        /* \"#utility.yul\":9339:9363   */\n      tag_267\n      jump\t// in\n    tag_266:\n        /* \"#utility.yul\":9328:9363   */\n      swap1\n      pop\n        /* \"#utility.yul\":9318:9369   */\n      swap2\n      swap1\n      pop\n      jump\t// out\n        /* \"#utility.yul\":9375:9465   */\n    tag_198:\n      0x00\n        /* \"#utility.yul\":9452:9457   */\n      dup2\n        /* \"#utility.yul\":9445:9458   */\n      iszero\n        /* \"#utility.yul\":9438:9459   */\n      iszero\n        /* \"#utility.yul\":9427:9459   */\n      swap1\n      pop\n        /* \"#utility.yul\":9417:9465   */\n      swap2\n      swap1\n      pop\n      jump\t// out\n        /* \"#utility.yul\":9471:9597   */\n    tag_267:\n      0x00\n        /* \"#utility.yul\":9548:9590   */\n      0xffffffffffffffffffffffffffffffffffffffff\n        /* \"#utility.yul\":9541:9546   */\n      dup3\n        /* \"#utility.yul\":9537:9591   */\n      and\n        /* \"#utility.yul\":9526:9591   */\n      swap1\n      pop\n        /* \"#utility.yul\":9516:9597   */\n      swap2\n      swap1\n      pop\n      jump\t// out\n        /* \"#utility.yul\":9603:9680   */\n    tag_221:\n      0x00\n        /* \"#utility.yul\":9669:9674   */\n      dup2\n        /* \"#utility.yul\":9658:9674   */\n      swap1\n      pop\n        /* \"#utility.yul\":9648:9680   */\n      swap2\n      swap1\n      pop\n      jump\t// out\n        /* \"#utility.yul\":9686:9840   */\n    tag_150:\n        /* \"#utility.yul\":9770:9776   */\n      dup3\n        /* \"#utility.yul\":9765:9768   */\n      dup2\n        /* \"#utility.yul\":9760:9763   */\n      dup4\n        /* \"#utility.yul\":9747:9777   */\n      calldatacopy\n        /* \"#utility.yul\":9832:9833   */\n      0x00\n        /* \"#utility.yul\":9823:9829   */\n      dup4\n        /* \"#utility.yul\":9818:9821   */\n      dup4\n        /* \"#utility.yul\":9814:9830   */\n      add\n        /* \"#utility.yul\":9807:9834   */\n      mstore\n        /* \"#utility.yul\":9737:9840   */\n      pop\n      pop\n      pop\n      jump\t// out\n        /* \"#utility.yul\":9846:10153   */\n    tag_209:\n        /* \"#utility.yul\":9914:9915   */\n      0x00\n        /* \"#utility.yul\":9924:10037   */\n    tag_273:\n        /* \"#utility.yul\":9938:9944   */\n      dup4\n        /* \"#utility.yul\":9935:9936   */\n      dup2\n        /* \"#utility.yul\":9932:9945   */\n      lt\n        /* \"#utility.yul\":9924:10037   */\n      iszero\n      tag_275\n      jumpi\n        /* \"#utility.yul\":10023:10024   */\n      dup1\n        /* \"#utility.yul\":10018:10021   */\n      dup3\n        /* \"#utility.yul\":10014:10025   */\n      add\n        /* \"#utility.yul\":10008:10026   */\n      mload\n        /* \"#utility.yul\":10004:10005   */\n      dup2\n        /* \"#utility.yul\":9999:10002   */\n      dup5\n        /* \"#utility.yul\":9995:10006   */\n      add\n        /* \"#utility.yul\":9988:10027   */\n      mstore\n        /* \"#utility.yul\":9960:9962   */\n      0x20\n        /* \"#utility.yul\":9957:9958   */\n      dup2\n        /* \"#utility.yul\":9953:9963   */\n      add\n        /* \"#utility.yul\":9948:9963   */\n      swap1\n      pop\n        /* \"#utility.yul\":9924:10037   */\n      jump(tag_273)\n    tag_275:\n        /* \"#utility.yul\":10055:10061   */\n      dup4\n        /* \"#utility.yul\":10052:10053   */\n      dup2\n        /* \"#utility.yul\":10049:10062   */\n      gt\n        /* \"#utility.yul\":10046:10048   */\n      iszero\n      tag_276\n      jumpi\n        /* \"#utility.yul\":10135:10136   */\n      0x00\n        /* \"#utility.yul\":10126:10132   */\n      dup5\n        /* \"#utility.yul\":10121:10124   */\n      dup5\n        /* \"#utility.yul\":10117:10133   */\n      add\n        /* \"#utility.yul\":10110:10137   */\n      mstore\n        /* \"#utility.yul\":10046:10048   */\n    tag_276:\n        /* \"#utility.yul\":9895:10153   */\n      pop\n      pop\n      pop\n      pop\n      jump\t// out\n        /* \"#utility.yul\":10159:10479   */\n    tag_79:\n      0x00\n        /* \"#utility.yul\":10240:10241   */\n      0x02\n        /* \"#utility.yul\":10234:10238   */\n      dup3\n        /* \"#utility.yul\":10230:10242   */\n      div\n        /* \"#utility.yul\":10220:10242   */\n      swap1\n      pop\n        /* \"#utility.yul\":10287:10288   */\n      0x01\n        /* \"#utility.yul\":10281:10285   */\n      dup3\n        /* \"#utility.yul\":10277:10289   */\n      and\n        /* \"#utility.yul\":10308:10326   */\n      dup1\n        /* \"#utility.yul\":10298:10300   */\n      tag_278\n      jumpi\n        /* \"#utility.yul\":10364:10368   */\n      0x7f\n        /* \"#utility.yul\":10356:10362   */\n      dup3\n        /* \"#utility.yul\":10352:10369   */\n      and\n        /* \"#utility.yul\":10342:10369   */\n      swap2\n      pop\n        /* \"#utility.yul\":10298:10300   */\n    tag_278:\n        /* \"#utility.yul\":10426:10428   */\n      0x20\n        /* \"#utility.yul\":10418:10424   */\n      dup3\n        /* \"#utility.yul\":10415:10429   */\n      lt\n        /* \"#utility.yul\":10395:10413   */\n      dup2\n        /* \"#utility.yul\":10392:10430   */\n      eq\n        /* \"#utility.yul\":10389:10391   */\n      iszero\n      tag_279\n      jumpi\n        /* \"#utility.yul\":10445:10463   */\n      tag_280\n      tag_281\n      jump\t// in\n    tag_280:\n        /* \"#utility.yul\":10389:10391   */\n    tag_279:\n        /* \"#utility.yul\":10210:10479   */\n      pop\n      swap2\n      swap1\n      pop\n      jump\t// out\n        /* \"#utility.yul\":10485:10718   */\n    tag_126:\n      0x00\n        /* \"#utility.yul\":10547:10571   */\n      tag_283\n        /* \"#utility.yul\":10565:10570   */\n      dup3\n        /* \"#utility.yul\":10547:10571   */\n      tag_221\n      jump\t// in\n    tag_283:\n        /* \"#utility.yul\":10538:10571   */\n      swap2\n      pop\n        /* \"#utility.yul\":10593:10659   */\n      0xffffffffffffffffffffffffffffffffffffffffffffffffffffffffffffffff\n        /* \"#utility.yul\":10586:10591   */\n      dup3\n        /* \"#utility.yul\":10583:10660   */\n      eq\n        /* \"#utility.yul\":10580:10582   */\n      iszero\n      tag_284\n      jumpi\n        /* \"#utility.yul\":10663:10681   */\n      tag_285\n      tag_259\n      jump\t// in\n    tag_285:\n        /* \"#utility.yul\":10580:10582   */\n    tag_284:\n        /* \"#utility.yul\":10710:10711   */\n      0x01\n        /* \"#utility.yul\":10703:10708   */\n      dup3\n        /* \"#utility.yul\":10699:10712   */\n      add\n        /* \"#utility.yul\":10692:10712   */\n      swap1\n      pop\n        /* \"#utility.yul\":10528:10718   */\n      swap2\n      swap1\n      pop\n      jump\t// out\n        /* \"#utility.yul\":10724:10904   */\n    tag_259:\n        /* \"#utility.yul\":10772:10849   */\n      0x4e487b7100000000000000000000000000000000000000000000000000000000\n        /* \"#utility.yul\":10769:10770   */\n      0x00\n        /* \"#utility.yul\":10762:10850   */\n      mstore\n        /* \"#utility.yul\":10869:10873   */\n      0x11\n        /* \"#utility.yul\":10866:10867   */\n      0x04\n        /* \"#utility.yul\":10859:10874   */\n      mstore\n        /* \"#utility.yul\":10893:10897   */\n      0x24\n        /* \"#utility.yul\":10890:10891   */\n      0x00\n        /* \"#utility.yul\":10883:10898   */\n      revert\n        /* \"#utility.yul\":10910:11090   */\n    tag_281:\n        /* \"#utility.yul\":10958:11035   */\n      0x4e487b7100000000000000000000000000000000000000000000000000000000\n        /* \"#utility.yul\":10955:10956   */\n      0x00\n        /* \"#utility.yul\":10948:11036   */\n      mstore\n        /* \"#utility.yul\":11055:11059   */\n      0x22\n        /* \"#utility.yul\":11052:11053   */\n      0x04\n        /* \"#utility.yul\":11045:11060   */\n      mstore\n        /* \"#utility.yul\":11079:11083   */\n      0x24\n        /* \"#utility.yul\":11076:11077   */\n      0x00\n        /* \"#utility.yul\":11069:11084   */\n      revert\n        /* \"#utility.yul\":11096:11276   */\n    tag_244:\n        /* \"#utility.yul\":11144:11221   */\n      0x4e487b7100000000000000000000000000000000000000000000000000000000\n        /* \"#utility.yul\":11141:11142   */\n      0x00\n        /* \"#utility.yul\":11134:11222   */\n      mstore\n        /* \"#utility.yul\":11241:11245   */\n      0x41\n        /* \"#utility.yul\":11238:11239   */\n      0x04\n        /* \"#utility.yul\":11231:11246   */\n      mstore\n        /* \"#utility.yul\":11265:11269   */\n      0x24\n        /* \"#utility.yul\":11262:11263   */\n      0x00\n        /* \"#utility.yul\":11255:11270   */\n      revert\n        /* \"#utility.yul\":11282:11384   */\n    tag_211:\n      0x00\n        /* \"#utility.yul\":11374:11376   */\n      0x1f\n        /* \"#utility.yul\":11370:11377   */\n      not\n        /* \"#utility.yul\":11365:11367   */\n      0x1f\n        /* \"#utility.yul\":11358:11363   */\n      dup4\n        /* \"#utility.yul\":11354:11368   */\n      add\n        /* \"#utility.yul\":11350:11378   */\n      and\n        /* \"#utility.yul\":11340:11378   */\n      swap1\n      pop\n        /* \"#utility.yul\":11330:11384   */\n      swap2\n      swap1\n      pop\n      jump\t// out\n        /* \"#utility.yul\":11390:11512   */\n    tag_154:\n        /* \"#utility.yul\":11463:11487   */\n      tag_291\n        /* \"#utility.yul\":11481:11486   */\n      dup2\n        /* \"#utility.yul\":11463:11487   */\n      tag_181\n      jump\t// in\n    tag_291:\n        /* \"#utility.yul\":11456:11461   */\n      dup2\n        /* \"#utility.yul\":11453:11488   */\n      eq\n        /* \"#utility.yul\":11443:11445   */\n      tag_292\n      jumpi\n        /* \"#utility.yul\":11502:11503   */\n      0x00\n        /* \"#utility.yul\":11499:11500   */\n      dup1\n        /* \"#utility.yul\":11492:11504   */\n      revert\n        /* \"#utility.yul\":11443:11445   */\n    tag_292:\n        /* \"#utility.yul\":11433:11512   */\n      pop\n      jump\t// out\n        /* \"#utility.yul\":11518:11640   */\n    tag_162:\n        /* \"#utility.yul\":11591:11615   */\n      tag_294\n        /* \"#utility.yul\":11609:11614   */\n      dup2\n        /* \"#utility.yul\":11591:11615   */\n      tag_221\n      jump\t// in\n    tag_294:\n        /* \"#utility.yul\":11584:11589   */\n      dup2\n        /* \"#utility.yul\":11581:11616   */\n      eq\n        /* \"#utility.yul\":11571:11573   */\n      tag_295\n      jumpi\n        /* \"#utility.yul\":11630:11631   */\n      0x00\n        /* \"#utility.yul\":11627:11628   */\n      dup1\n        /* \"#utility.yul\":11620:11632   */\n      revert\n        /* \"#utility.yul\":11571:11573   */\n    tag_295:\n        /* \"#utility.yul\":11561:11640   */\n      pop\n      jump\t// out\n\n    auxdata: 0xa26469706673582212200be16d41b9f8df093e608a9ac4be3a6932873c5c8e8d6aa71a23a260e226d8d764736f6c63430008000033\n}\n",
				"bytecode": {
					"linkReferences": {},
					"object": "608060405234801561001057600080fd5b50336000806101000a81548173ffffffffffffffffffffffffffffffffffffffff021916908373ffffffffffffffffffffffffffffffffffffffff16021790555061146b806100606000396000f3fe608060405234801561001057600080fd5b50600436106100a95760003560e01c80634a2a84c5116100715780634a2a84c5146101685780637ed1775114610184578063a3ec138d146101a0578063a7771ee3146101d0578063cdd7225314610200578063f851a4401461021e576100a9565b80631e620cd4146100ae57806330a56347146100ca5780633477ee2e146100e857806335b8e8201461011a57806338db6dd31461014c575b600080fd5b6100c860048036038101906100c39190610e49565b61023c565b005b6100d26103e3565b6040516100df91906110cb565b60405180910390f35b61010260048036038101906100fd9190610e49565b6103f0565b604051610111939291906110e6565b60405180910390f35b610134600480360381019061012f9190610e49565b6104d2565b604051610143939291906110e6565b60405180910390f35b61016660048036038101906101619190610dcc565b61069c565b005b610182600480360381019061017d9190610df5565b6107bc565b005b61019e60048036038101906101999190610dcc565b610969565b005b6101ba60048036038101906101b59190610dcc565b610a80565b6040516101c79190611040565b60405180910390f35b6101ea60048036038101906101e59190610dcc565b610aa0565b6040516101f79190611040565b60405180910390f35b610208610af6565b604051610215919061101e565b60405180910390f35b610226610c33565b6040516102339190611003565b60405180910390f35b60008054906101000a900473ffffffffffffffffffffffffffffffffffffffff1673ffffffffffffffffffffffffffffffffffffffff163373ffffffffffffffffffffffffffffffffffffffff16146102ca576040517f08c379a00000000000000000000000000000000000000000000000000000000081526004016102c1906110ab565b60405180910390fd5b6000811180156102df57506001805490508111155b61031e576040517f08c379a00000000000000000000000000000000000000000000000000000000081526004016103159061108b565b60405180910390fd5b6001808261032c9190611230565b81548110610363577f4e487b7100000000000000000000000000000000000000000000000000000000600052603260045260246000fd5b906000526020600020906003020160008082016000905560018201600061038a9190610c57565b6002820160006101000a81549073ffffffffffffffffffffffffffffffffffffffff02191690555050807f5768df5843e58ec5b2fc92eb6ef81241e9ec50a0b93fd074dec58b39efc4172060405160405180910390a250565b6000600180549050905090565b6001818154811061040057600080fd5b9060005260206000209060030201600091509050806000015490806001018054610429906112ee565b80601f0160208091040260200160405190810160405280929190818152602001828054610455906112ee565b80156104a25780601f10610477576101008083540402835291602001916104a2565b820191906000526020600020905b81548152906001019060200180831161048557829003601f168201915b5050505050908060020160009054906101000a900473ffffffffffffffffffffffffffffffffffffffff16905083565b60006060600080841180156104ec57506001805490508411155b61052b576040517f08c379a00000000000000000000000000000000000000000000000000000000081526004016105229061108b565b60405180910390fd5b60006001808661053b9190611230565b81548110610572577f4e487b7100000000000000000000000000000000000000000000000000000000600052603260045260246000fd5b9060005260206000209060030201604051806060016040529081600082015481526020016001820180546105a5906112ee565b80601f01602080910402602001604051908101604052809291908181526020018280546105d1906112ee565b801561061e5780601f106105f35761010080835404028352916020019161061e565b820191906000526020600020905b81548152906001019060200180831161060157829003601f168201915b505050505081526020016002820160009054906101000a900473ffffffffffffffffffffffffffffffffffffffff1673ffffffffffffffffffffffffffffffffffffffff1673ffffffffffffffffffffffffffffffffffffffff16815250509050806000015181602001518260400151935093509350509193909250565b60008054906101000a900473ffffffffffffffffffffffffffffffffffffffff1673ffffffffffffffffffffffffffffffffffffffff163373ffffffffffffffffffffffffffffffffffffffff161461072a576040517f08c379a0000000000000000000000000000000000000000000000000000000008152600401610721906110ab565b60405180910390fd5b6001600260008373ffffffffffffffffffffffffffffffffffffffff1673ffffffffffffffffffffffffffffffffffffffff16815260200190815260200160002060006101000a81548160ff0219169083151502179055507fb6be2187d059cc2a55fe29e0e503b566e1e0f8c8780096e185429350acffd3dd816040516107b19190611003565b60405180910390a150565b60008054906101000a900473ffffffffffffffffffffffffffffffffffffffff1673ffffffffffffffffffffffffffffffffffffffff163373ffffffffffffffffffffffffffffffffffffffff161461084a576040517f08c379a0000000000000000000000000000000000000000000000000000000008152600401610841906110ab565b60405180910390fd5b600160405180606001604052806001808054905061086891906111da565b81526020018481526020018373ffffffffffffffffffffffffffffffffffffffff1681525090806001815401808255809150506001900390600052602060002090600302016000909190919091506000820151816000015560208201518160010190805190602001906108dc929190610c97565b5060408201518160020160006101000a81548173ffffffffffffffffffffffffffffffffffffffff021916908373ffffffffffffffffffffffffffffffffffffffff16021790555050506001805490507ff119bb07245e20116d1c56128be14390dbc24c94fc13ee0a9bc023da18bab01d838360405161095d92919061105b565b60405180910390a25050565b60008054906101000a900473ffffffffffffffffffffffffffffffffffffffff1673ffffffffffffffffffffffffffffffffffffffff163373ffffffffffffffffffffffffffffffffffffffff16146109f7576040517f08c379a00000000000000000000000000000000000000000000000000000000081526004016109ee906110ab565b60405180910390fd5b600260008273ffffffffffffffffffffffffffffffffffffffff1673ffffffffffffffffffffffffffffffffffffffff16815260200190815260200160002060006101000a81549060ff02191690557f25fc2460244a2fff1d6879302ea1d6f3e684e599d76c012a22e42d5bb61cc5d781604051610a759190611003565b60405180910390a150565b60026020528060005260406000206000915054906101000a900460ff1681565b6000600260008373ffffffffffffffffffffffffffffffffffffffff1673ffffffffffffffffffffffffffffffffffffffff16815260200190815260200160002060009054906101000a900460ff169050919050565b6060600060018054905067ffffffffffffffff811115610b3f577f4e487b7100000000000000000000000000000000000000000000000000000000600052604160045260246000fd5b604051908082528060200260200182016040528015610b6d5781602001602082028036833780820191505090505b50905060005b600180549050811015610c2b57600260003373ffffffffffffffffffffffffffffffffffffffff1673ffffffffffffffffffffffffffffffffffffffff16815260200190815260200160002060009054906101000a900460ff16828281518110610c06577f4e487b7100000000000000000000000000000000000000000000000000000000600052603260045260246000fd5b6020026020010190151590811515815250508080610c2390611320565b915050610b73565b508091505090565b60008054906101000a900473ffffffffffffffffffffffffffffffffffffffff1681565b508054610c63906112ee565b6000825580601f10610c755750610c94565b601f016020900490600052602060002090810190610c939190610d1d565b5b50565b828054610ca3906112ee565b90600052602060002090601f016020900481019282610cc55760008555610d0c565b82601f10610cde57805160ff1916838001178555610d0c565b82800160010185558215610d0c579182015b82811115610d0b578251825591602001919060010190610cf0565b5b509050610d199190610d1d565b5090565b5b80821115610d36576000816000905550600101610d1e565b5090565b6000610d4d610d4884611155565b611124565b905082815260208101848484011115610d6557600080fd5b610d708482856112ac565b509392505050565b600081359050610d8781611407565b92915050565b600082601f830112610d9e57600080fd5b8135610dae848260208601610d3a565b91505092915050565b600081359050610dc68161141e565b92915050565b600060208284031215610dde57600080fd5b6000610dec84828501610d78565b91505092915050565b60008060408385031215610e0857600080fd5b600083013567ffffffffffffffff811115610e2257600080fd5b610e2e85828601610d8d565b9250506020610e3f85828601610d78565b9150509250929050565b600060208284031215610e5b57600080fd5b6000610e6984828501610db7565b91505092915050565b6000610e7e8383610ef7565b60208301905092915050565b610e9381611264565b82525050565b6000610ea482611195565b610eae81856111b8565b9350610eb983611185565b8060005b83811015610eea578151610ed18882610e72565b9750610edc836111ab565b925050600181019050610ebd565b5085935050505092915050565b610f0081611276565b82525050565b610f0f81611276565b82525050565b6000610f20826111a0565b610f2a81856111c9565b9350610f3a8185602086016112bb565b610f43816113f6565b840191505092915050565b6000610f5b6014836111c9565b91507f496e76616c69642063616e6469646174652049440000000000000000000000006000830152602082019050919050565b6000610f9b6021836111c9565b91507f4f6e6c792061646d696e2063616e2063616c6c20746869732066756e6374696f60008301527f6e000000000000000000000000000000000000000000000000000000000000006020830152604082019050919050565b610ffd816112a2565b82525050565b60006020820190506110186000830184610e8a565b92915050565b600060208201905081810360008301526110388184610e99565b905092915050565b60006020820190506110556000830184610f06565b92915050565b600060408201905081810360008301526110758185610f15565b90506110846020830184610e8a565b9392505050565b600060208201905081810360008301526110a481610f4e565b9050919050565b600060208201905081810360008301526110c481610f8e565b9050919050565b60006020820190506110e06000830184610ff4565b92915050565b60006060820190506110fb6000830186610ff4565b818103602083015261110d8185610f15565b905061111c6040830184610e8a565b949350505050565b6000604051905081810181811067ffffffffffffffff8211171561114b5761114a6113c7565b5b8060405250919050565b600067ffffffffffffffff8211156111705761116f6113c7565b5b601f19601f8301169050602081019050919050565b6000819050602082019050919050565b600081519050919050565b600081519050919050565b6000602082019050919050565b600082825260208201905092915050565b600082825260208201905092915050565b60006111e5826112a2565b91506111f0836112a2565b9250827fffffffffffffffffffffffffffffffffffffffffffffffffffffffffffffffff0382111561122557611224611369565b5b828201905092915050565b600061123b826112a2565b9150611246836112a2565b92508282101561125957611258611369565b5b828203905092915050565b600061126f82611282565b9050919050565b60008115159050919050565b600073ffffffffffffffffffffffffffffffffffffffff82169050919050565b6000819050919050565b82818337600083830152505050565b60005b838110156112d95780820151818401526020810190506112be565b838111156112e8576000848401525b50505050565b6000600282049050600182168061130657607f821691505b6020821081141561131a57611319611398565b5b50919050565b600061132b826112a2565b91507fffffffffffffffffffffffffffffffffffffffffffffffffffffffffffffffff82141561135e5761135d611369565b5b600182019050919050565b7f4e487b7100000000000000000000000000000000000000000000000000000000600052601160045260246000fd5b7f4e487b7100000000000000000000000000000000000000000000000000000000600052602260045260246000fd5b7f4e487b7100000000000000000000000000000000000000000000000000000000600052604160045260246000fd5b6000601f19601f8301169050919050565b61141081611264565b811461141b57600080fd5b50565b611427816112a2565b811461143257600080fd5b5056fea26469706673582212200be16d41b9f8df093e608a9ac4be3a6932873c5c8e8d6aa71a23a260e226d8d764736f6c63430008000033",
					"opcodes": "PUSH1 0x80 PUSH1 0x40 MSTORE CALLVALUE DUP1 ISZERO PUSH2 0x10 JUMPI PUSH1 0x0 DUP1 REVERT JUMPDEST POP CALLER PUSH1 0x0 DUP1 PUSH2 0x100 EXP DUP2 SLOAD DUP2 PUSH20 0xFFFFFFFFFFFFFFFFFFFFFFFFFFFFFFFFFFFFFFFF MUL NOT AND SWAP1 DUP4 PUSH20 0xFFFFFFFFFFFFFFFFFFFFFFFFFFFFFFFFFFFFFFFF AND MUL OR SWAP1 SSTORE POP PUSH2 0x146B DUP1 PUSH2 0x60 PUSH1 0x0 CODECOPY PUSH1 0x0 RETURN INVALID PUSH1 0x80 PUSH1 0x40 MSTORE CALLVALUE DUP1 ISZERO PUSH2 0x10 JUMPI PUSH1 0x0 DUP1 REVERT JUMPDEST POP PUSH1 0x4 CALLDATASIZE LT PUSH2 0xA9 JUMPI PUSH1 0x0 CALLDATALOAD PUSH1 0xE0 SHR DUP1 PUSH4 0x4A2A84C5 GT PUSH2 0x71 JUMPI DUP1 PUSH4 0x4A2A84C5 EQ PUSH2 0x168 JUMPI DUP1 PUSH4 0x7ED17751 EQ PUSH2 0x184 JUMPI DUP1 PUSH4 0xA3EC138D EQ PUSH2 0x1A0 JUMPI DUP1 PUSH4 0xA7771EE3 EQ PUSH2 0x1D0 JUMPI DUP1 PUSH4 0xCDD72253 EQ PUSH2 0x200 JUMPI DUP1 PUSH4 0xF851A440 EQ PUSH2 0x21E JUMPI PUSH2 0xA9 JUMP JUMPDEST DUP1 PUSH4 0x1E620CD4 EQ PUSH2 0xAE JUMPI DUP1 PUSH4 0x30A56347 EQ PUSH2 0xCA JUMPI DUP1 PUSH4 0x3477EE2E EQ PUSH2 0xE8 JUMPI DUP1 PUSH4 0x35B8E820 EQ PUSH2 0x11A JUMPI DUP1 PUSH4 0x38DB6DD3 EQ PUSH2 0x14C JUMPI JUMPDEST PUSH1 0x0 DUP1 REVERT JUMPDEST PUSH2 0xC8 PUSH1 0x4 DUP1 CALLDATASIZE SUB DUP2 ADD SWAP1 PUSH2 0xC3 SWAP2 SWAP1 PUSH2 0xE49 JUMP JUMPDEST PUSH2 0x23C JUMP JUMPDEST STOP JUMPDEST PUSH2 0xD2 PUSH2 0x3E3 JUMP JUMPDEST PUSH1 0x40 MLOAD PUSH2 0xDF SWAP2 SWAP1 PUSH2 0x10CB JUMP JUMPDEST PUSH1 0x40 MLOAD DUP1 SWAP2 SUB SWAP1 RETURN JUMPDEST PUSH2 0x102 PUSH1 0x4 DUP1 CALLDATASIZE SUB DUP2 ADD SWAP1 PUSH2 0xFD SWAP2 SWAP1 PUSH2 0xE49 JUMP JUMPDEST PUSH2 0x3F0 JUMP JUMPDEST PUSH1 0x40 MLOAD PUSH2 0x111 SWAP4 SWAP3 SWAP2 SWAP1 PUSH2 0x10E6 JUMP JUMPDEST PUSH1 0x40 MLOAD DUP1 SWAP2 SUB SWAP1 RETURN JUMPDEST PUSH2 0x134 PUSH1 0x4 DUP1 CALLDATASIZE SUB DUP2 ADD SWAP1 PUSH2 0x12F SWAP2 SWAP1 PUSH2 0xE49 JUMP JUMPDEST PUSH2 0x4D2 JUMP JUMPDEST PUSH1 0x40 MLOAD PUSH2 0x143 SWAP4 SWAP3 SWAP2 SWAP1 PUSH2 0x10E6 JUMP JUMPDEST PUSH1 0x40 MLOAD DUP1 SWAP2 SUB SWAP1 RETURN JUMPDEST PUSH2 0x166 PUSH1 0x4 DUP1 CALLDATASIZE SUB DUP2 ADD SWAP1 PUSH2 0x161 SWAP2 SWAP1 PUSH2 0xDCC JUMP JUMPDEST PUSH2 0x69C JUMP JUMPDEST STOP JUMPDEST PUSH2 0x182 PUSH1 0x4 DUP1 CALLDATASIZE SUB DUP2 ADD SWAP1 PUSH2 0x17D SWAP2 SWAP1 PUSH2 0xDF5 JUMP JUMPDEST PUSH2 0x7BC JUMP JUMPDEST STOP JUMPDEST PUSH2 0x19E PUSH1 0x4 DUP1 CALLDATASIZE SUB DUP2 ADD SWAP1 PUSH2 0x199 SWAP2 SWAP1 PUSH2 0xDCC JUMP JUMPDEST PUSH2 0x969 JUMP JUMPDEST STOP JUMPDEST PUSH2 0x1BA PUSH1 0x4 DUP1 CALLDATASIZE SUB DUP2 ADD SWAP1 PUSH2 0x1B5 SWAP2 SWAP1 PUSH2 0xDCC JUMP JUMPDEST PUSH2 0xA80 JUMP JUMPDEST PUSH1 0x40 MLOAD PUSH2 0x1C7 SWAP2 SWAP1 PUSH2 0x1040 JUMP JUMPDEST PUSH1 0x40 MLOAD DUP1 SWAP2 SUB SWAP1 RETURN JUMPDEST PUSH2 0x1EA PUSH1 0x4 DUP1 CALLDATASIZE SUB DUP2 ADD SWAP1 PUSH2 0x1E5 SWAP2 SWAP1 PUSH2 0xDCC JUMP JUMPDEST PUSH2 0xAA0 JUMP JUMPDEST PUSH1 0x40 MLOAD PUSH2 0x1F7 SWAP2 SWAP1 PUSH2 0x1040 JUMP JUMPDEST PUSH1 0x40 MLOAD DUP1 SWAP2 SUB SWAP1 RETURN JUMPDEST PUSH2 0x208 PUSH2 0xAF6 JUMP JUMPDEST PUSH1 0x40 MLOAD PUSH2 0x215 SWAP2 SWAP1 PUSH2 0x101E JUMP JUMPDEST PUSH1 0x40 MLOAD DUP1 SWAP2 SUB SWAP1 RETURN JUMPDEST PUSH2 0x226 PUSH2 0xC33 JUMP JUMPDEST PUSH1 0x40 MLOAD PUSH2 0x233 SWAP2 SWAP1 PUSH2 0x1003 JUMP JUMPDEST PUSH1 0x40 MLOAD DUP1 SWAP2 SUB SWAP1 RETURN JUMPDEST PUSH1 0x0 DUP1 SLOAD SWAP1 PUSH2 0x100 EXP SWAP1 DIV PUSH20 0xFFFFFFFFFFFFFFFFFFFFFFFFFFFFFFFFFFFFFFFF AND PUSH20 0xFFFFFFFFFFFFFFFFFFFFFFFFFFFFFFFFFFFFFFFF AND CALLER PUSH20 0xFFFFFFFFFFFFFFFFFFFFFFFFFFFFFFFFFFFFFFFF AND EQ PUSH2 0x2CA JUMPI PUSH1 0x40 MLOAD PUSH32 0x8C379A000000000000000000000000000000000000000000000000000000000 DUP2 MSTORE PUSH1 0x4 ADD PUSH2 0x2C1 SWAP1 PUSH2 0x10AB JUMP JUMPDEST PUSH1 0x40 MLOAD DUP1 SWAP2 SUB SWAP1 REVERT JUMPDEST PUSH1 0x0 DUP2 GT DUP1 ISZERO PUSH2 0x2DF JUMPI POP PUSH1 0x1 DUP1 SLOAD SWAP1 POP DUP2 GT ISZERO JUMPDEST PUSH2 0x31E JUMPI PUSH1 0x40 MLOAD PUSH32 0x8C379A000000000000000000000000000000000000000000000000000000000 DUP2 MSTORE PUSH1 0x4 ADD PUSH2 0x315 SWAP1 PUSH2 0x108B JUMP JUMPDEST PUSH1 0x40 MLOAD DUP1 SWAP2 SUB SWAP1 REVERT JUMPDEST PUSH1 0x1 DUP1 DUP3 PUSH2 0x32C SWAP2 SWAP1 PUSH2 0x1230 JUMP JUMPDEST DUP2 SLOAD DUP2 LT PUSH2 0x363 JUMPI PUSH32 0x4E487B7100000000000000000000000000000000000000000000000000000000 PUSH1 0x0 MSTORE PUSH1 0x32 PUSH1 0x4 MSTORE PUSH1 0x24 PUSH1 0x0 REVERT JUMPDEST SWAP1 PUSH1 0x0 MSTORE PUSH1 0x20 PUSH1 0x0 KECCAK256 SWAP1 PUSH1 0x3 MUL ADD PUSH1 0x0 DUP1 DUP3 ADD PUSH1 0x0 SWAP1 SSTORE PUSH1 0x1 DUP3 ADD PUSH1 0x0 PUSH2 0x38A SWAP2 SWAP1 PUSH2 0xC57 JUMP JUMPDEST PUSH1 0x2 DUP3 ADD PUSH1 0x0 PUSH2 0x100 EXP DUP2 SLOAD SWAP1 PUSH20 0xFFFFFFFFFFFFFFFFFFFFFFFFFFFFFFFFFFFFFFFF MUL NOT AND SWAP1 SSTORE POP POP DUP1 PUSH32 0x5768DF5843E58EC5B2FC92EB6EF81241E9EC50A0B93FD074DEC58B39EFC41720 PUSH1 0x40 MLOAD PUSH1 0x40 MLOAD DUP1 SWAP2 SUB SWAP1 LOG2 POP JUMP JUMPDEST PUSH1 0x0 PUSH1 0x1 DUP1 SLOAD SWAP1 POP SWAP1 POP SWAP1 JUMP JUMPDEST PUSH1 0x1 DUP2 DUP2 SLOAD DUP2 LT PUSH2 0x400 JUMPI PUSH1 0x0 DUP1 REVERT JUMPDEST SWAP1 PUSH1 0x0 MSTORE PUSH1 0x20 PUSH1 0x0 KECCAK256 SWAP1 PUSH1 0x3 MUL ADD PUSH1 0x0 SWAP2 POP SWAP1 POP DUP1 PUSH1 0x0 ADD SLOAD SWAP1 DUP1 PUSH1 0x1 ADD DUP1 SLOAD PUSH2 0x429 SWAP1 PUSH2 0x12EE JUMP JUMPDEST DUP1 PUSH1 0x1F ADD PUSH1 0x20 DUP1 SWAP2 DIV MUL PUSH1 0x20 ADD PUSH1 0x40 MLOAD SWAP1 DUP2 ADD PUSH1 0x40 MSTORE DUP1 SWAP3 SWAP2 SWAP1 DUP2 DUP2 MSTORE PUSH1 0x20 ADD DUP3 DUP1 SLOAD PUSH2 0x455 SWAP1 PUSH2 0x12EE JUMP JUMPDEST DUP1 ISZERO PUSH2 0x4A2 JUMPI DUP1 PUSH1 0x1F LT PUSH2 0x477 JUMPI PUSH2 0x100 DUP1 DUP4 SLOAD DIV MUL DUP4 MSTORE SWAP2 PUSH1 0x20 ADD SWAP2 PUSH2 0x4A2 JUMP JUMPDEST DUP3 ADD SWAP2 SWAP1 PUSH1 0x0 MSTORE PUSH1 0x20 PUSH1 0x0 KECCAK256 SWAP1 JUMPDEST DUP2 SLOAD DUP2 MSTORE SWAP1 PUSH1 0x1 ADD SWAP1 PUSH1 0x20 ADD DUP1 DUP4 GT PUSH2 0x485 JUMPI DUP3 SWAP1 SUB PUSH1 0x1F AND DUP3 ADD SWAP2 JUMPDEST POP POP POP POP POP SWAP1 DUP1 PUSH1 0x2 ADD PUSH1 0x0 SWAP1 SLOAD SWAP1 PUSH2 0x100 EXP SWAP1 DIV PUSH20 0xFFFFFFFFFFFFFFFFFFFFFFFFFFFFFFFFFFFFFFFF AND SWAP1 POP DUP4 JUMP JUMPDEST PUSH1 0x0 PUSH1 0x60 PUSH1 0x0 DUP1 DUP5 GT DUP1 ISZERO PUSH2 0x4EC JUMPI POP PUSH1 0x1 DUP1 SLOAD SWAP1 POP DUP5 GT ISZERO JUMPDEST PUSH2 0x52B JUMPI PUSH1 0x40 MLOAD PUSH32 0x8C379A000000000000000000000000000000000000000000000000000000000 DUP2 MSTORE PUSH1 0x4 ADD PUSH2 0x522 SWAP1 PUSH2 0x108B JUMP JUMPDEST PUSH1 0x40 MLOAD DUP1 SWAP2 SUB SWAP1 REVERT JUMPDEST PUSH1 0x0 PUSH1 0x1 DUP1 DUP7 PUSH2 0x53B SWAP2 SWAP1 PUSH2 0x1230 JUMP JUMPDEST DUP2 SLOAD DUP2 LT PUSH2 0x572 JUMPI PUSH32 0x4E487B7100000000000000000000000000000000000000000000000000000000 PUSH1 0x0 MSTORE PUSH1 0x32 PUSH1 0x4 MSTORE PUSH1 0x24 PUSH1 0x0 REVERT JUMPDEST SWAP1 PUSH1 0x0 MSTORE PUSH1 0x20 PUSH1 0x0 KECCAK256 SWAP1 PUSH1 0x3 MUL ADD PUSH1 0x40 MLOAD DUP1 PUSH1 0x60 ADD PUSH1 0x40 MSTORE SWAP1 DUP2 PUSH1 0x0 DUP3 ADD SLOAD DUP2 MSTORE PUSH1 0x20 ADD PUSH1 0x1 DUP3 ADD DUP1 SLOAD PUSH2 0x5A5 SWAP1 PUSH2 0x12EE JUMP JUMPDEST DUP1 PUSH1 0x1F ADD PUSH1 0x20 DUP1 SWAP2 DIV MUL PUSH1 0x20 ADD PUSH1 0x40 MLOAD SWAP1 DUP2 ADD PUSH1 0x40 MSTORE DUP1 SWAP3 SWAP2 SWAP1 DUP2 DUP2 MSTORE PUSH1 0x20 ADD DUP3 DUP1 SLOAD PUSH2 0x5D1 SWAP1 PUSH2 0x12EE JUMP JUMPDEST DUP1 ISZERO PUSH2 0x61E JUMPI DUP1 PUSH1 0x1F LT PUSH2 0x5F3 JUMPI PUSH2 0x100 DUP1 DUP4 SLOAD DIV MUL DUP4 MSTORE SWAP2 PUSH1 0x20 ADD SWAP2 PUSH2 0x61E JUMP JUMPDEST DUP3 ADD SWAP2 SWAP1 PUSH1 0x0 MSTORE PUSH1 0x20 PUSH1 0x0 KECCAK256 SWAP1 JUMPDEST DUP2 SLOAD DUP2 MSTORE SWAP1 PUSH1 0x1 ADD SWAP1 PUSH1 0x20 ADD DUP1 DUP4 GT PUSH2 0x601 JUMPI DUP3 SWAP1 SUB PUSH1 0x1F AND DUP3 ADD SWAP2 JUMPDEST POP POP POP POP POP DUP2 MSTORE PUSH1 0x20 ADD PUSH1 0x2 DUP3 ADD PUSH1 0x0 SWAP1 SLOAD SWAP1 PUSH2 0x100 EXP SWAP1 DIV PUSH20 0xFFFFFFFFFFFFFFFFFFFFFFFFFFFFFFFFFFFFFFFF AND PUSH20 0xFFFFFFFFFFFFFFFFFFFFFFFFFFFFFFFFFFFFFFFF AND PUSH20 0xFFFFFFFFFFFFFFFFFFFFFFFFFFFFFFFFFFFFFFFF AND DUP2 MSTORE POP POP SWAP1 POP DUP1 PUSH1 0x0 ADD MLOAD DUP2 PUSH1 0x20 ADD MLOAD DUP3 PUSH1 0x40 ADD MLOAD SWAP4 POP SWAP4 POP SWAP4 POP POP SWAP2 SWAP4 SWAP1 SWAP3 POP JUMP JUMPDEST PUSH1 0x0 DUP1 SLOAD SWAP1 PUSH2 0x100 EXP SWAP1 DIV PUSH20 0xFFFFFFFFFFFFFFFFFFFFFFFFFFFFFFFFFFFFFFFF AND PUSH20 0xFFFFFFFFFFFFFFFFFFFFFFFFFFFFFFFFFFFFFFFF AND CALLER PUSH20 0xFFFFFFFFFFFFFFFFFFFFFFFFFFFFFFFFFFFFFFFF AND EQ PUSH2 0x72A JUMPI PUSH1 0x40 MLOAD PUSH32 0x8C379A000000000000000000000000000000000000000000000000000000000 DUP2 MSTORE PUSH1 0x4 ADD PUSH2 0x721 SWAP1 PUSH2 0x10AB JUMP JUMPDEST PUSH1 0x40 MLOAD DUP1 SWAP2 SUB SWAP1 REVERT JUMPDEST PUSH1 0x1 PUSH1 0x2 PUSH1 0x0 DUP4 PUSH20 0xFFFFFFFFFFFFFFFFFFFFFFFFFFFFFFFFFFFFFFFF AND PUSH20 0xFFFFFFFFFFFFFFFFFFFFFFFFFFFFFFFFFFFFFFFF AND DUP2 MSTORE PUSH1 0x20 ADD SWAP1 DUP2 MSTORE PUSH1 0x20 ADD PUSH1 0x0 KECCAK256 PUSH1 0x0 PUSH2 0x100 EXP DUP2 SLOAD DUP2 PUSH1 0xFF MUL NOT AND SWAP1 DUP4 ISZERO ISZERO MUL OR SWAP1 SSTORE POP PUSH32 0xB6BE2187D059CC2A55FE29E0E503B566E1E0F8C8780096E185429350ACFFD3DD DUP2 PUSH1 0x40 MLOAD PUSH2 0x7B1 SWAP2 SWAP1 PUSH2 0x1003 JUMP JUMPDEST PUSH1 0x40 MLOAD DUP1 SWAP2 SUB SWAP1 LOG1 POP JUMP JUMPDEST PUSH1 0x0 DUP1 SLOAD SWAP1 PUSH2 0x100 EXP SWAP1 DIV PUSH20 0xFFFFFFFFFFFFFFFFFFFFFFFFFFFFFFFFFFFFFFFF AND PUSH20 0xFFFFFFFFFFFFFFFFFFFFFFFFFFFFFFFFFFFFFFFF AND CALLER PUSH20 0xFFFFFFFFFFFFFFFFFFFFFFFFFFFFFFFFFFFFFFFF AND EQ PUSH2 0x84A JUMPI PUSH1 0x40 MLOAD PUSH32 0x8C379A000000000000000000000000000000000000000000000000000000000 DUP2 MSTORE PUSH1 0x4 ADD PUSH2 0x841 SWAP1 PUSH2 0x10AB JUMP JUMPDEST PUSH1 0x40 MLOAD DUP1 SWAP2 SUB SWAP1 REVERT JUMPDEST PUSH1 0x1 PUSH1 0x40 MLOAD DUP1 PUSH1 0x60 ADD PUSH1 0x40 MSTORE DUP1 PUSH1 0x1 DUP1 DUP1 SLOAD SWAP1 POP PUSH2 0x868 SWAP2 SWAP1 PUSH2 0x11DA JUMP JUMPDEST DUP2 MSTORE PUSH1 0x20 ADD DUP5 DUP2 MSTORE PUSH1 0x20 ADD DUP4 PUSH20 0xFFFFFFFFFFFFFFFFFFFFFFFFFFFFFFFFFFFFFFFF AND DUP2 MSTORE POP SWAP1 DUP1 PUSH1 0x1 DUP2 SLOAD ADD DUP1 DUP3 SSTORE DUP1 SWAP2 POP POP PUSH1 0x1 SWAP1 SUB SWAP1 PUSH1 0x0 MSTORE PUSH1 0x20 PUSH1 0x0 KECCAK256 SWAP1 PUSH1 0x3 MUL ADD PUSH1 0x0 SWAP1 SWAP2 SWAP1 SWAP2 SWAP1 SWAP2 POP PUSH1 0x0 DUP3 ADD MLOAD DUP2 PUSH1 0x0 ADD SSTORE PUSH1 0x20 DUP3 ADD MLOAD DUP2 PUSH1 0x1 ADD SWAP1 DUP1 MLOAD SWAP1 PUSH1 0x20 ADD SWAP1 PUSH2 0x8DC SWAP3 SWAP2 SWAP1 PUSH2 0xC97 JUMP JUMPDEST POP PUSH1 0x40 DUP3 ADD MLOAD DUP2 PUSH1 0x2 ADD PUSH1 0x0 PUSH2 0x100 EXP DUP2 SLOAD DUP2 PUSH20 0xFFFFFFFFFFFFFFFFFFFFFFFFFFFFFFFFFFFFFFFF MUL NOT AND SWAP1 DUP4 PUSH20 0xFFFFFFFFFFFFFFFFFFFFFFFFFFFFFFFFFFFFFFFF AND MUL OR SWAP1 SSTORE POP POP POP PUSH1 0x1 DUP1 SLOAD SWAP1 POP PUSH32 0xF119BB07245E20116D1C56128BE14390DBC24C94FC13EE0A9BC023DA18BAB01D DUP4 DUP4 PUSH1 0x40 MLOAD PUSH2 0x95D SWAP3 SWAP2 SWAP1 PUSH2 0x105B JUMP JUMPDEST PUSH1 0x40 MLOAD DUP1 SWAP2 SUB SWAP1 LOG2 POP POP JUMP JUMPDEST PUSH1 0x0 DUP1 SLOAD SWAP1 PUSH2 0x100 EXP SWAP1 DIV PUSH20 0xFFFFFFFFFFFFFFFFFFFFFFFFFFFFFFFFFFFFFFFF AND PUSH20 0xFFFFFFFFFFFFFFFFFFFFFFFFFFFFFFFFFFFFFFFF AND CALLER PUSH20 0xFFFFFFFFFFFFFFFFFFFFFFFFFFFFFFFFFFFFFFFF AND EQ PUSH2 0x9F7 JUMPI PUSH1 0x40 MLOAD PUSH32 0x8C379A000000000000000000000000000000000000000000000000000000000 DUP2 MSTORE PUSH1 0x4 ADD PUSH2 0x9EE SWAP1 PUSH2 0x10AB JUMP JUMPDEST PUSH1 0x40 MLOAD DUP1 SWAP2 SUB SWAP1 REVERT JUMPDEST PUSH1 0x2 PUSH1 0x0 DUP3 PUSH20 0xFFFFFFFFFFFFFFFFFFFFFFFFFFFFFFFFFFFFFFFF AND PUSH20 0xFFFFFFFFFFFFFFFFFFFFFFFFFFFFFFFFFFFFFFFF AND DUP2 MSTORE PUSH1 0x20 ADD SWAP1 DUP2 MSTORE PUSH1 0x20 ADD PUSH1 0x0 KECCAK256 PUSH1 0x0 PUSH2 0x100 EXP DUP2 SLOAD SWAP1 PUSH1 0xFF MUL NOT AND SWAP1 SSTORE PUSH32 0x25FC2460244A2FFF1D6879302EA1D6F3E684E599D76C012A22E42D5BB61CC5D7 DUP2 PUSH1 0x40 MLOAD PUSH2 0xA75 SWAP2 SWAP1 PUSH2 0x1003 JUMP JUMPDEST PUSH1 0x40 MLOAD DUP1 SWAP2 SUB SWAP1 LOG1 POP JUMP JUMPDEST PUSH1 0x2 PUSH1 0x20 MSTORE DUP1 PUSH1 0x0 MSTORE PUSH1 0x40 PUSH1 0x0 KECCAK256 PUSH1 0x0 SWAP2 POP SLOAD SWAP1 PUSH2 0x100 EXP SWAP1 DIV PUSH1 0xFF AND DUP2 JUMP JUMPDEST PUSH1 0x0 PUSH1 0x2 PUSH1 0x0 DUP4 PUSH20 0xFFFFFFFFFFFFFFFFFFFFFFFFFFFFFFFFFFFFFFFF AND PUSH20 0xFFFFFFFFFFFFFFFFFFFFFFFFFFFFFFFFFFFFFFFF AND DUP2 MSTORE PUSH1 0x20 ADD SWAP1 DUP2 MSTORE PUSH1 0x20 ADD PUSH1 0x0 KECCAK256 PUSH1 0x0 SWAP1 SLOAD SWAP1 PUSH2 0x100 EXP SWAP1 DIV PUSH1 0xFF AND SWAP1 POP SWAP2 SWAP1 POP JUMP JUMPDEST PUSH1 0x60 PUSH1 0x0 PUSH1 0x1 DUP1 SLOAD SWAP1 POP PUSH8 0xFFFFFFFFFFFFFFFF DUP2 GT ISZERO PUSH2 0xB3F JUMPI PUSH32 0x4E487B7100000000000000000000000000000000000000000000000000000000 PUSH1 0x0 MSTORE PUSH1 0x41 PUSH1 0x4 MSTORE PUSH1 0x24 PUSH1 0x0 REVERT JUMPDEST PUSH1 0x40 MLOAD SWAP1 DUP1 DUP3 MSTORE DUP1 PUSH1 0x20 MUL PUSH1 0x20 ADD DUP3 ADD PUSH1 0x40 MSTORE DUP1 ISZERO PUSH2 0xB6D JUMPI DUP2 PUSH1 0x20 ADD PUSH1 0x20 DUP3 MUL DUP1 CALLDATASIZE DUP4 CALLDATACOPY DUP1 DUP3 ADD SWAP2 POP POP SWAP1 POP JUMPDEST POP SWAP1 POP PUSH1 0x0 JUMPDEST PUSH1 0x1 DUP1 SLOAD SWAP1 POP DUP2 LT ISZERO PUSH2 0xC2B JUMPI PUSH1 0x2 PUSH1 0x0 CALLER PUSH20 0xFFFFFFFFFFFFFFFFFFFFFFFFFFFFFFFFFFFFFFFF AND PUSH20 0xFFFFFFFFFFFFFFFFFFFFFFFFFFFFFFFFFFFFFFFF AND DUP2 MSTORE PUSH1 0x20 ADD SWAP1 DUP2 MSTORE PUSH1 0x20 ADD PUSH1 0x0 KECCAK256 PUSH1 0x0 SWAP1 SLOAD SWAP1 PUSH2 0x100 EXP SWAP1 DIV PUSH1 0xFF AND DUP3 DUP3 DUP2 MLOAD DUP2 LT PUSH2 0xC06 JUMPI PUSH32 0x4E487B7100000000000000000000000000000000000000000000000000000000 PUSH1 0x0 MSTORE PUSH1 0x32 PUSH1 0x4 MSTORE PUSH1 0x24 PUSH1 0x0 REVERT JUMPDEST PUSH1 0x20 MUL PUSH1 0x20 ADD ADD SWAP1 ISZERO ISZERO SWAP1 DUP2 ISZERO ISZERO DUP2 MSTORE POP POP DUP1 DUP1 PUSH2 0xC23 SWAP1 PUSH2 0x1320 JUMP JUMPDEST SWAP2 POP POP PUSH2 0xB73 JUMP JUMPDEST POP DUP1 SWAP2 POP POP SWAP1 JUMP JUMPDEST PUSH1 0x0 DUP1 SLOAD SWAP1 PUSH2 0x100 EXP SWAP1 DIV PUSH20 0xFFFFFFFFFFFFFFFFFFFFFFFFFFFFFFFFFFFFFFFF AND DUP2 JUMP JUMPDEST POP DUP1 SLOAD PUSH2 0xC63 SWAP1 PUSH2 0x12EE JUMP JUMPDEST PUSH1 0x0 DUP3 SSTORE DUP1 PUSH1 0x1F LT PUSH2 0xC75 JUMPI POP PUSH2 0xC94 JUMP JUMPDEST PUSH1 0x1F ADD PUSH1 0x20 SWAP1 DIV SWAP1 PUSH1 0x0 MSTORE PUSH1 0x20 PUSH1 0x0 KECCAK256 SWAP1 DUP2 ADD SWAP1 PUSH2 0xC93 SWAP2 SWAP1 PUSH2 0xD1D JUMP JUMPDEST JUMPDEST POP JUMP JUMPDEST DUP3 DUP1 SLOAD PUSH2 0xCA3 SWAP1 PUSH2 0x12EE JUMP JUMPDEST SWAP1 PUSH1 0x0 MSTORE PUSH1 0x20 PUSH1 0x0 KECCAK256 SWAP1 PUSH1 0x1F ADD PUSH1 0x20 SWAP1 DIV DUP2 ADD SWAP3 DUP3 PUSH2 0xCC5 JUMPI PUSH1 0x0 DUP6 SSTORE PUSH2 0xD0C JUMP JUMPDEST DUP3 PUSH1 0x1F LT PUSH2 0xCDE JUMPI DUP1 MLOAD PUSH1 0xFF NOT AND DUP4 DUP1 ADD OR DUP6 SSTORE PUSH2 0xD0C JUMP JUMPDEST DUP3 DUP1 ADD PUSH1 0x1 ADD DUP6 SSTORE DUP3 ISZERO PUSH2 0xD0C JUMPI SWAP2 DUP3 ADD JUMPDEST DUP3 DUP2 GT ISZERO PUSH2 0xD0B JUMPI DUP3 MLOAD DUP3 SSTORE SWAP2 PUSH1 0x20 ADD SWAP2 SWAP1 PUSH1 0x1 ADD SWAP1 PUSH2 0xCF0 JUMP JUMPDEST JUMPDEST POP SWAP1 POP PUSH2 0xD19 SWAP2 SWAP1 PUSH2 0xD1D JUMP JUMPDEST POP SWAP1 JUMP JUMPDEST JUMPDEST DUP1 DUP3 GT ISZERO PUSH2 0xD36 JUMPI PUSH1 0x0 DUP2 PUSH1 0x0 SWAP1 SSTORE POP PUSH1 0x1 ADD PUSH2 0xD1E JUMP JUMPDEST POP SWAP1 JUMP JUMPDEST PUSH1 0x0 PUSH2 0xD4D PUSH2 0xD48 DUP5 PUSH2 0x1155 JUMP JUMPDEST PUSH2 0x1124 JUMP JUMPDEST SWAP1 POP DUP3 DUP2 MSTORE PUSH1 0x20 DUP2 ADD DUP5 DUP5 DUP5 ADD GT ISZERO PUSH2 0xD65 JUMPI PUSH1 0x0 DUP1 REVERT JUMPDEST PUSH2 0xD70 DUP5 DUP3 DUP6 PUSH2 0x12AC JUMP JUMPDEST POP SWAP4 SWAP3 POP POP POP JUMP JUMPDEST PUSH1 0x0 DUP2 CALLDATALOAD SWAP1 POP PUSH2 0xD87 DUP2 PUSH2 0x1407 JUMP JUMPDEST SWAP3 SWAP2 POP POP JUMP JUMPDEST PUSH1 0x0 DUP3 PUSH1 0x1F DUP4 ADD SLT PUSH2 0xD9E JUMPI PUSH1 0x0 DUP1 REVERT JUMPDEST DUP2 CALLDATALOAD PUSH2 0xDAE DUP5 DUP3 PUSH1 0x20 DUP7 ADD PUSH2 0xD3A JUMP JUMPDEST SWAP2 POP POP SWAP3 SWAP2 POP POP JUMP JUMPDEST PUSH1 0x0 DUP2 CALLDATALOAD SWAP1 POP PUSH2 0xDC6 DUP2 PUSH2 0x141E JUMP JUMPDEST SWAP3 SWAP2 POP POP JUMP JUMPDEST PUSH1 0x0 PUSH1 0x20 DUP3 DUP5 SUB SLT ISZERO PUSH2 0xDDE JUMPI PUSH1 0x0 DUP1 REVERT JUMPDEST PUSH1 0x0 PUSH2 0xDEC DUP5 DUP3 DUP6 ADD PUSH2 0xD78 JUMP JUMPDEST SWAP2 POP POP SWAP3 SWAP2 POP POP JUMP JUMPDEST PUSH1 0x0 DUP1 PUSH1 0x40 DUP4 DUP6 SUB SLT ISZERO PUSH2 0xE08 JUMPI PUSH1 0x0 DUP1 REVERT JUMPDEST PUSH1 0x0 DUP4 ADD CALLDATALOAD PUSH8 0xFFFFFFFFFFFFFFFF DUP2 GT ISZERO PUSH2 0xE22 JUMPI PUSH1 0x0 DUP1 REVERT JUMPDEST PUSH2 0xE2E DUP6 DUP3 DUP7 ADD PUSH2 0xD8D JUMP JUMPDEST SWAP3 POP POP PUSH1 0x20 PUSH2 0xE3F DUP6 DUP3 DUP7 ADD PUSH2 0xD78 JUMP JUMPDEST SWAP2 POP POP SWAP3 POP SWAP3 SWAP1 POP JUMP JUMPDEST PUSH1 0x0 PUSH1 0x20 DUP3 DUP5 SUB SLT ISZERO PUSH2 0xE5B JUMPI PUSH1 0x0 DUP1 REVERT JUMPDEST PUSH1 0x0 PUSH2 0xE69 DUP5 DUP3 DUP6 ADD PUSH2 0xDB7 JUMP JUMPDEST SWAP2 POP POP SWAP3 SWAP2 POP POP JUMP JUMPDEST PUSH1 0x0 PUSH2 0xE7E DUP4 DUP4 PUSH2 0xEF7 JUMP JUMPDEST PUSH1 0x20 DUP4 ADD SWAP1 POP SWAP3 SWAP2 POP POP JUMP JUMPDEST PUSH2 0xE93 DUP2 PUSH2 0x1264 JUMP JUMPDEST DUP3 MSTORE POP POP JUMP JUMPDEST PUSH1 0x0 PUSH2 0xEA4 DUP3 PUSH2 0x1195 JUMP JUMPDEST PUSH2 0xEAE DUP2 DUP6 PUSH2 0x11B8 JUMP JUMPDEST SWAP4 POP PUSH2 0xEB9 DUP4 PUSH2 0x1185 JUMP JUMPDEST DUP1 PUSH1 0x0 JUMPDEST DUP4 DUP2 LT ISZERO PUSH2 0xEEA JUMPI DUP2 MLOAD PUSH2 0xED1 DUP9 DUP3 PUSH2 0xE72 JUMP JUMPDEST SWAP8 POP PUSH2 0xEDC DUP4 PUSH2 0x11AB JUMP JUMPDEST SWAP3 POP POP PUSH1 0x1 DUP2 ADD SWAP1 POP PUSH2 0xEBD JUMP JUMPDEST POP DUP6 SWAP4 POP POP POP POP SWAP3 SWAP2 POP POP JUMP JUMPDEST PUSH2 0xF00 DUP2 PUSH2 0x1276 JUMP JUMPDEST DUP3 MSTORE POP POP JUMP JUMPDEST PUSH2 0xF0F DUP2 PUSH2 0x1276 JUMP JUMPDEST DUP3 MSTORE POP POP JUMP JUMPDEST PUSH1 0x0 PUSH2 0xF20 DUP3 PUSH2 0x11A0 JUMP JUMPDEST PUSH2 0xF2A DUP2 DUP6 PUSH2 0x11C9 JUMP JUMPDEST SWAP4 POP PUSH2 0xF3A DUP2 DUP6 PUSH1 0x20 DUP7 ADD PUSH2 0x12BB JUMP JUMPDEST PUSH2 0xF43 DUP2 PUSH2 0x13F6 JUMP JUMPDEST DUP5 ADD SWAP2 POP POP SWAP3 SWAP2 POP POP JUMP JUMPDEST PUSH1 0x0 PUSH2 0xF5B PUSH1 0x14 DUP4 PUSH2 0x11C9 JUMP JUMPDEST SWAP2 POP PUSH32 0x496E76616C69642063616E646964617465204944000000000000000000000000 PUSH1 0x0 DUP4 ADD MSTORE PUSH1 0x20 DUP3 ADD SWAP1 POP SWAP2 SWAP1 POP JUMP JUMPDEST PUSH1 0x0 PUSH2 0xF9B PUSH1 0x21 DUP4 PUSH2 0x11C9 JUMP JUMPDEST SWAP2 POP PUSH32 0x4F6E6C792061646D696E2063616E2063616C6C20746869732066756E6374696F PUSH1 0x0 DUP4 ADD MSTORE PUSH32 0x6E00000000000000000000000000000000000000000000000000000000000000 PUSH1 0x20 DUP4 ADD MSTORE PUSH1 0x40 DUP3 ADD SWAP1 POP SWAP2 SWAP1 POP JUMP JUMPDEST PUSH2 0xFFD DUP2 PUSH2 0x12A2 JUMP JUMPDEST DUP3 MSTORE POP POP JUMP JUMPDEST PUSH1 0x0 PUSH1 0x20 DUP3 ADD SWAP1 POP PUSH2 0x1018 PUSH1 0x0 DUP4 ADD DUP5 PUSH2 0xE8A JUMP JUMPDEST SWAP3 SWAP2 POP POP JUMP JUMPDEST PUSH1 0x0 PUSH1 0x20 DUP3 ADD SWAP1 POP DUP2 DUP2 SUB PUSH1 0x0 DUP4 ADD MSTORE PUSH2 0x1038 DUP2 DUP5 PUSH2 0xE99 JUMP JUMPDEST SWAP1 POP SWAP3 SWAP2 POP POP JUMP JUMPDEST PUSH1 0x0 PUSH1 0x20 DUP3 ADD SWAP1 POP PUSH2 0x1055 PUSH1 0x0 DUP4 ADD DUP5 PUSH2 0xF06 JUMP JUMPDEST SWAP3 SWAP2 POP POP JUMP JUMPDEST PUSH1 0x0 PUSH1 0x40 DUP3 ADD SWAP1 POP DUP2 DUP2 SUB PUSH1 0x0 DUP4 ADD MSTORE PUSH2 0x1075 DUP2 DUP6 PUSH2 0xF15 JUMP JUMPDEST SWAP1 POP PUSH2 0x1084 PUSH1 0x20 DUP4 ADD DUP5 PUSH2 0xE8A JUMP JUMPDEST SWAP4 SWAP3 POP POP POP JUMP JUMPDEST PUSH1 0x0 PUSH1 0x20 DUP3 ADD SWAP1 POP DUP2 DUP2 SUB PUSH1 0x0 DUP4 ADD MSTORE PUSH2 0x10A4 DUP2 PUSH2 0xF4E JUMP JUMPDEST SWAP1 POP SWAP2 SWAP1 POP JUMP JUMPDEST PUSH1 0x0 PUSH1 0x20 DUP3 ADD SWAP1 POP DUP2 DUP2 SUB PUSH1 0x0 DUP4 ADD MSTORE PUSH2 0x10C4 DUP2 PUSH2 0xF8E JUMP JUMPDEST SWAP1 POP SWAP2 SWAP1 POP JUMP JUMPDEST PUSH1 0x0 PUSH1 0x20 DUP3 ADD SWAP1 POP PUSH2 0x10E0 PUSH1 0x0 DUP4 ADD DUP5 PUSH2 0xFF4 JUMP JUMPDEST SWAP3 SWAP2 POP POP JUMP JUMPDEST PUSH1 0x0 PUSH1 0x60 DUP3 ADD SWAP1 POP PUSH2 0x10FB PUSH1 0x0 DUP4 ADD DUP7 PUSH2 0xFF4 JUMP JUMPDEST DUP2 DUP2 SUB PUSH1 0x20 DUP4 ADD MSTORE PUSH2 0x110D DUP2 DUP6 PUSH2 0xF15 JUMP JUMPDEST SWAP1 POP PUSH2 0x111C PUSH1 0x40 DUP4 ADD DUP5 PUSH2 0xE8A JUMP JUMPDEST SWAP5 SWAP4 POP POP POP POP JUMP JUMPDEST PUSH1 0x0 PUSH1 0x40 MLOAD SWAP1 POP DUP2 DUP2 ADD DUP2 DUP2 LT PUSH8 0xFFFFFFFFFFFFFFFF DUP3 GT OR ISZERO PUSH2 0x114B JUMPI PUSH2 0x114A PUSH2 0x13C7 JUMP JUMPDEST JUMPDEST DUP1 PUSH1 0x40 MSTORE POP SWAP2 SWAP1 POP JUMP JUMPDEST PUSH1 0x0 PUSH8 0xFFFFFFFFFFFFFFFF DUP3 GT ISZERO PUSH2 0x1170 JUMPI PUSH2 0x116F PUSH2 0x13C7 JUMP JUMPDEST JUMPDEST PUSH1 0x1F NOT PUSH1 0x1F DUP4 ADD AND SWAP1 POP PUSH1 0x20 DUP2 ADD SWAP1 POP SWAP2 SWAP1 POP JUMP JUMPDEST PUSH1 0x0 DUP2 SWAP1 POP PUSH1 0x20 DUP3 ADD SWAP1 POP SWAP2 SWAP1 POP JUMP JUMPDEST PUSH1 0x0 DUP2 MLOAD SWAP1 POP SWAP2 SWAP1 POP JUMP JUMPDEST PUSH1 0x0 DUP2 MLOAD SWAP1 POP SWAP2 SWAP1 POP JUMP JUMPDEST PUSH1 0x0 PUSH1 0x20 DUP3 ADD SWAP1 POP SWAP2 SWAP1 POP JUMP JUMPDEST PUSH1 0x0 DUP3 DUP3 MSTORE PUSH1 0x20 DUP3 ADD SWAP1 POP SWAP3 SWAP2 POP POP JUMP JUMPDEST PUSH1 0x0 DUP3 DUP3 MSTORE PUSH1 0x20 DUP3 ADD SWAP1 POP SWAP3 SWAP2 POP POP JUMP JUMPDEST PUSH1 0x0 PUSH2 0x11E5 DUP3 PUSH2 0x12A2 JUMP JUMPDEST SWAP2 POP PUSH2 0x11F0 DUP4 PUSH2 0x12A2 JUMP JUMPDEST SWAP3 POP DUP3 PUSH32 0xFFFFFFFFFFFFFFFFFFFFFFFFFFFFFFFFFFFFFFFFFFFFFFFFFFFFFFFFFFFFFFFF SUB DUP3 GT ISZERO PUSH2 0x1225 JUMPI PUSH2 0x1224 PUSH2 0x1369 JUMP JUMPDEST JUMPDEST DUP3 DUP3 ADD SWAP1 POP SWAP3 SWAP2 POP POP JUMP JUMPDEST PUSH1 0x0 PUSH2 0x123B DUP3 PUSH2 0x12A2 JUMP JUMPDEST SWAP2 POP PUSH2 0x1246 DUP4 PUSH2 0x12A2 JUMP JUMPDEST SWAP3 POP DUP3 DUP3 LT ISZERO PUSH2 0x1259 JUMPI PUSH2 0x1258 PUSH2 0x1369 JUMP JUMPDEST JUMPDEST DUP3 DUP3 SUB SWAP1 POP SWAP3 SWAP2 POP POP JUMP JUMPDEST PUSH1 0x0 PUSH2 0x126F DUP3 PUSH2 0x1282 JUMP JUMPDEST SWAP1 POP SWAP2 SWAP1 POP JUMP JUMPDEST PUSH1 0x0 DUP2 ISZERO ISZERO SWAP1 POP SWAP2 SWAP1 POP JUMP JUMPDEST PUSH1 0x0 PUSH20 0xFFFFFFFFFFFFFFFFFFFFFFFFFFFFFFFFFFFFFFFF DUP3 AND SWAP1 POP SWAP2 SWAP1 POP JUMP JUMPDEST PUSH1 0x0 DUP2 SWAP1 POP SWAP2 SWAP1 POP JUMP JUMPDEST DUP3 DUP2 DUP4 CALLDATACOPY PUSH1 0x0 DUP4 DUP4 ADD MSTORE POP POP POP JUMP JUMPDEST PUSH1 0x0 JUMPDEST DUP4 DUP2 LT ISZERO PUSH2 0x12D9 JUMPI DUP1 DUP3 ADD MLOAD DUP2 DUP5 ADD MSTORE PUSH1 0x20 DUP2 ADD SWAP1 POP PUSH2 0x12BE JUMP JUMPDEST DUP4 DUP2 GT ISZERO PUSH2 0x12E8 JUMPI PUSH1 0x0 DUP5 DUP5 ADD MSTORE JUMPDEST POP POP POP POP JUMP JUMPDEST PUSH1 0x0 PUSH1 0x2 DUP3 DIV SWAP1 POP PUSH1 0x1 DUP3 AND DUP1 PUSH2 0x1306 JUMPI PUSH1 0x7F DUP3 AND SWAP2 POP JUMPDEST PUSH1 0x20 DUP3 LT DUP2 EQ ISZERO PUSH2 0x131A JUMPI PUSH2 0x1319 PUSH2 0x1398 JUMP JUMPDEST JUMPDEST POP SWAP2 SWAP1 POP JUMP JUMPDEST PUSH1 0x0 PUSH2 0x132B DUP3 PUSH2 0x12A2 JUMP JUMPDEST SWAP2 POP PUSH32 0xFFFFFFFFFFFFFFFFFFFFFFFFFFFFFFFFFFFFFFFFFFFFFFFFFFFFFFFFFFFFFFFF DUP3 EQ ISZERO PUSH2 0x135E JUMPI PUSH2 0x135D PUSH2 0x1369 JUMP JUMPDEST JUMPDEST PUSH1 0x1 DUP3 ADD SWAP1 POP SWAP2 SWAP1 POP JUMP JUMPDEST PUSH32 0x4E487B7100000000000000000000000000000000000000000000000000000000 PUSH1 0x0 MSTORE PUSH1 0x11 PUSH1 0x4 MSTORE PUSH1 0x24 PUSH1 0x0 REVERT JUMPDEST PUSH32 0x4E487B7100000000000000000000000000000000000000000000000000000000 PUSH1 0x0 MSTORE PUSH1 0x22 PUSH1 0x4 MSTORE PUSH1 0x24 PUSH1 0x0 REVERT JUMPDEST PUSH32 0x4E487B7100000000000000000000000000000000000000000000000000000000 PUSH1 0x0 MSTORE PUSH1 0x41 PUSH1 0x4 MSTORE PUSH1 0x24 PUSH1 0x0 REVERT JUMPDEST PUSH1 0x0 PUSH1 0x1F NOT PUSH1 0x1F DUP4 ADD AND SWAP1 POP SWAP2 SWAP1 POP JUMP JUMPDEST PUSH2 0x1410 DUP2 PUSH2 0x1264 JUMP JUMPDEST DUP2 EQ PUSH2 0x141B JUMPI PUSH1 0x0 DUP1 REVERT JUMPDEST POP JUMP JUMPDEST PUSH2 0x1427 DUP2 PUSH2 0x12A2 JUMP JUMPDEST DUP2 EQ PUSH2 0x1432 JUMPI PUSH1 0x0 DUP1 REVERT JUMPDEST POP JUMP INVALID LOG2 PUSH5 0x6970667358 0x22 SLT KECCAK256 SIGNEXTEND 0xE1 PUSH14 0x41B9F8DF093E608A9AC4BE3A6932 DUP8 EXTCODECOPY 0x5C DUP15 DUP14 PUSH11 0xA71A23A260E226D8D76473 PUSH16 0x6C634300080000330000000000000000 "
				},
				"gasEstimates": {
					"creation": {
						"codeDepositCost": "1045400",
						"executionCost": "21953",
						"totalCost": "1067353"
					},
					"external": {
						"addCandidate(string,address)": "infinite",
						"admin()": "1321",
						"candidates(uint256)": "infinite",
						"deleteCandidate(uint256)": "infinite",
						"getCandidate(uint256)": "infinite",
						"getCandidateCount()": "1168",
						"getVoters()": "infinite",
						"isVoter(address)": "1649",
						"registerVoter(address)": "infinite",
						"unregisterVoter(address)": "infinite",
						"voters(address)": "1589"
					}
				},
				"methodIdentifiers": {
					"addCandidate(string,address)": "4a2a84c5",
					"admin()": "f851a440",
					"candidates(uint256)": "3477ee2e",
					"deleteCandidate(uint256)": "1e620cd4",
					"getCandidate(uint256)": "35b8e820",
					"getCandidateCount()": "30a56347",
					"getVoters()": "cdd72253",
					"isVoter(address)": "a7771ee3",
					"registerVoter(address)": "38db6dd3",
					"unregisterVoter(address)": "7ed17751",
					"voters(address)": "a3ec138d"
				}
			},
			"storageLayout": {
				"storage": [
					{
						"astId": 3,
						"contract": "contracts/Admin.sol:AdminContract",
						"label": "admin",
						"offset": 0,
						"slot": "0",
						"type": "t_address"
					},
					{
						"astId": 14,
						"contract": "contracts/Admin.sol:AdminContract",
						"label": "candidates",
						"offset": 0,
						"slot": "1",
						"type": "t_array(t_struct(Candidate)10_storage)dyn_storage"
					},
					{
						"astId": 18,
						"contract": "contracts/Admin.sol:AdminContract",
						"label": "voters",
						"offset": 0,
						"slot": "2",
						"type": "t_mapping(t_address,t_bool)"
					}
				],
				"types": {
					"t_address": {
						"encoding": "inplace",
						"label": "address",
						"numberOfBytes": "20"
					},
					"t_array(t_struct(Candidate)10_storage)dyn_storage": {
						"base": "t_struct(Candidate)10_storage",
						"encoding": "dynamic_array",
						"label": "struct AdminContract.Candidate[]",
						"numberOfBytes": "32"
					},
					"t_bool": {
						"encoding": "inplace",
						"label": "bool",
						"numberOfBytes": "1"
					},
					"t_mapping(t_address,t_bool)": {
						"encoding": "mapping",
						"key": "t_address",
						"label": "mapping(address => bool)",
						"numberOfBytes": "32",
						"value": "t_bool"
					},
					"t_string_storage": {
						"encoding": "bytes",
						"label": "string",
						"numberOfBytes": "32"
					},
					"t_struct(Candidate)10_storage": {
						"encoding": "inplace",
						"label": "struct AdminContract.Candidate",
						"members": [
							{
								"astId": 5,
								"contract": "contracts/Admin.sol:AdminContract",
								"label": "id",
								"offset": 0,
								"slot": "0",
								"type": "t_uint256"
							},
							{
								"astId": 7,
								"contract": "contracts/Admin.sol:AdminContract",
								"label": "name",
								"offset": 0,
								"slot": "1",
								"type": "t_string_storage"
							},
							{
								"astId": 9,
								"contract": "contracts/Admin.sol:AdminContract",
								"label": "candidateAddress",
								"offset": 0,
								"slot": "2",
								"type": "t_address"
							}
						],
						"numberOfBytes": "96"
					},
					"t_uint256": {
						"encoding": "inplace",
						"label": "uint256",
						"numberOfBytes": "32"
					}
				}
			},
			"userdoc": {
				"kind": "user",
				"methods": {},
				"version": 1
			}
		}
	}
}