{
	"contracts/ResultTally.sol": {
		"AccessControl": {
			"abi": [
				{
					"inputs": [],
					"stateMutability": "nonpayable",
					"type": "constructor"
				},
				{
					"anonymous": false,
					"inputs": [
						{
							"indexed": true,
							"internalType": "address",
							"name": "_admin",
							"type": "address"
						},
						{
							"indexed": false,
							"internalType": "bool",
							"name": "_isAdmin",
							"type": "bool"
						}
					],
					"name": "AdminUpdated",
					"type": "event"
				},
				{
					"anonymous": false,
					"inputs": [
						{
							"indexed": false,
							"internalType": "address",
							"name": "_candidate",
							"type": "address"
						},
						{
							"indexed": false,
							"internalType": "bool",
							"name": "_added",
							"type": "bool"
						}
					],
					"name": "CandidateAdded",
					"type": "event"
				},
				{
					"anonymous": false,
					"inputs": [],
					"name": "ResultFinalized",
					"type": "event"
				},
				{
					"anonymous": false,
					"inputs": [
						{
							"indexed": true,
							"internalType": "address",
							"name": "_candidate",
							"type": "address"
						},
						{
							"indexed": true,
							"internalType": "address",
							"name": "_voter",
							"type": "address"
						}
					],
					"name": "VoteCast",
					"type": "event"
				},
				{
					"anonymous": false,
					"inputs": [
						{
							"indexed": true,
							"internalType": "address",
							"name": "_voter",
							"type": "address"
						}
					],
					"name": "VoterRegistered",
					"type": "event"
				},
				{
					"inputs": [
						{
							"internalType": "address",
							"name": "_address",
							"type": "address"
						}
					],
					"name": "addCandidate",
					"outputs": [],
					"stateMutability": "nonpayable",
					"type": "function"
				},
				{
					"inputs": [],
					"name": "admin",
					"outputs": [
						{
							"internalType": "address",
							"name": "",
							"type": "address"
						}
					],
					"stateMutability": "view",
					"type": "function"
				},
				{
					"inputs": [
						{
							"internalType": "address",
							"name": "",
							"type": "address"
						}
					],
					"name": "candidateAddresses",
					"outputs": [
						{
							"internalType": "bool",
							"name": "",
							"type": "bool"
						}
					],
					"stateMutability": "view",
					"type": "function"
				},
				{
					"inputs": [],
					"name": "candidateCount",
					"outputs": [
						{
							"internalType": "uint256",
							"name": "",
							"type": "uint256"
						}
					],
					"stateMutability": "view",
					"type": "function"
				},
				{
					"inputs": [
						{
							"internalType": "address",
							"name": "_candidate",
							"type": "address"
						}
					],
					"name": "castVote",
					"outputs": [],
					"stateMutability": "nonpayable",
					"type": "function"
				},
				{
					"inputs": [],
					"name": "finalizeResult",
					"outputs": [],
					"stateMutability": "nonpayable",
					"type": "function"
				},
				{
					"inputs": [],
					"name": "getRegisteredCandidates",
					"outputs": [
						{
							"internalType": "address[]",
							"name": "",
							"type": "address[]"
						}
					],
					"stateMutability": "view",
					"type": "function"
				},
				{
					"inputs": [],
					"name": "getRegisteredVoters",
					"outputs": [
						{
							"internalType": "address[]",
							"name": "",
							"type": "address[]"
						}
					],
					"stateMutability": "view",
					"type": "function"
				},
				{
					"inputs": [
						{
							"internalType": "address",
							"name": "_candidate",
							"type": "address"
						}
					],
					"name": "getVoteCountForCandidate",
					"outputs": [
						{
							"internalType": "uint256",
							"name": "",
							"type": "uint256"
						}
					],
					"stateMutability": "view",
					"type": "function"
				},
				{
					"inputs": [
						{
							"internalType": "address",
							"name": "_user",
							"type": "address"
						}
					],
					"name": "grantAdmin",
					"outputs": [],
					"stateMutability": "nonpayable",
					"type": "function"
				},
				{
					"inputs": [
						{
							"internalType": "address",
							"name": "",
							"type": "address"
						}
					],
					"name": "isAdmin",
					"outputs": [
						{
							"internalType": "bool",
							"name": "",
							"type": "bool"
						}
					],
					"stateMutability": "view",
					"type": "function"
				},
				{
					"inputs": [
						{
							"internalType": "address",
							"name": "_voter",
							"type": "address"
						}
					],
					"name": "registerVoter",
					"outputs": [],
					"stateMutability": "nonpayable",
					"type": "function"
				},
				{
					"inputs": [],
					"name": "resultFinalized",
					"outputs": [
						{
							"internalType": "bool",
							"name": "",
							"type": "bool"
						}
					],
					"stateMutability": "view",
					"type": "function"
				},
				{
					"inputs": [
						{
							"internalType": "address",
							"name": "_user",
							"type": "address"
						}
					],
					"name": "revokeAdmin",
					"outputs": [],
					"stateMutability": "nonpayable",
					"type": "function"
				},
				{
					"inputs": [
						{
							"internalType": "address",
							"name": "",
							"type": "address"
						}
					],
					"name": "voteCounts",
					"outputs": [
						{
							"internalType": "uint256",
							"name": "",
							"type": "uint256"
						}
					],
					"stateMutability": "view",
					"type": "function"
				},
				{
					"inputs": [
						{
							"internalType": "address",
							"name": "",
							"type": "address"
						}
					],
					"name": "voters",
					"outputs": [
						{
							"internalType": "bool",
							"name": "",
							"type": "bool"
						}
					],
					"stateMutability": "view",
					"type": "function"
				}
			],
			"devdoc": {
				"kind": "dev",
				"methods": {},
				"version": 1
			},
			"evm": {
				"assembly": "    /* \"contracts/ResultTally.sol\":57:7914  contract AccessControl {... */\n  mstore(0x40, 0x80)\n    /* \"contracts/ResultTally.sol\":1540:1670  constructor() {... */\n  callvalue\n  dup1\n  iszero\n  tag_1\n  jumpi\n  0x00\n  dup1\n  revert\ntag_1:\n  pop\n    /* \"contracts/ResultTally.sol\":1572:1582  msg.sender */\n  caller\n    /* \"contracts/ResultTally.sol\":1564:1569  admin */\n  0x00\n  dup1\n    /* \"contracts/ResultTally.sol\":1564:1582  admin = msg.sender */\n  0x0100\n  exp\n  dup2\n  sload\n  dup2\n  0xffffffffffffffffffffffffffffffffffffffff\n  mul\n  not\n  and\n  swap1\n  dup4\n  0xffffffffffffffffffffffffffffffffffffffff\n  and\n  mul\n  or\n  swap1\n  sstore\n  pop\n    /* \"contracts/ResultTally.sol\":1614:1618  true */\n  0x01\n    /* \"contracts/ResultTally.sol\":1592:1599  isAdmin */\n  dup1\n    /* \"contracts/ResultTally.sol\":1592:1611  isAdmin[msg.sender] */\n  0x00\n    /* \"contracts/ResultTally.sol\":1600:1610  msg.sender */\n  caller\n    /* \"contracts/ResultTally.sol\":1592:1611  isAdmin[msg.sender] */\n  0xffffffffffffffffffffffffffffffffffffffff\n  and\n  0xffffffffffffffffffffffffffffffffffffffff\n  and\n  dup2\n  mstore\n  0x20\n  add\n  swap1\n  dup2\n  mstore\n  0x20\n  add\n  0x00\n  keccak256\n  0x00\n    /* \"contracts/ResultTally.sol\":1592:1618  isAdmin[msg.sender] = true */\n  0x0100\n  exp\n  dup2\n  sload\n  dup2\n  0xff\n  mul\n  not\n  and\n  swap1\n  dup4\n  iszero\n  iszero\n  mul\n  or\n  swap1\n  sstore\n  pop\n    /* \"contracts/ResultTally.sol\":1646:1656  msg.sender */\n  caller\n    /* \"contracts/ResultTally.sol\":1633:1663  AdminUpdated(msg.sender, true) */\n  0xffffffffffffffffffffffffffffffffffffffff\n  and\n  0x235bc17e7930760029e9f4d860a2a8089976de5b381cf8380fc11c1d88a11133\n    /* \"contracts/ResultTally.sol\":1658:1662  true */\n  0x01\n    /* \"contracts/ResultTally.sol\":1633:1663  AdminUpdated(msg.sender, true) */\n  mload(0x40)\n  tag_4\n  swap2\n  swap1\n  tag_5\n  jump\t// in\ntag_4:\n  mload(0x40)\n  dup1\n  swap2\n  sub\n  swap1\n  log2\n    /* \"contracts/ResultTally.sol\":57:7914  contract AccessControl {... */\n  jump(tag_6)\n    /* \"#utility.yul\":7:116   */\ntag_8:\n    /* \"#utility.yul\":88:109   */\n  tag_10\n    /* \"#utility.yul\":103:108   */\n  dup2\n    /* \"#utility.yul\":88:109   */\n  tag_11\n  jump\t// in\ntag_10:\n    /* \"#utility.yul\":83:86   */\n  dup3\n    /* \"#utility.yul\":76:110   */\n  mstore\n    /* \"#utility.yul\":66:116   */\n  pop\n  pop\n  jump\t// out\n    /* \"#utility.yul\":122:332   */\ntag_5:\n  0x00\n    /* \"#utility.yul\":247:249   */\n  0x20\n    /* \"#utility.yul\":236:245   */\n  dup3\n    /* \"#utility.yul\":232:250   */\n  add\n    /* \"#utility.yul\":224:250   */\n  swap1\n  pop\n    /* \"#utility.yul\":260:325   */\n  tag_13\n    /* \"#utility.yul\":322:323   */\n  0x00\n    /* \"#utility.yul\":311:320   */\n  dup4\n    /* \"#utility.yul\":307:324   */\n  add\n    /* \"#utility.yul\":298:304   */\n  dup5\n    /* \"#utility.yul\":260:325   */\n  tag_8\n  jump\t// in\ntag_13:\n    /* \"#utility.yul\":214:332   */\n  swap3\n  swap2\n  pop\n  pop\n  jump\t// out\n    /* \"#utility.yul\":338:428   */\ntag_11:\n  0x00\n    /* \"#utility.yul\":415:420   */\n  dup2\n    /* \"#utility.yul\":408:421   */\n  iszero\n    /* \"#utility.yul\":401:422   */\n  iszero\n    /* \"#utility.yul\":390:422   */\n  swap1\n  pop\n    /* \"#utility.yul\":380:428   */\n  swap2\n  swap1\n  pop\n  jump\t// out\n    /* \"contracts/ResultTally.sol\":57:7914  contract AccessControl {... */\ntag_6:\n  dataSize(sub_0)\n  dup1\n  dataOffset(sub_0)\n  0x00\n  codecopy\n  0x00\n  return\nstop\n\nsub_0: assembly {\n        /* \"contracts/ResultTally.sol\":57:7914  contract AccessControl {... */\n      mstore(0x40, 0x80)\n      callvalue\n      dup1\n      iszero\n      tag_1\n      jumpi\n      0x00\n      dup1\n      revert\n    tag_1:\n      pop\n      jumpi(tag_2, lt(calldatasize, 0x04))\n      shr(0xe0, calldataload(0x00))\n      dup1\n      0x53358fc4\n      gt\n      tag_19\n      jumpi\n      dup1\n      0xa3ec138d\n      gt\n      tag_20\n      jumpi\n      dup1\n      0xa3ec138d\n      eq\n      tag_15\n      jumpi\n      dup1\n      0xa9a981a3\n      eq\n      tag_16\n      jumpi\n      dup1\n      0xe42b5d4b\n      eq\n      tag_17\n      jumpi\n      dup1\n      0xf851a440\n      eq\n      tag_18\n      jumpi\n      jump(tag_2)\n    tag_20:\n      dup1\n      0x53358fc4\n      eq\n      tag_11\n      jumpi\n      dup1\n      0x61cac418\n      eq\n      tag_12\n      jumpi\n      dup1\n      0x66a267a9\n      eq\n      tag_13\n      jumpi\n      dup1\n      0x6b991a18\n      eq\n      tag_14\n      jumpi\n      jump(tag_2)\n    tag_19:\n      dup1\n      0x35bb3e16\n      gt\n      tag_21\n      jumpi\n      dup1\n      0x35bb3e16\n      eq\n      tag_7\n      jumpi\n      dup1\n      0x38db6dd3\n      eq\n      tag_8\n      jumpi\n      dup1\n      0x396b9ae0\n      eq\n      tag_9\n      jumpi\n      dup1\n      0x3acd75f8\n      eq\n      tag_10\n      jumpi\n      jump(tag_2)\n    tag_21:\n      dup1\n      0x1aae9ff3\n      eq\n      tag_3\n      jumpi\n      dup1\n      0x24d7806c\n      eq\n      tag_4\n      jumpi\n      dup1\n      0x2bc4a6e7\n      eq\n      tag_5\n      jumpi\n      dup1\n      0x2d345670\n      eq\n      tag_6\n      jumpi\n    tag_2:\n      0x00\n      dup1\n      revert\n        /* \"contracts/ResultTally.sol\":749:776  bool public resultFinalized */\n    tag_3:\n      tag_22\n      tag_23\n      jump\t// in\n    tag_22:\n      mload(0x40)\n      tag_24\n      swap2\n      swap1\n      tag_25\n      jump\t// in\n    tag_24:\n      mload(0x40)\n      dup1\n      swap2\n      sub\n      swap1\n      return\n        /* \"contracts/ResultTally.sol\":213:252  mapping(address => bool) public isAdmin */\n    tag_4:\n      tag_26\n      0x04\n      dup1\n      calldatasize\n      sub\n      dup2\n      add\n      swap1\n      tag_27\n      swap2\n      swap1\n      tag_28\n      jump\t// in\n    tag_27:\n      tag_29\n      jump\t// in\n    tag_26:\n      mload(0x40)\n      tag_30\n      swap2\n      swap1\n      tag_25\n      jump\t// in\n    tag_30:\n      mload(0x40)\n      dup1\n      swap2\n      sub\n      swap1\n      return\n        /* \"contracts/ResultTally.sol\":5250:5715  function getRegisteredVoters() public view returns (address[] memory) {... */\n    tag_5:\n      tag_31\n      tag_32\n      jump\t// in\n    tag_31:\n      mload(0x40)\n      tag_33\n      swap2\n      swap1\n      tag_34\n      jump\t// in\n    tag_33:\n      mload(0x40)\n      dup1\n      swap2\n      sub\n      swap1\n      return\n        /* \"contracts/ResultTally.sol\":2005:2225  function revokeAdmin(address _user) public onlyAdmin {... */\n    tag_6:\n      tag_35\n      0x04\n      dup1\n      calldatasize\n      sub\n      dup2\n      add\n      swap1\n      tag_36\n      swap2\n      swap1\n      tag_28\n      jump\t// in\n    tag_36:\n      tag_37\n      jump\t// in\n    tag_35:\n      stop\n        /* \"contracts/ResultTally.sol\":1771:1901  function grantAdmin(address _user) public onlyAdmin {... */\n    tag_7:\n      tag_38\n      0x04\n      dup1\n      calldatasize\n      sub\n      dup2\n      add\n      swap1\n      tag_39\n      swap2\n      swap1\n      tag_28\n      jump\t// in\n    tag_39:\n      tag_40\n      jump\t// in\n    tag_38:\n      stop\n        /* \"contracts/ResultTally.sol\":2744:3049  function registerVoter(address _voter) public onlyAdmin {... */\n    tag_8:\n      tag_41\n      0x04\n      dup1\n      calldatasize\n      sub\n      dup2\n      add\n      swap1\n      tag_42\n      swap2\n      swap1\n      tag_28\n      jump\t// in\n    tag_42:\n      tag_43\n      jump\t// in\n    tag_41:\n      stop\n        /* \"contracts/ResultTally.sol\":5778:6271  function getRegisteredCandidates() public view returns (address[] memory) {... */\n    tag_9:\n      tag_44\n      tag_45\n      jump\t// in\n    tag_44:\n      mload(0x40)\n      tag_46\n      swap2\n      swap1\n      tag_34\n      jump\t// in\n    tag_46:\n      mload(0x40)\n      dup1\n      swap2\n      sub\n      swap1\n      return\n        /* \"contracts/ResultTally.sol\":2314:2671  function addCandidate(address _address) public onlyAdmin {... */\n    tag_10:\n      tag_47\n      0x04\n      dup1\n      calldatasize\n      sub\n      dup2\n      add\n      swap1\n      tag_48\n      swap2\n      swap1\n      tag_28\n      jump\t// in\n    tag_48:\n      tag_49\n      jump\t// in\n    tag_47:\n      stop\n        /* \"contracts/ResultTally.sol\":3120:3410  function castVote(address _candidate) public {... */\n    tag_11:\n      tag_50\n      0x04\n      dup1\n      calldatasize\n      sub\n      dup2\n      add\n      swap1\n      tag_51\n      swap2\n      swap1\n      tag_28\n      jump\t// in\n    tag_51:\n      tag_52\n      jump\t// in\n    tag_50:\n      stop\n        /* \"contracts/ResultTally.sol\":3757:5191  function finalizeResult() public onlyAdmin {... */\n    tag_12:\n      tag_53\n      tag_54\n      jump\t// in\n    tag_53:\n      stop\n        /* \"contracts/ResultTally.sol\":541:583  mapping(address => uint) public voteCounts */\n    tag_13:\n      tag_55\n      0x04\n      dup1\n      calldatasize\n      sub\n      dup2\n      add\n      swap1\n      tag_56\n      swap2\n      swap1\n      tag_28\n      jump\t// in\n    tag_56:\n      tag_57\n      jump\t// in\n    tag_55:\n      mload(0x40)\n      tag_58\n      swap2\n      swap1\n      tag_59\n      jump\t// in\n    tag_58:\n      mload(0x40)\n      dup1\n      swap2\n      sub\n      swap1\n      return\n        /* \"contracts/ResultTally.sol\":3476:3681  function getVoteCountForCandidate(address _candidate) public view returns (uint) {... */\n    tag_14:\n      tag_60\n      0x04\n      dup1\n      calldatasize\n      sub\n      dup2\n      add\n      swap1\n      tag_61\n      swap2\n      swap1\n      tag_28\n      jump\t// in\n    tag_61:\n      tag_62\n      jump\t// in\n    tag_60:\n      mload(0x40)\n      tag_63\n      swap2\n      swap1\n      tag_59\n      jump\t// in\n    tag_63:\n      mload(0x40)\n      dup1\n      swap2\n      sub\n      swap1\n      return\n        /* \"contracts/ResultTally.sol\":438:476  mapping(address => bool) public voters */\n    tag_15:\n      tag_64\n      0x04\n      dup1\n      calldatasize\n      sub\n      dup2\n      add\n      swap1\n      tag_65\n      swap2\n      swap1\n      tag_28\n      jump\t// in\n    tag_65:\n      tag_66\n      jump\t// in\n    tag_64:\n      mload(0x40)\n      tag_67\n      swap2\n      swap1\n      tag_25\n      jump\t// in\n    tag_67:\n      mload(0x40)\n      dup1\n      swap2\n      sub\n      swap1\n      return\n        /* \"contracts/ResultTally.sol\":654:680  uint public candidateCount */\n    tag_16:\n      tag_68\n      tag_69\n      jump\t// in\n    tag_68:\n      mload(0x40)\n      tag_70\n      swap2\n      swap1\n      tag_59\n      jump\t// in\n    tag_70:\n      mload(0x40)\n      dup1\n      swap2\n      sub\n      swap1\n      return\n        /* \"contracts/ResultTally.sol\":316:366  mapping(address => bool) public candidateAddresses */\n    tag_17:\n      tag_71\n      0x04\n      dup1\n      calldatasize\n      sub\n      dup2\n      add\n      swap1\n      tag_72\n      swap2\n      swap1\n      tag_28\n      jump\t// in\n    tag_72:\n      tag_73\n      jump\t// in\n    tag_71:\n      mload(0x40)\n      tag_74\n      swap2\n      swap1\n      tag_25\n      jump\t// in\n    tag_74:\n      mload(0x40)\n      dup1\n      swap2\n      sub\n      swap1\n      return\n        /* \"contracts/ResultTally.sol\":86:106  address public admin */\n    tag_18:\n      tag_75\n      tag_76\n      jump\t// in\n    tag_75:\n      mload(0x40)\n      tag_77\n      swap2\n      swap1\n      tag_78\n      jump\t// in\n    tag_77:\n      mload(0x40)\n      dup1\n      swap2\n      sub\n      swap1\n      return\n        /* \"contracts/ResultTally.sol\":749:776  bool public resultFinalized */\n    tag_23:\n      0x06\n      0x00\n      swap1\n      sload\n      swap1\n      0x0100\n      exp\n      swap1\n      div\n      0xff\n      and\n      dup2\n      jump\t// out\n        /* \"contracts/ResultTally.sol\":213:252  mapping(address => bool) public isAdmin */\n    tag_29:\n      mstore(0x20, 0x01)\n      dup1\n      0x00\n      mstore\n      keccak256(0x00, 0x40)\n      0x00\n      swap2\n      pop\n      sload\n      swap1\n      0x0100\n      exp\n      swap1\n      div\n      0xff\n      and\n      dup2\n      jump\t// out\n        /* \"contracts/ResultTally.sol\":5250:5715  function getRegisteredVoters() public view returns (address[] memory) {... */\n    tag_32:\n        /* \"contracts/ResultTally.sol\":5302:5318  address[] memory */\n      0x60\n        /* \"contracts/ResultTally.sol\":5330:5367  address[] memory registeredVotersList */\n      0x00\n        /* \"contracts/ResultTally.sol\":5384:5398  candidateCount */\n      sload(0x05)\n        /* \"contracts/ResultTally.sol\":5370:5399  new address[](candidateCount) */\n      0xffffffffffffffff\n      dup2\n      gt\n      iszero\n      tag_80\n      jumpi\n      mstore(0x00, 0x4e487b7100000000000000000000000000000000000000000000000000000000)\n      mstore(0x04, 0x41)\n      revert(0x00, 0x24)\n    tag_80:\n      mload(0x40)\n      swap1\n      dup1\n      dup3\n      mstore\n      dup1\n      0x20\n      mul\n      0x20\n      add\n      dup3\n      add\n      0x40\n      mstore\n      dup1\n      iszero\n      tag_81\n      jumpi\n      dup2\n      0x20\n      add\n      0x20\n      dup3\n      mul\n      dup1\n      calldatasize\n      dup4\n      calldatacopy\n      dup1\n      dup3\n      add\n      swap2\n      pop\n      pop\n      swap1\n      pop\n    tag_81:\n      pop\n        /* \"contracts/ResultTally.sol\":5330:5399  address[] memory registeredVotersList = new address[](candidateCount) */\n      swap1\n      pop\n        /* \"contracts/ResultTally.sol\":5409:5419  uint index */\n      0x00\n        /* \"contracts/ResultTally.sol\":5438:5444  uint i */\n      dup1\n        /* \"contracts/ResultTally.sol\":5433:5672  for (uint i = 0; i < candidateCount; i++) {... */\n    tag_82:\n        /* \"contracts/ResultTally.sol\":5454:5468  candidateCount */\n      sload(0x05)\n        /* \"contracts/ResultTally.sol\":5450:5451  i */\n      dup2\n        /* \"contracts/ResultTally.sol\":5450:5468  i < candidateCount */\n      lt\n        /* \"contracts/ResultTally.sol\":5433:5672  for (uint i = 0; i < candidateCount; i++) {... */\n      iszero\n      tag_83\n      jumpi\n        /* \"contracts/ResultTally.sol\":5489:5506  address candidate */\n      0x00\n        /* \"contracts/ResultTally.sol\":5509:5528  candidateAtIndex(i) */\n      tag_85\n        /* \"contracts/ResultTally.sol\":5526:5527  i */\n      dup3\n        /* \"contracts/ResultTally.sol\":5509:5525  candidateAtIndex */\n      tag_86\n        /* \"contracts/ResultTally.sol\":5509:5528  candidateAtIndex(i) */\n      jump\t// in\n    tag_85:\n        /* \"contracts/ResultTally.sol\":5489:5528  address candidate = candidateAtIndex(i) */\n      swap1\n      pop\n        /* \"contracts/ResultTally.sol\":5546:5552  voters */\n      0x03\n        /* \"contracts/ResultTally.sol\":5546:5563  voters[candidate] */\n      0x00\n        /* \"contracts/ResultTally.sol\":5553:5562  candidate */\n      dup3\n        /* \"contracts/ResultTally.sol\":5546:5563  voters[candidate] */\n      0xffffffffffffffffffffffffffffffffffffffff\n      and\n      0xffffffffffffffffffffffffffffffffffffffff\n      and\n      dup2\n      mstore\n      0x20\n      add\n      swap1\n      dup2\n      mstore\n      0x20\n      add\n      0x00\n      keccak256\n      0x00\n      swap1\n      sload\n      swap1\n      0x0100\n      exp\n      swap1\n      div\n      0xff\n      and\n        /* \"contracts/ResultTally.sol\":5542:5662  if (voters[candidate]) {... */\n      iszero\n      tag_87\n      jumpi\n        /* \"contracts/ResultTally.sol\":5613:5622  candidate */\n      dup1\n        /* \"contracts/ResultTally.sol\":5583:5603  registeredVotersList */\n      dup5\n        /* \"contracts/ResultTally.sol\":5604:5609  index */\n      dup5\n        /* \"contracts/ResultTally.sol\":5583:5610  registeredVotersList[index] */\n      dup2\n      mload\n      dup2\n      lt\n      tag_88\n      jumpi\n      mstore(0x00, 0x4e487b7100000000000000000000000000000000000000000000000000000000)\n      mstore(0x04, 0x32)\n      revert(0x00, 0x24)\n    tag_88:\n      0x20\n      mul\n      0x20\n      add\n      add\n        /* \"contracts/ResultTally.sol\":5583:5622  registeredVotersList[index] = candidate */\n      swap1\n      0xffffffffffffffffffffffffffffffffffffffff\n      and\n      swap1\n      dup2\n      0xffffffffffffffffffffffffffffffffffffffff\n      and\n      dup2\n      mstore\n      pop\n      pop\n        /* \"contracts/ResultTally.sol\":5640:5647  index++ */\n      dup3\n      dup1\n      tag_89\n      swap1\n      tag_90\n      jump\t// in\n    tag_89:\n      swap4\n      pop\n      pop\n        /* \"contracts/ResultTally.sol\":5542:5662  if (voters[candidate]) {... */\n    tag_87:\n        /* \"contracts/ResultTally.sol\":5433:5672  for (uint i = 0; i < candidateCount; i++) {... */\n      pop\n        /* \"contracts/ResultTally.sol\":5470:5473  i++ */\n      dup1\n      dup1\n      tag_91\n      swap1\n      tag_90\n      jump\t// in\n    tag_91:\n      swap2\n      pop\n      pop\n        /* \"contracts/ResultTally.sol\":5433:5672  for (uint i = 0; i < candidateCount; i++) {... */\n      jump(tag_82)\n    tag_83:\n      pop\n        /* \"contracts/ResultTally.sol\":5688:5708  registeredVotersList */\n      dup2\n        /* \"contracts/ResultTally.sol\":5681:5708  return registeredVotersList */\n      swap3\n      pop\n      pop\n      pop\n        /* \"contracts/ResultTally.sol\":5250:5715  function getRegisteredVoters() public view returns (address[] memory) {... */\n      swap1\n      jump\t// out\n        /* \"contracts/ResultTally.sol\":2005:2225  function revokeAdmin(address _user) public onlyAdmin {... */\n    tag_37:\n        /* \"contracts/ResultTally.sol\":1415:1422  isAdmin */\n      0x01\n        /* \"contracts/ResultTally.sol\":1415:1434  isAdmin[msg.sender] */\n      0x00\n        /* \"contracts/ResultTally.sol\":1423:1433  msg.sender */\n      caller\n        /* \"contracts/ResultTally.sol\":1415:1434  isAdmin[msg.sender] */\n      0xffffffffffffffffffffffffffffffffffffffff\n      and\n      0xffffffffffffffffffffffffffffffffffffffff\n      and\n      dup2\n      mstore\n      0x20\n      add\n      swap1\n      dup2\n      mstore\n      0x20\n      add\n      0x00\n      keccak256\n      0x00\n      swap1\n      sload\n      swap1\n      0x0100\n      exp\n      swap1\n      div\n      0xff\n      and\n        /* \"contracts/ResultTally.sol\":1407:1472  require(isAdmin[msg.sender], \"Only admin can call this function\") */\n      tag_93\n      jumpi\n      mload(0x40)\n      0x08c379a000000000000000000000000000000000000000000000000000000000\n      dup2\n      mstore\n      0x04\n      add\n      tag_94\n      swap1\n      tag_95\n      jump\t// in\n    tag_94:\n      mload(0x40)\n      dup1\n      swap2\n      sub\n      swap1\n      revert\n    tag_93:\n        /* \"contracts/ResultTally.sol\":2085:2090  admin */\n      0x00\n      dup1\n      sload\n      swap1\n      0x0100\n      exp\n      swap1\n      div\n      0xffffffffffffffffffffffffffffffffffffffff\n      and\n        /* \"contracts/ResultTally.sol\":2076:2090  _user != admin */\n      0xffffffffffffffffffffffffffffffffffffffff\n      and\n        /* \"contracts/ResultTally.sol\":2076:2081  _user */\n      dup2\n        /* \"contracts/ResultTally.sol\":2076:2090  _user != admin */\n      0xffffffffffffffffffffffffffffffffffffffff\n      and\n      eq\n      iszero\n        /* \"contracts/ResultTally.sol\":2068:2145  require(_user != admin, \"Cannot revoke admin privileges from the main admin\") */\n      tag_97\n      jumpi\n      mload(0x40)\n      0x08c379a000000000000000000000000000000000000000000000000000000000\n      dup2\n      mstore\n      0x04\n      add\n      tag_98\n      swap1\n      tag_99\n      jump\t// in\n    tag_98:\n      mload(0x40)\n      dup1\n      swap2\n      sub\n      swap1\n      revert\n    tag_97:\n        /* \"contracts/ResultTally.sol\":2172:2177  false */\n      0x00\n        /* \"contracts/ResultTally.sol\":2155:2162  isAdmin */\n      0x01\n        /* \"contracts/ResultTally.sol\":2155:2169  isAdmin[_user] */\n      0x00\n        /* \"contracts/ResultTally.sol\":2163:2168  _user */\n      dup4\n        /* \"contracts/ResultTally.sol\":2155:2169  isAdmin[_user] */\n      0xffffffffffffffffffffffffffffffffffffffff\n      and\n      0xffffffffffffffffffffffffffffffffffffffff\n      and\n      dup2\n      mstore\n      0x20\n      add\n      swap1\n      dup2\n      mstore\n      0x20\n      add\n      0x00\n      keccak256\n      0x00\n        /* \"contracts/ResultTally.sol\":2155:2177  isAdmin[_user] = false */\n      0x0100\n      exp\n      dup2\n      sload\n      dup2\n      0xff\n      mul\n      not\n      and\n      swap1\n      dup4\n      iszero\n      iszero\n      mul\n      or\n      swap1\n      sstore\n      pop\n        /* \"contracts/ResultTally.sol\":2205:2210  _user */\n      dup1\n        /* \"contracts/ResultTally.sol\":2192:2218  AdminUpdated(_user, false) */\n      0xffffffffffffffffffffffffffffffffffffffff\n      and\n      0x235bc17e7930760029e9f4d860a2a8089976de5b381cf8380fc11c1d88a11133\n        /* \"contracts/ResultTally.sol\":2212:2217  false */\n      0x00\n        /* \"contracts/ResultTally.sol\":2192:2218  AdminUpdated(_user, false) */\n      mload(0x40)\n      tag_100\n      swap2\n      swap1\n      tag_25\n      jump\t// in\n    tag_100:\n      mload(0x40)\n      dup1\n      swap2\n      sub\n      swap1\n      log2\n        /* \"contracts/ResultTally.sol\":2005:2225  function revokeAdmin(address _user) public onlyAdmin {... */\n      pop\n      jump\t// out\n        /* \"contracts/ResultTally.sol\":1771:1901  function grantAdmin(address _user) public onlyAdmin {... */\n    tag_40:\n        /* \"contracts/ResultTally.sol\":1415:1422  isAdmin */\n      0x01\n        /* \"contracts/ResultTally.sol\":1415:1434  isAdmin[msg.sender] */\n      0x00\n        /* \"contracts/ResultTally.sol\":1423:1433  msg.sender */\n      caller\n        /* \"contracts/ResultTally.sol\":1415:1434  isAdmin[msg.sender] */\n      0xffffffffffffffffffffffffffffffffffffffff\n      and\n      0xffffffffffffffffffffffffffffffffffffffff\n      and\n      dup2\n      mstore\n      0x20\n      add\n      swap1\n      dup2\n      mstore\n      0x20\n      add\n      0x00\n      keccak256\n      0x00\n      swap1\n      sload\n      swap1\n      0x0100\n      exp\n      swap1\n      div\n      0xff\n      and\n        /* \"contracts/ResultTally.sol\":1407:1472  require(isAdmin[msg.sender], \"Only admin can call this function\") */\n      tag_102\n      jumpi\n      mload(0x40)\n      0x08c379a000000000000000000000000000000000000000000000000000000000\n      dup2\n      mstore\n      0x04\n      add\n      tag_103\n      swap1\n      tag_95\n      jump\t// in\n    tag_103:\n      mload(0x40)\n      dup1\n      swap2\n      sub\n      swap1\n      revert\n    tag_102:\n        /* \"contracts/ResultTally.sol\":1850:1854  true */\n      0x01\n        /* \"contracts/ResultTally.sol\":1833:1840  isAdmin */\n      dup1\n        /* \"contracts/ResultTally.sol\":1833:1847  isAdmin[_user] */\n      0x00\n        /* \"contracts/ResultTally.sol\":1841:1846  _user */\n      dup4\n        /* \"contracts/ResultTally.sol\":1833:1847  isAdmin[_user] */\n      0xffffffffffffffffffffffffffffffffffffffff\n      and\n      0xffffffffffffffffffffffffffffffffffffffff\n      and\n      dup2\n      mstore\n      0x20\n      add\n      swap1\n      dup2\n      mstore\n      0x20\n      add\n      0x00\n      keccak256\n      0x00\n        /* \"contracts/ResultTally.sol\":1833:1854  isAdmin[_user] = true */\n      0x0100\n      exp\n      dup2\n      sload\n      dup2\n      0xff\n      mul\n      not\n      and\n      swap1\n      dup4\n      iszero\n      iszero\n      mul\n      or\n      swap1\n      sstore\n      pop\n        /* \"contracts/ResultTally.sol\":1882:1887  _user */\n      dup1\n        /* \"contracts/ResultTally.sol\":1869:1894  AdminUpdated(_user, true) */\n      0xffffffffffffffffffffffffffffffffffffffff\n      and\n      0x235bc17e7930760029e9f4d860a2a8089976de5b381cf8380fc11c1d88a11133\n        /* \"contracts/ResultTally.sol\":1889:1893  true */\n      0x01\n        /* \"contracts/ResultTally.sol\":1869:1894  AdminUpdated(_user, true) */\n      mload(0x40)\n      tag_105\n      swap2\n      swap1\n      tag_25\n      jump\t// in\n    tag_105:\n      mload(0x40)\n      dup1\n      swap2\n      sub\n      swap1\n      log2\n        /* \"contracts/ResultTally.sol\":1771:1901  function grantAdmin(address _user) public onlyAdmin {... */\n      pop\n      jump\t// out\n        /* \"contracts/ResultTally.sol\":2744:3049  function registerVoter(address _voter) public onlyAdmin {... */\n    tag_43:\n        /* \"contracts/ResultTally.sol\":1415:1422  isAdmin */\n      0x01\n        /* \"contracts/ResultTally.sol\":1415:1434  isAdmin[msg.sender] */\n      0x00\n        /* \"contracts/ResultTally.sol\":1423:1433  msg.sender */\n      caller\n        /* \"contracts/ResultTally.sol\":1415:1434  isAdmin[msg.sender] */\n      0xffffffffffffffffffffffffffffffffffffffff\n      and\n      0xffffffffffffffffffffffffffffffffffffffff\n      and\n      dup2\n      mstore\n      0x20\n      add\n      swap1\n      dup2\n      mstore\n      0x20\n      add\n      0x00\n      keccak256\n      0x00\n      swap1\n      sload\n      swap1\n      0x0100\n      exp\n      swap1\n      div\n      0xff\n      and\n        /* \"contracts/ResultTally.sol\":1407:1472  require(isAdmin[msg.sender], \"Only admin can call this function\") */\n      tag_107\n      jumpi\n      mload(0x40)\n      0x08c379a000000000000000000000000000000000000000000000000000000000\n      dup2\n      mstore\n      0x04\n      add\n      tag_108\n      swap1\n      tag_95\n      jump\t// in\n    tag_108:\n      mload(0x40)\n      dup1\n      swap2\n      sub\n      swap1\n      revert\n    tag_107:\n        /* \"contracts/ResultTally.sol\":2819:2825  voters */\n      0x03\n        /* \"contracts/ResultTally.sol\":2819:2833  voters[_voter] */\n      0x00\n        /* \"contracts/ResultTally.sol\":2826:2832  _voter */\n      dup3\n        /* \"contracts/ResultTally.sol\":2819:2833  voters[_voter] */\n      0xffffffffffffffffffffffffffffffffffffffff\n      and\n      0xffffffffffffffffffffffffffffffffffffffff\n      and\n      dup2\n      mstore\n      0x20\n      add\n      swap1\n      dup2\n      mstore\n      0x20\n      add\n      0x00\n      keccak256\n      0x00\n      swap1\n      sload\n      swap1\n      0x0100\n      exp\n      swap1\n      div\n      0xff\n      and\n        /* \"contracts/ResultTally.sol\":2818:2833  !voters[_voter] */\n      iszero\n        /* \"contracts/ResultTally.sol\":2810:2878  require(!voters[_voter], \"Address is already registered as a voter\") */\n      tag_110\n      jumpi\n      mload(0x40)\n      0x08c379a000000000000000000000000000000000000000000000000000000000\n      dup2\n      mstore\n      0x04\n      add\n      tag_111\n      swap1\n      tag_112\n      jump\t// in\n    tag_111:\n      mload(0x40)\n      dup1\n      swap2\n      sub\n      swap1\n      revert\n    tag_110:\n        /* \"contracts/ResultTally.sol\":2897:2915  candidateAddresses */\n      0x02\n        /* \"contracts/ResultTally.sol\":2897:2923  candidateAddresses[_voter] */\n      0x00\n        /* \"contracts/ResultTally.sol\":2916:2922  _voter */\n      dup3\n        /* \"contracts/ResultTally.sol\":2897:2923  candidateAddresses[_voter] */\n      0xffffffffffffffffffffffffffffffffffffffff\n      and\n      0xffffffffffffffffffffffffffffffffffffffff\n      and\n      dup2\n      mstore\n      0x20\n      add\n      swap1\n      dup2\n      mstore\n      0x20\n      add\n      0x00\n      keccak256\n      0x00\n      swap1\n      sload\n      swap1\n      0x0100\n      exp\n      swap1\n      div\n      0xff\n      and\n        /* \"contracts/ResultTally.sol\":2896:2923  !candidateAddresses[_voter] */\n      iszero\n        /* \"contracts/ResultTally.sol\":2888:2972  require(!candidateAddresses[_voter], \"Address is already registered as a candidate\") */\n      tag_113\n      jumpi\n      mload(0x40)\n      0x08c379a000000000000000000000000000000000000000000000000000000000\n      dup2\n      mstore\n      0x04\n      add\n      tag_114\n      swap1\n      tag_115\n      jump\t// in\n    tag_114:\n      mload(0x40)\n      dup1\n      swap2\n      sub\n      swap1\n      revert\n    tag_113:\n        /* \"contracts/ResultTally.sol\":3000:3004  true */\n      0x01\n        /* \"contracts/ResultTally.sol\":2983:2989  voters */\n      0x03\n        /* \"contracts/ResultTally.sol\":2983:2997  voters[_voter] */\n      0x00\n        /* \"contracts/ResultTally.sol\":2990:2996  _voter */\n      dup4\n        /* \"contracts/ResultTally.sol\":2983:2997  voters[_voter] */\n      0xffffffffffffffffffffffffffffffffffffffff\n      and\n      0xffffffffffffffffffffffffffffffffffffffff\n      and\n      dup2\n      mstore\n      0x20\n      add\n      swap1\n      dup2\n      mstore\n      0x20\n      add\n      0x00\n      keccak256\n      0x00\n        /* \"contracts/ResultTally.sol\":2983:3004  voters[_voter] = true */\n      0x0100\n      exp\n      dup2\n      sload\n      dup2\n      0xff\n      mul\n      not\n      and\n      swap1\n      dup4\n      iszero\n      iszero\n      mul\n      or\n      swap1\n      sstore\n      pop\n        /* \"contracts/ResultTally.sol\":3035:3041  _voter */\n      dup1\n        /* \"contracts/ResultTally.sol\":3019:3042  VoterRegistered(_voter) */\n      0xffffffffffffffffffffffffffffffffffffffff\n      and\n      0xb6be2187d059cc2a55fe29e0e503b566e1e0f8c8780096e185429350acffd3dd\n      mload(0x40)\n      mload(0x40)\n      dup1\n      swap2\n      sub\n      swap1\n      log2\n        /* \"contracts/ResultTally.sol\":2744:3049  function registerVoter(address _voter) public onlyAdmin {... */\n      pop\n      jump\t// out\n        /* \"contracts/ResultTally.sol\":5778:6271  function getRegisteredCandidates() public view returns (address[] memory) {... */\n    tag_45:\n        /* \"contracts/ResultTally.sol\":5834:5850  address[] memory */\n      0x60\n        /* \"contracts/ResultTally.sol\":5862:5903  address[] memory registeredCandidatesList */\n      0x00\n        /* \"contracts/ResultTally.sol\":5920:5934  candidateCount */\n      sload(0x05)\n        /* \"contracts/ResultTally.sol\":5906:5935  new address[](candidateCount) */\n      0xffffffffffffffff\n      dup2\n      gt\n      iszero\n      tag_117\n      jumpi\n      mstore(0x00, 0x4e487b7100000000000000000000000000000000000000000000000000000000)\n      mstore(0x04, 0x41)\n      revert(0x00, 0x24)\n    tag_117:\n      mload(0x40)\n      swap1\n      dup1\n      dup3\n      mstore\n      dup1\n      0x20\n      mul\n      0x20\n      add\n      dup3\n      add\n      0x40\n      mstore\n      dup1\n      iszero\n      tag_118\n      jumpi\n      dup2\n      0x20\n      add\n      0x20\n      dup3\n      mul\n      dup1\n      calldatasize\n      dup4\n      calldatacopy\n      dup1\n      dup3\n      add\n      swap2\n      pop\n      pop\n      swap1\n      pop\n    tag_118:\n      pop\n        /* \"contracts/ResultTally.sol\":5862:5935  address[] memory registeredCandidatesList = new address[](candidateCount) */\n      swap1\n      pop\n        /* \"contracts/ResultTally.sol\":5945:5955  uint index */\n      0x00\n        /* \"contracts/ResultTally.sol\":5974:5980  uint i */\n      dup1\n        /* \"contracts/ResultTally.sol\":5969:6224  for (uint i = 0; i < candidateCount; i++) {... */\n    tag_119:\n        /* \"contracts/ResultTally.sol\":5990:6004  candidateCount */\n      sload(0x05)\n        /* \"contracts/ResultTally.sol\":5986:5987  i */\n      dup2\n        /* \"contracts/ResultTally.sol\":5986:6004  i < candidateCount */\n      lt\n        /* \"contracts/ResultTally.sol\":5969:6224  for (uint i = 0; i < candidateCount; i++) {... */\n      iszero\n      tag_120\n      jumpi\n        /* \"contracts/ResultTally.sol\":6025:6042  address candidate */\n      0x00\n        /* \"contracts/ResultTally.sol\":6045:6064  candidateAtIndex(i) */\n      tag_122\n        /* \"contracts/ResultTally.sol\":6062:6063  i */\n      dup3\n        /* \"contracts/ResultTally.sol\":6045:6061  candidateAtIndex */\n      tag_86\n        /* \"contracts/ResultTally.sol\":6045:6064  candidateAtIndex(i) */\n      jump\t// in\n    tag_122:\n        /* \"contracts/ResultTally.sol\":6025:6064  address candidate = candidateAtIndex(i) */\n      swap1\n      pop\n        /* \"contracts/ResultTally.sol\":6082:6100  candidateAddresses */\n      0x02\n        /* \"contracts/ResultTally.sol\":6082:6111  candidateAddresses[candidate] */\n      0x00\n        /* \"contracts/ResultTally.sol\":6101:6110  candidate */\n      dup3\n        /* \"contracts/ResultTally.sol\":6082:6111  candidateAddresses[candidate] */\n      0xffffffffffffffffffffffffffffffffffffffff\n      and\n      0xffffffffffffffffffffffffffffffffffffffff\n      and\n      dup2\n      mstore\n      0x20\n      add\n      swap1\n      dup2\n      mstore\n      0x20\n      add\n      0x00\n      keccak256\n      0x00\n      swap1\n      sload\n      swap1\n      0x0100\n      exp\n      swap1\n      div\n      0xff\n      and\n        /* \"contracts/ResultTally.sol\":6078:6214  if (candidateAddresses[candidate]) {... */\n      iszero\n      tag_123\n      jumpi\n        /* \"contracts/ResultTally.sol\":6165:6174  candidate */\n      dup1\n        /* \"contracts/ResultTally.sol\":6131:6155  registeredCandidatesList */\n      dup5\n        /* \"contracts/ResultTally.sol\":6156:6161  index */\n      dup5\n        /* \"contracts/ResultTally.sol\":6131:6162  registeredCandidatesList[index] */\n      dup2\n      mload\n      dup2\n      lt\n      tag_124\n      jumpi\n      mstore(0x00, 0x4e487b7100000000000000000000000000000000000000000000000000000000)\n      mstore(0x04, 0x32)\n      revert(0x00, 0x24)\n    tag_124:\n      0x20\n      mul\n      0x20\n      add\n      add\n        /* \"contracts/ResultTally.sol\":6131:6174  registeredCandidatesList[index] = candidate */\n      swap1\n      0xffffffffffffffffffffffffffffffffffffffff\n      and\n      swap1\n      dup2\n      0xffffffffffffffffffffffffffffffffffffffff\n      and\n      dup2\n      mstore\n      pop\n      pop\n        /* \"contracts/ResultTally.sol\":6192:6199  index++ */\n      dup3\n      dup1\n      tag_125\n      swap1\n      tag_90\n      jump\t// in\n    tag_125:\n      swap4\n      pop\n      pop\n        /* \"contracts/ResultTally.sol\":6078:6214  if (candidateAddresses[candidate]) {... */\n    tag_123:\n        /* \"contracts/ResultTally.sol\":5969:6224  for (uint i = 0; i < candidateCount; i++) {... */\n      pop\n        /* \"contracts/ResultTally.sol\":6006:6009  i++ */\n      dup1\n      dup1\n      tag_126\n      swap1\n      tag_90\n      jump\t// in\n    tag_126:\n      swap2\n      pop\n      pop\n        /* \"contracts/ResultTally.sol\":5969:6224  for (uint i = 0; i < candidateCount; i++) {... */\n      jump(tag_119)\n    tag_120:\n      pop\n        /* \"contracts/ResultTally.sol\":6240:6264  registeredCandidatesList */\n      dup2\n        /* \"contracts/ResultTally.sol\":6233:6264  return registeredCandidatesList */\n      swap3\n      pop\n      pop\n      pop\n        /* \"contracts/ResultTally.sol\":5778:6271  function getRegisteredCandidates() public view returns (address[] memory) {... */\n      swap1\n      jump\t// out\n        /* \"contracts/ResultTally.sol\":2314:2671  function addCandidate(address _address) public onlyAdmin {... */\n    tag_49:\n        /* \"contracts/ResultTally.sol\":1415:1422  isAdmin */\n      0x01\n        /* \"contracts/ResultTally.sol\":1415:1434  isAdmin[msg.sender] */\n      0x00\n        /* \"contracts/ResultTally.sol\":1423:1433  msg.sender */\n      caller\n        /* \"contracts/ResultTally.sol\":1415:1434  isAdmin[msg.sender] */\n      0xffffffffffffffffffffffffffffffffffffffff\n      and\n      0xffffffffffffffffffffffffffffffffffffffff\n      and\n      dup2\n      mstore\n      0x20\n      add\n      swap1\n      dup2\n      mstore\n      0x20\n      add\n      0x00\n      keccak256\n      0x00\n      swap1\n      sload\n      swap1\n      0x0100\n      exp\n      swap1\n      div\n      0xff\n      and\n        /* \"contracts/ResultTally.sol\":1407:1472  require(isAdmin[msg.sender], \"Only admin can call this function\") */\n      tag_128\n      jumpi\n      mload(0x40)\n      0x08c379a000000000000000000000000000000000000000000000000000000000\n      dup2\n      mstore\n      0x04\n      add\n      tag_129\n      swap1\n      tag_95\n      jump\t// in\n    tag_129:\n      mload(0x40)\n      dup1\n      swap2\n      sub\n      swap1\n      revert\n    tag_128:\n        /* \"contracts/ResultTally.sol\":2390:2408  candidateAddresses */\n      0x02\n        /* \"contracts/ResultTally.sol\":2390:2418  candidateAddresses[_address] */\n      0x00\n        /* \"contracts/ResultTally.sol\":2409:2417  _address */\n      dup3\n        /* \"contracts/ResultTally.sol\":2390:2418  candidateAddresses[_address] */\n      0xffffffffffffffffffffffffffffffffffffffff\n      and\n      0xffffffffffffffffffffffffffffffffffffffff\n      and\n      dup2\n      mstore\n      0x20\n      add\n      swap1\n      dup2\n      mstore\n      0x20\n      add\n      0x00\n      keccak256\n      0x00\n      swap1\n      sload\n      swap1\n      0x0100\n      exp\n      swap1\n      div\n      0xff\n      and\n        /* \"contracts/ResultTally.sol\":2389:2418  !candidateAddresses[_address] */\n      iszero\n        /* \"contracts/ResultTally.sol\":2381:2467  require(!candidateAddresses[_address], \"Address is already registered as a candidate\") */\n      tag_131\n      jumpi\n      mload(0x40)\n      0x08c379a000000000000000000000000000000000000000000000000000000000\n      dup2\n      mstore\n      0x04\n      add\n      tag_132\n      swap1\n      tag_115\n      jump\t// in\n    tag_132:\n      mload(0x40)\n      dup1\n      swap2\n      sub\n      swap1\n      revert\n    tag_131:\n        /* \"contracts/ResultTally.sol\":2486:2492  voters */\n      0x03\n        /* \"contracts/ResultTally.sol\":2486:2502  voters[_address] */\n      0x00\n        /* \"contracts/ResultTally.sol\":2493:2501  _address */\n      dup3\n        /* \"contracts/ResultTally.sol\":2486:2502  voters[_address] */\n      0xffffffffffffffffffffffffffffffffffffffff\n      and\n      0xffffffffffffffffffffffffffffffffffffffff\n      and\n      dup2\n      mstore\n      0x20\n      add\n      swap1\n      dup2\n      mstore\n      0x20\n      add\n      0x00\n      keccak256\n      0x00\n      swap1\n      sload\n      swap1\n      0x0100\n      exp\n      swap1\n      div\n      0xff\n      and\n        /* \"contracts/ResultTally.sol\":2485:2502  !voters[_address] */\n      iszero\n        /* \"contracts/ResultTally.sol\":2477:2547  require(!voters[_address], \"Address is already registered as a voter\") */\n      tag_133\n      jumpi\n      mload(0x40)\n      0x08c379a000000000000000000000000000000000000000000000000000000000\n      dup2\n      mstore\n      0x04\n      add\n      tag_134\n      swap1\n      tag_112\n      jump\t// in\n    tag_134:\n      mload(0x40)\n      dup1\n      swap2\n      sub\n      swap1\n      revert\n    tag_133:\n        /* \"contracts/ResultTally.sol\":2589:2593  true */\n      0x01\n        /* \"contracts/ResultTally.sol\":2558:2576  candidateAddresses */\n      0x02\n        /* \"contracts/ResultTally.sol\":2558:2586  candidateAddresses[_address] */\n      0x00\n        /* \"contracts/ResultTally.sol\":2577:2585  _address */\n      dup4\n        /* \"contracts/ResultTally.sol\":2558:2586  candidateAddresses[_address] */\n      0xffffffffffffffffffffffffffffffffffffffff\n      and\n      0xffffffffffffffffffffffffffffffffffffffff\n      and\n      dup2\n      mstore\n      0x20\n      add\n      swap1\n      dup2\n      mstore\n      0x20\n      add\n      0x00\n      keccak256\n      0x00\n        /* \"contracts/ResultTally.sol\":2558:2593  candidateAddresses[_address] = true */\n      0x0100\n      exp\n      dup2\n      sload\n      dup2\n      0xff\n      mul\n      not\n      and\n      swap1\n      dup4\n      iszero\n      iszero\n      mul\n      or\n      swap1\n      sstore\n      pop\n        /* \"contracts/ResultTally.sol\":2603:2617  candidateCount */\n      0x05\n      0x00\n        /* \"contracts/ResultTally.sol\":2603:2619  candidateCount++ */\n      dup2\n      sload\n      dup1\n      swap3\n      swap2\n      swap1\n      tag_135\n      swap1\n      tag_90\n      jump\t// in\n    tag_135:\n      swap2\n      swap1\n      pop\n      sstore\n      pop\n        /* \"contracts/ResultTally.sol\":2634:2664  CandidateAdded(_address, true) */\n      0x7ed5f724ccc8a182b0da831cf01b3714fd7e8a9019e6f1df3221aaa44e8bb34b\n        /* \"contracts/ResultTally.sol\":2649:2657  _address */\n      dup2\n        /* \"contracts/ResultTally.sol\":2659:2663  true */\n      0x01\n        /* \"contracts/ResultTally.sol\":2634:2664  CandidateAdded(_address, true) */\n      mload(0x40)\n      tag_136\n      swap3\n      swap2\n      swap1\n      tag_137\n      jump\t// in\n    tag_136:\n      mload(0x40)\n      dup1\n      swap2\n      sub\n      swap1\n      log1\n        /* \"contracts/ResultTally.sol\":2314:2671  function addCandidate(address _address) public onlyAdmin {... */\n      pop\n      jump\t// out\n        /* \"contracts/ResultTally.sol\":3120:3410  function castVote(address _candidate) public {... */\n    tag_52:\n        /* \"contracts/ResultTally.sol\":3183:3189  voters */\n      0x03\n        /* \"contracts/ResultTally.sol\":3183:3201  voters[msg.sender] */\n      0x00\n        /* \"contracts/ResultTally.sol\":3190:3200  msg.sender */\n      caller\n        /* \"contracts/ResultTally.sol\":3183:3201  voters[msg.sender] */\n      0xffffffffffffffffffffffffffffffffffffffff\n      and\n      0xffffffffffffffffffffffffffffffffffffffff\n      and\n      dup2\n      mstore\n      0x20\n      add\n      swap1\n      dup2\n      mstore\n      0x20\n      add\n      0x00\n      keccak256\n      0x00\n      swap1\n      sload\n      swap1\n      0x0100\n      exp\n      swap1\n      div\n      0xff\n      and\n        /* \"contracts/ResultTally.sol\":3175:3243  require(voters[msg.sender], \"Only registered voters can cast votes\") */\n      tag_139\n      jumpi\n      mload(0x40)\n      0x08c379a000000000000000000000000000000000000000000000000000000000\n      dup2\n      mstore\n      0x04\n      add\n      tag_140\n      swap1\n      tag_141\n      jump\t// in\n    tag_140:\n      mload(0x40)\n      dup1\n      swap2\n      sub\n      swap1\n      revert\n    tag_139:\n        /* \"contracts/ResultTally.sol\":3261:3279  candidateAddresses */\n      0x02\n        /* \"contracts/ResultTally.sol\":3261:3291  candidateAddresses[_candidate] */\n      0x00\n        /* \"contracts/ResultTally.sol\":3280:3290  _candidate */\n      dup3\n        /* \"contracts/ResultTally.sol\":3261:3291  candidateAddresses[_candidate] */\n      0xffffffffffffffffffffffffffffffffffffffff\n      and\n      0xffffffffffffffffffffffffffffffffffffffff\n      and\n      dup2\n      mstore\n      0x20\n      add\n      swap1\n      dup2\n      mstore\n      0x20\n      add\n      0x00\n      keccak256\n      0x00\n      swap1\n      sload\n      swap1\n      0x0100\n      exp\n      swap1\n      div\n      0xff\n      and\n        /* \"contracts/ResultTally.sol\":3253:3321  require(candidateAddresses[_candidate], \"Invalid candidate address\") */\n      tag_142\n      jumpi\n      mload(0x40)\n      0x08c379a000000000000000000000000000000000000000000000000000000000\n      dup2\n      mstore\n      0x04\n      add\n      tag_143\n      swap1\n      tag_144\n      jump\t// in\n    tag_143:\n      mload(0x40)\n      dup1\n      swap2\n      sub\n      swap1\n      revert\n    tag_142:\n        /* \"contracts/ResultTally.sol\":3332:3342  voteCounts */\n      0x04\n        /* \"contracts/ResultTally.sol\":3332:3354  voteCounts[_candidate] */\n      0x00\n        /* \"contracts/ResultTally.sol\":3343:3353  _candidate */\n      dup3\n        /* \"contracts/ResultTally.sol\":3332:3354  voteCounts[_candidate] */\n      0xffffffffffffffffffffffffffffffffffffffff\n      and\n      0xffffffffffffffffffffffffffffffffffffffff\n      and\n      dup2\n      mstore\n      0x20\n      add\n      swap1\n      dup2\n      mstore\n      0x20\n      add\n      0x00\n      keccak256\n      0x00\n        /* \"contracts/ResultTally.sol\":3332:3356  voteCounts[_candidate]++ */\n      dup2\n      sload\n      dup1\n      swap3\n      swap2\n      swap1\n      tag_145\n      swap1\n      tag_90\n      jump\t// in\n    tag_145:\n      swap2\n      swap1\n      pop\n      sstore\n      pop\n        /* \"contracts/ResultTally.sol\":3392:3402  msg.sender */\n      caller\n        /* \"contracts/ResultTally.sol\":3371:3403  VoteCast(_candidate, msg.sender) */\n      0xffffffffffffffffffffffffffffffffffffffff\n      and\n        /* \"contracts/ResultTally.sol\":3380:3390  _candidate */\n      dup2\n        /* \"contracts/ResultTally.sol\":3371:3403  VoteCast(_candidate, msg.sender) */\n      0xffffffffffffffffffffffffffffffffffffffff\n      and\n      0x113ed09b18bb8fe2635af16f21d67464502d920ff1015abfe08dbe9a2971a7e2\n      mload(0x40)\n      mload(0x40)\n      dup1\n      swap2\n      sub\n      swap1\n      log3\n        /* \"contracts/ResultTally.sol\":3120:3410  function castVote(address _candidate) public {... */\n      pop\n      jump\t// out\n        /* \"contracts/ResultTally.sol\":3757:5191  function finalizeResult() public onlyAdmin {... */\n    tag_54:\n        /* \"contracts/ResultTally.sol\":1415:1422  isAdmin */\n      0x01\n        /* \"contracts/ResultTally.sol\":1415:1434  isAdmin[msg.sender] */\n      0x00\n        /* \"contracts/ResultTally.sol\":1423:1433  msg.sender */\n      caller\n        /* \"contracts/ResultTally.sol\":1415:1434  isAdmin[msg.sender] */\n      0xffffffffffffffffffffffffffffffffffffffff\n      and\n      0xffffffffffffffffffffffffffffffffffffffff\n      and\n      dup2\n      mstore\n      0x20\n      add\n      swap1\n      dup2\n      mstore\n      0x20\n      add\n      0x00\n      keccak256\n      0x00\n      swap1\n      sload\n      swap1\n      0x0100\n      exp\n      swap1\n      div\n      0xff\n      and\n        /* \"contracts/ResultTally.sol\":1407:1472  require(isAdmin[msg.sender], \"Only admin can call this function\") */\n      tag_147\n      jumpi\n      mload(0x40)\n      0x08c379a000000000000000000000000000000000000000000000000000000000\n      dup2\n      mstore\n      0x04\n      add\n      tag_148\n      swap1\n      tag_95\n      jump\t// in\n    tag_148:\n      mload(0x40)\n      dup1\n      swap2\n      sub\n      swap1\n      revert\n    tag_147:\n        /* \"contracts/ResultTally.sol\":3880:3895  resultFinalized */\n      0x06\n      0x00\n      swap1\n      sload\n      swap1\n      0x0100\n      exp\n      swap1\n      div\n      0xff\n      and\n        /* \"contracts/ResultTally.sol\":3879:3895  !resultFinalized */\n      iszero\n        /* \"contracts/ResultTally.sol\":3871:3933  require(!resultFinalized, \"Result has already been finalized\") */\n      tag_150\n      jumpi\n      mload(0x40)\n      0x08c379a000000000000000000000000000000000000000000000000000000000\n      dup2\n      mstore\n      0x04\n      add\n      tag_151\n      swap1\n      tag_152\n      jump\t// in\n    tag_151:\n      mload(0x40)\n      dup1\n      swap2\n      sub\n      swap1\n      revert\n    tag_150:\n        /* \"contracts/ResultTally.sol\":3985:4000  uint totalVotes */\n      0x00\n        /* \"contracts/ResultTally.sol\":4019:4025  uint i */\n      dup1\n        /* \"contracts/ResultTally.sol\":4014:4169  for (uint i = 0; i < candidateCount; i++) {... */\n    tag_153:\n        /* \"contracts/ResultTally.sol\":4035:4049  candidateCount */\n      sload(0x05)\n        /* \"contracts/ResultTally.sol\":4031:4032  i */\n      dup2\n        /* \"contracts/ResultTally.sol\":4031:4049  i < candidateCount */\n      lt\n        /* \"contracts/ResultTally.sol\":4014:4169  for (uint i = 0; i < candidateCount; i++) {... */\n      iszero\n      tag_154\n      jumpi\n        /* \"contracts/ResultTally.sol\":4070:4087  address candidate */\n      0x00\n        /* \"contracts/ResultTally.sol\":4090:4109  candidateAtIndex(i) */\n      tag_156\n        /* \"contracts/ResultTally.sol\":4107:4108  i */\n      dup3\n        /* \"contracts/ResultTally.sol\":4090:4106  candidateAtIndex */\n      tag_86\n        /* \"contracts/ResultTally.sol\":4090:4109  candidateAtIndex(i) */\n      jump\t// in\n    tag_156:\n        /* \"contracts/ResultTally.sol\":4070:4109  address candidate = candidateAtIndex(i) */\n      swap1\n      pop\n        /* \"contracts/ResultTally.sol\":4137:4147  voteCounts */\n      0x04\n        /* \"contracts/ResultTally.sol\":4137:4158  voteCounts[candidate] */\n      0x00\n        /* \"contracts/ResultTally.sol\":4148:4157  candidate */\n      dup3\n        /* \"contracts/ResultTally.sol\":4137:4158  voteCounts[candidate] */\n      0xffffffffffffffffffffffffffffffffffffffff\n      and\n      0xffffffffffffffffffffffffffffffffffffffff\n      and\n      dup2\n      mstore\n      0x20\n      add\n      swap1\n      dup2\n      mstore\n      0x20\n      add\n      0x00\n      keccak256\n      sload\n        /* \"contracts/ResultTally.sol\":4123:4158  totalVotes += voteCounts[candidate] */\n      dup4\n      tag_157\n      swap2\n      swap1\n      tag_158\n      jump\t// in\n    tag_157:\n      swap3\n      pop\n        /* \"contracts/ResultTally.sol\":4014:4169  for (uint i = 0; i < candidateCount; i++) {... */\n      pop\n        /* \"contracts/ResultTally.sol\":4051:4054  i++ */\n      dup1\n      dup1\n      tag_159\n      swap1\n      tag_90\n      jump\t// in\n    tag_159:\n      swap2\n      pop\n      pop\n        /* \"contracts/ResultTally.sol\":4014:4169  for (uint i = 0; i < candidateCount; i++) {... */\n      jump(tag_153)\n    tag_154:\n      pop\n        /* \"contracts/ResultTally.sol\":4246:4263  uint decisionRate */\n      0x00\n        /* \"contracts/ResultTally.sol\":4283:4286  100 */\n      0x64\n        /* \"contracts/ResultTally.sol\":4279:4280  8 */\n      0x08\n        /* \"contracts/ResultTally.sol\":4266:4276  totalVotes */\n      dup4\n        /* \"contracts/ResultTally.sol\":4266:4280  totalVotes * 8 */\n      tag_160\n      swap2\n      swap1\n      tag_161\n      jump\t// in\n    tag_160:\n        /* \"contracts/ResultTally.sol\":4266:4286  totalVotes * 8 / 100 */\n      tag_162\n      swap2\n      swap1\n      tag_163\n      jump\t// in\n    tag_162:\n        /* \"contracts/ResultTally.sol\":4246:4286  uint decisionRate = totalVotes * 8 / 100 */\n      swap1\n      pop\n        /* \"contracts/ResultTally.sol\":4384:4419  address[] memory eligibleCandidates */\n      0x00\n        /* \"contracts/ResultTally.sol\":4436:4450  candidateCount */\n      sload(0x05)\n        /* \"contracts/ResultTally.sol\":4422:4451  new address[](candidateCount) */\n      0xffffffffffffffff\n      dup2\n      gt\n      iszero\n      tag_164\n      jumpi\n      mstore(0x00, 0x4e487b7100000000000000000000000000000000000000000000000000000000)\n      mstore(0x04, 0x41)\n      revert(0x00, 0x24)\n    tag_164:\n      mload(0x40)\n      swap1\n      dup1\n      dup3\n      mstore\n      dup1\n      0x20\n      mul\n      0x20\n      add\n      dup3\n      add\n      0x40\n      mstore\n      dup1\n      iszero\n      tag_165\n      jumpi\n      dup2\n      0x20\n      add\n      0x20\n      dup3\n      mul\n      dup1\n      calldatasize\n      dup4\n      calldatacopy\n      dup1\n      dup3\n      add\n      swap2\n      pop\n      pop\n      swap1\n      pop\n    tag_165:\n      pop\n        /* \"contracts/ResultTally.sol\":4384:4451  address[] memory eligibleCandidates = new address[](candidateCount) */\n      swap1\n      pop\n        /* \"contracts/ResultTally.sol\":4461:4479  uint eligibleCount */\n      0x00\n        /* \"contracts/ResultTally.sol\":4498:4504  uint i */\n      dup1\n        /* \"contracts/ResultTally.sol\":4493:4766  for (uint i = 0; i < candidateCount; i++) {... */\n    tag_166:\n        /* \"contracts/ResultTally.sol\":4514:4528  candidateCount */\n      sload(0x05)\n        /* \"contracts/ResultTally.sol\":4510:4511  i */\n      dup2\n        /* \"contracts/ResultTally.sol\":4510:4528  i < candidateCount */\n      lt\n        /* \"contracts/ResultTally.sol\":4493:4766  for (uint i = 0; i < candidateCount; i++) {... */\n      iszero\n      tag_167\n      jumpi\n        /* \"contracts/ResultTally.sol\":4549:4566  address candidate */\n      0x00\n        /* \"contracts/ResultTally.sol\":4569:4588  candidateAtIndex(i) */\n      tag_169\n        /* \"contracts/ResultTally.sol\":4586:4587  i */\n      dup3\n        /* \"contracts/ResultTally.sol\":4569:4585  candidateAtIndex */\n      tag_86\n        /* \"contracts/ResultTally.sol\":4569:4588  candidateAtIndex(i) */\n      jump\t// in\n    tag_169:\n        /* \"contracts/ResultTally.sol\":4549:4588  address candidate = candidateAtIndex(i) */\n      swap1\n      pop\n        /* \"contracts/ResultTally.sol\":4631:4643  decisionRate */\n      dup5\n        /* \"contracts/ResultTally.sol\":4606:4616  voteCounts */\n      0x04\n        /* \"contracts/ResultTally.sol\":4606:4627  voteCounts[candidate] */\n      0x00\n        /* \"contracts/ResultTally.sol\":4617:4626  candidate */\n      dup4\n        /* \"contracts/ResultTally.sol\":4606:4627  voteCounts[candidate] */\n      0xffffffffffffffffffffffffffffffffffffffff\n      and\n      0xffffffffffffffffffffffffffffffffffffffff\n      and\n      dup2\n      mstore\n      0x20\n      add\n      swap1\n      dup2\n      mstore\n      0x20\n      add\n      0x00\n      keccak256\n      sload\n        /* \"contracts/ResultTally.sol\":4606:4643  voteCounts[candidate] >= decisionRate */\n      lt\n        /* \"contracts/ResultTally.sol\":4602:4756  if (voteCounts[candidate] >= decisionRate) {... */\n      tag_170\n      jumpi\n        /* \"contracts/ResultTally.sol\":4699:4708  candidate */\n      dup1\n        /* \"contracts/ResultTally.sol\":4663:4681  eligibleCandidates */\n      dup5\n        /* \"contracts/ResultTally.sol\":4682:4695  eligibleCount */\n      dup5\n        /* \"contracts/ResultTally.sol\":4663:4696  eligibleCandidates[eligibleCount] */\n      dup2\n      mload\n      dup2\n      lt\n      tag_171\n      jumpi\n      mstore(0x00, 0x4e487b7100000000000000000000000000000000000000000000000000000000)\n      mstore(0x04, 0x32)\n      revert(0x00, 0x24)\n    tag_171:\n      0x20\n      mul\n      0x20\n      add\n      add\n        /* \"contracts/ResultTally.sol\":4663:4708  eligibleCandidates[eligibleCount] = candidate */\n      swap1\n      0xffffffffffffffffffffffffffffffffffffffff\n      and\n      swap1\n      dup2\n      0xffffffffffffffffffffffffffffffffffffffff\n      and\n      dup2\n      mstore\n      pop\n      pop\n        /* \"contracts/ResultTally.sol\":4726:4741  eligibleCount++ */\n      dup3\n      dup1\n      tag_172\n      swap1\n      tag_90\n      jump\t// in\n    tag_172:\n      swap4\n      pop\n      pop\n        /* \"contracts/ResultTally.sol\":4602:4756  if (voteCounts[candidate] >= decisionRate) {... */\n    tag_170:\n        /* \"contracts/ResultTally.sol\":4493:4766  for (uint i = 0; i < candidateCount; i++) {... */\n      pop\n        /* \"contracts/ResultTally.sol\":4530:4533  i++ */\n      dup1\n      dup1\n      tag_173\n      swap1\n      tag_90\n      jump\t// in\n    tag_173:\n      swap2\n      pop\n      pop\n        /* \"contracts/ResultTally.sol\":4493:4766  for (uint i = 0; i < candidateCount; i++) {... */\n      jump(tag_166)\n    tag_167:\n      pop\n        /* \"contracts/ResultTally.sol\":4854:4910  sortCandidates(eligibleCandidates, 0, eligibleCount - 1) */\n      tag_174\n        /* \"contracts/ResultTally.sol\":4869:4887  eligibleCandidates */\n      dup3\n        /* \"contracts/ResultTally.sol\":4889:4890  0 */\n      0x00\n        /* \"contracts/ResultTally.sol\":4908:4909  1 */\n      0x01\n        /* \"contracts/ResultTally.sol\":4892:4905  eligibleCount */\n      dup5\n        /* \"contracts/ResultTally.sol\":4892:4909  eligibleCount - 1 */\n      tag_175\n      swap2\n      swap1\n      tag_176\n      jump\t// in\n    tag_175:\n        /* \"contracts/ResultTally.sol\":4854:4868  sortCandidates */\n      tag_177\n        /* \"contracts/ResultTally.sol\":4854:4910  sortCandidates(eligibleCandidates, 0, eligibleCount - 1) */\n      jump\t// in\n    tag_174:\n        /* \"contracts/ResultTally.sol\":5148:5152  true */\n      0x01\n        /* \"contracts/ResultTally.sol\":5130:5145  resultFinalized */\n      0x06\n      0x00\n        /* \"contracts/ResultTally.sol\":5130:5152  resultFinalized = true */\n      0x0100\n      exp\n      dup2\n      sload\n      dup2\n      0xff\n      mul\n      not\n      and\n      swap1\n      dup4\n      iszero\n      iszero\n      mul\n      or\n      swap1\n      sstore\n      pop\n        /* \"contracts/ResultTally.sol\":5167:5184  ResultFinalized() */\n      0x65abed43f82bb10a6bdf95a0779a53e25c43baaf82d573d2e3ead4484a087ec6\n      mload(0x40)\n      mload(0x40)\n      dup1\n      swap2\n      sub\n      swap1\n      log1\n        /* \"contracts/ResultTally.sol\":1482:1483  _ */\n      pop\n      pop\n      pop\n      pop\n        /* \"contracts/ResultTally.sol\":3757:5191  function finalizeResult() public onlyAdmin {... */\n      jump\t// out\n        /* \"contracts/ResultTally.sol\":541:583  mapping(address => uint) public voteCounts */\n    tag_57:\n      mstore(0x20, 0x04)\n      dup1\n      0x00\n      mstore\n      keccak256(0x00, 0x40)\n      0x00\n      swap2\n      pop\n      swap1\n      pop\n      sload\n      dup2\n      jump\t// out\n        /* \"contracts/ResultTally.sol\":3476:3681  function getVoteCountForCandidate(address _candidate) public view returns (uint) {... */\n    tag_62:\n        /* \"contracts/ResultTally.sol\":3551:3555  uint */\n      0x00\n        /* \"contracts/ResultTally.sol\":3575:3593  candidateAddresses */\n      0x02\n        /* \"contracts/ResultTally.sol\":3575:3605  candidateAddresses[_candidate] */\n      0x00\n        /* \"contracts/ResultTally.sol\":3594:3604  _candidate */\n      dup4\n        /* \"contracts/ResultTally.sol\":3575:3605  candidateAddresses[_candidate] */\n      0xffffffffffffffffffffffffffffffffffffffff\n      and\n      0xffffffffffffffffffffffffffffffffffffffff\n      and\n      dup2\n      mstore\n      0x20\n      add\n      swap1\n      dup2\n      mstore\n      0x20\n      add\n      0x00\n      keccak256\n      0x00\n      swap1\n      sload\n      swap1\n      0x0100\n      exp\n      swap1\n      div\n      0xff\n      and\n        /* \"contracts/ResultTally.sol\":3567:3635  require(candidateAddresses[_candidate], \"Invalid candidate address\") */\n      tag_179\n      jumpi\n      mload(0x40)\n      0x08c379a000000000000000000000000000000000000000000000000000000000\n      dup2\n      mstore\n      0x04\n      add\n      tag_180\n      swap1\n      tag_144\n      jump\t// in\n    tag_180:\n      mload(0x40)\n      dup1\n      swap2\n      sub\n      swap1\n      revert\n    tag_179:\n        /* \"contracts/ResultTally.sol\":3652:3662  voteCounts */\n      0x04\n        /* \"contracts/ResultTally.sol\":3652:3674  voteCounts[_candidate] */\n      0x00\n        /* \"contracts/ResultTally.sol\":3663:3673  _candidate */\n      dup4\n        /* \"contracts/ResultTally.sol\":3652:3674  voteCounts[_candidate] */\n      0xffffffffffffffffffffffffffffffffffffffff\n      and\n      0xffffffffffffffffffffffffffffffffffffffff\n      and\n      dup2\n      mstore\n      0x20\n      add\n      swap1\n      dup2\n      mstore\n      0x20\n      add\n      0x00\n      keccak256\n      sload\n        /* \"contracts/ResultTally.sol\":3645:3674  return voteCounts[_candidate] */\n      swap1\n      pop\n        /* \"contracts/ResultTally.sol\":3476:3681  function getVoteCountForCandidate(address _candidate) public view returns (uint) {... */\n      swap2\n      swap1\n      pop\n      jump\t// out\n        /* \"contracts/ResultTally.sol\":438:476  mapping(address => bool) public voters */\n    tag_66:\n      mstore(0x20, 0x03)\n      dup1\n      0x00\n      mstore\n      keccak256(0x00, 0x40)\n      0x00\n      swap2\n      pop\n      sload\n      swap1\n      0x0100\n      exp\n      swap1\n      div\n      0xff\n      and\n      dup2\n      jump\t// out\n        /* \"contracts/ResultTally.sol\":654:680  uint public candidateCount */\n    tag_69:\n      sload(0x05)\n      dup2\n      jump\t// out\n        /* \"contracts/ResultTally.sol\":316:366  mapping(address => bool) public candidateAddresses */\n    tag_73:\n      mstore(0x20, 0x02)\n      dup1\n      0x00\n      mstore\n      keccak256(0x00, 0x40)\n      0x00\n      swap2\n      pop\n      sload\n      swap1\n      0x0100\n      exp\n      swap1\n      div\n      0xff\n      and\n      dup2\n      jump\t// out\n        /* \"contracts/ResultTally.sol\":86:106  address public admin */\n    tag_76:\n      0x00\n      dup1\n      sload\n      swap1\n      0x0100\n      exp\n      swap1\n      div\n      0xffffffffffffffffffffffffffffffffffffffff\n      and\n      dup2\n      jump\t// out\n        /* \"contracts/ResultTally.sol\":6276:6825  function candidateAtIndex(uint index) internal view returns (address) {... */\n    tag_86:\n        /* \"contracts/ResultTally.sol\":6337:6344  address */\n      0x00\n        /* \"contracts/ResultTally.sol\":6372:6386  candidateCount */\n      sload(0x05)\n        /* \"contracts/ResultTally.sol\":6364:6369  index */\n      dup3\n        /* \"contracts/ResultTally.sol\":6364:6386  index < candidateCount */\n      lt\n        /* \"contracts/ResultTally.sol\":6356:6410  require(index < candidateCount, \"Index out of bounds\") */\n      tag_182\n      jumpi\n      mload(0x40)\n      0x08c379a000000000000000000000000000000000000000000000000000000000\n      dup2\n      mstore\n      0x04\n      add\n      tag_183\n      swap1\n      tag_184\n      jump\t// in\n    tag_183:\n      mload(0x40)\n      dup1\n      swap2\n      sub\n      swap1\n      revert\n    tag_182:\n        /* \"contracts/ResultTally.sol\":6420:6437  address candidate */\n      0x00\n        /* \"contracts/ResultTally.sol\":6460:6477  uint currentIndex */\n      dup1\n        /* \"contracts/ResultTally.sol\":6496:6502  uint i */\n      0x00\n        /* \"contracts/ResultTally.sol\":6491:6793  for (uint i = 0; i < candidateCount; i++) {... */\n    tag_185:\n        /* \"contracts/ResultTally.sol\":6512:6526  candidateCount */\n      sload(0x05)\n        /* \"contracts/ResultTally.sol\":6508:6509  i */\n      dup2\n        /* \"contracts/ResultTally.sol\":6508:6526  i < candidateCount */\n      lt\n        /* \"contracts/ResultTally.sol\":6491:6793  for (uint i = 0; i < candidateCount; i++) {... */\n      iszero\n      tag_186\n      jumpi\n        /* \"contracts/ResultTally.sol\":6551:6569  candidateAddresses */\n      0x02\n        /* \"contracts/ResultTally.sol\":6551:6576  candidateAddresses[admin] */\n      0x00\n        /* \"contracts/ResultTally.sol\":6570:6575  admin */\n      dup1\n      0x00\n      swap1\n      sload\n      swap1\n      0x0100\n      exp\n      swap1\n      div\n      0xffffffffffffffffffffffffffffffffffffffff\n      and\n        /* \"contracts/ResultTally.sol\":6551:6576  candidateAddresses[admin] */\n      0xffffffffffffffffffffffffffffffffffffffff\n      and\n      0xffffffffffffffffffffffffffffffffffffffff\n      and\n      dup2\n      mstore\n      0x20\n      add\n      swap1\n      dup2\n      mstore\n      0x20\n      add\n      0x00\n      keccak256\n      0x00\n      swap1\n      sload\n      swap1\n      0x0100\n      exp\n      swap1\n      div\n      0xff\n      and\n        /* \"contracts/ResultTally.sol\":6547:6783  if (candidateAddresses[admin]) {... */\n      iszero\n      tag_188\n      jumpi\n        /* \"contracts/ResultTally.sol\":6616:6621  index */\n      dup5\n        /* \"contracts/ResultTally.sol\":6600:6612  currentIndex */\n      dup3\n        /* \"contracts/ResultTally.sol\":6600:6621  currentIndex == index */\n      eq\n        /* \"contracts/ResultTally.sol\":6596:6769  if (currentIndex == index) {... */\n      iszero\n      tag_189\n      jumpi\n        /* \"contracts/ResultTally.sol\":6657:6662  admin */\n      0x00\n      dup1\n      sload\n      swap1\n      0x0100\n      exp\n      swap1\n      div\n      0xffffffffffffffffffffffffffffffffffffffff\n      and\n        /* \"contracts/ResultTally.sol\":6645:6662  candidate = admin */\n      swap3\n      pop\n        /* \"contracts/ResultTally.sol\":6684:6689  break */\n      jump(tag_186)\n        /* \"contracts/ResultTally.sol\":6596:6769  if (currentIndex == index) {... */\n    tag_189:\n        /* \"contracts/ResultTally.sol\":6736:6750  currentIndex++ */\n      dup2\n      dup1\n      tag_191\n      swap1\n      tag_90\n      jump\t// in\n    tag_191:\n      swap3\n      pop\n      pop\n        /* \"contracts/ResultTally.sol\":6547:6783  if (candidateAddresses[admin]) {... */\n    tag_188:\n        /* \"contracts/ResultTally.sol\":6528:6531  i++ */\n      dup1\n      dup1\n      tag_192\n      swap1\n      tag_90\n      jump\t// in\n    tag_192:\n      swap2\n      pop\n      pop\n        /* \"contracts/ResultTally.sol\":6491:6793  for (uint i = 0; i < candidateCount; i++) {... */\n      jump(tag_185)\n    tag_186:\n      pop\n        /* \"contracts/ResultTally.sol\":6809:6818  candidate */\n      dup2\n        /* \"contracts/ResultTally.sol\":6802:6818  return candidate */\n      swap3\n      pop\n      pop\n      pop\n        /* \"contracts/ResultTally.sol\":6276:6825  function candidateAtIndex(uint index) internal view returns (address) {... */\n      swap2\n      swap1\n      pop\n      jump\t// out\n        /* \"contracts/ResultTally.sol\":6919:7256  function sortCandidates(address[] memory _candidates, uint _left, uint _right) internal view {... */\n    tag_177:\n        /* \"contracts/ResultTally.sol\":7034:7040  _right */\n      dup1\n        /* \"contracts/ResultTally.sol\":7026:7031  _left */\n      dup3\n        /* \"contracts/ResultTally.sol\":7026:7040  _left < _right */\n      lt\n        /* \"contracts/ResultTally.sol\":7022:7250  if (_left < _right) {... */\n      iszero\n      tag_194\n      jumpi\n        /* \"contracts/ResultTally.sol\":7056:7072  uint _pivotIndex */\n      0x00\n        /* \"contracts/ResultTally.sol\":7075:7112  partition(_candidates, _left, _right) */\n      tag_195\n        /* \"contracts/ResultTally.sol\":7085:7096  _candidates */\n      dup5\n        /* \"contracts/ResultTally.sol\":7098:7103  _left */\n      dup5\n        /* \"contracts/ResultTally.sol\":7105:7111  _right */\n      dup5\n        /* \"contracts/ResultTally.sol\":7075:7084  partition */\n      tag_196\n        /* \"contracts/ResultTally.sol\":7075:7112  partition(_candidates, _left, _right) */\n      jump\t// in\n    tag_195:\n        /* \"contracts/ResultTally.sol\":7056:7112  uint _pivotIndex = partition(_candidates, _left, _right) */\n      swap1\n      pop\n        /* \"contracts/ResultTally.sol\":7126:7173  sortCandidates(_candidates, _left, _pivotIndex) */\n      tag_197\n        /* \"contracts/ResultTally.sol\":7141:7152  _candidates */\n      dup5\n        /* \"contracts/ResultTally.sol\":7154:7159  _left */\n      dup5\n        /* \"contracts/ResultTally.sol\":7161:7172  _pivotIndex */\n      dup4\n        /* \"contracts/ResultTally.sol\":7126:7140  sortCandidates */\n      tag_177\n        /* \"contracts/ResultTally.sol\":7126:7173  sortCandidates(_candidates, _left, _pivotIndex) */\n      jump\t// in\n    tag_197:\n        /* \"contracts/ResultTally.sol\":7187:7239  sortCandidates(_candidates, _pivotIndex + 1, _right) */\n      tag_198\n        /* \"contracts/ResultTally.sol\":7202:7213  _candidates */\n      dup5\n        /* \"contracts/ResultTally.sol\":7229:7230  1 */\n      0x01\n        /* \"contracts/ResultTally.sol\":7215:7226  _pivotIndex */\n      dup4\n        /* \"contracts/ResultTally.sol\":7215:7230  _pivotIndex + 1 */\n      tag_199\n      swap2\n      swap1\n      tag_158\n      jump\t// in\n    tag_199:\n        /* \"contracts/ResultTally.sol\":7232:7238  _right */\n      dup5\n        /* \"contracts/ResultTally.sol\":7187:7201  sortCandidates */\n      tag_177\n        /* \"contracts/ResultTally.sol\":7187:7239  sortCandidates(_candidates, _pivotIndex + 1, _right) */\n      jump\t// in\n    tag_198:\n        /* \"contracts/ResultTally.sol\":7022:7250  if (_left < _right) {... */\n      pop\n    tag_194:\n        /* \"contracts/ResultTally.sol\":6919:7256  function sortCandidates(address[] memory _candidates, uint _left, uint _right) internal view {... */\n      pop\n      pop\n      pop\n      jump\t// out\n        /* \"contracts/ResultTally.sol\":7320:7912  function partition(address[] memory _candidates, uint _left, uint _right) internal pure returns (uint) {... */\n    tag_196:\n        /* \"contracts/ResultTally.sol\":7417:7421  uint */\n      0x00\n        /* \"contracts/ResultTally.sol\":7433:7449  uint _pivotValue */\n      dup1\n        /* \"contracts/ResultTally.sol\":7452:7453  0 */\n      0x00\n        /* \"contracts/ResultTally.sol\":7433:7453  uint _pivotValue = 0 */\n      swap1\n      pop\n        /* \"contracts/ResultTally.sol\":7463:7470  uint _i */\n      0x00\n        /* \"contracts/ResultTally.sol\":7473:7478  _left */\n      dup5\n        /* \"contracts/ResultTally.sol\":7463:7478  uint _i = _left */\n      swap1\n      pop\n        /* \"contracts/ResultTally.sol\":7488:7495  uint _j */\n      0x00\n        /* \"contracts/ResultTally.sol\":7498:7504  _right */\n      dup5\n        /* \"contracts/ResultTally.sol\":7488:7504  uint _j = _right */\n      swap1\n      pop\n        /* \"contracts/ResultTally.sol\":7514:7883  while (_i < _j) {... */\n    tag_201:\n        /* \"contracts/ResultTally.sol\":7526:7528  _j */\n      dup1\n        /* \"contracts/ResultTally.sol\":7521:7523  _i */\n      dup3\n        /* \"contracts/ResultTally.sol\":7521:7528  _i < _j */\n      lt\n        /* \"contracts/ResultTally.sol\":7514:7883  while (_i < _j) {... */\n      iszero\n      tag_202\n      jumpi\n        /* \"contracts/ResultTally.sol\":7544:7614  while (_i <= _j && uint(uint160(_candidates[_i])) >= _pivotValue) _i++ */\n    tag_203:\n        /* \"contracts/ResultTally.sol\":7557:7559  _j */\n      dup1\n        /* \"contracts/ResultTally.sol\":7551:7553  _i */\n      dup3\n        /* \"contracts/ResultTally.sol\":7551:7559  _i <= _j */\n      gt\n      iszero\n        /* \"contracts/ResultTally.sol\":7551:7608  _i <= _j && uint(uint160(_candidates[_i])) >= _pivotValue */\n      dup1\n      iszero\n      tag_205\n      jumpi\n      pop\n        /* \"contracts/ResultTally.sol\":7597:7608  _pivotValue */\n      dup3\n        /* \"contracts/ResultTally.sol\":7576:7587  _candidates */\n      dup8\n        /* \"contracts/ResultTally.sol\":7588:7590  _i */\n      dup4\n        /* \"contracts/ResultTally.sol\":7576:7591  _candidates[_i] */\n      dup2\n      mload\n      dup2\n      lt\n      tag_206\n      jumpi\n      mstore(0x00, 0x4e487b7100000000000000000000000000000000000000000000000000000000)\n      mstore(0x04, 0x32)\n      revert(0x00, 0x24)\n    tag_206:\n      0x20\n      mul\n      0x20\n      add\n      add\n      mload\n        /* \"contracts/ResultTally.sol\":7563:7593  uint(uint160(_candidates[_i])) */\n      0xffffffffffffffffffffffffffffffffffffffff\n      and\n        /* \"contracts/ResultTally.sol\":7563:7608  uint(uint160(_candidates[_i])) >= _pivotValue */\n      lt\n      iszero\n        /* \"contracts/ResultTally.sol\":7551:7608  _i <= _j && uint(uint160(_candidates[_i])) >= _pivotValue */\n    tag_205:\n        /* \"contracts/ResultTally.sol\":7544:7614  while (_i <= _j && uint(uint160(_candidates[_i])) >= _pivotValue) _i++ */\n      iszero\n      tag_204\n      jumpi\n        /* \"contracts/ResultTally.sol\":7610:7614  _i++ */\n      dup2\n      dup1\n      tag_207\n      swap1\n      tag_90\n      jump\t// in\n    tag_207:\n      swap3\n      pop\n      pop\n        /* \"contracts/ResultTally.sol\":7544:7614  while (_i <= _j && uint(uint160(_candidates[_i])) >= _pivotValue) _i++ */\n      jump(tag_203)\n    tag_204:\n        /* \"contracts/ResultTally.sol\":7628:7697  while (_i <= _j && uint(uint160(_candidates[_j])) < _pivotValue) _j-- */\n    tag_208:\n        /* \"contracts/ResultTally.sol\":7641:7643  _j */\n      dup1\n        /* \"contracts/ResultTally.sol\":7635:7637  _i */\n      dup3\n        /* \"contracts/ResultTally.sol\":7635:7643  _i <= _j */\n      gt\n      iszero\n        /* \"contracts/ResultTally.sol\":7635:7691  _i <= _j && uint(uint160(_candidates[_j])) < _pivotValue */\n      dup1\n      iszero\n      tag_210\n      jumpi\n      pop\n        /* \"contracts/ResultTally.sol\":7680:7691  _pivotValue */\n      dup3\n        /* \"contracts/ResultTally.sol\":7660:7671  _candidates */\n      dup8\n        /* \"contracts/ResultTally.sol\":7672:7674  _j */\n      dup3\n        /* \"contracts/ResultTally.sol\":7660:7675  _candidates[_j] */\n      dup2\n      mload\n      dup2\n      lt\n      tag_211\n      jumpi\n      mstore(0x00, 0x4e487b7100000000000000000000000000000000000000000000000000000000)\n      mstore(0x04, 0x32)\n      revert(0x00, 0x24)\n    tag_211:\n      0x20\n      mul\n      0x20\n      add\n      add\n      mload\n        /* \"contracts/ResultTally.sol\":7647:7677  uint(uint160(_candidates[_j])) */\n      0xffffffffffffffffffffffffffffffffffffffff\n      and\n        /* \"contracts/ResultTally.sol\":7647:7691  uint(uint160(_candidates[_j])) < _pivotValue */\n      lt\n        /* \"contracts/ResultTally.sol\":7635:7691  _i <= _j && uint(uint160(_candidates[_j])) < _pivotValue */\n    tag_210:\n        /* \"contracts/ResultTally.sol\":7628:7697  while (_i <= _j && uint(uint160(_candidates[_j])) < _pivotValue) _j-- */\n      iszero\n      tag_209\n      jumpi\n        /* \"contracts/ResultTally.sol\":7693:7697  _j-- */\n      dup1\n      dup1\n      tag_212\n      swap1\n      tag_213\n      jump\t// in\n    tag_212:\n      swap2\n      pop\n      pop\n        /* \"contracts/ResultTally.sol\":7628:7697  while (_i <= _j && uint(uint160(_candidates[_j])) < _pivotValue) _j-- */\n      jump(tag_208)\n    tag_209:\n        /* \"contracts/ResultTally.sol\":7720:7722  _j */\n      dup1\n        /* \"contracts/ResultTally.sol\":7715:7717  _i */\n      dup3\n        /* \"contracts/ResultTally.sol\":7715:7722  _i < _j */\n      lt\n        /* \"contracts/ResultTally.sol\":7711:7873  if (_i < _j) {... */\n      iszero\n      tag_214\n      jumpi\n        /* \"contracts/ResultTally.sol\":7781:7792  _candidates */\n      dup7\n        /* \"contracts/ResultTally.sol\":7793:7795  _j */\n      dup2\n        /* \"contracts/ResultTally.sol\":7781:7796  _candidates[_j] */\n      dup2\n      mload\n      dup2\n      lt\n      tag_215\n      jumpi\n      mstore(0x00, 0x4e487b7100000000000000000000000000000000000000000000000000000000)\n      mstore(0x04, 0x32)\n      revert(0x00, 0x24)\n    tag_215:\n      0x20\n      mul\n      0x20\n      add\n      add\n      mload\n        /* \"contracts/ResultTally.sol\":7798:7809  _candidates */\n      dup8\n        /* \"contracts/ResultTally.sol\":7810:7812  _i */\n      dup4\n        /* \"contracts/ResultTally.sol\":7798:7813  _candidates[_i] */\n      dup2\n      mload\n      dup2\n      lt\n      tag_216\n      jumpi\n      mstore(0x00, 0x4e487b7100000000000000000000000000000000000000000000000000000000)\n      mstore(0x04, 0x32)\n      revert(0x00, 0x24)\n    tag_216:\n      0x20\n      mul\n      0x20\n      add\n      add\n      mload\n        /* \"contracts/ResultTally.sol\":7744:7755  _candidates */\n      dup9\n        /* \"contracts/ResultTally.sol\":7756:7758  _i */\n      dup5\n        /* \"contracts/ResultTally.sol\":7744:7759  _candidates[_i] */\n      dup2\n      mload\n      dup2\n      lt\n      tag_217\n      jumpi\n      mstore(0x00, 0x4e487b7100000000000000000000000000000000000000000000000000000000)\n      mstore(0x04, 0x32)\n      revert(0x00, 0x24)\n    tag_217:\n      0x20\n      mul\n      0x20\n      add\n      add\n        /* \"contracts/ResultTally.sol\":7761:7772  _candidates */\n      dup10\n        /* \"contracts/ResultTally.sol\":7773:7775  _j */\n      dup5\n        /* \"contracts/ResultTally.sol\":7761:7776  _candidates[_j] */\n      dup2\n      mload\n      dup2\n      lt\n      tag_218\n      jumpi\n      mstore(0x00, 0x4e487b7100000000000000000000000000000000000000000000000000000000)\n      mstore(0x04, 0x32)\n      revert(0x00, 0x24)\n    tag_218:\n      0x20\n      mul\n      0x20\n      add\n      add\n        /* \"contracts/ResultTally.sol\":7742:7814  ( _candidates[_i], _candidates[_j]) = (_candidates[_j], _candidates[_i]) */\n      dup3\n      0xffffffffffffffffffffffffffffffffffffffff\n      and\n      0xffffffffffffffffffffffffffffffffffffffff\n      and\n      dup2\n      mstore\n      pop\n      dup3\n      0xffffffffffffffffffffffffffffffffffffffff\n      and\n      0xffffffffffffffffffffffffffffffffffffffff\n      and\n      dup2\n      mstore\n      pop\n      pop\n      pop\n        /* \"contracts/ResultTally.sol\":7832:7836  _i++ */\n      dup2\n      dup1\n      tag_219\n      swap1\n      tag_90\n      jump\t// in\n    tag_219:\n      swap3\n      pop\n      pop\n        /* \"contracts/ResultTally.sol\":7854:7858  _j-- */\n      dup1\n      dup1\n      tag_220\n      swap1\n      tag_213\n      jump\t// in\n    tag_220:\n      swap2\n      pop\n      pop\n        /* \"contracts/ResultTally.sol\":7711:7873  if (_i < _j) {... */\n    tag_214:\n        /* \"contracts/ResultTally.sol\":7514:7883  while (_i < _j) {... */\n      jump(tag_201)\n    tag_202:\n        /* \"contracts/ResultTally.sol\":7904:7905  1 */\n      0x01\n        /* \"contracts/ResultTally.sol\":7899:7901  _i */\n      dup3\n        /* \"contracts/ResultTally.sol\":7899:7905  _i - 1 */\n      tag_221\n      swap2\n      swap1\n      tag_176\n      jump\t// in\n    tag_221:\n        /* \"contracts/ResultTally.sol\":7892:7905  return _i - 1 */\n      swap4\n      pop\n      pop\n      pop\n      pop\n        /* \"contracts/ResultTally.sol\":7320:7912  function partition(address[] memory _candidates, uint _left, uint _right) internal pure returns (uint) {... */\n      swap4\n      swap3\n      pop\n      pop\n      pop\n      jump\t// out\n        /* \"#utility.yul\":7:146   */\n    tag_223:\n      0x00\n        /* \"#utility.yul\":91:97   */\n      dup2\n        /* \"#utility.yul\":78:98   */\n      calldataload\n        /* \"#utility.yul\":69:98   */\n      swap1\n      pop\n        /* \"#utility.yul\":107:140   */\n      tag_225\n        /* \"#utility.yul\":134:139   */\n      dup2\n        /* \"#utility.yul\":107:140   */\n      tag_226\n      jump\t// in\n    tag_225:\n        /* \"#utility.yul\":59:146   */\n      swap3\n      swap2\n      pop\n      pop\n      jump\t// out\n        /* \"#utility.yul\":152:414   */\n    tag_28:\n      0x00\n        /* \"#utility.yul\":260:262   */\n      0x20\n        /* \"#utility.yul\":248:257   */\n      dup3\n        /* \"#utility.yul\":239:246   */\n      dup5\n        /* \"#utility.yul\":235:258   */\n      sub\n        /* \"#utility.yul\":231:263   */\n      slt\n        /* \"#utility.yul\":228:230   */\n      iszero\n      tag_228\n      jumpi\n        /* \"#utility.yul\":276:277   */\n      0x00\n        /* \"#utility.yul\":273:274   */\n      dup1\n        /* \"#utility.yul\":266:278   */\n      revert\n        /* \"#utility.yul\":228:230   */\n    tag_228:\n        /* \"#utility.yul\":319:320   */\n      0x00\n        /* \"#utility.yul\":344:397   */\n      tag_229\n        /* \"#utility.yul\":389:396   */\n      dup5\n        /* \"#utility.yul\":380:386   */\n      dup3\n        /* \"#utility.yul\":369:378   */\n      dup6\n        /* \"#utility.yul\":365:387   */\n      add\n        /* \"#utility.yul\":344:397   */\n      tag_223\n      jump\t// in\n    tag_229:\n        /* \"#utility.yul\":334:397   */\n      swap2\n      pop\n        /* \"#utility.yul\":290:407   */\n      pop\n        /* \"#utility.yul\":218:414   */\n      swap3\n      swap2\n      pop\n      pop\n      jump\t// out\n        /* \"#utility.yul\":420:599   */\n    tag_230:\n      0x00\n        /* \"#utility.yul\":510:556   */\n      tag_232\n        /* \"#utility.yul\":552:555   */\n      dup4\n        /* \"#utility.yul\":544:550   */\n      dup4\n        /* \"#utility.yul\":510:556   */\n      tag_233\n      jump\t// in\n    tag_232:\n        /* \"#utility.yul\":588:592   */\n      0x20\n        /* \"#utility.yul\":583:586   */\n      dup4\n        /* \"#utility.yul\":579:593   */\n      add\n        /* \"#utility.yul\":565:593   */\n      swap1\n      pop\n        /* \"#utility.yul\":500:599   */\n      swap3\n      swap2\n      pop\n      pop\n      jump\t// out\n        /* \"#utility.yul\":605:713   */\n    tag_233:\n        /* \"#utility.yul\":682:706   */\n      tag_235\n        /* \"#utility.yul\":700:705   */\n      dup2\n        /* \"#utility.yul\":682:706   */\n      tag_236\n      jump\t// in\n    tag_235:\n        /* \"#utility.yul\":677:680   */\n      dup3\n        /* \"#utility.yul\":670:707   */\n      mstore\n        /* \"#utility.yul\":660:713   */\n      pop\n      pop\n      jump\t// out\n        /* \"#utility.yul\":719:837   */\n    tag_237:\n        /* \"#utility.yul\":806:830   */\n      tag_239\n        /* \"#utility.yul\":824:829   */\n      dup2\n        /* \"#utility.yul\":806:830   */\n      tag_236\n      jump\t// in\n    tag_239:\n        /* \"#utility.yul\":801:804   */\n      dup3\n        /* \"#utility.yul\":794:831   */\n      mstore\n        /* \"#utility.yul\":784:837   */\n      pop\n      pop\n      jump\t// out\n        /* \"#utility.yul\":873:1605   */\n    tag_240:\n      0x00\n        /* \"#utility.yul\":1021:1075   */\n      tag_242\n        /* \"#utility.yul\":1069:1074   */\n      dup3\n        /* \"#utility.yul\":1021:1075   */\n      tag_243\n      jump\t// in\n    tag_242:\n        /* \"#utility.yul\":1091:1177   */\n      tag_244\n        /* \"#utility.yul\":1170:1176   */\n      dup2\n        /* \"#utility.yul\":1165:1168   */\n      dup6\n        /* \"#utility.yul\":1091:1177   */\n      tag_245\n      jump\t// in\n    tag_244:\n        /* \"#utility.yul\":1084:1177   */\n      swap4\n      pop\n        /* \"#utility.yul\":1201:1257   */\n      tag_246\n        /* \"#utility.yul\":1251:1256   */\n      dup4\n        /* \"#utility.yul\":1201:1257   */\n      tag_247\n      jump\t// in\n    tag_246:\n        /* \"#utility.yul\":1280:1287   */\n      dup1\n        /* \"#utility.yul\":1311:1312   */\n      0x00\n        /* \"#utility.yul\":1296:1580   */\n    tag_248:\n        /* \"#utility.yul\":1321:1327   */\n      dup4\n        /* \"#utility.yul\":1318:1319   */\n      dup2\n        /* \"#utility.yul\":1315:1328   */\n      lt\n        /* \"#utility.yul\":1296:1580   */\n      iszero\n      tag_250\n      jumpi\n        /* \"#utility.yul\":1397:1403   */\n      dup2\n        /* \"#utility.yul\":1391:1404   */\n      mload\n        /* \"#utility.yul\":1424:1487   */\n      tag_251\n        /* \"#utility.yul\":1483:1486   */\n      dup9\n        /* \"#utility.yul\":1468:1481   */\n      dup3\n        /* \"#utility.yul\":1424:1487   */\n      tag_230\n      jump\t// in\n    tag_251:\n        /* \"#utility.yul\":1417:1487   */\n      swap8\n      pop\n        /* \"#utility.yul\":1510:1570   */\n      tag_252\n        /* \"#utility.yul\":1563:1569   */\n      dup4\n        /* \"#utility.yul\":1510:1570   */\n      tag_253\n      jump\t// in\n    tag_252:\n        /* \"#utility.yul\":1500:1570   */\n      swap3\n      pop\n        /* \"#utility.yul\":1356:1580   */\n      pop\n        /* \"#utility.yul\":1343:1344   */\n      0x01\n        /* \"#utility.yul\":1340:1341   */\n      dup2\n        /* \"#utility.yul\":1336:1345   */\n      add\n        /* \"#utility.yul\":1331:1345   */\n      swap1\n      pop\n        /* \"#utility.yul\":1296:1580   */\n      jump(tag_248)\n    tag_250:\n        /* \"#utility.yul\":1300:1314   */\n      pop\n        /* \"#utility.yul\":1596:1599   */\n      dup6\n        /* \"#utility.yul\":1589:1599   */\n      swap4\n      pop\n        /* \"#utility.yul\":997:1605   */\n      pop\n      pop\n      pop\n      swap3\n      swap2\n      pop\n      pop\n      jump\t// out\n        /* \"#utility.yul\":1611:1720   */\n    tag_254:\n        /* \"#utility.yul\":1692:1713   */\n      tag_256\n        /* \"#utility.yul\":1707:1712   */\n      dup2\n        /* \"#utility.yul\":1692:1713   */\n      tag_257\n      jump\t// in\n    tag_256:\n        /* \"#utility.yul\":1687:1690   */\n      dup3\n        /* \"#utility.yul\":1680:1714   */\n      mstore\n        /* \"#utility.yul\":1670:1720   */\n      pop\n      pop\n      jump\t// out\n        /* \"#utility.yul\":1726:2091   */\n    tag_258:\n      0x00\n        /* \"#utility.yul\":1889:1956   */\n      tag_260\n        /* \"#utility.yul\":1953:1955   */\n      0x21\n        /* \"#utility.yul\":1948:1951   */\n      dup4\n        /* \"#utility.yul\":1889:1956   */\n      tag_261\n      jump\t// in\n    tag_260:\n        /* \"#utility.yul\":1882:1956   */\n      swap2\n      pop\n        /* \"#utility.yul\":1986:2020   */\n      0x526573756c742068617320616c7265616479206265656e2066696e616c697a65\n        /* \"#utility.yul\":1982:1983   */\n      0x00\n        /* \"#utility.yul\":1977:1980   */\n      dup4\n        /* \"#utility.yul\":1973:1984   */\n      add\n        /* \"#utility.yul\":1966:2021   */\n      mstore\n        /* \"#utility.yul\":2052:2055   */\n      0x6400000000000000000000000000000000000000000000000000000000000000\n        /* \"#utility.yul\":2047:2049   */\n      0x20\n        /* \"#utility.yul\":2042:2045   */\n      dup4\n        /* \"#utility.yul\":2038:2050   */\n      add\n        /* \"#utility.yul\":2031:2056   */\n      mstore\n        /* \"#utility.yul\":2082:2084   */\n      0x40\n        /* \"#utility.yul\":2077:2080   */\n      dup3\n        /* \"#utility.yul\":2073:2085   */\n      add\n        /* \"#utility.yul\":2066:2085   */\n      swap1\n      pop\n        /* \"#utility.yul\":1872:2091   */\n      swap2\n      swap1\n      pop\n      jump\t// out\n        /* \"#utility.yul\":2097:2473   */\n    tag_262:\n      0x00\n        /* \"#utility.yul\":2260:2327   */\n      tag_264\n        /* \"#utility.yul\":2324:2326   */\n      0x2c\n        /* \"#utility.yul\":2319:2322   */\n      dup4\n        /* \"#utility.yul\":2260:2327   */\n      tag_261\n      jump\t// in\n    tag_264:\n        /* \"#utility.yul\":2253:2327   */\n      swap2\n      pop\n        /* \"#utility.yul\":2357:2391   */\n      0x4164647265737320697320616c72656164792072656769737465726564206173\n        /* \"#utility.yul\":2353:2354   */\n      0x00\n        /* \"#utility.yul\":2348:2351   */\n      dup4\n        /* \"#utility.yul\":2344:2355   */\n      add\n        /* \"#utility.yul\":2337:2392   */\n      mstore\n        /* \"#utility.yul\":2423:2437   */\n      0x20612063616e6469646174650000000000000000000000000000000000000000\n        /* \"#utility.yul\":2418:2420   */\n      0x20\n        /* \"#utility.yul\":2413:2416   */\n      dup4\n        /* \"#utility.yul\":2409:2421   */\n      add\n        /* \"#utility.yul\":2402:2438   */\n      mstore\n        /* \"#utility.yul\":2464:2466   */\n      0x40\n        /* \"#utility.yul\":2459:2462   */\n      dup3\n        /* \"#utility.yul\":2455:2467   */\n      add\n        /* \"#utility.yul\":2448:2467   */\n      swap1\n      pop\n        /* \"#utility.yul\":2243:2473   */\n      swap2\n      swap1\n      pop\n      jump\t// out\n        /* \"#utility.yul\":2479:2851   */\n    tag_265:\n      0x00\n        /* \"#utility.yul\":2642:2709   */\n      tag_267\n        /* \"#utility.yul\":2706:2708   */\n      0x28\n        /* \"#utility.yul\":2701:2704   */\n      dup4\n        /* \"#utility.yul\":2642:2709   */\n      tag_261\n      jump\t// in\n    tag_267:\n        /* \"#utility.yul\":2635:2709   */\n      swap2\n      pop\n        /* \"#utility.yul\":2739:2773   */\n      0x4164647265737320697320616c72656164792072656769737465726564206173\n        /* \"#utility.yul\":2735:2736   */\n      0x00\n        /* \"#utility.yul\":2730:2733   */\n      dup4\n        /* \"#utility.yul\":2726:2737   */\n      add\n        /* \"#utility.yul\":2719:2774   */\n      mstore\n        /* \"#utility.yul\":2805:2815   */\n      0x206120766f746572000000000000000000000000000000000000000000000000\n        /* \"#utility.yul\":2800:2802   */\n      0x20\n        /* \"#utility.yul\":2795:2798   */\n      dup4\n        /* \"#utility.yul\":2791:2803   */\n      add\n        /* \"#utility.yul\":2784:2816   */\n      mstore\n        /* \"#utility.yul\":2842:2844   */\n      0x40\n        /* \"#utility.yul\":2837:2840   */\n      dup3\n        /* \"#utility.yul\":2833:2845   */\n      add\n        /* \"#utility.yul\":2826:2845   */\n      swap1\n      pop\n        /* \"#utility.yul\":2625:2851   */\n      swap2\n      swap1\n      pop\n      jump\t// out\n        /* \"#utility.yul\":2857:3239   */\n    tag_268:\n      0x00\n        /* \"#utility.yul\":3020:3087   */\n      tag_270\n        /* \"#utility.yul\":3084:3086   */\n      0x32\n        /* \"#utility.yul\":3079:3082   */\n      dup4\n        /* \"#utility.yul\":3020:3087   */\n      tag_261\n      jump\t// in\n    tag_270:\n        /* \"#utility.yul\":3013:3087   */\n      swap2\n      pop\n        /* \"#utility.yul\":3117:3151   */\n      0x43616e6e6f74207265766f6b652061646d696e2070726976696c656765732066\n        /* \"#utility.yul\":3113:3114   */\n      0x00\n        /* \"#utility.yul\":3108:3111   */\n      dup4\n        /* \"#utility.yul\":3104:3115   */\n      add\n        /* \"#utility.yul\":3097:3152   */\n      mstore\n        /* \"#utility.yul\":3183:3203   */\n      0x726f6d20746865206d61696e2061646d696e0000000000000000000000000000\n        /* \"#utility.yul\":3178:3180   */\n      0x20\n        /* \"#utility.yul\":3173:3176   */\n      dup4\n        /* \"#utility.yul\":3169:3181   */\n      add\n        /* \"#utility.yul\":3162:3204   */\n      mstore\n        /* \"#utility.yul\":3230:3232   */\n      0x40\n        /* \"#utility.yul\":3225:3228   */\n      dup3\n        /* \"#utility.yul\":3221:3233   */\n      add\n        /* \"#utility.yul\":3214:3233   */\n      swap1\n      pop\n        /* \"#utility.yul\":3003:3239   */\n      swap2\n      swap1\n      pop\n      jump\t// out\n        /* \"#utility.yul\":3245:3568   */\n    tag_271:\n      0x00\n        /* \"#utility.yul\":3408:3475   */\n      tag_273\n        /* \"#utility.yul\":3472:3474   */\n      0x19\n        /* \"#utility.yul\":3467:3470   */\n      dup4\n        /* \"#utility.yul\":3408:3475   */\n      tag_261\n      jump\t// in\n    tag_273:\n        /* \"#utility.yul\":3401:3475   */\n      swap2\n      pop\n        /* \"#utility.yul\":3505:3532   */\n      0x496e76616c69642063616e646964617465206164647265737300000000000000\n        /* \"#utility.yul\":3501:3502   */\n      0x00\n        /* \"#utility.yul\":3496:3499   */\n      dup4\n        /* \"#utility.yul\":3492:3503   */\n      add\n        /* \"#utility.yul\":3485:3533   */\n      mstore\n        /* \"#utility.yul\":3559:3561   */\n      0x20\n        /* \"#utility.yul\":3554:3557   */\n      dup3\n        /* \"#utility.yul\":3550:3562   */\n      add\n        /* \"#utility.yul\":3543:3562   */\n      swap1\n      pop\n        /* \"#utility.yul\":3391:3568   */\n      swap2\n      swap1\n      pop\n      jump\t// out\n        /* \"#utility.yul\":3574:3891   */\n    tag_274:\n      0x00\n        /* \"#utility.yul\":3737:3804   */\n      tag_276\n        /* \"#utility.yul\":3801:3803   */\n      0x13\n        /* \"#utility.yul\":3796:3799   */\n      dup4\n        /* \"#utility.yul\":3737:3804   */\n      tag_261\n      jump\t// in\n    tag_276:\n        /* \"#utility.yul\":3730:3804   */\n      swap2\n      pop\n        /* \"#utility.yul\":3834:3855   */\n      0x496e646578206f7574206f6620626f756e647300000000000000000000000000\n        /* \"#utility.yul\":3830:3831   */\n      0x00\n        /* \"#utility.yul\":3825:3828   */\n      dup4\n        /* \"#utility.yul\":3821:3832   */\n      add\n        /* \"#utility.yul\":3814:3856   */\n      mstore\n        /* \"#utility.yul\":3882:3884   */\n      0x20\n        /* \"#utility.yul\":3877:3880   */\n      dup3\n        /* \"#utility.yul\":3873:3885   */\n      add\n        /* \"#utility.yul\":3866:3885   */\n      swap1\n      pop\n        /* \"#utility.yul\":3720:3891   */\n      swap2\n      swap1\n      pop\n      jump\t// out\n        /* \"#utility.yul\":3897:4262   */\n    tag_277:\n      0x00\n        /* \"#utility.yul\":4060:4127   */\n      tag_279\n        /* \"#utility.yul\":4124:4126   */\n      0x21\n        /* \"#utility.yul\":4119:4122   */\n      dup4\n        /* \"#utility.yul\":4060:4127   */\n      tag_261\n      jump\t// in\n    tag_279:\n        /* \"#utility.yul\":4053:4127   */\n      swap2\n      pop\n        /* \"#utility.yul\":4157:4191   */\n      0x4f6e6c792061646d696e2063616e2063616c6c20746869732066756e6374696f\n        /* \"#utility.yul\":4153:4154   */\n      0x00\n        /* \"#utility.yul\":4148:4151   */\n      dup4\n        /* \"#utility.yul\":4144:4155   */\n      add\n        /* \"#utility.yul\":4137:4192   */\n      mstore\n        /* \"#utility.yul\":4223:4226   */\n      0x6e00000000000000000000000000000000000000000000000000000000000000\n        /* \"#utility.yul\":4218:4220   */\n      0x20\n        /* \"#utility.yul\":4213:4216   */\n      dup4\n        /* \"#utility.yul\":4209:4221   */\n      add\n        /* \"#utility.yul\":4202:4227   */\n      mstore\n        /* \"#utility.yul\":4253:4255   */\n      0x40\n        /* \"#utility.yul\":4248:4251   */\n      dup3\n        /* \"#utility.yul\":4244:4256   */\n      add\n        /* \"#utility.yul\":4237:4256   */\n      swap1\n      pop\n        /* \"#utility.yul\":4043:4262   */\n      swap2\n      swap1\n      pop\n      jump\t// out\n        /* \"#utility.yul\":4268:4637   */\n    tag_280:\n      0x00\n        /* \"#utility.yul\":4431:4498   */\n      tag_282\n        /* \"#utility.yul\":4495:4497   */\n      0x25\n        /* \"#utility.yul\":4490:4493   */\n      dup4\n        /* \"#utility.yul\":4431:4498   */\n      tag_261\n      jump\t// in\n    tag_282:\n        /* \"#utility.yul\":4424:4498   */\n      swap2\n      pop\n        /* \"#utility.yul\":4528:4562   */\n      0x4f6e6c79207265676973746572656420766f746572732063616e206361737420\n        /* \"#utility.yul\":4524:4525   */\n      0x00\n        /* \"#utility.yul\":4519:4522   */\n      dup4\n        /* \"#utility.yul\":4515:4526   */\n      add\n        /* \"#utility.yul\":4508:4563   */\n      mstore\n        /* \"#utility.yul\":4594:4601   */\n      0x766f746573000000000000000000000000000000000000000000000000000000\n        /* \"#utility.yul\":4589:4591   */\n      0x20\n        /* \"#utility.yul\":4584:4587   */\n      dup4\n        /* \"#utility.yul\":4580:4592   */\n      add\n        /* \"#utility.yul\":4573:4602   */\n      mstore\n        /* \"#utility.yul\":4628:4630   */\n      0x40\n        /* \"#utility.yul\":4623:4626   */\n      dup3\n        /* \"#utility.yul\":4619:4631   */\n      add\n        /* \"#utility.yul\":4612:4631   */\n      swap1\n      pop\n        /* \"#utility.yul\":4414:4637   */\n      swap2\n      swap1\n      pop\n      jump\t// out\n        /* \"#utility.yul\":4643:4761   */\n    tag_283:\n        /* \"#utility.yul\":4730:4754   */\n      tag_285\n        /* \"#utility.yul\":4748:4753   */\n      dup2\n        /* \"#utility.yul\":4730:4754   */\n      tag_286\n      jump\t// in\n    tag_285:\n        /* \"#utility.yul\":4725:4728   */\n      dup3\n        /* \"#utility.yul\":4718:4755   */\n      mstore\n        /* \"#utility.yul\":4708:4761   */\n      pop\n      pop\n      jump\t// out\n        /* \"#utility.yul\":4767:4989   */\n    tag_78:\n      0x00\n        /* \"#utility.yul\":4898:4900   */\n      0x20\n        /* \"#utility.yul\":4887:4896   */\n      dup3\n        /* \"#utility.yul\":4883:4901   */\n      add\n        /* \"#utility.yul\":4875:4901   */\n      swap1\n      pop\n        /* \"#utility.yul\":4911:4982   */\n      tag_288\n        /* \"#utility.yul\":4979:4980   */\n      0x00\n        /* \"#utility.yul\":4968:4977   */\n      dup4\n        /* \"#utility.yul\":4964:4981   */\n      add\n        /* \"#utility.yul\":4955:4961   */\n      dup5\n        /* \"#utility.yul\":4911:4982   */\n      tag_237\n      jump\t// in\n    tag_288:\n        /* \"#utility.yul\":4865:4989   */\n      swap3\n      swap2\n      pop\n      pop\n      jump\t// out\n        /* \"#utility.yul\":4995:5315   */\n    tag_137:\n      0x00\n        /* \"#utility.yul\":5148:5150   */\n      0x40\n        /* \"#utility.yul\":5137:5146   */\n      dup3\n        /* \"#utility.yul\":5133:5151   */\n      add\n        /* \"#utility.yul\":5125:5151   */\n      swap1\n      pop\n        /* \"#utility.yul\":5161:5232   */\n      tag_290\n        /* \"#utility.yul\":5229:5230   */\n      0x00\n        /* \"#utility.yul\":5218:5227   */\n      dup4\n        /* \"#utility.yul\":5214:5231   */\n      add\n        /* \"#utility.yul\":5205:5211   */\n      dup6\n        /* \"#utility.yul\":5161:5232   */\n      tag_237\n      jump\t// in\n    tag_290:\n        /* \"#utility.yul\":5242:5308   */\n      tag_291\n        /* \"#utility.yul\":5304:5306   */\n      0x20\n        /* \"#utility.yul\":5293:5302   */\n      dup4\n        /* \"#utility.yul\":5289:5307   */\n      add\n        /* \"#utility.yul\":5280:5286   */\n      dup5\n        /* \"#utility.yul\":5242:5308   */\n      tag_254\n      jump\t// in\n    tag_291:\n        /* \"#utility.yul\":5115:5315   */\n      swap4\n      swap3\n      pop\n      pop\n      pop\n      jump\t// out\n        /* \"#utility.yul\":5321:5694   */\n    tag_34:\n      0x00\n        /* \"#utility.yul\":5502:5504   */\n      0x20\n        /* \"#utility.yul\":5491:5500   */\n      dup3\n        /* \"#utility.yul\":5487:5505   */\n      add\n        /* \"#utility.yul\":5479:5505   */\n      swap1\n      pop\n        /* \"#utility.yul\":5551:5560   */\n      dup2\n        /* \"#utility.yul\":5545:5549   */\n      dup2\n        /* \"#utility.yul\":5541:5561   */\n      sub\n        /* \"#utility.yul\":5537:5538   */\n      0x00\n        /* \"#utility.yul\":5526:5535   */\n      dup4\n        /* \"#utility.yul\":5522:5539   */\n      add\n        /* \"#utility.yul\":5515:5562   */\n      mstore\n        /* \"#utility.yul\":5579:5687   */\n      tag_293\n        /* \"#utility.yul\":5682:5686   */\n      dup2\n        /* \"#utility.yul\":5673:5679   */\n      dup5\n        /* \"#utility.yul\":5579:5687   */\n      tag_240\n      jump\t// in\n    tag_293:\n        /* \"#utility.yul\":5571:5687   */\n      swap1\n      pop\n        /* \"#utility.yul\":5469:5694   */\n      swap3\n      swap2\n      pop\n      pop\n      jump\t// out\n        /* \"#utility.yul\":5700:5910   */\n    tag_25:\n      0x00\n        /* \"#utility.yul\":5825:5827   */\n      0x20\n        /* \"#utility.yul\":5814:5823   */\n      dup3\n        /* \"#utility.yul\":5810:5828   */\n      add\n        /* \"#utility.yul\":5802:5828   */\n      swap1\n      pop\n        /* \"#utility.yul\":5838:5903   */\n      tag_295\n        /* \"#utility.yul\":5900:5901   */\n      0x00\n        /* \"#utility.yul\":5889:5898   */\n      dup4\n        /* \"#utility.yul\":5885:5902   */\n      add\n        /* \"#utility.yul\":5876:5882   */\n      dup5\n        /* \"#utility.yul\":5838:5903   */\n      tag_254\n      jump\t// in\n    tag_295:\n        /* \"#utility.yul\":5792:5910   */\n      swap3\n      swap2\n      pop\n      pop\n      jump\t// out\n        /* \"#utility.yul\":5916:6335   */\n    tag_152:\n      0x00\n        /* \"#utility.yul\":6120:6122   */\n      0x20\n        /* \"#utility.yul\":6109:6118   */\n      dup3\n        /* \"#utility.yul\":6105:6123   */\n      add\n        /* \"#utility.yul\":6097:6123   */\n      swap1\n      pop\n        /* \"#utility.yul\":6169:6178   */\n      dup2\n        /* \"#utility.yul\":6163:6167   */\n      dup2\n        /* \"#utility.yul\":6159:6179   */\n      sub\n        /* \"#utility.yul\":6155:6156   */\n      0x00\n        /* \"#utility.yul\":6144:6153   */\n      dup4\n        /* \"#utility.yul\":6140:6157   */\n      add\n        /* \"#utility.yul\":6133:6180   */\n      mstore\n        /* \"#utility.yul\":6197:6328   */\n      tag_297\n        /* \"#utility.yul\":6323:6327   */\n      dup2\n        /* \"#utility.yul\":6197:6328   */\n      tag_258\n      jump\t// in\n    tag_297:\n        /* \"#utility.yul\":6189:6328   */\n      swap1\n      pop\n        /* \"#utility.yul\":6087:6335   */\n      swap2\n      swap1\n      pop\n      jump\t// out\n        /* \"#utility.yul\":6341:6760   */\n    tag_115:\n      0x00\n        /* \"#utility.yul\":6545:6547   */\n      0x20\n        /* \"#utility.yul\":6534:6543   */\n      dup3\n        /* \"#utility.yul\":6530:6548   */\n      add\n        /* \"#utility.yul\":6522:6548   */\n      swap1\n      pop\n        /* \"#utility.yul\":6594:6603   */\n      dup2\n        /* \"#utility.yul\":6588:6592   */\n      dup2\n        /* \"#utility.yul\":6584:6604   */\n      sub\n        /* \"#utility.yul\":6580:6581   */\n      0x00\n        /* \"#utility.yul\":6569:6578   */\n      dup4\n        /* \"#utility.yul\":6565:6582   */\n      add\n        /* \"#utility.yul\":6558:6605   */\n      mstore\n        /* \"#utility.yul\":6622:6753   */\n      tag_299\n        /* \"#utility.yul\":6748:6752   */\n      dup2\n        /* \"#utility.yul\":6622:6753   */\n      tag_262\n      jump\t// in\n    tag_299:\n        /* \"#utility.yul\":6614:6753   */\n      swap1\n      pop\n        /* \"#utility.yul\":6512:6760   */\n      swap2\n      swap1\n      pop\n      jump\t// out\n        /* \"#utility.yul\":6766:7185   */\n    tag_112:\n      0x00\n        /* \"#utility.yul\":6970:6972   */\n      0x20\n        /* \"#utility.yul\":6959:6968   */\n      dup3\n        /* \"#utility.yul\":6955:6973   */\n      add\n        /* \"#utility.yul\":6947:6973   */\n      swap1\n      pop\n        /* \"#utility.yul\":7019:7028   */\n      dup2\n        /* \"#utility.yul\":7013:7017   */\n      dup2\n        /* \"#utility.yul\":7009:7029   */\n      sub\n        /* \"#utility.yul\":7005:7006   */\n      0x00\n        /* \"#utility.yul\":6994:7003   */\n      dup4\n        /* \"#utility.yul\":6990:7007   */\n      add\n        /* \"#utility.yul\":6983:7030   */\n      mstore\n        /* \"#utility.yul\":7047:7178   */\n      tag_301\n        /* \"#utility.yul\":7173:7177   */\n      dup2\n        /* \"#utility.yul\":7047:7178   */\n      tag_265\n      jump\t// in\n    tag_301:\n        /* \"#utility.yul\":7039:7178   */\n      swap1\n      pop\n        /* \"#utility.yul\":6937:7185   */\n      swap2\n      swap1\n      pop\n      jump\t// out\n        /* \"#utility.yul\":7191:7610   */\n    tag_99:\n      0x00\n        /* \"#utility.yul\":7395:7397   */\n      0x20\n        /* \"#utility.yul\":7384:7393   */\n      dup3\n        /* \"#utility.yul\":7380:7398   */\n      add\n        /* \"#utility.yul\":7372:7398   */\n      swap1\n      pop\n        /* \"#utility.yul\":7444:7453   */\n      dup2\n        /* \"#utility.yul\":7438:7442   */\n      dup2\n        /* \"#utility.yul\":7434:7454   */\n      sub\n        /* \"#utility.yul\":7430:7431   */\n      0x00\n        /* \"#utility.yul\":7419:7428   */\n      dup4\n        /* \"#utility.yul\":7415:7432   */\n      add\n        /* \"#utility.yul\":7408:7455   */\n      mstore\n        /* \"#utility.yul\":7472:7603   */\n      tag_303\n        /* \"#utility.yul\":7598:7602   */\n      dup2\n        /* \"#utility.yul\":7472:7603   */\n      tag_268\n      jump\t// in\n    tag_303:\n        /* \"#utility.yul\":7464:7603   */\n      swap1\n      pop\n        /* \"#utility.yul\":7362:7610   */\n      swap2\n      swap1\n      pop\n      jump\t// out\n        /* \"#utility.yul\":7616:8035   */\n    tag_144:\n      0x00\n        /* \"#utility.yul\":7820:7822   */\n      0x20\n        /* \"#utility.yul\":7809:7818   */\n      dup3\n        /* \"#utility.yul\":7805:7823   */\n      add\n        /* \"#utility.yul\":7797:7823   */\n      swap1\n      pop\n        /* \"#utility.yul\":7869:7878   */\n      dup2\n        /* \"#utility.yul\":7863:7867   */\n      dup2\n        /* \"#utility.yul\":7859:7879   */\n      sub\n        /* \"#utility.yul\":7855:7856   */\n      0x00\n        /* \"#utility.yul\":7844:7853   */\n      dup4\n        /* \"#utility.yul\":7840:7857   */\n      add\n        /* \"#utility.yul\":7833:7880   */\n      mstore\n        /* \"#utility.yul\":7897:8028   */\n      tag_305\n        /* \"#utility.yul\":8023:8027   */\n      dup2\n        /* \"#utility.yul\":7897:8028   */\n      tag_271\n      jump\t// in\n    tag_305:\n        /* \"#utility.yul\":7889:8028   */\n      swap1\n      pop\n        /* \"#utility.yul\":7787:8035   */\n      swap2\n      swap1\n      pop\n      jump\t// out\n        /* \"#utility.yul\":8041:8460   */\n    tag_184:\n      0x00\n        /* \"#utility.yul\":8245:8247   */\n      0x20\n        /* \"#utility.yul\":8234:8243   */\n      dup3\n        /* \"#utility.yul\":8230:8248   */\n      add\n        /* \"#utility.yul\":8222:8248   */\n      swap1\n      pop\n        /* \"#utility.yul\":8294:8303   */\n      dup2\n        /* \"#utility.yul\":8288:8292   */\n      dup2\n        /* \"#utility.yul\":8284:8304   */\n      sub\n        /* \"#utility.yul\":8280:8281   */\n      0x00\n        /* \"#utility.yul\":8269:8278   */\n      dup4\n        /* \"#utility.yul\":8265:8282   */\n      add\n        /* \"#utility.yul\":8258:8305   */\n      mstore\n        /* \"#utility.yul\":8322:8453   */\n      tag_307\n        /* \"#utility.yul\":8448:8452   */\n      dup2\n        /* \"#utility.yul\":8322:8453   */\n      tag_274\n      jump\t// in\n    tag_307:\n        /* \"#utility.yul\":8314:8453   */\n      swap1\n      pop\n        /* \"#utility.yul\":8212:8460   */\n      swap2\n      swap1\n      pop\n      jump\t// out\n        /* \"#utility.yul\":8466:8885   */\n    tag_95:\n      0x00\n        /* \"#utility.yul\":8670:8672   */\n      0x20\n        /* \"#utility.yul\":8659:8668   */\n      dup3\n        /* \"#utility.yul\":8655:8673   */\n      add\n        /* \"#utility.yul\":8647:8673   */\n      swap1\n      pop\n        /* \"#utility.yul\":8719:8728   */\n      dup2\n        /* \"#utility.yul\":8713:8717   */\n      dup2\n        /* \"#utility.yul\":8709:8729   */\n      sub\n        /* \"#utility.yul\":8705:8706   */\n      0x00\n        /* \"#utility.yul\":8694:8703   */\n      dup4\n        /* \"#utility.yul\":8690:8707   */\n      add\n        /* \"#utility.yul\":8683:8730   */\n      mstore\n        /* \"#utility.yul\":8747:8878   */\n      tag_309\n        /* \"#utility.yul\":8873:8877   */\n      dup2\n        /* \"#utility.yul\":8747:8878   */\n      tag_277\n      jump\t// in\n    tag_309:\n        /* \"#utility.yul\":8739:8878   */\n      swap1\n      pop\n        /* \"#utility.yul\":8637:8885   */\n      swap2\n      swap1\n      pop\n      jump\t// out\n        /* \"#utility.yul\":8891:9310   */\n    tag_141:\n      0x00\n        /* \"#utility.yul\":9095:9097   */\n      0x20\n        /* \"#utility.yul\":9084:9093   */\n      dup3\n        /* \"#utility.yul\":9080:9098   */\n      add\n        /* \"#utility.yul\":9072:9098   */\n      swap1\n      pop\n        /* \"#utility.yul\":9144:9153   */\n      dup2\n        /* \"#utility.yul\":9138:9142   */\n      dup2\n        /* \"#utility.yul\":9134:9154   */\n      sub\n        /* \"#utility.yul\":9130:9131   */\n      0x00\n        /* \"#utility.yul\":9119:9128   */\n      dup4\n        /* \"#utility.yul\":9115:9132   */\n      add\n        /* \"#utility.yul\":9108:9155   */\n      mstore\n        /* \"#utility.yul\":9172:9303   */\n      tag_311\n        /* \"#utility.yul\":9298:9302   */\n      dup2\n        /* \"#utility.yul\":9172:9303   */\n      tag_280\n      jump\t// in\n    tag_311:\n        /* \"#utility.yul\":9164:9303   */\n      swap1\n      pop\n        /* \"#utility.yul\":9062:9310   */\n      swap2\n      swap1\n      pop\n      jump\t// out\n        /* \"#utility.yul\":9316:9538   */\n    tag_59:\n      0x00\n        /* \"#utility.yul\":9447:9449   */\n      0x20\n        /* \"#utility.yul\":9436:9445   */\n      dup3\n        /* \"#utility.yul\":9432:9450   */\n      add\n        /* \"#utility.yul\":9424:9450   */\n      swap1\n      pop\n        /* \"#utility.yul\":9460:9531   */\n      tag_313\n        /* \"#utility.yul\":9528:9529   */\n      0x00\n        /* \"#utility.yul\":9517:9526   */\n      dup4\n        /* \"#utility.yul\":9513:9530   */\n      add\n        /* \"#utility.yul\":9504:9510   */\n      dup5\n        /* \"#utility.yul\":9460:9531   */\n      tag_283\n      jump\t// in\n    tag_313:\n        /* \"#utility.yul\":9414:9538   */\n      swap3\n      swap2\n      pop\n      pop\n      jump\t// out\n        /* \"#utility.yul\":9544:9676   */\n    tag_247:\n      0x00\n        /* \"#utility.yul\":9634:9637   */\n      dup2\n        /* \"#utility.yul\":9626:9637   */\n      swap1\n      pop\n        /* \"#utility.yul\":9664:9668   */\n      0x20\n        /* \"#utility.yul\":9659:9662   */\n      dup3\n        /* \"#utility.yul\":9655:9669   */\n      add\n        /* \"#utility.yul\":9647:9669   */\n      swap1\n      pop\n        /* \"#utility.yul\":9616:9676   */\n      swap2\n      swap1\n      pop\n      jump\t// out\n        /* \"#utility.yul\":9682:9796   */\n    tag_243:\n      0x00\n        /* \"#utility.yul\":9783:9788   */\n      dup2\n        /* \"#utility.yul\":9777:9789   */\n      mload\n        /* \"#utility.yul\":9767:9789   */\n      swap1\n      pop\n        /* \"#utility.yul\":9756:9796   */\n      swap2\n      swap1\n      pop\n      jump\t// out\n        /* \"#utility.yul\":9802:9915   */\n    tag_253:\n      0x00\n        /* \"#utility.yul\":9904:9908   */\n      0x20\n        /* \"#utility.yul\":9899:9902   */\n      dup3\n        /* \"#utility.yul\":9895:9909   */\n      add\n        /* \"#utility.yul\":9887:9909   */\n      swap1\n      pop\n        /* \"#utility.yul\":9877:9915   */\n      swap2\n      swap1\n      pop\n      jump\t// out\n        /* \"#utility.yul\":9921:10105   */\n    tag_245:\n      0x00\n        /* \"#utility.yul\":10054:10060   */\n      dup3\n        /* \"#utility.yul\":10049:10052   */\n      dup3\n        /* \"#utility.yul\":10042:10061   */\n      mstore\n        /* \"#utility.yul\":10094:10098   */\n      0x20\n        /* \"#utility.yul\":10089:10092   */\n      dup3\n        /* \"#utility.yul\":10085:10099   */\n      add\n        /* \"#utility.yul\":10070:10099   */\n      swap1\n      pop\n        /* \"#utility.yul\":10032:10105   */\n      swap3\n      swap2\n      pop\n      pop\n      jump\t// out\n        /* \"#utility.yul\":10111:10280   */\n    tag_261:\n      0x00\n        /* \"#utility.yul\":10229:10235   */\n      dup3\n        /* \"#utility.yul\":10224:10227   */\n      dup3\n        /* \"#utility.yul\":10217:10236   */\n      mstore\n        /* \"#utility.yul\":10269:10273   */\n      0x20\n        /* \"#utility.yul\":10264:10267   */\n      dup3\n        /* \"#utility.yul\":10260:10274   */\n      add\n        /* \"#utility.yul\":10245:10274   */\n      swap1\n      pop\n        /* \"#utility.yul\":10207:10280   */\n      swap3\n      swap2\n      pop\n      pop\n      jump\t// out\n        /* \"#utility.yul\":10286:10591   */\n    tag_158:\n      0x00\n        /* \"#utility.yul\":10345:10365   */\n      tag_320\n        /* \"#utility.yul\":10363:10364   */\n      dup3\n        /* \"#utility.yul\":10345:10365   */\n      tag_286\n      jump\t// in\n    tag_320:\n        /* \"#utility.yul\":10340:10365   */\n      swap2\n      pop\n        /* \"#utility.yul\":10379:10399   */\n      tag_321\n        /* \"#utility.yul\":10397:10398   */\n      dup4\n        /* \"#utility.yul\":10379:10399   */\n      tag_286\n      jump\t// in\n    tag_321:\n        /* \"#utility.yul\":10374:10399   */\n      swap3\n      pop\n        /* \"#utility.yul\":10533:10534   */\n      dup3\n        /* \"#utility.yul\":10465:10531   */\n      0xffffffffffffffffffffffffffffffffffffffffffffffffffffffffffffffff\n        /* \"#utility.yul\":10461:10535   */\n      sub\n        /* \"#utility.yul\":10458:10459   */\n      dup3\n        /* \"#utility.yul\":10455:10536   */\n      gt\n        /* \"#utility.yul\":10452:10454   */\n      iszero\n      tag_322\n      jumpi\n        /* \"#utility.yul\":10539:10557   */\n      tag_323\n      tag_324\n      jump\t// in\n    tag_323:\n        /* \"#utility.yul\":10452:10454   */\n    tag_322:\n        /* \"#utility.yul\":10583:10584   */\n      dup3\n        /* \"#utility.yul\":10580:10581   */\n      dup3\n        /* \"#utility.yul\":10576:10585   */\n      add\n        /* \"#utility.yul\":10569:10585   */\n      swap1\n      pop\n        /* \"#utility.yul\":10330:10591   */\n      swap3\n      swap2\n      pop\n      pop\n      jump\t// out\n        /* \"#utility.yul\":10597:10782   */\n    tag_163:\n      0x00\n        /* \"#utility.yul\":10654:10674   */\n      tag_326\n        /* \"#utility.yul\":10672:10673   */\n      dup3\n        /* \"#utility.yul\":10654:10674   */\n      tag_286\n      jump\t// in\n    tag_326:\n        /* \"#utility.yul\":10649:10674   */\n      swap2\n      pop\n        /* \"#utility.yul\":10688:10708   */\n      tag_327\n        /* \"#utility.yul\":10706:10707   */\n      dup4\n        /* \"#utility.yul\":10688:10708   */\n      tag_286\n      jump\t// in\n    tag_327:\n        /* \"#utility.yul\":10683:10708   */\n      swap3\n      pop\n        /* \"#utility.yul\":10727:10728   */\n      dup3\n        /* \"#utility.yul\":10717:10719   */\n      tag_328\n      jumpi\n        /* \"#utility.yul\":10732:10750   */\n      tag_329\n      tag_330\n      jump\t// in\n    tag_329:\n        /* \"#utility.yul\":10717:10719   */\n    tag_328:\n        /* \"#utility.yul\":10774:10775   */\n      dup3\n        /* \"#utility.yul\":10771:10772   */\n      dup3\n        /* \"#utility.yul\":10767:10776   */\n      div\n        /* \"#utility.yul\":10762:10776   */\n      swap1\n      pop\n        /* \"#utility.yul\":10639:10782   */\n      swap3\n      swap2\n      pop\n      pop\n      jump\t// out\n        /* \"#utility.yul\":10788:11136   */\n    tag_161:\n      0x00\n        /* \"#utility.yul\":10851:10871   */\n      tag_332\n        /* \"#utility.yul\":10869:10870   */\n      dup3\n        /* \"#utility.yul\":10851:10871   */\n      tag_286\n      jump\t// in\n    tag_332:\n        /* \"#utility.yul\":10846:10871   */\n      swap2\n      pop\n        /* \"#utility.yul\":10885:10905   */\n      tag_333\n        /* \"#utility.yul\":10903:10904   */\n      dup4\n        /* \"#utility.yul\":10885:10905   */\n      tag_286\n      jump\t// in\n    tag_333:\n        /* \"#utility.yul\":10880:10905   */\n      swap3\n      pop\n        /* \"#utility.yul\":11073:11074   */\n      dup2\n        /* \"#utility.yul\":11005:11071   */\n      0xffffffffffffffffffffffffffffffffffffffffffffffffffffffffffffffff\n        /* \"#utility.yul\":11001:11075   */\n      div\n        /* \"#utility.yul\":10998:10999   */\n      dup4\n        /* \"#utility.yul\":10995:11076   */\n      gt\n        /* \"#utility.yul\":10990:10991   */\n      dup3\n        /* \"#utility.yul\":10983:10992   */\n      iszero\n        /* \"#utility.yul\":10976:10993   */\n      iszero\n        /* \"#utility.yul\":10972:11077   */\n      and\n        /* \"#utility.yul\":10969:10971   */\n      iszero\n      tag_334\n      jumpi\n        /* \"#utility.yul\":11080:11098   */\n      tag_335\n      tag_324\n      jump\t// in\n    tag_335:\n        /* \"#utility.yul\":10969:10971   */\n    tag_334:\n        /* \"#utility.yul\":11128:11129   */\n      dup3\n        /* \"#utility.yul\":11125:11126   */\n      dup3\n        /* \"#utility.yul\":11121:11130   */\n      mul\n        /* \"#utility.yul\":11110:11130   */\n      swap1\n      pop\n        /* \"#utility.yul\":10836:11136   */\n      swap3\n      swap2\n      pop\n      pop\n      jump\t// out\n        /* \"#utility.yul\":11142:11333   */\n    tag_176:\n      0x00\n        /* \"#utility.yul\":11202:11222   */\n      tag_337\n        /* \"#utility.yul\":11220:11221   */\n      dup3\n        /* \"#utility.yul\":11202:11222   */\n      tag_286\n      jump\t// in\n    tag_337:\n        /* \"#utility.yul\":11197:11222   */\n      swap2\n      pop\n        /* \"#utility.yul\":11236:11256   */\n      tag_338\n        /* \"#utility.yul\":11254:11255   */\n      dup4\n        /* \"#utility.yul\":11236:11256   */\n      tag_286\n      jump\t// in\n    tag_338:\n        /* \"#utility.yul\":11231:11256   */\n      swap3\n      pop\n        /* \"#utility.yul\":11275:11276   */\n      dup3\n        /* \"#utility.yul\":11272:11273   */\n      dup3\n        /* \"#utility.yul\":11269:11277   */\n      lt\n        /* \"#utility.yul\":11266:11268   */\n      iszero\n      tag_339\n      jumpi\n        /* \"#utility.yul\":11280:11298   */\n      tag_340\n      tag_324\n      jump\t// in\n    tag_340:\n        /* \"#utility.yul\":11266:11268   */\n    tag_339:\n        /* \"#utility.yul\":11325:11326   */\n      dup3\n        /* \"#utility.yul\":11322:11323   */\n      dup3\n        /* \"#utility.yul\":11318:11327   */\n      sub\n        /* \"#utility.yul\":11310:11327   */\n      swap1\n      pop\n        /* \"#utility.yul\":11187:11333   */\n      swap3\n      swap2\n      pop\n      pop\n      jump\t// out\n        /* \"#utility.yul\":11339:11435   */\n    tag_236:\n      0x00\n        /* \"#utility.yul\":11405:11429   */\n      tag_342\n        /* \"#utility.yul\":11423:11428   */\n      dup3\n        /* \"#utility.yul\":11405:11429   */\n      tag_343\n      jump\t// in\n    tag_342:\n        /* \"#utility.yul\":11394:11429   */\n      swap1\n      pop\n        /* \"#utility.yul\":11384:11435   */\n      swap2\n      swap1\n      pop\n      jump\t// out\n        /* \"#utility.yul\":11441:11531   */\n    tag_257:\n      0x00\n        /* \"#utility.yul\":11518:11523   */\n      dup2\n        /* \"#utility.yul\":11511:11524   */\n      iszero\n        /* \"#utility.yul\":11504:11525   */\n      iszero\n        /* \"#utility.yul\":11493:11525   */\n      swap1\n      pop\n        /* \"#utility.yul\":11483:11531   */\n      swap2\n      swap1\n      pop\n      jump\t// out\n        /* \"#utility.yul\":11537:11663   */\n    tag_343:\n      0x00\n        /* \"#utility.yul\":11614:11656   */\n      0xffffffffffffffffffffffffffffffffffffffff\n        /* \"#utility.yul\":11607:11612   */\n      dup3\n        /* \"#utility.yul\":11603:11657   */\n      and\n        /* \"#utility.yul\":11592:11657   */\n      swap1\n      pop\n        /* \"#utility.yul\":11582:11663   */\n      swap2\n      swap1\n      pop\n      jump\t// out\n        /* \"#utility.yul\":11669:11746   */\n    tag_286:\n      0x00\n        /* \"#utility.yul\":11735:11740   */\n      dup2\n        /* \"#utility.yul\":11724:11740   */\n      swap1\n      pop\n        /* \"#utility.yul\":11714:11746   */\n      swap2\n      swap1\n      pop\n      jump\t// out\n        /* \"#utility.yul\":11752:11923   */\n    tag_213:\n      0x00\n        /* \"#utility.yul\":11814:11838   */\n      tag_348\n        /* \"#utility.yul\":11832:11837   */\n      dup3\n        /* \"#utility.yul\":11814:11838   */\n      tag_286\n      jump\t// in\n    tag_348:\n        /* \"#utility.yul\":11805:11838   */\n      swap2\n      pop\n        /* \"#utility.yul\":11860:11864   */\n      0x00\n        /* \"#utility.yul\":11853:11858   */\n      dup3\n        /* \"#utility.yul\":11850:11865   */\n      eq\n        /* \"#utility.yul\":11847:11849   */\n      iszero\n      tag_349\n      jumpi\n        /* \"#utility.yul\":11868:11886   */\n      tag_350\n      tag_324\n      jump\t// in\n    tag_350:\n        /* \"#utility.yul\":11847:11849   */\n    tag_349:\n        /* \"#utility.yul\":11915:11916   */\n      0x01\n        /* \"#utility.yul\":11908:11913   */\n      dup3\n        /* \"#utility.yul\":11904:11917   */\n      sub\n        /* \"#utility.yul\":11897:11917   */\n      swap1\n      pop\n        /* \"#utility.yul\":11795:11923   */\n      swap2\n      swap1\n      pop\n      jump\t// out\n        /* \"#utility.yul\":11929:12162   */\n    tag_90:\n      0x00\n        /* \"#utility.yul\":11991:12015   */\n      tag_352\n        /* \"#utility.yul\":12009:12014   */\n      dup3\n        /* \"#utility.yul\":11991:12015   */\n      tag_286\n      jump\t// in\n    tag_352:\n        /* \"#utility.yul\":11982:12015   */\n      swap2\n      pop\n        /* \"#utility.yul\":12037:12103   */\n      0xffffffffffffffffffffffffffffffffffffffffffffffffffffffffffffffff\n        /* \"#utility.yul\":12030:12035   */\n      dup3\n        /* \"#utility.yul\":12027:12104   */\n      eq\n        /* \"#utility.yul\":12024:12026   */\n      iszero\n      tag_353\n      jumpi\n        /* \"#utility.yul\":12107:12125   */\n      tag_354\n      tag_324\n      jump\t// in\n    tag_354:\n        /* \"#utility.yul\":12024:12026   */\n    tag_353:\n        /* \"#utility.yul\":12154:12155   */\n      0x01\n        /* \"#utility.yul\":12147:12152   */\n      dup3\n        /* \"#utility.yul\":12143:12156   */\n      add\n        /* \"#utility.yul\":12136:12156   */\n      swap1\n      pop\n        /* \"#utility.yul\":11972:12162   */\n      swap2\n      swap1\n      pop\n      jump\t// out\n        /* \"#utility.yul\":12168:12348   */\n    tag_324:\n        /* \"#utility.yul\":12216:12293   */\n      0x4e487b7100000000000000000000000000000000000000000000000000000000\n        /* \"#utility.yul\":12213:12214   */\n      0x00\n        /* \"#utility.yul\":12206:12294   */\n      mstore\n        /* \"#utility.yul\":12313:12317   */\n      0x11\n        /* \"#utility.yul\":12310:12311   */\n      0x04\n        /* \"#utility.yul\":12303:12318   */\n      mstore\n        /* \"#utility.yul\":12337:12341   */\n      0x24\n        /* \"#utility.yul\":12334:12335   */\n      0x00\n        /* \"#utility.yul\":12327:12342   */\n      revert\n        /* \"#utility.yul\":12354:12534   */\n    tag_330:\n        /* \"#utility.yul\":12402:12479   */\n      0x4e487b7100000000000000000000000000000000000000000000000000000000\n        /* \"#utility.yul\":12399:12400   */\n      0x00\n        /* \"#utility.yul\":12392:12480   */\n      mstore\n        /* \"#utility.yul\":12499:12503   */\n      0x12\n        /* \"#utility.yul\":12496:12497   */\n      0x04\n        /* \"#utility.yul\":12489:12504   */\n      mstore\n        /* \"#utility.yul\":12523:12527   */\n      0x24\n        /* \"#utility.yul\":12520:12521   */\n      0x00\n        /* \"#utility.yul\":12513:12528   */\n      revert\n        /* \"#utility.yul\":12540:12662   */\n    tag_226:\n        /* \"#utility.yul\":12613:12637   */\n      tag_358\n        /* \"#utility.yul\":12631:12636   */\n      dup2\n        /* \"#utility.yul\":12613:12637   */\n      tag_236\n      jump\t// in\n    tag_358:\n        /* \"#utility.yul\":12606:12611   */\n      dup2\n        /* \"#utility.yul\":12603:12638   */\n      eq\n        /* \"#utility.yul\":12593:12595   */\n      tag_359\n      jumpi\n        /* \"#utility.yul\":12652:12653   */\n      0x00\n        /* \"#utility.yul\":12649:12650   */\n      dup1\n        /* \"#utility.yul\":12642:12654   */\n      revert\n        /* \"#utility.yul\":12593:12595   */\n    tag_359:\n        /* \"#utility.yul\":12583:12662   */\n      pop\n      jump\t// out\n\n    auxdata: 0xa2646970667358221220a15d5934f9d3a3a997ea786738f91616646af5dec6e65abbb533f64d18cdd86e64736f6c63430008000033\n}\n",
				"bytecode": {
					"linkReferences": {},
					"object": "60806040523480156200001157600080fd5b50336000806101000a81548173ffffffffffffffffffffffffffffffffffffffff021916908373ffffffffffffffffffffffffffffffffffffffff16021790555060018060003373ffffffffffffffffffffffffffffffffffffffff1673ffffffffffffffffffffffffffffffffffffffff16815260200190815260200160002060006101000a81548160ff0219169083151502179055503373ffffffffffffffffffffffffffffffffffffffff167f235bc17e7930760029e9f4d860a2a8089976de5b381cf8380fc11c1d88a111336001604051620000f2919062000111565b60405180910390a26200013a565b6200010b816200012e565b82525050565b600060208201905062000128600083018462000100565b92915050565b60008115159050919050565b6120b0806200014a6000396000f3fe608060405234801561001057600080fd5b50600436106101005760003560e01c806353358fc411610097578063a3ec138d11610066578063a3ec138d14610285578063a9a981a3146102b5578063e42b5d4b146102d3578063f851a4401461030357610100565b806353358fc4146101ff57806361cac4181461021b57806366a267a9146102255780636b991a181461025557610100565b806335bb3e16116100d357806335bb3e161461018d57806338db6dd3146101a9578063396b9ae0146101c55780633acd75f8146101e357610100565b80631aae9ff31461010557806324d7806c146101235780632bc4a6e7146101535780632d34567014610171575b600080fd5b61010d610321565b60405161011a9190611cb5565b60405180910390f35b61013d60048036038101906101389190611890565b610334565b60405161014a9190611cb5565b60405180910390f35b61015b610354565b6040516101689190611c93565b60405180910390f35b61018b60048036038101906101869190611890565b6104d8565b005b6101a760048036038101906101a29190611890565b61069d565b005b6101c360048036038101906101be9190611890565b6107d2565b005b6101cd610a16565b6040516101da9190611c93565b60405180910390f35b6101fd60048036038101906101f89190611890565b610b9a565b005b61021960048036038101906102149190611890565b610ded565b005b610223610fb7565b005b61023f600480360381019061023a9190611890565b611300565b60405161024c9190611dd0565b60405180910390f35b61026f600480360381019061026a9190611890565b611318565b60405161027c9190611dd0565b60405180910390f35b61029f600480360381019061029a9190611890565b6113ed565b6040516102ac9190611cb5565b60405180910390f35b6102bd61140d565b6040516102ca9190611dd0565b60405180910390f35b6102ed60048036038101906102e89190611890565b611413565b6040516102fa9190611cb5565b60405180910390f35b61030b611433565b6040516103189190611c4f565b60405180910390f35b600660009054906101000a900460ff1681565b60016020528060005260406000206000915054906101000a900460ff1681565b6060600060055467ffffffffffffffff81111561039a577f4e487b7100000000000000000000000000000000000000000000000000000000600052604160045260246000fd5b6040519080825280602002602001820160405280156103c85781602001602082028036833780820191505090505b5090506000805b6005548110156104cf5760006103e482611457565b9050600360008273ffffffffffffffffffffffffffffffffffffffff1673ffffffffffffffffffffffffffffffffffffffff16815260200190815260200160002060009054906101000a900460ff16156104bb5780848481518110610472577f4e487b7100000000000000000000000000000000000000000000000000000000600052603260045260246000fd5b602002602001019073ffffffffffffffffffffffffffffffffffffffff16908173ffffffffffffffffffffffffffffffffffffffff168152505082806104b790611fbc565b9350505b5080806104c790611fbc565b9150506103cf565b50819250505090565b600160003373ffffffffffffffffffffffffffffffffffffffff1673ffffffffffffffffffffffffffffffffffffffff16815260200190815260200160002060009054906101000a900460ff16610564576040517f08c379a000000000000000000000000000000000000000000000000000000000815260040161055b90611d90565b60405180910390fd5b60008054906101000a900473ffffffffffffffffffffffffffffffffffffffff1673ffffffffffffffffffffffffffffffffffffffff168173ffffffffffffffffffffffffffffffffffffffff1614156105f3576040517f08c379a00000000000000000000000000000000000000000000000000000000081526004016105ea90611d30565b60405180910390fd5b6000600160008373ffffffffffffffffffffffffffffffffffffffff1673ffffffffffffffffffffffffffffffffffffffff16815260200190815260200160002060006101000a81548160ff0219169083151502179055508073ffffffffffffffffffffffffffffffffffffffff167f235bc17e7930760029e9f4d860a2a8089976de5b381cf8380fc11c1d88a1113360006040516106929190611cb5565b60405180910390a250565b600160003373ffffffffffffffffffffffffffffffffffffffff1673ffffffffffffffffffffffffffffffffffffffff16815260200190815260200160002060009054906101000a900460ff16610729576040517f08c379a000000000000000000000000000000000000000000000000000000000815260040161072090611d90565b60405180910390fd5b60018060008373ffffffffffffffffffffffffffffffffffffffff1673ffffffffffffffffffffffffffffffffffffffff16815260200190815260200160002060006101000a81548160ff0219169083151502179055508073ffffffffffffffffffffffffffffffffffffffff167f235bc17e7930760029e9f4d860a2a8089976de5b381cf8380fc11c1d88a1113360016040516107c79190611cb5565b60405180910390a250565b600160003373ffffffffffffffffffffffffffffffffffffffff1673ffffffffffffffffffffffffffffffffffffffff16815260200190815260200160002060009054906101000a900460ff1661085e576040517f08c379a000000000000000000000000000000000000000000000000000000000815260040161085590611d90565b60405180910390fd5b600360008273ffffffffffffffffffffffffffffffffffffffff1673ffffffffffffffffffffffffffffffffffffffff16815260200190815260200160002060009054906101000a900460ff16156108eb576040517f08c379a00000000000000000000000000000000000000000000000000000000081526004016108e290611d10565b60405180910390fd5b600260008273ffffffffffffffffffffffffffffffffffffffff1673ffffffffffffffffffffffffffffffffffffffff16815260200190815260200160002060009054906101000a900460ff1615610978576040517f08c379a000000000000000000000000000000000000000000000000000000000815260040161096f90611cf0565b60405180910390fd5b6001600360008373ffffffffffffffffffffffffffffffffffffffff1673ffffffffffffffffffffffffffffffffffffffff16815260200190815260200160002060006101000a81548160ff0219169083151502179055508073ffffffffffffffffffffffffffffffffffffffff167fb6be2187d059cc2a55fe29e0e503b566e1e0f8c8780096e185429350acffd3dd60405160405180910390a250565b6060600060055467ffffffffffffffff811115610a5c577f4e487b7100000000000000000000000000000000000000000000000000000000600052604160045260246000fd5b604051908082528060200260200182016040528015610a8a5781602001602082028036833780820191505090505b5090506000805b600554811015610b91576000610aa682611457565b9050600260008273ffffffffffffffffffffffffffffffffffffffff1673ffffffffffffffffffffffffffffffffffffffff16815260200190815260200160002060009054906101000a900460ff1615610b7d5780848481518110610b34577f4e487b7100000000000000000000000000000000000000000000000000000000600052603260045260246000fd5b602002602001019073ffffffffffffffffffffffffffffffffffffffff16908173ffffffffffffffffffffffffffffffffffffffff16815250508280610b7990611fbc565b9350505b508080610b8990611fbc565b915050610a91565b50819250505090565b600160003373ffffffffffffffffffffffffffffffffffffffff1673ffffffffffffffffffffffffffffffffffffffff16815260200190815260200160002060009054906101000a900460ff16610c26576040517f08c379a0000000000000000000000000000000000000000000000000000000008152600401610c1d90611d90565b60405180910390fd5b600260008273ffffffffffffffffffffffffffffffffffffffff1673ffffffffffffffffffffffffffffffffffffffff16815260200190815260200160002060009054906101000a900460ff1615610cb3576040517f08c379a0000000000000000000000000000000000000000000000000000000008152600401610caa90611cf0565b60405180910390fd5b600360008273ffffffffffffffffffffffffffffffffffffffff1673ffffffffffffffffffffffffffffffffffffffff16815260200190815260200160002060009054906101000a900460ff1615610d40576040517f08c379a0000000000000000000000000000000000000000000000000000000008152600401610d3790611d10565b60405180910390fd5b6001600260008373ffffffffffffffffffffffffffffffffffffffff1673ffffffffffffffffffffffffffffffffffffffff16815260200190815260200160002060006101000a81548160ff02191690831515021790555060056000815480929190610dab90611fbc565b91905055507f7ed5f724ccc8a182b0da831cf01b3714fd7e8a9019e6f1df3221aaa44e8bb34b816001604051610de2929190611c6a565b60405180910390a150565b600360003373ffffffffffffffffffffffffffffffffffffffff1673ffffffffffffffffffffffffffffffffffffffff16815260200190815260200160002060009054906101000a900460ff16610e79576040517f08c379a0000000000000000000000000000000000000000000000000000000008152600401610e7090611db0565b60405180910390fd5b600260008273ffffffffffffffffffffffffffffffffffffffff1673ffffffffffffffffffffffffffffffffffffffff16815260200190815260200160002060009054906101000a900460ff16610f05576040517f08c379a0000000000000000000000000000000000000000000000000000000008152600401610efc90611d50565b60405180910390fd5b600460008273ffffffffffffffffffffffffffffffffffffffff1673ffffffffffffffffffffffffffffffffffffffff1681526020019081526020016000206000815480929190610f5590611fbc565b91905055503373ffffffffffffffffffffffffffffffffffffffff168173ffffffffffffffffffffffffffffffffffffffff167f113ed09b18bb8fe2635af16f21d67464502d920ff1015abfe08dbe9a2971a7e260405160405180910390a350565b600160003373ffffffffffffffffffffffffffffffffffffffff1673ffffffffffffffffffffffffffffffffffffffff16815260200190815260200160002060009054906101000a900460ff16611043576040517f08c379a000000000000000000000000000000000000000000000000000000000815260040161103a90611d90565b60405180910390fd5b600660009054906101000a900460ff1615611093576040517f08c379a000000000000000000000000000000000000000000000000000000000815260040161108a90611cd0565b60405180910390fd5b6000805b60055481101561110f5760006110ac82611457565b9050600460008273ffffffffffffffffffffffffffffffffffffffff1673ffffffffffffffffffffffffffffffffffffffff16815260200190815260200160002054836110f99190611e35565b925050808061110790611fbc565b915050611097565b50600060646008836111219190611ebc565b61112b9190611e8b565b9050600060055467ffffffffffffffff811115611171577f4e487b7100000000000000000000000000000000000000000000000000000000600052604160045260246000fd5b60405190808252806020026020018201604052801561119f5781602001602082028036833780820191505090505b5090506000805b60055481101561129a5760006111bb82611457565b905084600460008373ffffffffffffffffffffffffffffffffffffffff1673ffffffffffffffffffffffffffffffffffffffff1681526020019081526020016000205410611286578084848151811061123d577f4e487b7100000000000000000000000000000000000000000000000000000000600052603260045260246000fd5b602002602001019073ffffffffffffffffffffffffffffffffffffffff16908173ffffffffffffffffffffffffffffffffffffffff1681525050828061128290611fbc565b9350505b50808061129290611fbc565b9150506111a6565b506112b38260006001846112ae9190611f16565b61157d565b6001600660006101000a81548160ff0219169083151502179055507f65abed43f82bb10a6bdf95a0779a53e25c43baaf82d573d2e3ead4484a087ec660405160405180910390a150505050565b60046020528060005260406000206000915090505481565b6000600260008373ffffffffffffffffffffffffffffffffffffffff1673ffffffffffffffffffffffffffffffffffffffff16815260200190815260200160002060009054906101000a900460ff166113a6576040517f08c379a000000000000000000000000000000000000000000000000000000000815260040161139d90611d50565b60405180910390fd5b600460008373ffffffffffffffffffffffffffffffffffffffff1673ffffffffffffffffffffffffffffffffffffffff168152602001908152602001600020549050919050565b60036020528060005260406000206000915054906101000a900460ff1681565b60055481565b60026020528060005260406000206000915054906101000a900460ff1681565b60008054906101000a900473ffffffffffffffffffffffffffffffffffffffff1681565b6000600554821061149d576040517f08c379a000000000000000000000000000000000000000000000000000000000815260040161149490611d70565b60405180910390fd5b60008060005b60055481101561157257600260008060009054906101000a900473ffffffffffffffffffffffffffffffffffffffff1673ffffffffffffffffffffffffffffffffffffffff1673ffffffffffffffffffffffffffffffffffffffff16815260200190815260200160002060009054906101000a900460ff161561155f57848214156115505760008054906101000a900473ffffffffffffffffffffffffffffffffffffffff169250611572565b818061155b90611fbc565b9250505b808061156a90611fbc565b9150506114a3565b508192505050919050565b808210156115b85760006115928484846115bd565b905061159f84848361157d565b6115b6846001836115b09190611e35565b8461157d565b505b505050565b60008060009050600084905060008490505b80821015611862575b80821115801561163e57508287838151811061161d577f4e487b7100000000000000000000000000000000000000000000000000000000600052603260045260246000fd5b602002602001015173ffffffffffffffffffffffffffffffffffffffff1610155b1561165657818061164e90611fbc565b9250506115d8565b5b8082111580156116bc57508287828151811061169c577f4e487b7100000000000000000000000000000000000000000000000000000000600052603260045260246000fd5b602002602001015173ffffffffffffffffffffffffffffffffffffffff16105b156116d45780806116cc90611f92565b915050611657565b8082101561185d57868181518110611715577f4e487b7100000000000000000000000000000000000000000000000000000000600052603260045260246000fd5b6020026020010151878381518110611756577f4e487b7100000000000000000000000000000000000000000000000000000000600052603260045260246000fd5b6020026020010151888481518110611797577f4e487b7100000000000000000000000000000000000000000000000000000000600052603260045260246000fd5b602002602001018984815181106117d7577f4e487b7100000000000000000000000000000000000000000000000000000000600052603260045260246000fd5b602002602001018273ffffffffffffffffffffffffffffffffffffffff1673ffffffffffffffffffffffffffffffffffffffff168152508273ffffffffffffffffffffffffffffffffffffffff1673ffffffffffffffffffffffffffffffffffffffff168152505050818061184b90611fbc565b925050808061185990611f92565b9150505b6115cf565b60018261186f9190611f16565b93505050509392505050565b60008135905061188a81612063565b92915050565b6000602082840312156118a257600080fd5b60006118b08482850161187b565b91505092915050565b60006118c583836118d1565b60208301905092915050565b6118da81611f4a565b82525050565b6118e981611f4a565b82525050565b60006118fa82611dfb565b6119048185611e13565b935061190f83611deb565b8060005b8381101561194057815161192788826118b9565b975061193283611e06565b925050600181019050611913565b5085935050505092915050565b61195681611f5c565b82525050565b6000611969602183611e24565b91507f526573756c742068617320616c7265616479206265656e2066696e616c697a6560008301527f64000000000000000000000000000000000000000000000000000000000000006020830152604082019050919050565b60006119cf602c83611e24565b91507f4164647265737320697320616c7265616479207265676973746572656420617360008301527f20612063616e64696461746500000000000000000000000000000000000000006020830152604082019050919050565b6000611a35602883611e24565b91507f4164647265737320697320616c7265616479207265676973746572656420617360008301527f206120766f7465720000000000000000000000000000000000000000000000006020830152604082019050919050565b6000611a9b603283611e24565b91507f43616e6e6f74207265766f6b652061646d696e2070726976696c65676573206660008301527f726f6d20746865206d61696e2061646d696e00000000000000000000000000006020830152604082019050919050565b6000611b01601983611e24565b91507f496e76616c69642063616e6469646174652061646472657373000000000000006000830152602082019050919050565b6000611b41601383611e24565b91507f496e646578206f7574206f6620626f756e6473000000000000000000000000006000830152602082019050919050565b6000611b81602183611e24565b91507f4f6e6c792061646d696e2063616e2063616c6c20746869732066756e6374696f60008301527f6e000000000000000000000000000000000000000000000000000000000000006020830152604082019050919050565b6000611be7602583611e24565b91507f4f6e6c79207265676973746572656420766f746572732063616e20636173742060008301527f766f7465730000000000000000000000000000000000000000000000000000006020830152604082019050919050565b611c4981611f88565b82525050565b6000602082019050611c6460008301846118e0565b92915050565b6000604082019050611c7f60008301856118e0565b611c8c602083018461194d565b9392505050565b60006020820190508181036000830152611cad81846118ef565b905092915050565b6000602082019050611cca600083018461194d565b92915050565b60006020820190508181036000830152611ce98161195c565b9050919050565b60006020820190508181036000830152611d09816119c2565b9050919050565b60006020820190508181036000830152611d2981611a28565b9050919050565b60006020820190508181036000830152611d4981611a8e565b9050919050565b60006020820190508181036000830152611d6981611af4565b9050919050565b60006020820190508181036000830152611d8981611b34565b9050919050565b60006020820190508181036000830152611da981611b74565b9050919050565b60006020820190508181036000830152611dc981611bda565b9050919050565b6000602082019050611de56000830184611c40565b92915050565b6000819050602082019050919050565b600081519050919050565b6000602082019050919050565b600082825260208201905092915050565b600082825260208201905092915050565b6000611e4082611f88565b9150611e4b83611f88565b9250827fffffffffffffffffffffffffffffffffffffffffffffffffffffffffffffffff03821115611e8057611e7f612005565b5b828201905092915050565b6000611e9682611f88565b9150611ea183611f88565b925082611eb157611eb0612034565b5b828204905092915050565b6000611ec782611f88565b9150611ed283611f88565b9250817fffffffffffffffffffffffffffffffffffffffffffffffffffffffffffffffff0483118215151615611f0b57611f0a612005565b5b828202905092915050565b6000611f2182611f88565b9150611f2c83611f88565b925082821015611f3f57611f3e612005565b5b828203905092915050565b6000611f5582611f68565b9050919050565b60008115159050919050565b600073ffffffffffffffffffffffffffffffffffffffff82169050919050565b6000819050919050565b6000611f9d82611f88565b91506000821415611fb157611fb0612005565b5b600182039050919050565b6000611fc782611f88565b91507fffffffffffffffffffffffffffffffffffffffffffffffffffffffffffffffff821415611ffa57611ff9612005565b5b600182019050919050565b7f4e487b7100000000000000000000000000000000000000000000000000000000600052601160045260246000fd5b7f4e487b7100000000000000000000000000000000000000000000000000000000600052601260045260246000fd5b61206c81611f4a565b811461207757600080fd5b5056fea2646970667358221220a15d5934f9d3a3a997ea786738f91616646af5dec6e65abbb533f64d18cdd86e64736f6c63430008000033",
					"opcodes": "PUSH1 0x80 PUSH1 0x40 MSTORE CALLVALUE DUP1 ISZERO PUSH3 0x11 JUMPI PUSH1 0x0 DUP1 REVERT JUMPDEST POP CALLER PUSH1 0x0 DUP1 PUSH2 0x100 EXP DUP2 SLOAD DUP2 PUSH20 0xFFFFFFFFFFFFFFFFFFFFFFFFFFFFFFFFFFFFFFFF MUL NOT AND SWAP1 DUP4 PUSH20 0xFFFFFFFFFFFFFFFFFFFFFFFFFFFFFFFFFFFFFFFF AND MUL OR SWAP1 SSTORE POP PUSH1 0x1 DUP1 PUSH1 0x0 CALLER PUSH20 0xFFFFFFFFFFFFFFFFFFFFFFFFFFFFFFFFFFFFFFFF AND PUSH20 0xFFFFFFFFFFFFFFFFFFFFFFFFFFFFFFFFFFFFFFFF AND DUP2 MSTORE PUSH1 0x20 ADD SWAP1 DUP2 MSTORE PUSH1 0x20 ADD PUSH1 0x0 KECCAK256 PUSH1 0x0 PUSH2 0x100 EXP DUP2 SLOAD DUP2 PUSH1 0xFF MUL NOT AND SWAP1 DUP4 ISZERO ISZERO MUL OR SWAP1 SSTORE POP CALLER PUSH20 0xFFFFFFFFFFFFFFFFFFFFFFFFFFFFFFFFFFFFFFFF AND PUSH32 0x235BC17E7930760029E9F4D860A2A8089976DE5B381CF8380FC11C1D88A11133 PUSH1 0x1 PUSH1 0x40 MLOAD PUSH3 0xF2 SWAP2 SWAP1 PUSH3 0x111 JUMP JUMPDEST PUSH1 0x40 MLOAD DUP1 SWAP2 SUB SWAP1 LOG2 PUSH3 0x13A JUMP JUMPDEST PUSH3 0x10B DUP2 PUSH3 0x12E JUMP JUMPDEST DUP3 MSTORE POP POP JUMP JUMPDEST PUSH1 0x0 PUSH1 0x20 DUP3 ADD SWAP1 POP PUSH3 0x128 PUSH1 0x0 DUP4 ADD DUP5 PUSH3 0x100 JUMP JUMPDEST SWAP3 SWAP2 POP POP JUMP JUMPDEST PUSH1 0x0 DUP2 ISZERO ISZERO SWAP1 POP SWAP2 SWAP1 POP JUMP JUMPDEST PUSH2 0x20B0 DUP1 PUSH3 0x14A PUSH1 0x0 CODECOPY PUSH1 0x0 RETURN INVALID PUSH1 0x80 PUSH1 0x40 MSTORE CALLVALUE DUP1 ISZERO PUSH2 0x10 JUMPI PUSH1 0x0 DUP1 REVERT JUMPDEST POP PUSH1 0x4 CALLDATASIZE LT PUSH2 0x100 JUMPI PUSH1 0x0 CALLDATALOAD PUSH1 0xE0 SHR DUP1 PUSH4 0x53358FC4 GT PUSH2 0x97 JUMPI DUP1 PUSH4 0xA3EC138D GT PUSH2 0x66 JUMPI DUP1 PUSH4 0xA3EC138D EQ PUSH2 0x285 JUMPI DUP1 PUSH4 0xA9A981A3 EQ PUSH2 0x2B5 JUMPI DUP1 PUSH4 0xE42B5D4B EQ PUSH2 0x2D3 JUMPI DUP1 PUSH4 0xF851A440 EQ PUSH2 0x303 JUMPI PUSH2 0x100 JUMP JUMPDEST DUP1 PUSH4 0x53358FC4 EQ PUSH2 0x1FF JUMPI DUP1 PUSH4 0x61CAC418 EQ PUSH2 0x21B JUMPI DUP1 PUSH4 0x66A267A9 EQ PUSH2 0x225 JUMPI DUP1 PUSH4 0x6B991A18 EQ PUSH2 0x255 JUMPI PUSH2 0x100 JUMP JUMPDEST DUP1 PUSH4 0x35BB3E16 GT PUSH2 0xD3 JUMPI DUP1 PUSH4 0x35BB3E16 EQ PUSH2 0x18D JUMPI DUP1 PUSH4 0x38DB6DD3 EQ PUSH2 0x1A9 JUMPI DUP1 PUSH4 0x396B9AE0 EQ PUSH2 0x1C5 JUMPI DUP1 PUSH4 0x3ACD75F8 EQ PUSH2 0x1E3 JUMPI PUSH2 0x100 JUMP JUMPDEST DUP1 PUSH4 0x1AAE9FF3 EQ PUSH2 0x105 JUMPI DUP1 PUSH4 0x24D7806C EQ PUSH2 0x123 JUMPI DUP1 PUSH4 0x2BC4A6E7 EQ PUSH2 0x153 JUMPI DUP1 PUSH4 0x2D345670 EQ PUSH2 0x171 JUMPI JUMPDEST PUSH1 0x0 DUP1 REVERT JUMPDEST PUSH2 0x10D PUSH2 0x321 JUMP JUMPDEST PUSH1 0x40 MLOAD PUSH2 0x11A SWAP2 SWAP1 PUSH2 0x1CB5 JUMP JUMPDEST PUSH1 0x40 MLOAD DUP1 SWAP2 SUB SWAP1 RETURN JUMPDEST PUSH2 0x13D PUSH1 0x4 DUP1 CALLDATASIZE SUB DUP2 ADD SWAP1 PUSH2 0x138 SWAP2 SWAP1 PUSH2 0x1890 JUMP JUMPDEST PUSH2 0x334 JUMP JUMPDEST PUSH1 0x40 MLOAD PUSH2 0x14A SWAP2 SWAP1 PUSH2 0x1CB5 JUMP JUMPDEST PUSH1 0x40 MLOAD DUP1 SWAP2 SUB SWAP1 RETURN JUMPDEST PUSH2 0x15B PUSH2 0x354 JUMP JUMPDEST PUSH1 0x40 MLOAD PUSH2 0x168 SWAP2 SWAP1 PUSH2 0x1C93 JUMP JUMPDEST PUSH1 0x40 MLOAD DUP1 SWAP2 SUB SWAP1 RETURN JUMPDEST PUSH2 0x18B PUSH1 0x4 DUP1 CALLDATASIZE SUB DUP2 ADD SWAP1 PUSH2 0x186 SWAP2 SWAP1 PUSH2 0x1890 JUMP JUMPDEST PUSH2 0x4D8 JUMP JUMPDEST STOP JUMPDEST PUSH2 0x1A7 PUSH1 0x4 DUP1 CALLDATASIZE SUB DUP2 ADD SWAP1 PUSH2 0x1A2 SWAP2 SWAP1 PUSH2 0x1890 JUMP JUMPDEST PUSH2 0x69D JUMP JUMPDEST STOP JUMPDEST PUSH2 0x1C3 PUSH1 0x4 DUP1 CALLDATASIZE SUB DUP2 ADD SWAP1 PUSH2 0x1BE SWAP2 SWAP1 PUSH2 0x1890 JUMP JUMPDEST PUSH2 0x7D2 JUMP JUMPDEST STOP JUMPDEST PUSH2 0x1CD PUSH2 0xA16 JUMP JUMPDEST PUSH1 0x40 MLOAD PUSH2 0x1DA SWAP2 SWAP1 PUSH2 0x1C93 JUMP JUMPDEST PUSH1 0x40 MLOAD DUP1 SWAP2 SUB SWAP1 RETURN JUMPDEST PUSH2 0x1FD PUSH1 0x4 DUP1 CALLDATASIZE SUB DUP2 ADD SWAP1 PUSH2 0x1F8 SWAP2 SWAP1 PUSH2 0x1890 JUMP JUMPDEST PUSH2 0xB9A JUMP JUMPDEST STOP JUMPDEST PUSH2 0x219 PUSH1 0x4 DUP1 CALLDATASIZE SUB DUP2 ADD SWAP1 PUSH2 0x214 SWAP2 SWAP1 PUSH2 0x1890 JUMP JUMPDEST PUSH2 0xDED JUMP JUMPDEST STOP JUMPDEST PUSH2 0x223 PUSH2 0xFB7 JUMP JUMPDEST STOP JUMPDEST PUSH2 0x23F PUSH1 0x4 DUP1 CALLDATASIZE SUB DUP2 ADD SWAP1 PUSH2 0x23A SWAP2 SWAP1 PUSH2 0x1890 JUMP JUMPDEST PUSH2 0x1300 JUMP JUMPDEST PUSH1 0x40 MLOAD PUSH2 0x24C SWAP2 SWAP1 PUSH2 0x1DD0 JUMP JUMPDEST PUSH1 0x40 MLOAD DUP1 SWAP2 SUB SWAP1 RETURN JUMPDEST PUSH2 0x26F PUSH1 0x4 DUP1 CALLDATASIZE SUB DUP2 ADD SWAP1 PUSH2 0x26A SWAP2 SWAP1 PUSH2 0x1890 JUMP JUMPDEST PUSH2 0x1318 JUMP JUMPDEST PUSH1 0x40 MLOAD PUSH2 0x27C SWAP2 SWAP1 PUSH2 0x1DD0 JUMP JUMPDEST PUSH1 0x40 MLOAD DUP1 SWAP2 SUB SWAP1 RETURN JUMPDEST PUSH2 0x29F PUSH1 0x4 DUP1 CALLDATASIZE SUB DUP2 ADD SWAP1 PUSH2 0x29A SWAP2 SWAP1 PUSH2 0x1890 JUMP JUMPDEST PUSH2 0x13ED JUMP JUMPDEST PUSH1 0x40 MLOAD PUSH2 0x2AC SWAP2 SWAP1 PUSH2 0x1CB5 JUMP JUMPDEST PUSH1 0x40 MLOAD DUP1 SWAP2 SUB SWAP1 RETURN JUMPDEST PUSH2 0x2BD PUSH2 0x140D JUMP JUMPDEST PUSH1 0x40 MLOAD PUSH2 0x2CA SWAP2 SWAP1 PUSH2 0x1DD0 JUMP JUMPDEST PUSH1 0x40 MLOAD DUP1 SWAP2 SUB SWAP1 RETURN JUMPDEST PUSH2 0x2ED PUSH1 0x4 DUP1 CALLDATASIZE SUB DUP2 ADD SWAP1 PUSH2 0x2E8 SWAP2 SWAP1 PUSH2 0x1890 JUMP JUMPDEST PUSH2 0x1413 JUMP JUMPDEST PUSH1 0x40 MLOAD PUSH2 0x2FA SWAP2 SWAP1 PUSH2 0x1CB5 JUMP JUMPDEST PUSH1 0x40 MLOAD DUP1 SWAP2 SUB SWAP1 RETURN JUMPDEST PUSH2 0x30B PUSH2 0x1433 JUMP JUMPDEST PUSH1 0x40 MLOAD PUSH2 0x318 SWAP2 SWAP1 PUSH2 0x1C4F JUMP JUMPDEST PUSH1 0x40 MLOAD DUP1 SWAP2 SUB SWAP1 RETURN JUMPDEST PUSH1 0x6 PUSH1 0x0 SWAP1 SLOAD SWAP1 PUSH2 0x100 EXP SWAP1 DIV PUSH1 0xFF AND DUP2 JUMP JUMPDEST PUSH1 0x1 PUSH1 0x20 MSTORE DUP1 PUSH1 0x0 MSTORE PUSH1 0x40 PUSH1 0x0 KECCAK256 PUSH1 0x0 SWAP2 POP SLOAD SWAP1 PUSH2 0x100 EXP SWAP1 DIV PUSH1 0xFF AND DUP2 JUMP JUMPDEST PUSH1 0x60 PUSH1 0x0 PUSH1 0x5 SLOAD PUSH8 0xFFFFFFFFFFFFFFFF DUP2 GT ISZERO PUSH2 0x39A JUMPI PUSH32 0x4E487B7100000000000000000000000000000000000000000000000000000000 PUSH1 0x0 MSTORE PUSH1 0x41 PUSH1 0x4 MSTORE PUSH1 0x24 PUSH1 0x0 REVERT JUMPDEST PUSH1 0x40 MLOAD SWAP1 DUP1 DUP3 MSTORE DUP1 PUSH1 0x20 MUL PUSH1 0x20 ADD DUP3 ADD PUSH1 0x40 MSTORE DUP1 ISZERO PUSH2 0x3C8 JUMPI DUP2 PUSH1 0x20 ADD PUSH1 0x20 DUP3 MUL DUP1 CALLDATASIZE DUP4 CALLDATACOPY DUP1 DUP3 ADD SWAP2 POP POP SWAP1 POP JUMPDEST POP SWAP1 POP PUSH1 0x0 DUP1 JUMPDEST PUSH1 0x5 SLOAD DUP2 LT ISZERO PUSH2 0x4CF JUMPI PUSH1 0x0 PUSH2 0x3E4 DUP3 PUSH2 0x1457 JUMP JUMPDEST SWAP1 POP PUSH1 0x3 PUSH1 0x0 DUP3 PUSH20 0xFFFFFFFFFFFFFFFFFFFFFFFFFFFFFFFFFFFFFFFF AND PUSH20 0xFFFFFFFFFFFFFFFFFFFFFFFFFFFFFFFFFFFFFFFF AND DUP2 MSTORE PUSH1 0x20 ADD SWAP1 DUP2 MSTORE PUSH1 0x20 ADD PUSH1 0x0 KECCAK256 PUSH1 0x0 SWAP1 SLOAD SWAP1 PUSH2 0x100 EXP SWAP1 DIV PUSH1 0xFF AND ISZERO PUSH2 0x4BB JUMPI DUP1 DUP5 DUP5 DUP2 MLOAD DUP2 LT PUSH2 0x472 JUMPI PUSH32 0x4E487B7100000000000000000000000000000000000000000000000000000000 PUSH1 0x0 MSTORE PUSH1 0x32 PUSH1 0x4 MSTORE PUSH1 0x24 PUSH1 0x0 REVERT JUMPDEST PUSH1 0x20 MUL PUSH1 0x20 ADD ADD SWAP1 PUSH20 0xFFFFFFFFFFFFFFFFFFFFFFFFFFFFFFFFFFFFFFFF AND SWAP1 DUP2 PUSH20 0xFFFFFFFFFFFFFFFFFFFFFFFFFFFFFFFFFFFFFFFF AND DUP2 MSTORE POP POP DUP3 DUP1 PUSH2 0x4B7 SWAP1 PUSH2 0x1FBC JUMP JUMPDEST SWAP4 POP POP JUMPDEST POP DUP1 DUP1 PUSH2 0x4C7 SWAP1 PUSH2 0x1FBC JUMP JUMPDEST SWAP2 POP POP PUSH2 0x3CF JUMP JUMPDEST POP DUP2 SWAP3 POP POP POP SWAP1 JUMP JUMPDEST PUSH1 0x1 PUSH1 0x0 CALLER PUSH20 0xFFFFFFFFFFFFFFFFFFFFFFFFFFFFFFFFFFFFFFFF AND PUSH20 0xFFFFFFFFFFFFFFFFFFFFFFFFFFFFFFFFFFFFFFFF AND DUP2 MSTORE PUSH1 0x20 ADD SWAP1 DUP2 MSTORE PUSH1 0x20 ADD PUSH1 0x0 KECCAK256 PUSH1 0x0 SWAP1 SLOAD SWAP1 PUSH2 0x100 EXP SWAP1 DIV PUSH1 0xFF AND PUSH2 0x564 JUMPI PUSH1 0x40 MLOAD PUSH32 0x8C379A000000000000000000000000000000000000000000000000000000000 DUP2 MSTORE PUSH1 0x4 ADD PUSH2 0x55B SWAP1 PUSH2 0x1D90 JUMP JUMPDEST PUSH1 0x40 MLOAD DUP1 SWAP2 SUB SWAP1 REVERT JUMPDEST PUSH1 0x0 DUP1 SLOAD SWAP1 PUSH2 0x100 EXP SWAP1 DIV PUSH20 0xFFFFFFFFFFFFFFFFFFFFFFFFFFFFFFFFFFFFFFFF AND PUSH20 0xFFFFFFFFFFFFFFFFFFFFFFFFFFFFFFFFFFFFFFFF AND DUP2 PUSH20 0xFFFFFFFFFFFFFFFFFFFFFFFFFFFFFFFFFFFFFFFF AND EQ ISZERO PUSH2 0x5F3 JUMPI PUSH1 0x40 MLOAD PUSH32 0x8C379A000000000000000000000000000000000000000000000000000000000 DUP2 MSTORE PUSH1 0x4 ADD PUSH2 0x5EA SWAP1 PUSH2 0x1D30 JUMP JUMPDEST PUSH1 0x40 MLOAD DUP1 SWAP2 SUB SWAP1 REVERT JUMPDEST PUSH1 0x0 PUSH1 0x1 PUSH1 0x0 DUP4 PUSH20 0xFFFFFFFFFFFFFFFFFFFFFFFFFFFFFFFFFFFFFFFF AND PUSH20 0xFFFFFFFFFFFFFFFFFFFFFFFFFFFFFFFFFFFFFFFF AND DUP2 MSTORE PUSH1 0x20 ADD SWAP1 DUP2 MSTORE PUSH1 0x20 ADD PUSH1 0x0 KECCAK256 PUSH1 0x0 PUSH2 0x100 EXP DUP2 SLOAD DUP2 PUSH1 0xFF MUL NOT AND SWAP1 DUP4 ISZERO ISZERO MUL OR SWAP1 SSTORE POP DUP1 PUSH20 0xFFFFFFFFFFFFFFFFFFFFFFFFFFFFFFFFFFFFFFFF AND PUSH32 0x235BC17E7930760029E9F4D860A2A8089976DE5B381CF8380FC11C1D88A11133 PUSH1 0x0 PUSH1 0x40 MLOAD PUSH2 0x692 SWAP2 SWAP1 PUSH2 0x1CB5 JUMP JUMPDEST PUSH1 0x40 MLOAD DUP1 SWAP2 SUB SWAP1 LOG2 POP JUMP JUMPDEST PUSH1 0x1 PUSH1 0x0 CALLER PUSH20 0xFFFFFFFFFFFFFFFFFFFFFFFFFFFFFFFFFFFFFFFF AND PUSH20 0xFFFFFFFFFFFFFFFFFFFFFFFFFFFFFFFFFFFFFFFF AND DUP2 MSTORE PUSH1 0x20 ADD SWAP1 DUP2 MSTORE PUSH1 0x20 ADD PUSH1 0x0 KECCAK256 PUSH1 0x0 SWAP1 SLOAD SWAP1 PUSH2 0x100 EXP SWAP1 DIV PUSH1 0xFF AND PUSH2 0x729 JUMPI PUSH1 0x40 MLOAD PUSH32 0x8C379A000000000000000000000000000000000000000000000000000000000 DUP2 MSTORE PUSH1 0x4 ADD PUSH2 0x720 SWAP1 PUSH2 0x1D90 JUMP JUMPDEST PUSH1 0x40 MLOAD DUP1 SWAP2 SUB SWAP1 REVERT JUMPDEST PUSH1 0x1 DUP1 PUSH1 0x0 DUP4 PUSH20 0xFFFFFFFFFFFFFFFFFFFFFFFFFFFFFFFFFFFFFFFF AND PUSH20 0xFFFFFFFFFFFFFFFFFFFFFFFFFFFFFFFFFFFFFFFF AND DUP2 MSTORE PUSH1 0x20 ADD SWAP1 DUP2 MSTORE PUSH1 0x20 ADD PUSH1 0x0 KECCAK256 PUSH1 0x0 PUSH2 0x100 EXP DUP2 SLOAD DUP2 PUSH1 0xFF MUL NOT AND SWAP1 DUP4 ISZERO ISZERO MUL OR SWAP1 SSTORE POP DUP1 PUSH20 0xFFFFFFFFFFFFFFFFFFFFFFFFFFFFFFFFFFFFFFFF AND PUSH32 0x235BC17E7930760029E9F4D860A2A8089976DE5B381CF8380FC11C1D88A11133 PUSH1 0x1 PUSH1 0x40 MLOAD PUSH2 0x7C7 SWAP2 SWAP1 PUSH2 0x1CB5 JUMP JUMPDEST PUSH1 0x40 MLOAD DUP1 SWAP2 SUB SWAP1 LOG2 POP JUMP JUMPDEST PUSH1 0x1 PUSH1 0x0 CALLER PUSH20 0xFFFFFFFFFFFFFFFFFFFFFFFFFFFFFFFFFFFFFFFF AND PUSH20 0xFFFFFFFFFFFFFFFFFFFFFFFFFFFFFFFFFFFFFFFF AND DUP2 MSTORE PUSH1 0x20 ADD SWAP1 DUP2 MSTORE PUSH1 0x20 ADD PUSH1 0x0 KECCAK256 PUSH1 0x0 SWAP1 SLOAD SWAP1 PUSH2 0x100 EXP SWAP1 DIV PUSH1 0xFF AND PUSH2 0x85E JUMPI PUSH1 0x40 MLOAD PUSH32 0x8C379A000000000000000000000000000000000000000000000000000000000 DUP2 MSTORE PUSH1 0x4 ADD PUSH2 0x855 SWAP1 PUSH2 0x1D90 JUMP JUMPDEST PUSH1 0x40 MLOAD DUP1 SWAP2 SUB SWAP1 REVERT JUMPDEST PUSH1 0x3 PUSH1 0x0 DUP3 PUSH20 0xFFFFFFFFFFFFFFFFFFFFFFFFFFFFFFFFFFFFFFFF AND PUSH20 0xFFFFFFFFFFFFFFFFFFFFFFFFFFFFFFFFFFFFFFFF AND DUP2 MSTORE PUSH1 0x20 ADD SWAP1 DUP2 MSTORE PUSH1 0x20 ADD PUSH1 0x0 KECCAK256 PUSH1 0x0 SWAP1 SLOAD SWAP1 PUSH2 0x100 EXP SWAP1 DIV PUSH1 0xFF AND ISZERO PUSH2 0x8EB JUMPI PUSH1 0x40 MLOAD PUSH32 0x8C379A000000000000000000000000000000000000000000000000000000000 DUP2 MSTORE PUSH1 0x4 ADD PUSH2 0x8E2 SWAP1 PUSH2 0x1D10 JUMP JUMPDEST PUSH1 0x40 MLOAD DUP1 SWAP2 SUB SWAP1 REVERT JUMPDEST PUSH1 0x2 PUSH1 0x0 DUP3 PUSH20 0xFFFFFFFFFFFFFFFFFFFFFFFFFFFFFFFFFFFFFFFF AND PUSH20 0xFFFFFFFFFFFFFFFFFFFFFFFFFFFFFFFFFFFFFFFF AND DUP2 MSTORE PUSH1 0x20 ADD SWAP1 DUP2 MSTORE PUSH1 0x20 ADD PUSH1 0x0 KECCAK256 PUSH1 0x0 SWAP1 SLOAD SWAP1 PUSH2 0x100 EXP SWAP1 DIV PUSH1 0xFF AND ISZERO PUSH2 0x978 JUMPI PUSH1 0x40 MLOAD PUSH32 0x8C379A000000000000000000000000000000000000000000000000000000000 DUP2 MSTORE PUSH1 0x4 ADD PUSH2 0x96F SWAP1 PUSH2 0x1CF0 JUMP JUMPDEST PUSH1 0x40 MLOAD DUP1 SWAP2 SUB SWAP1 REVERT JUMPDEST PUSH1 0x1 PUSH1 0x3 PUSH1 0x0 DUP4 PUSH20 0xFFFFFFFFFFFFFFFFFFFFFFFFFFFFFFFFFFFFFFFF AND PUSH20 0xFFFFFFFFFFFFFFFFFFFFFFFFFFFFFFFFFFFFFFFF AND DUP2 MSTORE PUSH1 0x20 ADD SWAP1 DUP2 MSTORE PUSH1 0x20 ADD PUSH1 0x0 KECCAK256 PUSH1 0x0 PUSH2 0x100 EXP DUP2 SLOAD DUP2 PUSH1 0xFF MUL NOT AND SWAP1 DUP4 ISZERO ISZERO MUL OR SWAP1 SSTORE POP DUP1 PUSH20 0xFFFFFFFFFFFFFFFFFFFFFFFFFFFFFFFFFFFFFFFF AND PUSH32 0xB6BE2187D059CC2A55FE29E0E503B566E1E0F8C8780096E185429350ACFFD3DD PUSH1 0x40 MLOAD PUSH1 0x40 MLOAD DUP1 SWAP2 SUB SWAP1 LOG2 POP JUMP JUMPDEST PUSH1 0x60 PUSH1 0x0 PUSH1 0x5 SLOAD PUSH8 0xFFFFFFFFFFFFFFFF DUP2 GT ISZERO PUSH2 0xA5C JUMPI PUSH32 0x4E487B7100000000000000000000000000000000000000000000000000000000 PUSH1 0x0 MSTORE PUSH1 0x41 PUSH1 0x4 MSTORE PUSH1 0x24 PUSH1 0x0 REVERT JUMPDEST PUSH1 0x40 MLOAD SWAP1 DUP1 DUP3 MSTORE DUP1 PUSH1 0x20 MUL PUSH1 0x20 ADD DUP3 ADD PUSH1 0x40 MSTORE DUP1 ISZERO PUSH2 0xA8A JUMPI DUP2 PUSH1 0x20 ADD PUSH1 0x20 DUP3 MUL DUP1 CALLDATASIZE DUP4 CALLDATACOPY DUP1 DUP3 ADD SWAP2 POP POP SWAP1 POP JUMPDEST POP SWAP1 POP PUSH1 0x0 DUP1 JUMPDEST PUSH1 0x5 SLOAD DUP2 LT ISZERO PUSH2 0xB91 JUMPI PUSH1 0x0 PUSH2 0xAA6 DUP3 PUSH2 0x1457 JUMP JUMPDEST SWAP1 POP PUSH1 0x2 PUSH1 0x0 DUP3 PUSH20 0xFFFFFFFFFFFFFFFFFFFFFFFFFFFFFFFFFFFFFFFF AND PUSH20 0xFFFFFFFFFFFFFFFFFFFFFFFFFFFFFFFFFFFFFFFF AND DUP2 MSTORE PUSH1 0x20 ADD SWAP1 DUP2 MSTORE PUSH1 0x20 ADD PUSH1 0x0 KECCAK256 PUSH1 0x0 SWAP1 SLOAD SWAP1 PUSH2 0x100 EXP SWAP1 DIV PUSH1 0xFF AND ISZERO PUSH2 0xB7D JUMPI DUP1 DUP5 DUP5 DUP2 MLOAD DUP2 LT PUSH2 0xB34 JUMPI PUSH32 0x4E487B7100000000000000000000000000000000000000000000000000000000 PUSH1 0x0 MSTORE PUSH1 0x32 PUSH1 0x4 MSTORE PUSH1 0x24 PUSH1 0x0 REVERT JUMPDEST PUSH1 0x20 MUL PUSH1 0x20 ADD ADD SWAP1 PUSH20 0xFFFFFFFFFFFFFFFFFFFFFFFFFFFFFFFFFFFFFFFF AND SWAP1 DUP2 PUSH20 0xFFFFFFFFFFFFFFFFFFFFFFFFFFFFFFFFFFFFFFFF AND DUP2 MSTORE POP POP DUP3 DUP1 PUSH2 0xB79 SWAP1 PUSH2 0x1FBC JUMP JUMPDEST SWAP4 POP POP JUMPDEST POP DUP1 DUP1 PUSH2 0xB89 SWAP1 PUSH2 0x1FBC JUMP JUMPDEST SWAP2 POP POP PUSH2 0xA91 JUMP JUMPDEST POP DUP2 SWAP3 POP POP POP SWAP1 JUMP JUMPDEST PUSH1 0x1 PUSH1 0x0 CALLER PUSH20 0xFFFFFFFFFFFFFFFFFFFFFFFFFFFFFFFFFFFFFFFF AND PUSH20 0xFFFFFFFFFFFFFFFFFFFFFFFFFFFFFFFFFFFFFFFF AND DUP2 MSTORE PUSH1 0x20 ADD SWAP1 DUP2 MSTORE PUSH1 0x20 ADD PUSH1 0x0 KECCAK256 PUSH1 0x0 SWAP1 SLOAD SWAP1 PUSH2 0x100 EXP SWAP1 DIV PUSH1 0xFF AND PUSH2 0xC26 JUMPI PUSH1 0x40 MLOAD PUSH32 0x8C379A000000000000000000000000000000000000000000000000000000000 DUP2 MSTORE PUSH1 0x4 ADD PUSH2 0xC1D SWAP1 PUSH2 0x1D90 JUMP JUMPDEST PUSH1 0x40 MLOAD DUP1 SWAP2 SUB SWAP1 REVERT JUMPDEST PUSH1 0x2 PUSH1 0x0 DUP3 PUSH20 0xFFFFFFFFFFFFFFFFFFFFFFFFFFFFFFFFFFFFFFFF AND PUSH20 0xFFFFFFFFFFFFFFFFFFFFFFFFFFFFFFFFFFFFFFFF AND DUP2 MSTORE PUSH1 0x20 ADD SWAP1 DUP2 MSTORE PUSH1 0x20 ADD PUSH1 0x0 KECCAK256 PUSH1 0x0 SWAP1 SLOAD SWAP1 PUSH2 0x100 EXP SWAP1 DIV PUSH1 0xFF AND ISZERO PUSH2 0xCB3 JUMPI PUSH1 0x40 MLOAD PUSH32 0x8C379A000000000000000000000000000000000000000000000000000000000 DUP2 MSTORE PUSH1 0x4 ADD PUSH2 0xCAA SWAP1 PUSH2 0x1CF0 JUMP JUMPDEST PUSH1 0x40 MLOAD DUP1 SWAP2 SUB SWAP1 REVERT JUMPDEST PUSH1 0x3 PUSH1 0x0 DUP3 PUSH20 0xFFFFFFFFFFFFFFFFFFFFFFFFFFFFFFFFFFFFFFFF AND PUSH20 0xFFFFFFFFFFFFFFFFFFFFFFFFFFFFFFFFFFFFFFFF AND DUP2 MSTORE PUSH1 0x20 ADD SWAP1 DUP2 MSTORE PUSH1 0x20 ADD PUSH1 0x0 KECCAK256 PUSH1 0x0 SWAP1 SLOAD SWAP1 PUSH2 0x100 EXP SWAP1 DIV PUSH1 0xFF AND ISZERO PUSH2 0xD40 JUMPI PUSH1 0x40 MLOAD PUSH32 0x8C379A000000000000000000000000000000000000000000000000000000000 DUP2 MSTORE PUSH1 0x4 ADD PUSH2 0xD37 SWAP1 PUSH2 0x1D10 JUMP JUMPDEST PUSH1 0x40 MLOAD DUP1 SWAP2 SUB SWAP1 REVERT JUMPDEST PUSH1 0x1 PUSH1 0x2 PUSH1 0x0 DUP4 PUSH20 0xFFFFFFFFFFFFFFFFFFFFFFFFFFFFFFFFFFFFFFFF AND PUSH20 0xFFFFFFFFFFFFFFFFFFFFFFFFFFFFFFFFFFFFFFFF AND DUP2 MSTORE PUSH1 0x20 ADD SWAP1 DUP2 MSTORE PUSH1 0x20 ADD PUSH1 0x0 KECCAK256 PUSH1 0x0 PUSH2 0x100 EXP DUP2 SLOAD DUP2 PUSH1 0xFF MUL NOT AND SWAP1 DUP4 ISZERO ISZERO MUL OR SWAP1 SSTORE POP PUSH1 0x5 PUSH1 0x0 DUP2 SLOAD DUP1 SWAP3 SWAP2 SWAP1 PUSH2 0xDAB SWAP1 PUSH2 0x1FBC JUMP JUMPDEST SWAP2 SWAP1 POP SSTORE POP PUSH32 0x7ED5F724CCC8A182B0DA831CF01B3714FD7E8A9019E6F1DF3221AAA44E8BB34B DUP2 PUSH1 0x1 PUSH1 0x40 MLOAD PUSH2 0xDE2 SWAP3 SWAP2 SWAP1 PUSH2 0x1C6A JUMP JUMPDEST PUSH1 0x40 MLOAD DUP1 SWAP2 SUB SWAP1 LOG1 POP JUMP JUMPDEST PUSH1 0x3 PUSH1 0x0 CALLER PUSH20 0xFFFFFFFFFFFFFFFFFFFFFFFFFFFFFFFFFFFFFFFF AND PUSH20 0xFFFFFFFFFFFFFFFFFFFFFFFFFFFFFFFFFFFFFFFF AND DUP2 MSTORE PUSH1 0x20 ADD SWAP1 DUP2 MSTORE PUSH1 0x20 ADD PUSH1 0x0 KECCAK256 PUSH1 0x0 SWAP1 SLOAD SWAP1 PUSH2 0x100 EXP SWAP1 DIV PUSH1 0xFF AND PUSH2 0xE79 JUMPI PUSH1 0x40 MLOAD PUSH32 0x8C379A000000000000000000000000000000000000000000000000000000000 DUP2 MSTORE PUSH1 0x4 ADD PUSH2 0xE70 SWAP1 PUSH2 0x1DB0 JUMP JUMPDEST PUSH1 0x40 MLOAD DUP1 SWAP2 SUB SWAP1 REVERT JUMPDEST PUSH1 0x2 PUSH1 0x0 DUP3 PUSH20 0xFFFFFFFFFFFFFFFFFFFFFFFFFFFFFFFFFFFFFFFF AND PUSH20 0xFFFFFFFFFFFFFFFFFFFFFFFFFFFFFFFFFFFFFFFF AND DUP2 MSTORE PUSH1 0x20 ADD SWAP1 DUP2 MSTORE PUSH1 0x20 ADD PUSH1 0x0 KECCAK256 PUSH1 0x0 SWAP1 SLOAD SWAP1 PUSH2 0x100 EXP SWAP1 DIV PUSH1 0xFF AND PUSH2 0xF05 JUMPI PUSH1 0x40 MLOAD PUSH32 0x8C379A000000000000000000000000000000000000000000000000000000000 DUP2 MSTORE PUSH1 0x4 ADD PUSH2 0xEFC SWAP1 PUSH2 0x1D50 JUMP JUMPDEST PUSH1 0x40 MLOAD DUP1 SWAP2 SUB SWAP1 REVERT JUMPDEST PUSH1 0x4 PUSH1 0x0 DUP3 PUSH20 0xFFFFFFFFFFFFFFFFFFFFFFFFFFFFFFFFFFFFFFFF AND PUSH20 0xFFFFFFFFFFFFFFFFFFFFFFFFFFFFFFFFFFFFFFFF AND DUP2 MSTORE PUSH1 0x20 ADD SWAP1 DUP2 MSTORE PUSH1 0x20 ADD PUSH1 0x0 KECCAK256 PUSH1 0x0 DUP2 SLOAD DUP1 SWAP3 SWAP2 SWAP1 PUSH2 0xF55 SWAP1 PUSH2 0x1FBC JUMP JUMPDEST SWAP2 SWAP1 POP SSTORE POP CALLER PUSH20 0xFFFFFFFFFFFFFFFFFFFFFFFFFFFFFFFFFFFFFFFF AND DUP2 PUSH20 0xFFFFFFFFFFFFFFFFFFFFFFFFFFFFFFFFFFFFFFFF AND PUSH32 0x113ED09B18BB8FE2635AF16F21D67464502D920FF1015ABFE08DBE9A2971A7E2 PUSH1 0x40 MLOAD PUSH1 0x40 MLOAD DUP1 SWAP2 SUB SWAP1 LOG3 POP JUMP JUMPDEST PUSH1 0x1 PUSH1 0x0 CALLER PUSH20 0xFFFFFFFFFFFFFFFFFFFFFFFFFFFFFFFFFFFFFFFF AND PUSH20 0xFFFFFFFFFFFFFFFFFFFFFFFFFFFFFFFFFFFFFFFF AND DUP2 MSTORE PUSH1 0x20 ADD SWAP1 DUP2 MSTORE PUSH1 0x20 ADD PUSH1 0x0 KECCAK256 PUSH1 0x0 SWAP1 SLOAD SWAP1 PUSH2 0x100 EXP SWAP1 DIV PUSH1 0xFF AND PUSH2 0x1043 JUMPI PUSH1 0x40 MLOAD PUSH32 0x8C379A000000000000000000000000000000000000000000000000000000000 DUP2 MSTORE PUSH1 0x4 ADD PUSH2 0x103A SWAP1 PUSH2 0x1D90 JUMP JUMPDEST PUSH1 0x40 MLOAD DUP1 SWAP2 SUB SWAP1 REVERT JUMPDEST PUSH1 0x6 PUSH1 0x0 SWAP1 SLOAD SWAP1 PUSH2 0x100 EXP SWAP1 DIV PUSH1 0xFF AND ISZERO PUSH2 0x1093 JUMPI PUSH1 0x40 MLOAD PUSH32 0x8C379A000000000000000000000000000000000000000000000000000000000 DUP2 MSTORE PUSH1 0x4 ADD PUSH2 0x108A SWAP1 PUSH2 0x1CD0 JUMP JUMPDEST PUSH1 0x40 MLOAD DUP1 SWAP2 SUB SWAP1 REVERT JUMPDEST PUSH1 0x0 DUP1 JUMPDEST PUSH1 0x5 SLOAD DUP2 LT ISZERO PUSH2 0x110F JUMPI PUSH1 0x0 PUSH2 0x10AC DUP3 PUSH2 0x1457 JUMP JUMPDEST SWAP1 POP PUSH1 0x4 PUSH1 0x0 DUP3 PUSH20 0xFFFFFFFFFFFFFFFFFFFFFFFFFFFFFFFFFFFFFFFF AND PUSH20 0xFFFFFFFFFFFFFFFFFFFFFFFFFFFFFFFFFFFFFFFF AND DUP2 MSTORE PUSH1 0x20 ADD SWAP1 DUP2 MSTORE PUSH1 0x20 ADD PUSH1 0x0 KECCAK256 SLOAD DUP4 PUSH2 0x10F9 SWAP2 SWAP1 PUSH2 0x1E35 JUMP JUMPDEST SWAP3 POP POP DUP1 DUP1 PUSH2 0x1107 SWAP1 PUSH2 0x1FBC JUMP JUMPDEST SWAP2 POP POP PUSH2 0x1097 JUMP JUMPDEST POP PUSH1 0x0 PUSH1 0x64 PUSH1 0x8 DUP4 PUSH2 0x1121 SWAP2 SWAP1 PUSH2 0x1EBC JUMP JUMPDEST PUSH2 0x112B SWAP2 SWAP1 PUSH2 0x1E8B JUMP JUMPDEST SWAP1 POP PUSH1 0x0 PUSH1 0x5 SLOAD PUSH8 0xFFFFFFFFFFFFFFFF DUP2 GT ISZERO PUSH2 0x1171 JUMPI PUSH32 0x4E487B7100000000000000000000000000000000000000000000000000000000 PUSH1 0x0 MSTORE PUSH1 0x41 PUSH1 0x4 MSTORE PUSH1 0x24 PUSH1 0x0 REVERT JUMPDEST PUSH1 0x40 MLOAD SWAP1 DUP1 DUP3 MSTORE DUP1 PUSH1 0x20 MUL PUSH1 0x20 ADD DUP3 ADD PUSH1 0x40 MSTORE DUP1 ISZERO PUSH2 0x119F JUMPI DUP2 PUSH1 0x20 ADD PUSH1 0x20 DUP3 MUL DUP1 CALLDATASIZE DUP4 CALLDATACOPY DUP1 DUP3 ADD SWAP2 POP POP SWAP1 POP JUMPDEST POP SWAP1 POP PUSH1 0x0 DUP1 JUMPDEST PUSH1 0x5 SLOAD DUP2 LT ISZERO PUSH2 0x129A JUMPI PUSH1 0x0 PUSH2 0x11BB DUP3 PUSH2 0x1457 JUMP JUMPDEST SWAP1 POP DUP5 PUSH1 0x4 PUSH1 0x0 DUP4 PUSH20 0xFFFFFFFFFFFFFFFFFFFFFFFFFFFFFFFFFFFFFFFF AND PUSH20 0xFFFFFFFFFFFFFFFFFFFFFFFFFFFFFFFFFFFFFFFF AND DUP2 MSTORE PUSH1 0x20 ADD SWAP1 DUP2 MSTORE PUSH1 0x20 ADD PUSH1 0x0 KECCAK256 SLOAD LT PUSH2 0x1286 JUMPI DUP1 DUP5 DUP5 DUP2 MLOAD DUP2 LT PUSH2 0x123D JUMPI PUSH32 0x4E487B7100000000000000000000000000000000000000000000000000000000 PUSH1 0x0 MSTORE PUSH1 0x32 PUSH1 0x4 MSTORE PUSH1 0x24 PUSH1 0x0 REVERT JUMPDEST PUSH1 0x20 MUL PUSH1 0x20 ADD ADD SWAP1 PUSH20 0xFFFFFFFFFFFFFFFFFFFFFFFFFFFFFFFFFFFFFFFF AND SWAP1 DUP2 PUSH20 0xFFFFFFFFFFFFFFFFFFFFFFFFFFFFFFFFFFFFFFFF AND DUP2 MSTORE POP POP DUP3 DUP1 PUSH2 0x1282 SWAP1 PUSH2 0x1FBC JUMP JUMPDEST SWAP4 POP POP JUMPDEST POP DUP1 DUP1 PUSH2 0x1292 SWAP1 PUSH2 0x1FBC JUMP JUMPDEST SWAP2 POP POP PUSH2 0x11A6 JUMP JUMPDEST POP PUSH2 0x12B3 DUP3 PUSH1 0x0 PUSH1 0x1 DUP5 PUSH2 0x12AE SWAP2 SWAP1 PUSH2 0x1F16 JUMP JUMPDEST PUSH2 0x157D JUMP JUMPDEST PUSH1 0x1 PUSH1 0x6 PUSH1 0x0 PUSH2 0x100 EXP DUP2 SLOAD DUP2 PUSH1 0xFF MUL NOT AND SWAP1 DUP4 ISZERO ISZERO MUL OR SWAP1 SSTORE POP PUSH32 0x65ABED43F82BB10A6BDF95A0779A53E25C43BAAF82D573D2E3EAD4484A087EC6 PUSH1 0x40 MLOAD PUSH1 0x40 MLOAD DUP1 SWAP2 SUB SWAP1 LOG1 POP POP POP POP JUMP JUMPDEST PUSH1 0x4 PUSH1 0x20 MSTORE DUP1 PUSH1 0x0 MSTORE PUSH1 0x40 PUSH1 0x0 KECCAK256 PUSH1 0x0 SWAP2 POP SWAP1 POP SLOAD DUP2 JUMP JUMPDEST PUSH1 0x0 PUSH1 0x2 PUSH1 0x0 DUP4 PUSH20 0xFFFFFFFFFFFFFFFFFFFFFFFFFFFFFFFFFFFFFFFF AND PUSH20 0xFFFFFFFFFFFFFFFFFFFFFFFFFFFFFFFFFFFFFFFF AND DUP2 MSTORE PUSH1 0x20 ADD SWAP1 DUP2 MSTORE PUSH1 0x20 ADD PUSH1 0x0 KECCAK256 PUSH1 0x0 SWAP1 SLOAD SWAP1 PUSH2 0x100 EXP SWAP1 DIV PUSH1 0xFF AND PUSH2 0x13A6 JUMPI PUSH1 0x40 MLOAD PUSH32 0x8C379A000000000000000000000000000000000000000000000000000000000 DUP2 MSTORE PUSH1 0x4 ADD PUSH2 0x139D SWAP1 PUSH2 0x1D50 JUMP JUMPDEST PUSH1 0x40 MLOAD DUP1 SWAP2 SUB SWAP1 REVERT JUMPDEST PUSH1 0x4 PUSH1 0x0 DUP4 PUSH20 0xFFFFFFFFFFFFFFFFFFFFFFFFFFFFFFFFFFFFFFFF AND PUSH20 0xFFFFFFFFFFFFFFFFFFFFFFFFFFFFFFFFFFFFFFFF AND DUP2 MSTORE PUSH1 0x20 ADD SWAP1 DUP2 MSTORE PUSH1 0x20 ADD PUSH1 0x0 KECCAK256 SLOAD SWAP1 POP SWAP2 SWAP1 POP JUMP JUMPDEST PUSH1 0x3 PUSH1 0x20 MSTORE DUP1 PUSH1 0x0 MSTORE PUSH1 0x40 PUSH1 0x0 KECCAK256 PUSH1 0x0 SWAP2 POP SLOAD SWAP1 PUSH2 0x100 EXP SWAP1 DIV PUSH1 0xFF AND DUP2 JUMP JUMPDEST PUSH1 0x5 SLOAD DUP2 JUMP JUMPDEST PUSH1 0x2 PUSH1 0x20 MSTORE DUP1 PUSH1 0x0 MSTORE PUSH1 0x40 PUSH1 0x0 KECCAK256 PUSH1 0x0 SWAP2 POP SLOAD SWAP1 PUSH2 0x100 EXP SWAP1 DIV PUSH1 0xFF AND DUP2 JUMP JUMPDEST PUSH1 0x0 DUP1 SLOAD SWAP1 PUSH2 0x100 EXP SWAP1 DIV PUSH20 0xFFFFFFFFFFFFFFFFFFFFFFFFFFFFFFFFFFFFFFFF AND DUP2 JUMP JUMPDEST PUSH1 0x0 PUSH1 0x5 SLOAD DUP3 LT PUSH2 0x149D JUMPI PUSH1 0x40 MLOAD PUSH32 0x8C379A000000000000000000000000000000000000000000000000000000000 DUP2 MSTORE PUSH1 0x4 ADD PUSH2 0x1494 SWAP1 PUSH2 0x1D70 JUMP JUMPDEST PUSH1 0x40 MLOAD DUP1 SWAP2 SUB SWAP1 REVERT JUMPDEST PUSH1 0x0 DUP1 PUSH1 0x0 JUMPDEST PUSH1 0x5 SLOAD DUP2 LT ISZERO PUSH2 0x1572 JUMPI PUSH1 0x2 PUSH1 0x0 DUP1 PUSH1 0x0 SWAP1 SLOAD SWAP1 PUSH2 0x100 EXP SWAP1 DIV PUSH20 0xFFFFFFFFFFFFFFFFFFFFFFFFFFFFFFFFFFFFFFFF AND PUSH20 0xFFFFFFFFFFFFFFFFFFFFFFFFFFFFFFFFFFFFFFFF AND PUSH20 0xFFFFFFFFFFFFFFFFFFFFFFFFFFFFFFFFFFFFFFFF AND DUP2 MSTORE PUSH1 0x20 ADD SWAP1 DUP2 MSTORE PUSH1 0x20 ADD PUSH1 0x0 KECCAK256 PUSH1 0x0 SWAP1 SLOAD SWAP1 PUSH2 0x100 EXP SWAP1 DIV PUSH1 0xFF AND ISZERO PUSH2 0x155F JUMPI DUP5 DUP3 EQ ISZERO PUSH2 0x1550 JUMPI PUSH1 0x0 DUP1 SLOAD SWAP1 PUSH2 0x100 EXP SWAP1 DIV PUSH20 0xFFFFFFFFFFFFFFFFFFFFFFFFFFFFFFFFFFFFFFFF AND SWAP3 POP PUSH2 0x1572 JUMP JUMPDEST DUP2 DUP1 PUSH2 0x155B SWAP1 PUSH2 0x1FBC JUMP JUMPDEST SWAP3 POP POP JUMPDEST DUP1 DUP1 PUSH2 0x156A SWAP1 PUSH2 0x1FBC JUMP JUMPDEST SWAP2 POP POP PUSH2 0x14A3 JUMP JUMPDEST POP DUP2 SWAP3 POP POP POP SWAP2 SWAP1 POP JUMP JUMPDEST DUP1 DUP3 LT ISZERO PUSH2 0x15B8 JUMPI PUSH1 0x0 PUSH2 0x1592 DUP5 DUP5 DUP5 PUSH2 0x15BD JUMP JUMPDEST SWAP1 POP PUSH2 0x159F DUP5 DUP5 DUP4 PUSH2 0x157D JUMP JUMPDEST PUSH2 0x15B6 DUP5 PUSH1 0x1 DUP4 PUSH2 0x15B0 SWAP2 SWAP1 PUSH2 0x1E35 JUMP JUMPDEST DUP5 PUSH2 0x157D JUMP JUMPDEST POP JUMPDEST POP POP POP JUMP JUMPDEST PUSH1 0x0 DUP1 PUSH1 0x0 SWAP1 POP PUSH1 0x0 DUP5 SWAP1 POP PUSH1 0x0 DUP5 SWAP1 POP JUMPDEST DUP1 DUP3 LT ISZERO PUSH2 0x1862 JUMPI JUMPDEST DUP1 DUP3 GT ISZERO DUP1 ISZERO PUSH2 0x163E JUMPI POP DUP3 DUP8 DUP4 DUP2 MLOAD DUP2 LT PUSH2 0x161D JUMPI PUSH32 0x4E487B7100000000000000000000000000000000000000000000000000000000 PUSH1 0x0 MSTORE PUSH1 0x32 PUSH1 0x4 MSTORE PUSH1 0x24 PUSH1 0x0 REVERT JUMPDEST PUSH1 0x20 MUL PUSH1 0x20 ADD ADD MLOAD PUSH20 0xFFFFFFFFFFFFFFFFFFFFFFFFFFFFFFFFFFFFFFFF AND LT ISZERO JUMPDEST ISZERO PUSH2 0x1656 JUMPI DUP2 DUP1 PUSH2 0x164E SWAP1 PUSH2 0x1FBC JUMP JUMPDEST SWAP3 POP POP PUSH2 0x15D8 JUMP JUMPDEST JUMPDEST DUP1 DUP3 GT ISZERO DUP1 ISZERO PUSH2 0x16BC JUMPI POP DUP3 DUP8 DUP3 DUP2 MLOAD DUP2 LT PUSH2 0x169C JUMPI PUSH32 0x4E487B7100000000000000000000000000000000000000000000000000000000 PUSH1 0x0 MSTORE PUSH1 0x32 PUSH1 0x4 MSTORE PUSH1 0x24 PUSH1 0x0 REVERT JUMPDEST PUSH1 0x20 MUL PUSH1 0x20 ADD ADD MLOAD PUSH20 0xFFFFFFFFFFFFFFFFFFFFFFFFFFFFFFFFFFFFFFFF AND LT JUMPDEST ISZERO PUSH2 0x16D4 JUMPI DUP1 DUP1 PUSH2 0x16CC SWAP1 PUSH2 0x1F92 JUMP JUMPDEST SWAP2 POP POP PUSH2 0x1657 JUMP JUMPDEST DUP1 DUP3 LT ISZERO PUSH2 0x185D JUMPI DUP7 DUP2 DUP2 MLOAD DUP2 LT PUSH2 0x1715 JUMPI PUSH32 0x4E487B7100000000000000000000000000000000000000000000000000000000 PUSH1 0x0 MSTORE PUSH1 0x32 PUSH1 0x4 MSTORE PUSH1 0x24 PUSH1 0x0 REVERT JUMPDEST PUSH1 0x20 MUL PUSH1 0x20 ADD ADD MLOAD DUP8 DUP4 DUP2 MLOAD DUP2 LT PUSH2 0x1756 JUMPI PUSH32 0x4E487B7100000000000000000000000000000000000000000000000000000000 PUSH1 0x0 MSTORE PUSH1 0x32 PUSH1 0x4 MSTORE PUSH1 0x24 PUSH1 0x0 REVERT JUMPDEST PUSH1 0x20 MUL PUSH1 0x20 ADD ADD MLOAD DUP9 DUP5 DUP2 MLOAD DUP2 LT PUSH2 0x1797 JUMPI PUSH32 0x4E487B7100000000000000000000000000000000000000000000000000000000 PUSH1 0x0 MSTORE PUSH1 0x32 PUSH1 0x4 MSTORE PUSH1 0x24 PUSH1 0x0 REVERT JUMPDEST PUSH1 0x20 MUL PUSH1 0x20 ADD ADD DUP10 DUP5 DUP2 MLOAD DUP2 LT PUSH2 0x17D7 JUMPI PUSH32 0x4E487B7100000000000000000000000000000000000000000000000000000000 PUSH1 0x0 MSTORE PUSH1 0x32 PUSH1 0x4 MSTORE PUSH1 0x24 PUSH1 0x0 REVERT JUMPDEST PUSH1 0x20 MUL PUSH1 0x20 ADD ADD DUP3 PUSH20 0xFFFFFFFFFFFFFFFFFFFFFFFFFFFFFFFFFFFFFFFF AND PUSH20 0xFFFFFFFFFFFFFFFFFFFFFFFFFFFFFFFFFFFFFFFF AND DUP2 MSTORE POP DUP3 PUSH20 0xFFFFFFFFFFFFFFFFFFFFFFFFFFFFFFFFFFFFFFFF AND PUSH20 0xFFFFFFFFFFFFFFFFFFFFFFFFFFFFFFFFFFFFFFFF AND DUP2 MSTORE POP POP POP DUP2 DUP1 PUSH2 0x184B SWAP1 PUSH2 0x1FBC JUMP JUMPDEST SWAP3 POP POP DUP1 DUP1 PUSH2 0x1859 SWAP1 PUSH2 0x1F92 JUMP JUMPDEST SWAP2 POP POP JUMPDEST PUSH2 0x15CF JUMP JUMPDEST PUSH1 0x1 DUP3 PUSH2 0x186F SWAP2 SWAP1 PUSH2 0x1F16 JUMP JUMPDEST SWAP4 POP POP POP POP SWAP4 SWAP3 POP POP POP JUMP JUMPDEST PUSH1 0x0 DUP2 CALLDATALOAD SWAP1 POP PUSH2 0x188A DUP2 PUSH2 0x2063 JUMP JUMPDEST SWAP3 SWAP2 POP POP JUMP JUMPDEST PUSH1 0x0 PUSH1 0x20 DUP3 DUP5 SUB SLT ISZERO PUSH2 0x18A2 JUMPI PUSH1 0x0 DUP1 REVERT JUMPDEST PUSH1 0x0 PUSH2 0x18B0 DUP5 DUP3 DUP6 ADD PUSH2 0x187B JUMP JUMPDEST SWAP2 POP POP SWAP3 SWAP2 POP POP JUMP JUMPDEST PUSH1 0x0 PUSH2 0x18C5 DUP4 DUP4 PUSH2 0x18D1 JUMP JUMPDEST PUSH1 0x20 DUP4 ADD SWAP1 POP SWAP3 SWAP2 POP POP JUMP JUMPDEST PUSH2 0x18DA DUP2 PUSH2 0x1F4A JUMP JUMPDEST DUP3 MSTORE POP POP JUMP JUMPDEST PUSH2 0x18E9 DUP2 PUSH2 0x1F4A JUMP JUMPDEST DUP3 MSTORE POP POP JUMP JUMPDEST PUSH1 0x0 PUSH2 0x18FA DUP3 PUSH2 0x1DFB JUMP JUMPDEST PUSH2 0x1904 DUP2 DUP6 PUSH2 0x1E13 JUMP JUMPDEST SWAP4 POP PUSH2 0x190F DUP4 PUSH2 0x1DEB JUMP JUMPDEST DUP1 PUSH1 0x0 JUMPDEST DUP4 DUP2 LT ISZERO PUSH2 0x1940 JUMPI DUP2 MLOAD PUSH2 0x1927 DUP9 DUP3 PUSH2 0x18B9 JUMP JUMPDEST SWAP8 POP PUSH2 0x1932 DUP4 PUSH2 0x1E06 JUMP JUMPDEST SWAP3 POP POP PUSH1 0x1 DUP2 ADD SWAP1 POP PUSH2 0x1913 JUMP JUMPDEST POP DUP6 SWAP4 POP POP POP POP SWAP3 SWAP2 POP POP JUMP JUMPDEST PUSH2 0x1956 DUP2 PUSH2 0x1F5C JUMP JUMPDEST DUP3 MSTORE POP POP JUMP JUMPDEST PUSH1 0x0 PUSH2 0x1969 PUSH1 0x21 DUP4 PUSH2 0x1E24 JUMP JUMPDEST SWAP2 POP PUSH32 0x526573756C742068617320616C7265616479206265656E2066696E616C697A65 PUSH1 0x0 DUP4 ADD MSTORE PUSH32 0x6400000000000000000000000000000000000000000000000000000000000000 PUSH1 0x20 DUP4 ADD MSTORE PUSH1 0x40 DUP3 ADD SWAP1 POP SWAP2 SWAP1 POP JUMP JUMPDEST PUSH1 0x0 PUSH2 0x19CF PUSH1 0x2C DUP4 PUSH2 0x1E24 JUMP JUMPDEST SWAP2 POP PUSH32 0x4164647265737320697320616C72656164792072656769737465726564206173 PUSH1 0x0 DUP4 ADD MSTORE PUSH32 0x20612063616E6469646174650000000000000000000000000000000000000000 PUSH1 0x20 DUP4 ADD MSTORE PUSH1 0x40 DUP3 ADD SWAP1 POP SWAP2 SWAP1 POP JUMP JUMPDEST PUSH1 0x0 PUSH2 0x1A35 PUSH1 0x28 DUP4 PUSH2 0x1E24 JUMP JUMPDEST SWAP2 POP PUSH32 0x4164647265737320697320616C72656164792072656769737465726564206173 PUSH1 0x0 DUP4 ADD MSTORE PUSH32 0x206120766F746572000000000000000000000000000000000000000000000000 PUSH1 0x20 DUP4 ADD MSTORE PUSH1 0x40 DUP3 ADD SWAP1 POP SWAP2 SWAP1 POP JUMP JUMPDEST PUSH1 0x0 PUSH2 0x1A9B PUSH1 0x32 DUP4 PUSH2 0x1E24 JUMP JUMPDEST SWAP2 POP PUSH32 0x43616E6E6F74207265766F6B652061646D696E2070726976696C656765732066 PUSH1 0x0 DUP4 ADD MSTORE PUSH32 0x726F6D20746865206D61696E2061646D696E0000000000000000000000000000 PUSH1 0x20 DUP4 ADD MSTORE PUSH1 0x40 DUP3 ADD SWAP1 POP SWAP2 SWAP1 POP JUMP JUMPDEST PUSH1 0x0 PUSH2 0x1B01 PUSH1 0x19 DUP4 PUSH2 0x1E24 JUMP JUMPDEST SWAP2 POP PUSH32 0x496E76616C69642063616E646964617465206164647265737300000000000000 PUSH1 0x0 DUP4 ADD MSTORE PUSH1 0x20 DUP3 ADD SWAP1 POP SWAP2 SWAP1 POP JUMP JUMPDEST PUSH1 0x0 PUSH2 0x1B41 PUSH1 0x13 DUP4 PUSH2 0x1E24 JUMP JUMPDEST SWAP2 POP PUSH32 0x496E646578206F7574206F6620626F756E647300000000000000000000000000 PUSH1 0x0 DUP4 ADD MSTORE PUSH1 0x20 DUP3 ADD SWAP1 POP SWAP2 SWAP1 POP JUMP JUMPDEST PUSH1 0x0 PUSH2 0x1B81 PUSH1 0x21 DUP4 PUSH2 0x1E24 JUMP JUMPDEST SWAP2 POP PUSH32 0x4F6E6C792061646D696E2063616E2063616C6C20746869732066756E6374696F PUSH1 0x0 DUP4 ADD MSTORE PUSH32 0x6E00000000000000000000000000000000000000000000000000000000000000 PUSH1 0x20 DUP4 ADD MSTORE PUSH1 0x40 DUP3 ADD SWAP1 POP SWAP2 SWAP1 POP JUMP JUMPDEST PUSH1 0x0 PUSH2 0x1BE7 PUSH1 0x25 DUP4 PUSH2 0x1E24 JUMP JUMPDEST SWAP2 POP PUSH32 0x4F6E6C79207265676973746572656420766F746572732063616E206361737420 PUSH1 0x0 DUP4 ADD MSTORE PUSH32 0x766F746573000000000000000000000000000000000000000000000000000000 PUSH1 0x20 DUP4 ADD MSTORE PUSH1 0x40 DUP3 ADD SWAP1 POP SWAP2 SWAP1 POP JUMP JUMPDEST PUSH2 0x1C49 DUP2 PUSH2 0x1F88 JUMP JUMPDEST DUP3 MSTORE POP POP JUMP JUMPDEST PUSH1 0x0 PUSH1 0x20 DUP3 ADD SWAP1 POP PUSH2 0x1C64 PUSH1 0x0 DUP4 ADD DUP5 PUSH2 0x18E0 JUMP JUMPDEST SWAP3 SWAP2 POP POP JUMP JUMPDEST PUSH1 0x0 PUSH1 0x40 DUP3 ADD SWAP1 POP PUSH2 0x1C7F PUSH1 0x0 DUP4 ADD DUP6 PUSH2 0x18E0 JUMP JUMPDEST PUSH2 0x1C8C PUSH1 0x20 DUP4 ADD DUP5 PUSH2 0x194D JUMP JUMPDEST SWAP4 SWAP3 POP POP POP JUMP JUMPDEST PUSH1 0x0 PUSH1 0x20 DUP3 ADD SWAP1 POP DUP2 DUP2 SUB PUSH1 0x0 DUP4 ADD MSTORE PUSH2 0x1CAD DUP2 DUP5 PUSH2 0x18EF JUMP JUMPDEST SWAP1 POP SWAP3 SWAP2 POP POP JUMP JUMPDEST PUSH1 0x0 PUSH1 0x20 DUP3 ADD SWAP1 POP PUSH2 0x1CCA PUSH1 0x0 DUP4 ADD DUP5 PUSH2 0x194D JUMP JUMPDEST SWAP3 SWAP2 POP POP JUMP JUMPDEST PUSH1 0x0 PUSH1 0x20 DUP3 ADD SWAP1 POP DUP2 DUP2 SUB PUSH1 0x0 DUP4 ADD MSTORE PUSH2 0x1CE9 DUP2 PUSH2 0x195C JUMP JUMPDEST SWAP1 POP SWAP2 SWAP1 POP JUMP JUMPDEST PUSH1 0x0 PUSH1 0x20 DUP3 ADD SWAP1 POP DUP2 DUP2 SUB PUSH1 0x0 DUP4 ADD MSTORE PUSH2 0x1D09 DUP2 PUSH2 0x19C2 JUMP JUMPDEST SWAP1 POP SWAP2 SWAP1 POP JUMP JUMPDEST PUSH1 0x0 PUSH1 0x20 DUP3 ADD SWAP1 POP DUP2 DUP2 SUB PUSH1 0x0 DUP4 ADD MSTORE PUSH2 0x1D29 DUP2 PUSH2 0x1A28 JUMP JUMPDEST SWAP1 POP SWAP2 SWAP1 POP JUMP JUMPDEST PUSH1 0x0 PUSH1 0x20 DUP3 ADD SWAP1 POP DUP2 DUP2 SUB PUSH1 0x0 DUP4 ADD MSTORE PUSH2 0x1D49 DUP2 PUSH2 0x1A8E JUMP JUMPDEST SWAP1 POP SWAP2 SWAP1 POP JUMP JUMPDEST PUSH1 0x0 PUSH1 0x20 DUP3 ADD SWAP1 POP DUP2 DUP2 SUB PUSH1 0x0 DUP4 ADD MSTORE PUSH2 0x1D69 DUP2 PUSH2 0x1AF4 JUMP JUMPDEST SWAP1 POP SWAP2 SWAP1 POP JUMP JUMPDEST PUSH1 0x0 PUSH1 0x20 DUP3 ADD SWAP1 POP DUP2 DUP2 SUB PUSH1 0x0 DUP4 ADD MSTORE PUSH2 0x1D89 DUP2 PUSH2 0x1B34 JUMP JUMPDEST SWAP1 POP SWAP2 SWAP1 POP JUMP JUMPDEST PUSH1 0x0 PUSH1 0x20 DUP3 ADD SWAP1 POP DUP2 DUP2 SUB PUSH1 0x0 DUP4 ADD MSTORE PUSH2 0x1DA9 DUP2 PUSH2 0x1B74 JUMP JUMPDEST SWAP1 POP SWAP2 SWAP1 POP JUMP JUMPDEST PUSH1 0x0 PUSH1 0x20 DUP3 ADD SWAP1 POP DUP2 DUP2 SUB PUSH1 0x0 DUP4 ADD MSTORE PUSH2 0x1DC9 DUP2 PUSH2 0x1BDA JUMP JUMPDEST SWAP1 POP SWAP2 SWAP1 POP JUMP JUMPDEST PUSH1 0x0 PUSH1 0x20 DUP3 ADD SWAP1 POP PUSH2 0x1DE5 PUSH1 0x0 DUP4 ADD DUP5 PUSH2 0x1C40 JUMP JUMPDEST SWAP3 SWAP2 POP POP JUMP JUMPDEST PUSH1 0x0 DUP2 SWAP1 POP PUSH1 0x20 DUP3 ADD SWAP1 POP SWAP2 SWAP1 POP JUMP JUMPDEST PUSH1 0x0 DUP2 MLOAD SWAP1 POP SWAP2 SWAP1 POP JUMP JUMPDEST PUSH1 0x0 PUSH1 0x20 DUP3 ADD SWAP1 POP SWAP2 SWAP1 POP JUMP JUMPDEST PUSH1 0x0 DUP3 DUP3 MSTORE PUSH1 0x20 DUP3 ADD SWAP1 POP SWAP3 SWAP2 POP POP JUMP JUMPDEST PUSH1 0x0 DUP3 DUP3 MSTORE PUSH1 0x20 DUP3 ADD SWAP1 POP SWAP3 SWAP2 POP POP JUMP JUMPDEST PUSH1 0x0 PUSH2 0x1E40 DUP3 PUSH2 0x1F88 JUMP JUMPDEST SWAP2 POP PUSH2 0x1E4B DUP4 PUSH2 0x1F88 JUMP JUMPDEST SWAP3 POP DUP3 PUSH32 0xFFFFFFFFFFFFFFFFFFFFFFFFFFFFFFFFFFFFFFFFFFFFFFFFFFFFFFFFFFFFFFFF SUB DUP3 GT ISZERO PUSH2 0x1E80 JUMPI PUSH2 0x1E7F PUSH2 0x2005 JUMP JUMPDEST JUMPDEST DUP3 DUP3 ADD SWAP1 POP SWAP3 SWAP2 POP POP JUMP JUMPDEST PUSH1 0x0 PUSH2 0x1E96 DUP3 PUSH2 0x1F88 JUMP JUMPDEST SWAP2 POP PUSH2 0x1EA1 DUP4 PUSH2 0x1F88 JUMP JUMPDEST SWAP3 POP DUP3 PUSH2 0x1EB1 JUMPI PUSH2 0x1EB0 PUSH2 0x2034 JUMP JUMPDEST JUMPDEST DUP3 DUP3 DIV SWAP1 POP SWAP3 SWAP2 POP POP JUMP JUMPDEST PUSH1 0x0 PUSH2 0x1EC7 DUP3 PUSH2 0x1F88 JUMP JUMPDEST SWAP2 POP PUSH2 0x1ED2 DUP4 PUSH2 0x1F88 JUMP JUMPDEST SWAP3 POP DUP2 PUSH32 0xFFFFFFFFFFFFFFFFFFFFFFFFFFFFFFFFFFFFFFFFFFFFFFFFFFFFFFFFFFFFFFFF DIV DUP4 GT DUP3 ISZERO ISZERO AND ISZERO PUSH2 0x1F0B JUMPI PUSH2 0x1F0A PUSH2 0x2005 JUMP JUMPDEST JUMPDEST DUP3 DUP3 MUL SWAP1 POP SWAP3 SWAP2 POP POP JUMP JUMPDEST PUSH1 0x0 PUSH2 0x1F21 DUP3 PUSH2 0x1F88 JUMP JUMPDEST SWAP2 POP PUSH2 0x1F2C DUP4 PUSH2 0x1F88 JUMP JUMPDEST SWAP3 POP DUP3 DUP3 LT ISZERO PUSH2 0x1F3F JUMPI PUSH2 0x1F3E PUSH2 0x2005 JUMP JUMPDEST JUMPDEST DUP3 DUP3 SUB SWAP1 POP SWAP3 SWAP2 POP POP JUMP JUMPDEST PUSH1 0x0 PUSH2 0x1F55 DUP3 PUSH2 0x1F68 JUMP JUMPDEST SWAP1 POP SWAP2 SWAP1 POP JUMP JUMPDEST PUSH1 0x0 DUP2 ISZERO ISZERO SWAP1 POP SWAP2 SWAP1 POP JUMP JUMPDEST PUSH1 0x0 PUSH20 0xFFFFFFFFFFFFFFFFFFFFFFFFFFFFFFFFFFFFFFFF DUP3 AND SWAP1 POP SWAP2 SWAP1 POP JUMP JUMPDEST PUSH1 0x0 DUP2 SWAP1 POP SWAP2 SWAP1 POP JUMP JUMPDEST PUSH1 0x0 PUSH2 0x1F9D DUP3 PUSH2 0x1F88 JUMP JUMPDEST SWAP2 POP PUSH1 0x0 DUP3 EQ ISZERO PUSH2 0x1FB1 JUMPI PUSH2 0x1FB0 PUSH2 0x2005 JUMP JUMPDEST JUMPDEST PUSH1 0x1 DUP3 SUB SWAP1 POP SWAP2 SWAP1 POP JUMP JUMPDEST PUSH1 0x0 PUSH2 0x1FC7 DUP3 PUSH2 0x1F88 JUMP JUMPDEST SWAP2 POP PUSH32 0xFFFFFFFFFFFFFFFFFFFFFFFFFFFFFFFFFFFFFFFFFFFFFFFFFFFFFFFFFFFFFFFF DUP3 EQ ISZERO PUSH2 0x1FFA JUMPI PUSH2 0x1FF9 PUSH2 0x2005 JUMP JUMPDEST JUMPDEST PUSH1 0x1 DUP3 ADD SWAP1 POP SWAP2 SWAP1 POP JUMP JUMPDEST PUSH32 0x4E487B7100000000000000000000000000000000000000000000000000000000 PUSH1 0x0 MSTORE PUSH1 0x11 PUSH1 0x4 MSTORE PUSH1 0x24 PUSH1 0x0 REVERT JUMPDEST PUSH32 0x4E487B7100000000000000000000000000000000000000000000000000000000 PUSH1 0x0 MSTORE PUSH1 0x12 PUSH1 0x4 MSTORE PUSH1 0x24 PUSH1 0x0 REVERT JUMPDEST PUSH2 0x206C DUP2 PUSH2 0x1F4A JUMP JUMPDEST DUP2 EQ PUSH2 0x2077 JUMPI PUSH1 0x0 DUP1 REVERT JUMPDEST POP JUMP INVALID LOG2 PUSH5 0x6970667358 0x22 SLT KECCAK256 LOG1 0x5D MSIZE CALLVALUE 0xF9 0xD3 LOG3 0xA9 SWAP8 0xEA PUSH25 0x6738F91616646AF5DEC6E65ABBB533F64D18CDD86E64736F6C PUSH4 0x43000800 STOP CALLER "
				},
				"gasEstimates": {
					"creation": {
						"codeDepositCost": "1673600",
						"executionCost": "45165",
						"totalCost": "1718765"
					},
					"external": {
						"addCandidate(address)": "infinite",
						"admin()": "1299",
						"candidateAddresses(address)": "1611",
						"candidateCount()": "1173",
						"castVote(address)": "24957",
						"finalizeResult()": "infinite",
						"getRegisteredCandidates()": "infinite",
						"getRegisteredVoters()": "infinite",
						"getVoteCountForCandidate(address)": "2573",
						"grantAdmin(address)": "23958",
						"isAdmin(address)": "1591",
						"registerVoter(address)": "25452",
						"resultFinalized()": "1195",
						"revokeAdmin(address)": "24896",
						"voteCounts(address)": "1581",
						"voters(address)": "1567"
					},
					"internal": {
						"candidateAtIndex(uint256)": "infinite",
						"partition(address[] memory,uint256,uint256)": "infinite",
						"sortCandidates(address[] memory,uint256,uint256)": "infinite"
					}
				},
				"methodIdentifiers": {
					"addCandidate(address)": "3acd75f8",
					"admin()": "f851a440",
					"candidateAddresses(address)": "e42b5d4b",
					"candidateCount()": "a9a981a3",
					"castVote(address)": "53358fc4",
					"finalizeResult()": "61cac418",
					"getRegisteredCandidates()": "396b9ae0",
					"getRegisteredVoters()": "2bc4a6e7",
					"getVoteCountForCandidate(address)": "6b991a18",
					"grantAdmin(address)": "35bb3e16",
					"isAdmin(address)": "24d7806c",
					"registerVoter(address)": "38db6dd3",
					"resultFinalized()": "1aae9ff3",
					"revokeAdmin(address)": "2d345670",
					"voteCounts(address)": "66a267a9",
					"voters(address)": "a3ec138d"
				}
			},
			"storageLayout": {
				"storage": [
					{
						"astId": 3,
						"contract": "contracts/ResultTally.sol:AccessControl",
						"label": "admin",
						"offset": 0,
						"slot": "0",
						"type": "t_address"
					},
					{
						"astId": 7,
						"contract": "contracts/ResultTally.sol:AccessControl",
						"label": "isAdmin",
						"offset": 0,
						"slot": "1",
						"type": "t_mapping(t_address,t_bool)"
					},
					{
						"astId": 11,
						"contract": "contracts/ResultTally.sol:AccessControl",
						"label": "candidateAddresses",
						"offset": 0,
						"slot": "2",
						"type": "t_mapping(t_address,t_bool)"
					},
					{
						"astId": 15,
						"contract": "contracts/ResultTally.sol:AccessControl",
						"label": "voters",
						"offset": 0,
						"slot": "3",
						"type": "t_mapping(t_address,t_bool)"
					},
					{
						"astId": 19,
						"contract": "contracts/ResultTally.sol:AccessControl",
						"label": "voteCounts",
						"offset": 0,
						"slot": "4",
						"type": "t_mapping(t_address,t_uint256)"
					},
					{
						"astId": 21,
						"contract": "contracts/ResultTally.sol:AccessControl",
						"label": "candidateCount",
						"offset": 0,
						"slot": "5",
						"type": "t_uint256"
					},
					{
						"astId": 23,
						"contract": "contracts/ResultTally.sol:AccessControl",
						"label": "resultFinalized",
						"offset": 0,
						"slot": "6",
						"type": "t_bool"
					}
				],
				"types": {
					"t_address": {
						"encoding": "inplace",
						"label": "address",
						"numberOfBytes": "20"
					},
					"t_bool": {
						"encoding": "inplace",
						"label": "bool",
						"numberOfBytes": "1"
					},
					"t_mapping(t_address,t_bool)": {
						"encoding": "mapping",
						"key": "t_address",
						"label": "mapping(address => bool)",
						"numberOfBytes": "32",
						"value": "t_bool"
					},
					"t_mapping(t_address,t_uint256)": {
						"encoding": "mapping",
						"key": "t_address",
						"label": "mapping(address => uint256)",
						"numberOfBytes": "32",
						"value": "t_uint256"
					},
					"t_uint256": {
						"encoding": "inplace",
						"label": "uint256",
						"numberOfBytes": "32"
					}
				}
			},
			"userdoc": {
				"kind": "user",
				"methods": {},
				"version": 1
			}
		}
	}
}