{
	"contracts/AccessControl.sol": {
		"AccessControl": {
			"abi": [
				{
					"inputs": [],
					"stateMutability": "nonpayable",
					"type": "constructor"
				},
				{
					"anonymous": false,
					"inputs": [
						{
							"indexed": true,
							"internalType": "address",
							"name": "_admin",
							"type": "address"
						},
						{
							"indexed": false,
							"internalType": "bool",
							"name": "_isAdmin",
							"type": "bool"
						}
					],
					"name": "AdminUpdated",
					"type": "event"
				},
				{
					"anonymous": false,
					"inputs": [
						{
							"indexed": false,
							"internalType": "string",
							"name": "_name",
							"type": "string"
						},
						{
							"indexed": false,
							"internalType": "address",
							"name": "_candidate",
							"type": "address"
						}
					],
					"name": "CandidateAdded",
					"type": "event"
				},
				{
					"anonymous": false,
					"inputs": [
						{
							"indexed": false,
							"internalType": "address[]",
							"name": "_electedCandidates",
							"type": "address[]"
						},
						{
							"indexed": false,
							"internalType": "uint256[]",
							"name": "_voteCounts",
							"type": "uint256[]"
						}
					],
					"name": "ResultFinalized",
					"type": "event"
				},
				{
					"anonymous": false,
					"inputs": [
						{
							"indexed": true,
							"internalType": "address",
							"name": "_candidate",
							"type": "address"
						},
						{
							"indexed": true,
							"internalType": "address",
							"name": "_voter",
							"type": "address"
						}
					],
					"name": "VoteCast",
					"type": "event"
				},
				{
					"anonymous": false,
					"inputs": [
						{
							"indexed": false,
							"internalType": "string",
							"name": "_name",
							"type": "string"
						},
						{
							"indexed": true,
							"internalType": "address",
							"name": "_voter",
							"type": "address"
						}
					],
					"name": "VoterRegistered",
					"type": "event"
				},
				{
					"inputs": [
						{
							"internalType": "string",
							"name": "_name",
							"type": "string"
						},
						{
							"internalType": "address",
							"name": "_address",
							"type": "address"
						}
					],
					"name": "addCandidate",
					"outputs": [],
					"stateMutability": "nonpayable",
					"type": "function"
				},
				{
					"inputs": [],
					"name": "admin",
					"outputs": [
						{
							"internalType": "address",
							"name": "",
							"type": "address"
						}
					],
					"stateMutability": "view",
					"type": "function"
				},
				{
					"inputs": [],
					"name": "calculateResult",
					"outputs": [
						{
							"components": [
								{
									"internalType": "string",
									"name": "candidateName",
									"type": "string"
								},
								{
									"internalType": "uint256",
									"name": "voteCount",
									"type": "uint256"
								}
							],
							"internalType": "struct AccessControl.Result[]",
							"name": "",
							"type": "tuple[]"
						}
					],
					"stateMutability": "view",
					"type": "function"
				},
				{
					"inputs": [],
					"name": "candidateCount",
					"outputs": [
						{
							"internalType": "uint256",
							"name": "",
							"type": "uint256"
						}
					],
					"stateMutability": "view",
					"type": "function"
				},
				{
					"inputs": [
						{
							"internalType": "address",
							"name": "",
							"type": "address"
						}
					],
					"name": "candidateNames",
					"outputs": [
						{
							"internalType": "string",
							"name": "",
							"type": "string"
						}
					],
					"stateMutability": "view",
					"type": "function"
				},
				{
					"inputs": [
						{
							"internalType": "address",
							"name": "_candidate",
							"type": "address"
						}
					],
					"name": "castVote",
					"outputs": [],
					"stateMutability": "nonpayable",
					"type": "function"
				},
				{
					"inputs": [],
					"name": "finalizeResult",
					"outputs": [],
					"stateMutability": "nonpayable",
					"type": "function"
				},
				{
					"inputs": [],
					"name": "getCandidateCount",
					"outputs": [
						{
							"internalType": "uint256",
							"name": "",
							"type": "uint256"
						}
					],
					"stateMutability": "view",
					"type": "function"
				},
				{
					"inputs": [
						{
							"internalType": "address",
							"name": "_candidate",
							"type": "address"
						}
					],
					"name": "getCandidateName",
					"outputs": [
						{
							"internalType": "string",
							"name": "",
							"type": "string"
						}
					],
					"stateMutability": "view",
					"type": "function"
				},
				{
					"inputs": [],
					"name": "getRegisteredCandidates",
					"outputs": [
						{
							"internalType": "address[]",
							"name": "",
							"type": "address[]"
						}
					],
					"stateMutability": "view",
					"type": "function"
				},
				{
					"inputs": [],
					"name": "getRegisteredVoters",
					"outputs": [
						{
							"internalType": "address[]",
							"name": "",
							"type": "address[]"
						}
					],
					"stateMutability": "view",
					"type": "function"
				},
				{
					"inputs": [
						{
							"internalType": "address",
							"name": "_candidate",
							"type": "address"
						}
					],
					"name": "getVoteCountForCandidate",
					"outputs": [
						{
							"internalType": "uint256",
							"name": "",
							"type": "uint256"
						}
					],
					"stateMutability": "view",
					"type": "function"
				},
				{
					"inputs": [
						{
							"internalType": "address",
							"name": "_voter",
							"type": "address"
						}
					],
					"name": "getVoterName",
					"outputs": [
						{
							"internalType": "string",
							"name": "",
							"type": "string"
						}
					],
					"stateMutability": "view",
					"type": "function"
				},
				{
					"inputs": [
						{
							"internalType": "address",
							"name": "_user",
							"type": "address"
						}
					],
					"name": "grantAdmin",
					"outputs": [],
					"stateMutability": "nonpayable",
					"type": "function"
				},
				{
					"inputs": [
						{
							"internalType": "address",
							"name": "",
							"type": "address"
						}
					],
					"name": "hasVoted",
					"outputs": [
						{
							"internalType": "bool",
							"name": "",
							"type": "bool"
						}
					],
					"stateMutability": "view",
					"type": "function"
				},
				{
					"inputs": [
						{
							"internalType": "address",
							"name": "",
							"type": "address"
						}
					],
					"name": "isAdmin",
					"outputs": [
						{
							"internalType": "bool",
							"name": "",
							"type": "bool"
						}
					],
					"stateMutability": "view",
					"type": "function"
				},
				{
					"inputs": [
						{
							"internalType": "address",
							"name": "_address",
							"type": "address"
						}
					],
					"name": "isCandidate",
					"outputs": [
						{
							"internalType": "bool",
							"name": "",
							"type": "bool"
						}
					],
					"stateMutability": "view",
					"type": "function"
				},
				{
					"inputs": [
						{
							"internalType": "address",
							"name": "_address",
							"type": "address"
						}
					],
					"name": "isVoter",
					"outputs": [
						{
							"internalType": "bool",
							"name": "",
							"type": "bool"
						}
					],
					"stateMutability": "view",
					"type": "function"
				},
				{
					"inputs": [
						{
							"internalType": "string",
							"name": "_name",
							"type": "string"
						},
						{
							"internalType": "address",
							"name": "_voter",
							"type": "address"
						}
					],
					"name": "registerVoter",
					"outputs": [],
					"stateMutability": "nonpayable",
					"type": "function"
				},
				{
					"inputs": [
						{
							"internalType": "uint256",
							"name": "",
							"type": "uint256"
						}
					],
					"name": "registeredCandidates",
					"outputs": [
						{
							"internalType": "address",
							"name": "",
							"type": "address"
						}
					],
					"stateMutability": "view",
					"type": "function"
				},
				{
					"inputs": [
						{
							"internalType": "uint256",
							"name": "",
							"type": "uint256"
						}
					],
					"name": "registeredVoters",
					"outputs": [
						{
							"internalType": "address",
							"name": "",
							"type": "address"
						}
					],
					"stateMutability": "view",
					"type": "function"
				},
				{
					"inputs": [],
					"name": "resultFinalized",
					"outputs": [
						{
							"internalType": "bool",
							"name": "",
							"type": "bool"
						}
					],
					"stateMutability": "view",
					"type": "function"
				},
				{
					"inputs": [
						{
							"internalType": "address",
							"name": "_user",
							"type": "address"
						}
					],
					"name": "revokeAdmin",
					"outputs": [],
					"stateMutability": "nonpayable",
					"type": "function"
				},
				{
					"inputs": [
						{
							"internalType": "address",
							"name": "",
							"type": "address"
						}
					],
					"name": "voteCounts",
					"outputs": [
						{
							"internalType": "uint256",
							"name": "",
							"type": "uint256"
						}
					],
					"stateMutability": "view",
					"type": "function"
				},
				{
					"inputs": [
						{
							"internalType": "address",
							"name": "",
							"type": "address"
						}
					],
					"name": "voterNames",
					"outputs": [
						{
							"internalType": "string",
							"name": "",
							"type": "string"
						}
					],
					"stateMutability": "view",
					"type": "function"
				}
			],
			"devdoc": {
				"kind": "dev",
				"methods": {},
				"version": 1
			},
			"evm": {
				"assembly": "    /* \"contracts/AccessControl.sol\":57:9699  contract AccessControl {... */\n  mstore(0x40, 0x80)\n    /* \"contracts/AccessControl.sol\":1945:2155  constructor() {... */\n  callvalue\n  dup1\n  iszero\n  tag_1\n  jumpi\n  0x00\n  dup1\n  revert\ntag_1:\n  pop\n    /* \"contracts/AccessControl.sol\":1977:1987  msg.sender */\n  caller\n    /* \"contracts/AccessControl.sol\":1969:1974  admin */\n  0x00\n  dup1\n    /* \"contracts/AccessControl.sol\":1969:1987  admin = msg.sender */\n  0x0100\n  exp\n  dup2\n  sload\n  dup2\n  0xffffffffffffffffffffffffffffffffffffffff\n  mul\n  not\n  and\n  swap1\n  dup4\n  0xffffffffffffffffffffffffffffffffffffffff\n  and\n  mul\n  or\n  swap1\n  sstore\n  pop\n    /* \"contracts/AccessControl.sol\":2019:2023  true */\n  0x01\n    /* \"contracts/AccessControl.sol\":1997:2004  isAdmin */\n  dup1\n    /* \"contracts/AccessControl.sol\":1997:2016  isAdmin[msg.sender] */\n  0x00\n    /* \"contracts/AccessControl.sol\":2005:2015  msg.sender */\n  caller\n    /* \"contracts/AccessControl.sol\":1997:2016  isAdmin[msg.sender] */\n  0xffffffffffffffffffffffffffffffffffffffff\n  and\n  0xffffffffffffffffffffffffffffffffffffffff\n  and\n  dup2\n  mstore\n  0x20\n  add\n  swap1\n  dup2\n  mstore\n  0x20\n  add\n  0x00\n  keccak256\n  0x00\n    /* \"contracts/AccessControl.sol\":1997:2023  isAdmin[msg.sender] = true */\n  0x0100\n  exp\n  dup2\n  sload\n  dup2\n  0xff\n  mul\n  not\n  and\n  swap1\n  dup4\n  iszero\n  iszero\n  mul\n  or\n  swap1\n  sstore\n  pop\n    /* \"contracts/AccessControl.sol\":2051:2056  false */\n  0x00\n    /* \"contracts/AccessControl.sol\":2033:2048  resultFinalized */\n  0x09\n  0x00\n    /* \"contracts/AccessControl.sol\":2033:2056  resultFinalized = false */\n  0x0100\n  exp\n  dup2\n  sload\n  dup2\n  0xff\n  mul\n  not\n  and\n  swap1\n  dup4\n  iszero\n  iszero\n  mul\n  or\n  swap1\n  sstore\n  pop\n    /* \"contracts/AccessControl.sol\":2131:2141  msg.sender */\n  caller\n    /* \"contracts/AccessControl.sol\":2118:2148  AdminUpdated(msg.sender, true) */\n  0xffffffffffffffffffffffffffffffffffffffff\n  and\n  0x235bc17e7930760029e9f4d860a2a8089976de5b381cf8380fc11c1d88a11133\n    /* \"contracts/AccessControl.sol\":2143:2147  true */\n  0x01\n    /* \"contracts/AccessControl.sol\":2118:2148  AdminUpdated(msg.sender, true) */\n  mload(0x40)\n  tag_4\n  swap2\n  swap1\n  tag_5\n  jump\t// in\ntag_4:\n  mload(0x40)\n  dup1\n  swap2\n  sub\n  swap1\n  log2\n    /* \"contracts/AccessControl.sol\":57:9699  contract AccessControl {... */\n  jump(tag_6)\n    /* \"#utility.yul\":7:116   */\ntag_8:\n    /* \"#utility.yul\":88:109   */\n  tag_10\n    /* \"#utility.yul\":103:108   */\n  dup2\n    /* \"#utility.yul\":88:109   */\n  tag_11\n  jump\t// in\ntag_10:\n    /* \"#utility.yul\":83:86   */\n  dup3\n    /* \"#utility.yul\":76:110   */\n  mstore\n    /* \"#utility.yul\":66:116   */\n  pop\n  pop\n  jump\t// out\n    /* \"#utility.yul\":122:332   */\ntag_5:\n  0x00\n    /* \"#utility.yul\":247:249   */\n  0x20\n    /* \"#utility.yul\":236:245   */\n  dup3\n    /* \"#utility.yul\":232:250   */\n  add\n    /* \"#utility.yul\":224:250   */\n  swap1\n  pop\n    /* \"#utility.yul\":260:325   */\n  tag_13\n    /* \"#utility.yul\":322:323   */\n  0x00\n    /* \"#utility.yul\":311:320   */\n  dup4\n    /* \"#utility.yul\":307:324   */\n  add\n    /* \"#utility.yul\":298:304   */\n  dup5\n    /* \"#utility.yul\":260:325   */\n  tag_8\n  jump\t// in\ntag_13:\n    /* \"#utility.yul\":214:332   */\n  swap3\n  swap2\n  pop\n  pop\n  jump\t// out\n    /* \"#utility.yul\":338:428   */\ntag_11:\n  0x00\n    /* \"#utility.yul\":415:420   */\n  dup2\n    /* \"#utility.yul\":408:421   */\n  iszero\n    /* \"#utility.yul\":401:422   */\n  iszero\n    /* \"#utility.yul\":390:422   */\n  swap1\n  pop\n    /* \"#utility.yul\":380:428   */\n  swap2\n  swap1\n  pop\n  jump\t// out\n    /* \"contracts/AccessControl.sol\":57:9699  contract AccessControl {... */\ntag_6:\n  dataSize(sub_0)\n  dup1\n  dataOffset(sub_0)\n  0x00\n  codecopy\n  0x00\n  return\nstop\n\nsub_0: assembly {\n        /* \"contracts/AccessControl.sol\":57:9699  contract AccessControl {... */\n      mstore(0x40, 0x80)\n      callvalue\n      dup1\n      iszero\n      tag_1\n      jumpi\n      0x00\n      dup1\n      revert\n    tag_1:\n      pop\n      jumpi(tag_2, lt(calldatasize, 0x04))\n      shr(0xe0, calldataload(0x00))\n      dup1\n      0x53358fc4\n      gt\n      tag_28\n      jumpi\n      dup1\n      0x9d605d87\n      gt\n      tag_29\n      jumpi\n      dup1\n      0xc22b6b9d\n      gt\n      tag_30\n      jumpi\n      dup1\n      0xc22b6b9d\n      eq\n      tag_24\n      jumpi\n      dup1\n      0xd51b9e93\n      eq\n      tag_25\n      jumpi\n      dup1\n      0xf140cf91\n      eq\n      tag_26\n      jumpi\n      dup1\n      0xf851a440\n      eq\n      tag_27\n      jumpi\n      jump(tag_2)\n    tag_30:\n      dup1\n      0x9d605d87\n      eq\n      tag_21\n      jumpi\n      dup1\n      0xa7771ee3\n      eq\n      tag_22\n      jumpi\n      dup1\n      0xa9a981a3\n      eq\n      tag_23\n      jumpi\n      jump(tag_2)\n    tag_29:\n      dup1\n      0x53358fc4\n      eq\n      tag_15\n      jumpi\n      dup1\n      0x61cac418\n      eq\n      tag_16\n      jumpi\n      dup1\n      0x66a267a9\n      eq\n      tag_17\n      jumpi\n      dup1\n      0x6b991a18\n      eq\n      tag_18\n      jumpi\n      dup1\n      0x6c7f5767\n      eq\n      tag_19\n      jumpi\n      dup1\n      0x6e008b35\n      eq\n      tag_20\n      jumpi\n      jump(tag_2)\n    tag_28:\n      dup1\n      0x2d345670\n      gt\n      tag_31\n      jumpi\n      dup1\n      0x2d345670\n      eq\n      tag_9\n      jumpi\n      dup1\n      0x30a56347\n      eq\n      tag_10\n      jumpi\n      dup1\n      0x35bb3e16\n      eq\n      tag_11\n      jumpi\n      dup1\n      0x396b9ae0\n      eq\n      tag_12\n      jumpi\n      dup1\n      0x4a075de2\n      eq\n      tag_13\n      jumpi\n      dup1\n      0x4a2a84c5\n      eq\n      tag_14\n      jumpi\n      jump(tag_2)\n    tag_31:\n      dup1\n      0x09eef43e\n      eq\n      tag_3\n      jumpi\n      dup1\n      0x1aae9ff3\n      eq\n      tag_4\n      jumpi\n      dup1\n      0x1e0efcf3\n      eq\n      tag_5\n      jumpi\n      dup1\n      0x2436e06b\n      eq\n      tag_6\n      jumpi\n      dup1\n      0x24d7806c\n      eq\n      tag_7\n      jumpi\n      dup1\n      0x2bc4a6e7\n      eq\n      tag_8\n      jumpi\n    tag_2:\n      0x00\n      dup1\n      revert\n        /* \"contracts/AccessControl.sol\":785:825  mapping(address => bool) public hasVoted */\n    tag_3:\n      tag_32\n      0x04\n      dup1\n      calldatasize\n      sub\n      dup2\n      add\n      swap1\n      tag_33\n      swap2\n      swap1\n      tag_34\n      jump\t// in\n    tag_33:\n      tag_35\n      jump\t// in\n    tag_32:\n      mload(0x40)\n      tag_36\n      swap2\n      swap1\n      tag_37\n      jump\t// in\n    tag_36:\n      mload(0x40)\n      dup1\n      swap2\n      sub\n      swap1\n      return\n        /* \"contracts/AccessControl.sol\":991:1018  bool public resultFinalized */\n    tag_4:\n      tag_38\n      tag_39\n      jump\t// in\n    tag_38:\n      mload(0x40)\n      tag_40\n      swap2\n      swap1\n      tag_37\n      jump\t// in\n    tag_40:\n      mload(0x40)\n      dup1\n      swap2\n      sub\n      swap1\n      return\n        /* \"contracts/AccessControl.sol\":5186:5389  function getCandidateName(address _candidate) public view returns (string memory) {... */\n    tag_5:\n      tag_41\n      0x04\n      dup1\n      calldatasize\n      sub\n      dup2\n      add\n      swap1\n      tag_42\n      swap2\n      swap1\n      tag_34\n      jump\t// in\n    tag_42:\n      tag_43\n      jump\t// in\n    tag_41:\n      mload(0x40)\n      tag_44\n      swap2\n      swap1\n      tag_45\n      jump\t// in\n    tag_44:\n      mload(0x40)\n      dup1\n      swap2\n      sub\n      swap1\n      return\n        /* \"contracts/AccessControl.sol\":315:348  address[] public registeredVoters */\n    tag_6:\n      tag_46\n      0x04\n      dup1\n      calldatasize\n      sub\n      dup2\n      add\n      swap1\n      tag_47\n      swap2\n      swap1\n      tag_48\n      jump\t// in\n    tag_47:\n      tag_49\n      jump\t// in\n    tag_46:\n      mload(0x40)\n      tag_50\n      swap2\n      swap1\n      tag_51\n      jump\t// in\n    tag_50:\n      mload(0x40)\n      dup1\n      swap2\n      sub\n      swap1\n      return\n        /* \"contracts/AccessControl.sol\":213:252  mapping(address => bool) public isAdmin */\n    tag_7:\n      tag_52\n      0x04\n      dup1\n      calldatasize\n      sub\n      dup2\n      add\n      swap1\n      tag_53\n      swap2\n      swap1\n      tag_34\n      jump\t// in\n    tag_53:\n      tag_54\n      jump\t// in\n    tag_52:\n      mload(0x40)\n      tag_55\n      swap2\n      swap1\n      tag_37\n      jump\t// in\n    tag_55:\n      mload(0x40)\n      dup1\n      swap2\n      sub\n      swap1\n      return\n        /* \"contracts/AccessControl.sol\":9423:9533  function getRegisteredVoters() public view returns (address[] memory) {... */\n    tag_8:\n      tag_56\n      tag_57\n      jump\t// in\n    tag_56:\n      mload(0x40)\n      tag_58\n      swap2\n      swap1\n      tag_59\n      jump\t// in\n    tag_58:\n      mload(0x40)\n      dup1\n      swap2\n      sub\n      swap1\n      return\n        /* \"contracts/AccessControl.sol\":2490:2710  function revokeAdmin(address _user) public onlyAdmin {... */\n    tag_9:\n      tag_60\n      0x04\n      dup1\n      calldatasize\n      sub\n      dup2\n      add\n      swap1\n      tag_61\n      swap2\n      swap1\n      tag_34\n      jump\t// in\n    tag_61:\n      tag_62\n      jump\t// in\n    tag_60:\n      stop\n        /* \"contracts/AccessControl.sol\":9603:9697  function getCandidateCount() public view returns (uint) {... */\n    tag_10:\n      tag_63\n      tag_64\n      jump\t// in\n    tag_63:\n      mload(0x40)\n      tag_65\n      swap2\n      swap1\n      tag_66\n      jump\t// in\n    tag_65:\n      mload(0x40)\n      dup1\n      swap2\n      sub\n      swap1\n      return\n        /* \"contracts/AccessControl.sol\":2256:2386  function grantAdmin(address _user) public onlyAdmin {... */\n    tag_11:\n      tag_67\n      0x04\n      dup1\n      calldatasize\n      sub\n      dup2\n      add\n      swap1\n      tag_68\n      swap2\n      swap1\n      tag_34\n      jump\t// in\n    tag_68:\n      tag_69\n      jump\t// in\n    tag_67:\n      stop\n        /* \"contracts/AccessControl.sol\":9299:9417  function getRegisteredCandidates() public view returns (address[] memory) {... */\n    tag_12:\n      tag_70\n      tag_71\n      jump\t// in\n    tag_70:\n      mload(0x40)\n      tag_72\n      swap2\n      swap1\n      tag_59\n      jump\t// in\n    tag_72:\n      mload(0x40)\n      dup1\n      swap2\n      sub\n      swap1\n      return\n        /* \"contracts/AccessControl.sol\":3319:3690  function registerVoter(string memory _name, address _voter) public onlyAdmin {... */\n    tag_13:\n      tag_73\n      0x04\n      dup1\n      calldatasize\n      sub\n      dup2\n      add\n      swap1\n      tag_74\n      swap2\n      swap1\n      tag_75\n      jump\t// in\n    tag_74:\n      tag_76\n      jump\t// in\n    tag_73:\n      stop\n        /* \"contracts/AccessControl.sol\":2808:3223  function addCandidate(string memory _name, address _address) public onlyAdmin {... */\n    tag_14:\n      tag_77\n      0x04\n      dup1\n      calldatasize\n      sub\n      dup2\n      add\n      swap1\n      tag_78\n      swap2\n      swap1\n      tag_75\n      jump\t// in\n    tag_78:\n      tag_79\n      jump\t// in\n    tag_77:\n      stop\n        /* \"contracts/AccessControl.sol\":3761:4184  function castVote(address _candidate) public {... */\n    tag_15:\n      tag_80\n      0x04\n      dup1\n      calldatasize\n      sub\n      dup2\n      add\n      swap1\n      tag_81\n      swap2\n      swap1\n      tag_34\n      jump\t// in\n    tag_81:\n      tag_82\n      jump\t// in\n    tag_80:\n      stop\n        /* \"contracts/AccessControl.sol\":5806:7378  function finalizeResult() public onlyAdmin {... */\n    tag_16:\n      tag_83\n      tag_84\n      jump\t// in\n    tag_83:\n      stop\n        /* \"contracts/AccessControl.sol\":676:718  mapping(address => uint) public voteCounts */\n    tag_17:\n      tag_85\n      0x04\n      dup1\n      calldatasize\n      sub\n      dup2\n      add\n      swap1\n      tag_86\n      swap2\n      swap1\n      tag_34\n      jump\t// in\n    tag_86:\n      tag_87\n      jump\t// in\n    tag_85:\n      mload(0x40)\n      tag_88\n      swap2\n      swap1\n      tag_66\n      jump\t// in\n    tag_88:\n      mload(0x40)\n      dup1\n      swap2\n      sub\n      swap1\n      return\n        /* \"contracts/AccessControl.sol\":4912:5110  function getVoteCountForCandidate(address _candidate) public view returns (uint) {... */\n    tag_18:\n      tag_89\n      0x04\n      dup1\n      calldatasize\n      sub\n      dup2\n      add\n      swap1\n      tag_90\n      swap2\n      swap1\n      tag_34\n      jump\t// in\n    tag_90:\n      tag_91\n      jump\t// in\n    tag_89:\n      mload(0x40)\n      tag_92\n      swap2\n      swap1\n      tag_66\n      jump\t// in\n    tag_92:\n      mload(0x40)\n      dup1\n      swap2\n      sub\n      swap1\n      return\n        /* \"contracts/AccessControl.sol\":354:391  address[] public registeredCandidates */\n    tag_19:\n      tag_93\n      0x04\n      dup1\n      calldatasize\n      sub\n      dup2\n      add\n      swap1\n      tag_94\n      swap2\n      swap1\n      tag_48\n      jump\t// in\n    tag_94:\n      tag_95\n      jump\t// in\n    tag_93:\n      mload(0x40)\n      tag_96\n      swap2\n      swap1\n      tag_51\n      jump\t// in\n    tag_96:\n      mload(0x40)\n      dup1\n      swap2\n      sub\n      swap1\n      return\n        /* \"contracts/AccessControl.sol\":7467:8220  function calculateResult() public view returns (Result[] memory) {... */\n    tag_20:\n      tag_97\n      tag_98\n      jump\t// in\n    tag_97:\n      mload(0x40)\n      tag_99\n      swap2\n      swap1\n      tag_100\n      jump\t// in\n    tag_99:\n      mload(0x40)\n      dup1\n      swap2\n      sub\n      swap1\n      return\n        /* \"contracts/AccessControl.sol\":457:505  mapping(address => string) public candidateNames */\n    tag_21:\n      tag_101\n      0x04\n      dup1\n      calldatasize\n      sub\n      dup2\n      add\n      swap1\n      tag_102\n      swap2\n      swap1\n      tag_34\n      jump\t// in\n    tag_102:\n      tag_103\n      jump\t// in\n    tag_101:\n      mload(0x40)\n      tag_104\n      swap2\n      swap1\n      tag_45\n      jump\t// in\n    tag_104:\n      mload(0x40)\n      dup1\n      swap2\n      sub\n      swap1\n      return\n        /* \"contracts/AccessControl.sol\":4251:4507  function isVoter(address _address) public view returns (bool) {... */\n    tag_22:\n      tag_105\n      0x04\n      dup1\n      calldatasize\n      sub\n      dup2\n      add\n      swap1\n      tag_106\n      swap2\n      swap1\n      tag_34\n      jump\t// in\n    tag_106:\n      tag_107\n      jump\t// in\n    tag_105:\n      mload(0x40)\n      tag_108\n      swap2\n      swap1\n      tag_37\n      jump\t// in\n    tag_108:\n      mload(0x40)\n      dup1\n      swap2\n      sub\n      swap1\n      return\n        /* \"contracts/AccessControl.sol\":896:922  uint public candidateCount */\n    tag_23:\n      tag_109\n      tag_110\n      jump\t// in\n    tag_109:\n      mload(0x40)\n      tag_111\n      swap2\n      swap1\n      tag_66\n      jump\t// in\n    tag_111:\n      mload(0x40)\n      dup1\n      swap2\n      sub\n      swap1\n      return\n        /* \"contracts/AccessControl.sol\":5461:5760  function getVoterName(address _voter) public view returns (string memory) {... */\n    tag_24:\n      tag_112\n      0x04\n      dup1\n      calldatasize\n      sub\n      dup2\n      add\n      swap1\n      tag_113\n      swap2\n      swap1\n      tag_34\n      jump\t// in\n    tag_113:\n      tag_114\n      jump\t// in\n    tag_112:\n      mload(0x40)\n      tag_115\n      swap2\n      swap1\n      tag_45\n      jump\t// in\n    tag_115:\n      mload(0x40)\n      dup1\n      swap2\n      sub\n      swap1\n      return\n        /* \"contracts/AccessControl.sol\":4578:4846  function isCandidate(address _address) public view returns (bool) {... */\n    tag_25:\n      tag_116\n      0x04\n      dup1\n      calldatasize\n      sub\n      dup2\n      add\n      swap1\n      tag_117\n      swap2\n      swap1\n      tag_34\n      jump\t// in\n    tag_117:\n      tag_118\n      jump\t// in\n    tag_116:\n      mload(0x40)\n      tag_119\n      swap2\n      swap1\n      tag_37\n      jump\t// in\n    tag_119:\n      mload(0x40)\n      dup1\n      swap2\n      sub\n      swap1\n      return\n        /* \"contracts/AccessControl.sol\":567:611  mapping(address => string) public voterNames */\n    tag_26:\n      tag_120\n      0x04\n      dup1\n      calldatasize\n      sub\n      dup2\n      add\n      swap1\n      tag_121\n      swap2\n      swap1\n      tag_34\n      jump\t// in\n    tag_121:\n      tag_122\n      jump\t// in\n    tag_120:\n      mload(0x40)\n      tag_123\n      swap2\n      swap1\n      tag_45\n      jump\t// in\n    tag_123:\n      mload(0x40)\n      dup1\n      swap2\n      sub\n      swap1\n      return\n        /* \"contracts/AccessControl.sol\":86:106  address public admin */\n    tag_27:\n      tag_124\n      tag_125\n      jump\t// in\n    tag_124:\n      mload(0x40)\n      tag_126\n      swap2\n      swap1\n      tag_51\n      jump\t// in\n    tag_126:\n      mload(0x40)\n      dup1\n      swap2\n      sub\n      swap1\n      return\n        /* \"contracts/AccessControl.sol\":785:825  mapping(address => bool) public hasVoted */\n    tag_35:\n      mstore(0x20, 0x07)\n      dup1\n      0x00\n      mstore\n      keccak256(0x00, 0x40)\n      0x00\n      swap2\n      pop\n      sload\n      swap1\n      0x0100\n      exp\n      swap1\n      div\n      0xff\n      and\n      dup2\n      jump\t// out\n        /* \"contracts/AccessControl.sol\":991:1018  bool public resultFinalized */\n    tag_39:\n      0x09\n      0x00\n      swap1\n      sload\n      swap1\n      0x0100\n      exp\n      swap1\n      div\n      0xff\n      and\n      dup2\n      jump\t// out\n        /* \"contracts/AccessControl.sol\":5186:5389  function getCandidateName(address _candidate) public view returns (string memory) {... */\n    tag_43:\n        /* \"contracts/AccessControl.sol\":5253:5266  string memory */\n      0x60\n        /* \"contracts/AccessControl.sol\":5286:5309  isCandidate(_candidate) */\n      tag_128\n        /* \"contracts/AccessControl.sol\":5298:5308  _candidate */\n      dup3\n        /* \"contracts/AccessControl.sol\":5286:5297  isCandidate */\n      tag_118\n        /* \"contracts/AccessControl.sol\":5286:5309  isCandidate(_candidate) */\n      jump\t// in\n    tag_128:\n        /* \"contracts/AccessControl.sol\":5278:5339  require(isCandidate(_candidate), \"Invalid candidate address\") */\n      tag_129\n      jumpi\n      mload(0x40)\n      0x08c379a000000000000000000000000000000000000000000000000000000000\n      dup2\n      mstore\n      0x04\n      add\n      tag_130\n      swap1\n      tag_131\n      jump\t// in\n    tag_130:\n      mload(0x40)\n      dup1\n      swap2\n      sub\n      swap1\n      revert\n    tag_129:\n        /* \"contracts/AccessControl.sol\":5356:5370  candidateNames */\n      0x04\n        /* \"contracts/AccessControl.sol\":5356:5382  candidateNames[_candidate] */\n      0x00\n        /* \"contracts/AccessControl.sol\":5371:5381  _candidate */\n      dup4\n        /* \"contracts/AccessControl.sol\":5356:5382  candidateNames[_candidate] */\n      0xffffffffffffffffffffffffffffffffffffffff\n      and\n      0xffffffffffffffffffffffffffffffffffffffff\n      and\n      dup2\n      mstore\n      0x20\n      add\n      swap1\n      dup2\n      mstore\n      0x20\n      add\n      0x00\n      keccak256\n        /* \"contracts/AccessControl.sol\":5349:5382  return candidateNames[_candidate] */\n      dup1\n      sload\n      tag_132\n      swap1\n      tag_133\n      jump\t// in\n    tag_132:\n      dup1\n      0x1f\n      add\n      0x20\n      dup1\n      swap2\n      div\n      mul\n      0x20\n      add\n      mload(0x40)\n      swap1\n      dup2\n      add\n      0x40\n      mstore\n      dup1\n      swap3\n      swap2\n      swap1\n      dup2\n      dup2\n      mstore\n      0x20\n      add\n      dup3\n      dup1\n      sload\n      tag_134\n      swap1\n      tag_133\n      jump\t// in\n    tag_134:\n      dup1\n      iszero\n      tag_135\n      jumpi\n      dup1\n      0x1f\n      lt\n      tag_136\n      jumpi\n      0x0100\n      dup1\n      dup4\n      sload\n      div\n      mul\n      dup4\n      mstore\n      swap2\n      0x20\n      add\n      swap2\n      jump(tag_135)\n    tag_136:\n      dup3\n      add\n      swap2\n      swap1\n      0x00\n      mstore\n      keccak256(0x00, 0x20)\n      swap1\n    tag_137:\n      dup2\n      sload\n      dup2\n      mstore\n      swap1\n      0x01\n      add\n      swap1\n      0x20\n      add\n      dup1\n      dup4\n      gt\n      tag_137\n      jumpi\n      dup3\n      swap1\n      sub\n      0x1f\n      and\n      dup3\n      add\n      swap2\n    tag_135:\n      pop\n      pop\n      pop\n      pop\n      pop\n      swap1\n      pop\n        /* \"contracts/AccessControl.sol\":5186:5389  function getCandidateName(address _candidate) public view returns (string memory) {... */\n      swap2\n      swap1\n      pop\n      jump\t// out\n        /* \"contracts/AccessControl.sol\":315:348  address[] public registeredVoters */\n    tag_49:\n      0x02\n      dup2\n      dup2\n      sload\n      dup2\n      lt\n      tag_138\n      jumpi\n      0x00\n      dup1\n      revert\n    tag_138:\n      swap1\n      0x00\n      mstore\n      keccak256(0x00, 0x20)\n      add\n      0x00\n      swap2\n      pop\n      sload\n      swap1\n      0x0100\n      exp\n      swap1\n      div\n      0xffffffffffffffffffffffffffffffffffffffff\n      and\n      dup2\n      jump\t// out\n        /* \"contracts/AccessControl.sol\":213:252  mapping(address => bool) public isAdmin */\n    tag_54:\n      mstore(0x20, 0x01)\n      dup1\n      0x00\n      mstore\n      keccak256(0x00, 0x40)\n      0x00\n      swap2\n      pop\n      sload\n      swap1\n      0x0100\n      exp\n      swap1\n      div\n      0xff\n      and\n      dup2\n      jump\t// out\n        /* \"contracts/AccessControl.sol\":9423:9533  function getRegisteredVoters() public view returns (address[] memory) {... */\n    tag_57:\n        /* \"contracts/AccessControl.sol\":9475:9491  address[] memory */\n      0x60\n        /* \"contracts/AccessControl.sol\":9510:9526  registeredVoters */\n      0x02\n        /* \"contracts/AccessControl.sol\":9503:9526  return registeredVoters */\n      dup1\n      sload\n      dup1\n      0x20\n      mul\n      0x20\n      add\n      mload(0x40)\n      swap1\n      dup2\n      add\n      0x40\n      mstore\n      dup1\n      swap3\n      swap2\n      swap1\n      dup2\n      dup2\n      mstore\n      0x20\n      add\n      dup3\n      dup1\n      sload\n      dup1\n      iszero\n      tag_141\n      jumpi\n      0x20\n      mul\n      dup3\n      add\n      swap2\n      swap1\n      0x00\n      mstore\n      keccak256(0x00, 0x20)\n      swap1\n    tag_142:\n      dup2\n      0x00\n      swap1\n      sload\n      swap1\n      0x0100\n      exp\n      swap1\n      div\n      0xffffffffffffffffffffffffffffffffffffffff\n      and\n      0xffffffffffffffffffffffffffffffffffffffff\n      and\n      dup2\n      mstore\n      0x20\n      add\n      swap1\n      0x01\n      add\n      swap1\n      dup1\n      dup4\n      gt\n      tag_142\n      jumpi\n    tag_141:\n      pop\n      pop\n      pop\n      pop\n      pop\n      swap1\n      pop\n        /* \"contracts/AccessControl.sol\":9423:9533  function getRegisteredVoters() public view returns (address[] memory) {... */\n      swap1\n      jump\t// out\n        /* \"contracts/AccessControl.sol\":2490:2710  function revokeAdmin(address _user) public onlyAdmin {... */\n    tag_62:\n        /* \"contracts/AccessControl.sol\":1864:1871  isAdmin */\n      0x01\n        /* \"contracts/AccessControl.sol\":1864:1883  isAdmin[msg.sender] */\n      0x00\n        /* \"contracts/AccessControl.sol\":1872:1882  msg.sender */\n      caller\n        /* \"contracts/AccessControl.sol\":1864:1883  isAdmin[msg.sender] */\n      0xffffffffffffffffffffffffffffffffffffffff\n      and\n      0xffffffffffffffffffffffffffffffffffffffff\n      and\n      dup2\n      mstore\n      0x20\n      add\n      swap1\n      dup2\n      mstore\n      0x20\n      add\n      0x00\n      keccak256\n      0x00\n      swap1\n      sload\n      swap1\n      0x0100\n      exp\n      swap1\n      div\n      0xff\n      and\n        /* \"contracts/AccessControl.sol\":1856:1921  require(isAdmin[msg.sender], \"Only admin can call this function\") */\n      tag_144\n      jumpi\n      mload(0x40)\n      0x08c379a000000000000000000000000000000000000000000000000000000000\n      dup2\n      mstore\n      0x04\n      add\n      tag_145\n      swap1\n      tag_146\n      jump\t// in\n    tag_145:\n      mload(0x40)\n      dup1\n      swap2\n      sub\n      swap1\n      revert\n    tag_144:\n        /* \"contracts/AccessControl.sol\":2570:2575  admin */\n      0x00\n      dup1\n      sload\n      swap1\n      0x0100\n      exp\n      swap1\n      div\n      0xffffffffffffffffffffffffffffffffffffffff\n      and\n        /* \"contracts/AccessControl.sol\":2561:2575  _user != admin */\n      0xffffffffffffffffffffffffffffffffffffffff\n      and\n        /* \"contracts/AccessControl.sol\":2561:2566  _user */\n      dup2\n        /* \"contracts/AccessControl.sol\":2561:2575  _user != admin */\n      0xffffffffffffffffffffffffffffffffffffffff\n      and\n      eq\n      iszero\n        /* \"contracts/AccessControl.sol\":2553:2630  require(_user != admin, \"Cannot revoke admin privileges from the main admin\") */\n      tag_148\n      jumpi\n      mload(0x40)\n      0x08c379a000000000000000000000000000000000000000000000000000000000\n      dup2\n      mstore\n      0x04\n      add\n      tag_149\n      swap1\n      tag_150\n      jump\t// in\n    tag_149:\n      mload(0x40)\n      dup1\n      swap2\n      sub\n      swap1\n      revert\n    tag_148:\n        /* \"contracts/AccessControl.sol\":2657:2662  false */\n      0x00\n        /* \"contracts/AccessControl.sol\":2640:2647  isAdmin */\n      0x01\n        /* \"contracts/AccessControl.sol\":2640:2654  isAdmin[_user] */\n      0x00\n        /* \"contracts/AccessControl.sol\":2648:2653  _user */\n      dup4\n        /* \"contracts/AccessControl.sol\":2640:2654  isAdmin[_user] */\n      0xffffffffffffffffffffffffffffffffffffffff\n      and\n      0xffffffffffffffffffffffffffffffffffffffff\n      and\n      dup2\n      mstore\n      0x20\n      add\n      swap1\n      dup2\n      mstore\n      0x20\n      add\n      0x00\n      keccak256\n      0x00\n        /* \"contracts/AccessControl.sol\":2640:2662  isAdmin[_user] = false */\n      0x0100\n      exp\n      dup2\n      sload\n      dup2\n      0xff\n      mul\n      not\n      and\n      swap1\n      dup4\n      iszero\n      iszero\n      mul\n      or\n      swap1\n      sstore\n      pop\n        /* \"contracts/AccessControl.sol\":2690:2695  _user */\n      dup1\n        /* \"contracts/AccessControl.sol\":2677:2703  AdminUpdated(_user, false) */\n      0xffffffffffffffffffffffffffffffffffffffff\n      and\n      0x235bc17e7930760029e9f4d860a2a8089976de5b381cf8380fc11c1d88a11133\n        /* \"contracts/AccessControl.sol\":2697:2702  false */\n      0x00\n        /* \"contracts/AccessControl.sol\":2677:2703  AdminUpdated(_user, false) */\n      mload(0x40)\n      tag_151\n      swap2\n      swap1\n      tag_37\n      jump\t// in\n    tag_151:\n      mload(0x40)\n      dup1\n      swap2\n      sub\n      swap1\n      log2\n        /* \"contracts/AccessControl.sol\":2490:2710  function revokeAdmin(address _user) public onlyAdmin {... */\n      pop\n      jump\t// out\n        /* \"contracts/AccessControl.sol\":9603:9697  function getCandidateCount() public view returns (uint) {... */\n    tag_64:\n        /* \"contracts/AccessControl.sol\":9653:9657  uint */\n      0x00\n        /* \"contracts/AccessControl.sol\":9676:9690  candidateCount */\n      sload(0x08)\n        /* \"contracts/AccessControl.sol\":9669:9690  return candidateCount */\n      swap1\n      pop\n        /* \"contracts/AccessControl.sol\":9603:9697  function getCandidateCount() public view returns (uint) {... */\n      swap1\n      jump\t// out\n        /* \"contracts/AccessControl.sol\":2256:2386  function grantAdmin(address _user) public onlyAdmin {... */\n    tag_69:\n        /* \"contracts/AccessControl.sol\":1864:1871  isAdmin */\n      0x01\n        /* \"contracts/AccessControl.sol\":1864:1883  isAdmin[msg.sender] */\n      0x00\n        /* \"contracts/AccessControl.sol\":1872:1882  msg.sender */\n      caller\n        /* \"contracts/AccessControl.sol\":1864:1883  isAdmin[msg.sender] */\n      0xffffffffffffffffffffffffffffffffffffffff\n      and\n      0xffffffffffffffffffffffffffffffffffffffff\n      and\n      dup2\n      mstore\n      0x20\n      add\n      swap1\n      dup2\n      mstore\n      0x20\n      add\n      0x00\n      keccak256\n      0x00\n      swap1\n      sload\n      swap1\n      0x0100\n      exp\n      swap1\n      div\n      0xff\n      and\n        /* \"contracts/AccessControl.sol\":1856:1921  require(isAdmin[msg.sender], \"Only admin can call this function\") */\n      tag_154\n      jumpi\n      mload(0x40)\n      0x08c379a000000000000000000000000000000000000000000000000000000000\n      dup2\n      mstore\n      0x04\n      add\n      tag_155\n      swap1\n      tag_146\n      jump\t// in\n    tag_155:\n      mload(0x40)\n      dup1\n      swap2\n      sub\n      swap1\n      revert\n    tag_154:\n        /* \"contracts/AccessControl.sol\":2335:2339  true */\n      0x01\n        /* \"contracts/AccessControl.sol\":2318:2325  isAdmin */\n      dup1\n        /* \"contracts/AccessControl.sol\":2318:2332  isAdmin[_user] */\n      0x00\n        /* \"contracts/AccessControl.sol\":2326:2331  _user */\n      dup4\n        /* \"contracts/AccessControl.sol\":2318:2332  isAdmin[_user] */\n      0xffffffffffffffffffffffffffffffffffffffff\n      and\n      0xffffffffffffffffffffffffffffffffffffffff\n      and\n      dup2\n      mstore\n      0x20\n      add\n      swap1\n      dup2\n      mstore\n      0x20\n      add\n      0x00\n      keccak256\n      0x00\n        /* \"contracts/AccessControl.sol\":2318:2339  isAdmin[_user] = true */\n      0x0100\n      exp\n      dup2\n      sload\n      dup2\n      0xff\n      mul\n      not\n      and\n      swap1\n      dup4\n      iszero\n      iszero\n      mul\n      or\n      swap1\n      sstore\n      pop\n        /* \"contracts/AccessControl.sol\":2367:2372  _user */\n      dup1\n        /* \"contracts/AccessControl.sol\":2354:2379  AdminUpdated(_user, true) */\n      0xffffffffffffffffffffffffffffffffffffffff\n      and\n      0x235bc17e7930760029e9f4d860a2a8089976de5b381cf8380fc11c1d88a11133\n        /* \"contracts/AccessControl.sol\":2374:2378  true */\n      0x01\n        /* \"contracts/AccessControl.sol\":2354:2379  AdminUpdated(_user, true) */\n      mload(0x40)\n      tag_157\n      swap2\n      swap1\n      tag_37\n      jump\t// in\n    tag_157:\n      mload(0x40)\n      dup1\n      swap2\n      sub\n      swap1\n      log2\n        /* \"contracts/AccessControl.sol\":2256:2386  function grantAdmin(address _user) public onlyAdmin {... */\n      pop\n      jump\t// out\n        /* \"contracts/AccessControl.sol\":9299:9417  function getRegisteredCandidates() public view returns (address[] memory) {... */\n    tag_71:\n        /* \"contracts/AccessControl.sol\":9355:9371  address[] memory */\n      0x60\n        /* \"contracts/AccessControl.sol\":9390:9410  registeredCandidates */\n      0x03\n        /* \"contracts/AccessControl.sol\":9383:9410  return registeredCandidates */\n      dup1\n      sload\n      dup1\n      0x20\n      mul\n      0x20\n      add\n      mload(0x40)\n      swap1\n      dup2\n      add\n      0x40\n      mstore\n      dup1\n      swap3\n      swap2\n      swap1\n      dup2\n      dup2\n      mstore\n      0x20\n      add\n      dup3\n      dup1\n      sload\n      dup1\n      iszero\n      tag_159\n      jumpi\n      0x20\n      mul\n      dup3\n      add\n      swap2\n      swap1\n      0x00\n      mstore\n      keccak256(0x00, 0x20)\n      swap1\n    tag_160:\n      dup2\n      0x00\n      swap1\n      sload\n      swap1\n      0x0100\n      exp\n      swap1\n      div\n      0xffffffffffffffffffffffffffffffffffffffff\n      and\n      0xffffffffffffffffffffffffffffffffffffffff\n      and\n      dup2\n      mstore\n      0x20\n      add\n      swap1\n      0x01\n      add\n      swap1\n      dup1\n      dup4\n      gt\n      tag_160\n      jumpi\n    tag_159:\n      pop\n      pop\n      pop\n      pop\n      pop\n      swap1\n      pop\n        /* \"contracts/AccessControl.sol\":9299:9417  function getRegisteredCandidates() public view returns (address[] memory) {... */\n      swap1\n      jump\t// out\n        /* \"contracts/AccessControl.sol\":3319:3690  function registerVoter(string memory _name, address _voter) public onlyAdmin {... */\n    tag_76:\n        /* \"contracts/AccessControl.sol\":1864:1871  isAdmin */\n      0x01\n        /* \"contracts/AccessControl.sol\":1864:1883  isAdmin[msg.sender] */\n      0x00\n        /* \"contracts/AccessControl.sol\":1872:1882  msg.sender */\n      caller\n        /* \"contracts/AccessControl.sol\":1864:1883  isAdmin[msg.sender] */\n      0xffffffffffffffffffffffffffffffffffffffff\n      and\n      0xffffffffffffffffffffffffffffffffffffffff\n      and\n      dup2\n      mstore\n      0x20\n      add\n      swap1\n      dup2\n      mstore\n      0x20\n      add\n      0x00\n      keccak256\n      0x00\n      swap1\n      sload\n      swap1\n      0x0100\n      exp\n      swap1\n      div\n      0xff\n      and\n        /* \"contracts/AccessControl.sol\":1856:1921  require(isAdmin[msg.sender], \"Only admin can call this function\") */\n      tag_162\n      jumpi\n      mload(0x40)\n      0x08c379a000000000000000000000000000000000000000000000000000000000\n      dup2\n      mstore\n      0x04\n      add\n      tag_163\n      swap1\n      tag_146\n      jump\t// in\n    tag_163:\n      mload(0x40)\n      dup1\n      swap2\n      sub\n      swap1\n      revert\n    tag_162:\n        /* \"contracts/AccessControl.sol\":3415:3430  isVoter(_voter) */\n      tag_165\n        /* \"contracts/AccessControl.sol\":3423:3429  _voter */\n      dup2\n        /* \"contracts/AccessControl.sol\":3415:3422  isVoter */\n      tag_107\n        /* \"contracts/AccessControl.sol\":3415:3430  isVoter(_voter) */\n      jump\t// in\n    tag_165:\n        /* \"contracts/AccessControl.sol\":3414:3430  !isVoter(_voter) */\n      iszero\n        /* \"contracts/AccessControl.sol\":3406:3475  require(!isVoter(_voter), \"Address is already registered as a voter\") */\n      tag_166\n      jumpi\n      mload(0x40)\n      0x08c379a000000000000000000000000000000000000000000000000000000000\n      dup2\n      mstore\n      0x04\n      add\n      tag_167\n      swap1\n      tag_168\n      jump\t// in\n    tag_167:\n      mload(0x40)\n      dup1\n      swap2\n      sub\n      swap1\n      revert\n    tag_166:\n        /* \"contracts/AccessControl.sol\":3494:3513  isCandidate(_voter) */\n      tag_169\n        /* \"contracts/AccessControl.sol\":3506:3512  _voter */\n      dup2\n        /* \"contracts/AccessControl.sol\":3494:3505  isCandidate */\n      tag_118\n        /* \"contracts/AccessControl.sol\":3494:3513  isCandidate(_voter) */\n      jump\t// in\n    tag_169:\n        /* \"contracts/AccessControl.sol\":3493:3513  !isCandidate(_voter) */\n      iszero\n        /* \"contracts/AccessControl.sol\":3485:3562  require(!isCandidate(_voter), \"Address is already registered as a candidate\") */\n      tag_170\n      jumpi\n      mload(0x40)\n      0x08c379a000000000000000000000000000000000000000000000000000000000\n      dup2\n      mstore\n      0x04\n      add\n      tag_171\n      swap1\n      tag_172\n      jump\t// in\n    tag_171:\n      mload(0x40)\n      dup1\n      swap2\n      sub\n      swap1\n      revert\n    tag_170:\n        /* \"contracts/AccessControl.sol\":3573:3589  registeredVoters */\n      0x02\n        /* \"contracts/AccessControl.sol\":3595:3601  _voter */\n      dup2\n        /* \"contracts/AccessControl.sol\":3573:3602  registeredVoters.push(_voter) */\n      swap1\n      dup1\n      0x01\n      dup2\n      sload\n      add\n      dup1\n      dup3\n      sstore\n      dup1\n      swap2\n      pop\n      pop\n      0x01\n      swap1\n      sub\n      swap1\n      0x00\n      mstore\n      keccak256(0x00, 0x20)\n      add\n      0x00\n      swap1\n      swap2\n      swap1\n      swap2\n      swap1\n      swap2\n      0x0100\n      exp\n      dup2\n      sload\n      dup2\n      0xffffffffffffffffffffffffffffffffffffffff\n      mul\n      not\n      and\n      swap1\n      dup4\n      0xffffffffffffffffffffffffffffffffffffffff\n      and\n      mul\n      or\n      swap1\n      sstore\n      pop\n        /* \"contracts/AccessControl.sol\":3633:3638  _name */\n      dup2\n        /* \"contracts/AccessControl.sol\":3612:3622  voterNames */\n      0x05\n        /* \"contracts/AccessControl.sol\":3612:3630  voterNames[_voter] */\n      0x00\n        /* \"contracts/AccessControl.sol\":3623:3629  _voter */\n      dup4\n        /* \"contracts/AccessControl.sol\":3612:3630  voterNames[_voter] */\n      0xffffffffffffffffffffffffffffffffffffffff\n      and\n      0xffffffffffffffffffffffffffffffffffffffff\n      and\n      dup2\n      mstore\n      0x20\n      add\n      swap1\n      dup2\n      mstore\n      0x20\n      add\n      0x00\n      keccak256\n        /* \"contracts/AccessControl.sol\":3612:3638  voterNames[_voter] = _name */\n      swap1\n      dup1\n      mload\n      swap1\n      0x20\n      add\n      swap1\n      tag_174\n      swap3\n      swap2\n      swap1\n      tag_175\n      jump\t// in\n    tag_174:\n      pop\n        /* \"contracts/AccessControl.sol\":3676:3682  _voter */\n      dup1\n        /* \"contracts/AccessControl.sol\":3653:3683  VoterRegistered(_name, _voter) */\n      0xffffffffffffffffffffffffffffffffffffffff\n      and\n      0xfb56e28feaff07a8d23b3119a966e036ae7f64ff72a539debc67c6e8cd787216\n        /* \"contracts/AccessControl.sol\":3669:3674  _name */\n      dup4\n        /* \"contracts/AccessControl.sol\":3653:3683  VoterRegistered(_name, _voter) */\n      mload(0x40)\n      tag_176\n      swap2\n      swap1\n      tag_45\n      jump\t// in\n    tag_176:\n      mload(0x40)\n      dup1\n      swap2\n      sub\n      swap1\n      log2\n        /* \"contracts/AccessControl.sol\":3319:3690  function registerVoter(string memory _name, address _voter) public onlyAdmin {... */\n      pop\n      pop\n      jump\t// out\n        /* \"contracts/AccessControl.sol\":2808:3223  function addCandidate(string memory _name, address _address) public onlyAdmin {... */\n    tag_79:\n        /* \"contracts/AccessControl.sol\":1864:1871  isAdmin */\n      0x01\n        /* \"contracts/AccessControl.sol\":1864:1883  isAdmin[msg.sender] */\n      0x00\n        /* \"contracts/AccessControl.sol\":1872:1882  msg.sender */\n      caller\n        /* \"contracts/AccessControl.sol\":1864:1883  isAdmin[msg.sender] */\n      0xffffffffffffffffffffffffffffffffffffffff\n      and\n      0xffffffffffffffffffffffffffffffffffffffff\n      and\n      dup2\n      mstore\n      0x20\n      add\n      swap1\n      dup2\n      mstore\n      0x20\n      add\n      0x00\n      keccak256\n      0x00\n      swap1\n      sload\n      swap1\n      0x0100\n      exp\n      swap1\n      div\n      0xff\n      and\n        /* \"contracts/AccessControl.sol\":1856:1921  require(isAdmin[msg.sender], \"Only admin can call this function\") */\n      tag_178\n      jumpi\n      mload(0x40)\n      0x08c379a000000000000000000000000000000000000000000000000000000000\n      dup2\n      mstore\n      0x04\n      add\n      tag_179\n      swap1\n      tag_146\n      jump\t// in\n    tag_179:\n      mload(0x40)\n      dup1\n      swap2\n      sub\n      swap1\n      revert\n    tag_178:\n        /* \"contracts/AccessControl.sol\":2905:2922  isVoter(_address) */\n      tag_181\n        /* \"contracts/AccessControl.sol\":2913:2921  _address */\n      dup2\n        /* \"contracts/AccessControl.sol\":2905:2912  isVoter */\n      tag_107\n        /* \"contracts/AccessControl.sol\":2905:2922  isVoter(_address) */\n      jump\t// in\n    tag_181:\n        /* \"contracts/AccessControl.sol\":2904:2922  !isVoter(_address) */\n      iszero\n        /* \"contracts/AccessControl.sol\":2896:2967  require(!isVoter(_address), \"Address is already registered as a voter\") */\n      tag_182\n      jumpi\n      mload(0x40)\n      0x08c379a000000000000000000000000000000000000000000000000000000000\n      dup2\n      mstore\n      0x04\n      add\n      tag_183\n      swap1\n      tag_168\n      jump\t// in\n    tag_183:\n      mload(0x40)\n      dup1\n      swap2\n      sub\n      swap1\n      revert\n    tag_182:\n        /* \"contracts/AccessControl.sol\":2986:3007  isCandidate(_address) */\n      tag_184\n        /* \"contracts/AccessControl.sol\":2998:3006  _address */\n      dup2\n        /* \"contracts/AccessControl.sol\":2986:2997  isCandidate */\n      tag_118\n        /* \"contracts/AccessControl.sol\":2986:3007  isCandidate(_address) */\n      jump\t// in\n    tag_184:\n        /* \"contracts/AccessControl.sol\":2985:3007  !isCandidate(_address) */\n      iszero\n        /* \"contracts/AccessControl.sol\":2977:3056  require(!isCandidate(_address), \"Address is already registered as a candidate\") */\n      tag_185\n      jumpi\n      mload(0x40)\n      0x08c379a000000000000000000000000000000000000000000000000000000000\n      dup2\n      mstore\n      0x04\n      add\n      tag_186\n      swap1\n      tag_172\n      jump\t// in\n    tag_186:\n      mload(0x40)\n      dup1\n      swap2\n      sub\n      swap1\n      revert\n    tag_185:\n        /* \"contracts/AccessControl.sol\":3067:3087  registeredCandidates */\n      0x03\n        /* \"contracts/AccessControl.sol\":3093:3101  _address */\n      dup2\n        /* \"contracts/AccessControl.sol\":3067:3102  registeredCandidates.push(_address) */\n      swap1\n      dup1\n      0x01\n      dup2\n      sload\n      add\n      dup1\n      dup3\n      sstore\n      dup1\n      swap2\n      pop\n      pop\n      0x01\n      swap1\n      sub\n      swap1\n      0x00\n      mstore\n      keccak256(0x00, 0x20)\n      add\n      0x00\n      swap1\n      swap2\n      swap1\n      swap2\n      swap1\n      swap2\n      0x0100\n      exp\n      dup2\n      sload\n      dup2\n      0xffffffffffffffffffffffffffffffffffffffff\n      mul\n      not\n      and\n      swap1\n      dup4\n      0xffffffffffffffffffffffffffffffffffffffff\n      and\n      mul\n      or\n      swap1\n      sstore\n      pop\n        /* \"contracts/AccessControl.sol\":3139:3144  _name */\n      dup2\n        /* \"contracts/AccessControl.sol\":3112:3126  candidateNames */\n      0x04\n        /* \"contracts/AccessControl.sol\":3112:3136  candidateNames[_address] */\n      0x00\n        /* \"contracts/AccessControl.sol\":3127:3135  _address */\n      dup4\n        /* \"contracts/AccessControl.sol\":3112:3136  candidateNames[_address] */\n      0xffffffffffffffffffffffffffffffffffffffff\n      and\n      0xffffffffffffffffffffffffffffffffffffffff\n      and\n      dup2\n      mstore\n      0x20\n      add\n      swap1\n      dup2\n      mstore\n      0x20\n      add\n      0x00\n      keccak256\n        /* \"contracts/AccessControl.sol\":3112:3144  candidateNames[_address] = _name */\n      swap1\n      dup1\n      mload\n      swap1\n      0x20\n      add\n      swap1\n      tag_188\n      swap3\n      swap2\n      swap1\n      tag_175\n      jump\t// in\n    tag_188:\n      pop\n        /* \"contracts/AccessControl.sol\":3154:3168  candidateCount */\n      0x08\n      0x00\n        /* \"contracts/AccessControl.sol\":3154:3170  candidateCount++ */\n      dup2\n      sload\n      dup1\n      swap3\n      swap2\n      swap1\n      tag_189\n      swap1\n      tag_190\n      jump\t// in\n    tag_189:\n      swap2\n      swap1\n      pop\n      sstore\n      pop\n        /* \"contracts/AccessControl.sol\":3185:3216  CandidateAdded(_name, _address) */\n      0x833f8a6afe89d971296f8882c8b9d117bc81d68f14aaabc47cc227218d835168\n        /* \"contracts/AccessControl.sol\":3200:3205  _name */\n      dup3\n        /* \"contracts/AccessControl.sol\":3207:3215  _address */\n      dup3\n        /* \"contracts/AccessControl.sol\":3185:3216  CandidateAdded(_name, _address) */\n      mload(0x40)\n      tag_191\n      swap3\n      swap2\n      swap1\n      tag_192\n      jump\t// in\n    tag_191:\n      mload(0x40)\n      dup1\n      swap2\n      sub\n      swap1\n      log1\n        /* \"contracts/AccessControl.sol\":2808:3223  function addCandidate(string memory _name, address _address) public onlyAdmin {... */\n      pop\n      pop\n      jump\t// out\n        /* \"contracts/AccessControl.sol\":3761:4184  function castVote(address _candidate) public {... */\n    tag_82:\n        /* \"contracts/AccessControl.sol\":3824:3843  isVoter(msg.sender) */\n      tag_194\n        /* \"contracts/AccessControl.sol\":3832:3842  msg.sender */\n      caller\n        /* \"contracts/AccessControl.sol\":3824:3831  isVoter */\n      tag_107\n        /* \"contracts/AccessControl.sol\":3824:3843  isVoter(msg.sender) */\n      jump\t// in\n    tag_194:\n        /* \"contracts/AccessControl.sol\":3816:3885  require(isVoter(msg.sender), \"Only registered voters can cast votes\") */\n      tag_195\n      jumpi\n      mload(0x40)\n      0x08c379a000000000000000000000000000000000000000000000000000000000\n      dup2\n      mstore\n      0x04\n      add\n      tag_196\n      swap1\n      tag_197\n      jump\t// in\n    tag_196:\n      mload(0x40)\n      dup1\n      swap2\n      sub\n      swap1\n      revert\n    tag_195:\n        /* \"contracts/AccessControl.sol\":3903:3926  isCandidate(_candidate) */\n      tag_198\n        /* \"contracts/AccessControl.sol\":3915:3925  _candidate */\n      dup2\n        /* \"contracts/AccessControl.sol\":3903:3914  isCandidate */\n      tag_118\n        /* \"contracts/AccessControl.sol\":3903:3926  isCandidate(_candidate) */\n      jump\t// in\n    tag_198:\n        /* \"contracts/AccessControl.sol\":3895:3956  require(isCandidate(_candidate), \"Invalid candidate address\") */\n      tag_199\n      jumpi\n      mload(0x40)\n      0x08c379a000000000000000000000000000000000000000000000000000000000\n      dup2\n      mstore\n      0x04\n      add\n      tag_200\n      swap1\n      tag_131\n      jump\t// in\n    tag_200:\n      mload(0x40)\n      dup1\n      swap2\n      sub\n      swap1\n      revert\n    tag_199:\n        /* \"contracts/AccessControl.sol\":3975:3983  hasVoted */\n      0x07\n        /* \"contracts/AccessControl.sol\":3975:3995  hasVoted[msg.sender] */\n      0x00\n        /* \"contracts/AccessControl.sol\":3984:3994  msg.sender */\n      caller\n        /* \"contracts/AccessControl.sol\":3975:3995  hasVoted[msg.sender] */\n      0xffffffffffffffffffffffffffffffffffffffff\n      and\n      0xffffffffffffffffffffffffffffffffffffffff\n      and\n      dup2\n      mstore\n      0x20\n      add\n      swap1\n      dup2\n      mstore\n      0x20\n      add\n      0x00\n      keccak256\n      0x00\n      swap1\n      sload\n      swap1\n      0x0100\n      exp\n      swap1\n      div\n      0xff\n      and\n        /* \"contracts/AccessControl.sol\":3974:3995  !hasVoted[msg.sender] */\n      iszero\n        /* \"contracts/AccessControl.sol\":3966:4031  require(!hasVoted[msg.sender], \"You have already cast your vote\") */\n      tag_201\n      jumpi\n      mload(0x40)\n      0x08c379a000000000000000000000000000000000000000000000000000000000\n      dup2\n      mstore\n      0x04\n      add\n      tag_202\n      swap1\n      tag_203\n      jump\t// in\n    tag_202:\n      mload(0x40)\n      dup1\n      swap2\n      sub\n      swap1\n      revert\n    tag_201:\n        /* \"contracts/AccessControl.sol\":4042:4052  voteCounts */\n      0x06\n        /* \"contracts/AccessControl.sol\":4042:4064  voteCounts[_candidate] */\n      0x00\n        /* \"contracts/AccessControl.sol\":4053:4063  _candidate */\n      dup3\n        /* \"contracts/AccessControl.sol\":4042:4064  voteCounts[_candidate] */\n      0xffffffffffffffffffffffffffffffffffffffff\n      and\n      0xffffffffffffffffffffffffffffffffffffffff\n      and\n      dup2\n      mstore\n      0x20\n      add\n      swap1\n      dup2\n      mstore\n      0x20\n      add\n      0x00\n      keccak256\n      0x00\n        /* \"contracts/AccessControl.sol\":4042:4066  voteCounts[_candidate]++ */\n      dup2\n      sload\n      dup1\n      swap3\n      swap2\n      swap1\n      tag_204\n      swap1\n      tag_190\n      jump\t// in\n    tag_204:\n      swap2\n      swap1\n      pop\n      sstore\n      pop\n        /* \"contracts/AccessControl.sol\":4099:4103  true */\n      0x01\n        /* \"contracts/AccessControl.sol\":4076:4084  hasVoted */\n      0x07\n        /* \"contracts/AccessControl.sol\":4076:4096  hasVoted[msg.sender] */\n      0x00\n        /* \"contracts/AccessControl.sol\":4085:4095  msg.sender */\n      caller\n        /* \"contracts/AccessControl.sol\":4076:4096  hasVoted[msg.sender] */\n      0xffffffffffffffffffffffffffffffffffffffff\n      and\n      0xffffffffffffffffffffffffffffffffffffffff\n      and\n      dup2\n      mstore\n      0x20\n      add\n      swap1\n      dup2\n      mstore\n      0x20\n      add\n      0x00\n      keccak256\n      0x00\n        /* \"contracts/AccessControl.sol\":4076:4103  hasVoted[msg.sender] = true */\n      0x0100\n      exp\n      dup2\n      sload\n      dup2\n      0xff\n      mul\n      not\n      and\n      swap1\n      dup4\n      iszero\n      iszero\n      mul\n      or\n      swap1\n      sstore\n      pop\n        /* \"contracts/AccessControl.sol\":4166:4176  msg.sender */\n      caller\n        /* \"contracts/AccessControl.sol\":4145:4177  VoteCast(_candidate, msg.sender) */\n      0xffffffffffffffffffffffffffffffffffffffff\n      and\n        /* \"contracts/AccessControl.sol\":4154:4164  _candidate */\n      dup2\n        /* \"contracts/AccessControl.sol\":4145:4177  VoteCast(_candidate, msg.sender) */\n      0xffffffffffffffffffffffffffffffffffffffff\n      and\n      0x113ed09b18bb8fe2635af16f21d67464502d920ff1015abfe08dbe9a2971a7e2\n      mload(0x40)\n      mload(0x40)\n      dup1\n      swap2\n      sub\n      swap1\n      log3\n        /* \"contracts/AccessControl.sol\":3761:4184  function castVote(address _candidate) public {... */\n      pop\n      jump\t// out\n        /* \"contracts/AccessControl.sol\":5806:7378  function finalizeResult() public onlyAdmin {... */\n    tag_84:\n        /* \"contracts/AccessControl.sol\":1864:1871  isAdmin */\n      0x01\n        /* \"contracts/AccessControl.sol\":1864:1883  isAdmin[msg.sender] */\n      0x00\n        /* \"contracts/AccessControl.sol\":1872:1882  msg.sender */\n      caller\n        /* \"contracts/AccessControl.sol\":1864:1883  isAdmin[msg.sender] */\n      0xffffffffffffffffffffffffffffffffffffffff\n      and\n      0xffffffffffffffffffffffffffffffffffffffff\n      and\n      dup2\n      mstore\n      0x20\n      add\n      swap1\n      dup2\n      mstore\n      0x20\n      add\n      0x00\n      keccak256\n      0x00\n      swap1\n      sload\n      swap1\n      0x0100\n      exp\n      swap1\n      div\n      0xff\n      and\n        /* \"contracts/AccessControl.sol\":1856:1921  require(isAdmin[msg.sender], \"Only admin can call this function\") */\n      tag_206\n      jumpi\n      mload(0x40)\n      0x08c379a000000000000000000000000000000000000000000000000000000000\n      dup2\n      mstore\n      0x04\n      add\n      tag_207\n      swap1\n      tag_146\n      jump\t// in\n    tag_207:\n      mload(0x40)\n      dup1\n      swap2\n      sub\n      swap1\n      revert\n    tag_206:\n        /* \"contracts/AccessControl.sol\":5868:5883  resultFinalized */\n      0x09\n      0x00\n      swap1\n      sload\n      swap1\n      0x0100\n      exp\n      swap1\n      div\n      0xff\n      and\n        /* \"contracts/AccessControl.sol\":5867:5883  !resultFinalized */\n      iszero\n        /* \"contracts/AccessControl.sol\":5859:5921  require(!resultFinalized, \"Result has already been finalized\") */\n      tag_209\n      jumpi\n      mload(0x40)\n      0x08c379a000000000000000000000000000000000000000000000000000000000\n      dup2\n      mstore\n      0x04\n      add\n      tag_210\n      swap1\n      tag_211\n      jump\t// in\n    tag_210:\n      mload(0x40)\n      dup1\n      swap2\n      sub\n      swap1\n      revert\n    tag_209:\n        /* \"contracts/AccessControl.sol\":5956:5957  0 */\n      0x00\n        /* \"contracts/AccessControl.sol\":5939:5953  candidateCount */\n      sload(0x08)\n        /* \"contracts/AccessControl.sol\":5939:5957  candidateCount > 0 */\n      gt\n        /* \"contracts/AccessControl.sol\":5931:5986  require(candidateCount > 0, \"No candidates registered\") */\n      tag_212\n      jumpi\n      mload(0x40)\n      0x08c379a000000000000000000000000000000000000000000000000000000000\n      dup2\n      mstore\n      0x04\n      add\n      tag_213\n      swap1\n      tag_214\n      jump\t// in\n    tag_213:\n      mload(0x40)\n      dup1\n      swap2\n      sub\n      swap1\n      revert\n    tag_212:\n        /* \"contracts/AccessControl.sol\":5997:6012  uint totalVotes */\n      0x00\n        /* \"contracts/AccessControl.sol\":6031:6037  uint i */\n      dup1\n        /* \"contracts/AccessControl.sol\":6026:6142  for (uint i = 0; i < candidateCount; i++) {... */\n    tag_215:\n        /* \"contracts/AccessControl.sol\":6047:6061  candidateCount */\n      sload(0x08)\n        /* \"contracts/AccessControl.sol\":6043:6044  i */\n      dup2\n        /* \"contracts/AccessControl.sol\":6043:6061  i < candidateCount */\n      lt\n        /* \"contracts/AccessControl.sol\":6026:6142  for (uint i = 0; i < candidateCount; i++) {... */\n      iszero\n      tag_216\n      jumpi\n        /* \"contracts/AccessControl.sol\":6096:6106  voteCounts */\n      0x06\n        /* \"contracts/AccessControl.sol\":6096:6131  voteCounts[registeredCandidates[i]] */\n      0x00\n        /* \"contracts/AccessControl.sol\":6107:6127  registeredCandidates */\n      0x03\n        /* \"contracts/AccessControl.sol\":6128:6129  i */\n      dup4\n        /* \"contracts/AccessControl.sol\":6107:6130  registeredCandidates[i] */\n      dup2\n      sload\n      dup2\n      lt\n      tag_218\n      jumpi\n      mstore(0x00, 0x4e487b7100000000000000000000000000000000000000000000000000000000)\n      mstore(0x04, 0x32)\n      revert(0x00, 0x24)\n    tag_218:\n      swap1\n      0x00\n      mstore\n      keccak256(0x00, 0x20)\n      add\n      0x00\n      swap1\n      sload\n      swap1\n      0x0100\n      exp\n      swap1\n      div\n      0xffffffffffffffffffffffffffffffffffffffff\n      and\n        /* \"contracts/AccessControl.sol\":6096:6131  voteCounts[registeredCandidates[i]] */\n      0xffffffffffffffffffffffffffffffffffffffff\n      and\n      0xffffffffffffffffffffffffffffffffffffffff\n      and\n      dup2\n      mstore\n      0x20\n      add\n      swap1\n      dup2\n      mstore\n      0x20\n      add\n      0x00\n      keccak256\n      sload\n        /* \"contracts/AccessControl.sol\":6082:6131  totalVotes += voteCounts[registeredCandidates[i]] */\n      dup3\n      tag_220\n      swap2\n      swap1\n      tag_221\n      jump\t// in\n    tag_220:\n      swap2\n      pop\n        /* \"contracts/AccessControl.sol\":6063:6066  i++ */\n      dup1\n      dup1\n      tag_222\n      swap1\n      tag_190\n      jump\t// in\n    tag_222:\n      swap2\n      pop\n      pop\n        /* \"contracts/AccessControl.sol\":6026:6142  for (uint i = 0; i < candidateCount; i++) {... */\n      jump(tag_215)\n    tag_216:\n      pop\n        /* \"contracts/AccessControl.sol\":6173:6174  0 */\n      0x00\n        /* \"contracts/AccessControl.sol\":6160:6170  totalVotes */\n      dup2\n        /* \"contracts/AccessControl.sol\":6160:6174  totalVotes > 0 */\n      gt\n        /* \"contracts/AccessControl.sol\":6152:6192  require(totalVotes > 0, \"No votes cast\") */\n      tag_223\n      jumpi\n      mload(0x40)\n      0x08c379a000000000000000000000000000000000000000000000000000000000\n      dup2\n      mstore\n      0x04\n      add\n      tag_224\n      swap1\n      tag_225\n      jump\t// in\n    tag_224:\n      mload(0x40)\n      dup1\n      swap2\n      sub\n      swap1\n      revert\n    tag_223:\n        /* \"contracts/AccessControl.sol\":6203:6220  uint decisionRate */\n      0x00\n        /* \"contracts/AccessControl.sol\":6240:6243  100 */\n      0x64\n        /* \"contracts/AccessControl.sol\":6236:6237  8 */\n      0x08\n        /* \"contracts/AccessControl.sol\":6223:6233  totalVotes */\n      dup4\n        /* \"contracts/AccessControl.sol\":6223:6237  totalVotes * 8 */\n      tag_226\n      swap2\n      swap1\n      tag_227\n      jump\t// in\n    tag_226:\n        /* \"contracts/AccessControl.sol\":6223:6243  totalVotes * 8 / 100 */\n      tag_228\n      swap2\n      swap1\n      tag_229\n      jump\t// in\n    tag_228:\n        /* \"contracts/AccessControl.sol\":6203:6243  uint decisionRate = totalVotes * 8 / 100 */\n      swap1\n      pop\n        /* \"contracts/AccessControl.sol\":6276:6277  0 */\n      0x00\n        /* \"contracts/AccessControl.sol\":6261:6273  decisionRate */\n      dup2\n        /* \"contracts/AccessControl.sol\":6261:6277  decisionRate > 0 */\n      gt\n        /* \"contracts/AccessControl.sol\":6253:6306  require(decisionRate > 0, \"Decision rate is too low\") */\n      tag_230\n      jumpi\n      mload(0x40)\n      0x08c379a000000000000000000000000000000000000000000000000000000000\n      dup2\n      mstore\n      0x04\n      add\n      tag_231\n      swap1\n      tag_232\n      jump\t// in\n    tag_231:\n      mload(0x40)\n      dup1\n      swap2\n      sub\n      swap1\n      revert\n    tag_230:\n        /* \"contracts/AccessControl.sol\":6317:6351  address[] memory electedCandidates */\n      0x00\n        /* \"contracts/AccessControl.sol\":6368:6382  candidateCount */\n      sload(0x08)\n        /* \"contracts/AccessControl.sol\":6354:6383  new address[](candidateCount) */\n      0xffffffffffffffff\n      dup2\n      gt\n      iszero\n      tag_233\n      jumpi\n      mstore(0x00, 0x4e487b7100000000000000000000000000000000000000000000000000000000)\n      mstore(0x04, 0x41)\n      revert(0x00, 0x24)\n    tag_233:\n      mload(0x40)\n      swap1\n      dup1\n      dup3\n      mstore\n      dup1\n      0x20\n      mul\n      0x20\n      add\n      dup3\n      add\n      0x40\n      mstore\n      dup1\n      iszero\n      tag_234\n      jumpi\n      dup2\n      0x20\n      add\n      0x20\n      dup3\n      mul\n      dup1\n      calldatasize\n      dup4\n      calldatacopy\n      dup1\n      dup3\n      add\n      swap2\n      pop\n      pop\n      swap1\n      pop\n    tag_234:\n      pop\n        /* \"contracts/AccessControl.sol\":6317:6383  address[] memory electedCandidates = new address[](candidateCount) */\n      swap1\n      pop\n        /* \"contracts/AccessControl.sol\":6425:6442  uint electedCount */\n      0x00\n        /* \"contracts/AccessControl.sol\":6461:6467  uint i */\n      dup1\n        /* \"contracts/AccessControl.sol\":6456:6701  for (uint i = 0; i < candidateCount; i++) {... */\n    tag_235:\n        /* \"contracts/AccessControl.sol\":6477:6491  candidateCount */\n      sload(0x08)\n        /* \"contracts/AccessControl.sol\":6473:6474  i */\n      dup2\n        /* \"contracts/AccessControl.sol\":6473:6491  i < candidateCount */\n      lt\n        /* \"contracts/AccessControl.sol\":6456:6701  for (uint i = 0; i < candidateCount; i++) {... */\n      iszero\n      tag_236\n      jumpi\n        /* \"contracts/AccessControl.sol\":6555:6567  decisionRate */\n      dup4\n        /* \"contracts/AccessControl.sol\":6516:6526  voteCounts */\n      0x06\n        /* \"contracts/AccessControl.sol\":6516:6551  voteCounts[registeredCandidates[i]] */\n      0x00\n        /* \"contracts/AccessControl.sol\":6527:6547  registeredCandidates */\n      0x03\n        /* \"contracts/AccessControl.sol\":6548:6549  i */\n      dup5\n        /* \"contracts/AccessControl.sol\":6527:6550  registeredCandidates[i] */\n      dup2\n      sload\n      dup2\n      lt\n      tag_238\n      jumpi\n      mstore(0x00, 0x4e487b7100000000000000000000000000000000000000000000000000000000)\n      mstore(0x04, 0x32)\n      revert(0x00, 0x24)\n    tag_238:\n      swap1\n      0x00\n      mstore\n      keccak256(0x00, 0x20)\n      add\n      0x00\n      swap1\n      sload\n      swap1\n      0x0100\n      exp\n      swap1\n      div\n      0xffffffffffffffffffffffffffffffffffffffff\n      and\n        /* \"contracts/AccessControl.sol\":6516:6551  voteCounts[registeredCandidates[i]] */\n      0xffffffffffffffffffffffffffffffffffffffff\n      and\n      0xffffffffffffffffffffffffffffffffffffffff\n      and\n      dup2\n      mstore\n      0x20\n      add\n      swap1\n      dup2\n      mstore\n      0x20\n      add\n      0x00\n      keccak256\n      sload\n        /* \"contracts/AccessControl.sol\":6516:6567  voteCounts[registeredCandidates[i]] >= decisionRate */\n      lt\n        /* \"contracts/AccessControl.sol\":6512:6691  if (voteCounts[registeredCandidates[i]] >= decisionRate) {... */\n      tag_240\n      jumpi\n        /* \"contracts/AccessControl.sol\":6621:6641  registeredCandidates */\n      0x03\n        /* \"contracts/AccessControl.sol\":6642:6643  i */\n      dup2\n        /* \"contracts/AccessControl.sol\":6621:6644  registeredCandidates[i] */\n      dup2\n      sload\n      dup2\n      lt\n      tag_241\n      jumpi\n      mstore(0x00, 0x4e487b7100000000000000000000000000000000000000000000000000000000)\n      mstore(0x04, 0x32)\n      revert(0x00, 0x24)\n    tag_241:\n      swap1\n      0x00\n      mstore\n      keccak256(0x00, 0x20)\n      add\n      0x00\n      swap1\n      sload\n      swap1\n      0x0100\n      exp\n      swap1\n      div\n      0xffffffffffffffffffffffffffffffffffffffff\n      and\n        /* \"contracts/AccessControl.sol\":6587:6604  electedCandidates */\n      dup4\n        /* \"contracts/AccessControl.sol\":6605:6617  electedCount */\n      dup4\n        /* \"contracts/AccessControl.sol\":6587:6618  electedCandidates[electedCount] */\n      dup2\n      mload\n      dup2\n      lt\n      tag_243\n      jumpi\n      mstore(0x00, 0x4e487b7100000000000000000000000000000000000000000000000000000000)\n      mstore(0x04, 0x32)\n      revert(0x00, 0x24)\n    tag_243:\n      0x20\n      mul\n      0x20\n      add\n      add\n        /* \"contracts/AccessControl.sol\":6587:6644  electedCandidates[electedCount] = registeredCandidates[i] */\n      swap1\n      0xffffffffffffffffffffffffffffffffffffffff\n      and\n      swap1\n      dup2\n      0xffffffffffffffffffffffffffffffffffffffff\n      and\n      dup2\n      mstore\n      pop\n      pop\n        /* \"contracts/AccessControl.sol\":6662:6676  electedCount++ */\n      dup2\n      dup1\n      tag_244\n      swap1\n      tag_190\n      jump\t// in\n    tag_244:\n      swap3\n      pop\n      pop\n        /* \"contracts/AccessControl.sol\":6512:6691  if (voteCounts[registeredCandidates[i]] >= decisionRate) {... */\n    tag_240:\n        /* \"contracts/AccessControl.sol\":6493:6496  i++ */\n      dup1\n      dup1\n      tag_245\n      swap1\n      tag_190\n      jump\t// in\n    tag_245:\n      swap2\n      pop\n      pop\n        /* \"contracts/AccessControl.sol\":6456:6701  for (uint i = 0; i < candidateCount; i++) {... */\n      jump(tag_235)\n    tag_236:\n      pop\n        /* \"contracts/AccessControl.sol\":6734:6735  0 */\n      0x00\n        /* \"contracts/AccessControl.sol\":6719:6731  electedCount */\n      dup2\n        /* \"contracts/AccessControl.sol\":6719:6735  electedCount > 0 */\n      gt\n        /* \"contracts/AccessControl.sol\":6711:6761  require(electedCount > 0, \"No candidates elected\") */\n      tag_246\n      jumpi\n      mload(0x40)\n      0x08c379a000000000000000000000000000000000000000000000000000000000\n      dup2\n      mstore\n      0x04\n      add\n      tag_247\n      swap1\n      tag_248\n      jump\t// in\n    tag_247:\n      mload(0x40)\n      dup1\n      swap2\n      sub\n      swap1\n      revert\n    tag_246:\n        /* \"contracts/AccessControl.sol\":6829:6833  true */\n      0x01\n        /* \"contracts/AccessControl.sol\":6811:6826  resultFinalized */\n      0x09\n      0x00\n        /* \"contracts/AccessControl.sol\":6811:6833  resultFinalized = true */\n      0x0100\n      exp\n      dup2\n      sload\n      dup2\n      0xff\n      mul\n      not\n      and\n      swap1\n      dup4\n      iszero\n      iszero\n      mul\n      or\n      swap1\n      sstore\n      pop\n        /* \"contracts/AccessControl.sol\":6943:6986  address[] memory electedCandidatesAddresses */\n      0x00\n        /* \"contracts/AccessControl.sol\":7003:7015  electedCount */\n      dup2\n        /* \"contracts/AccessControl.sol\":6989:7016  new address[](electedCount) */\n      0xffffffffffffffff\n      dup2\n      gt\n      iszero\n      tag_249\n      jumpi\n      mstore(0x00, 0x4e487b7100000000000000000000000000000000000000000000000000000000)\n      mstore(0x04, 0x41)\n      revert(0x00, 0x24)\n    tag_249:\n      mload(0x40)\n      swap1\n      dup1\n      dup3\n      mstore\n      dup1\n      0x20\n      mul\n      0x20\n      add\n      dup3\n      add\n      0x40\n      mstore\n      dup1\n      iszero\n      tag_250\n      jumpi\n      dup2\n      0x20\n      add\n      0x20\n      dup3\n      mul\n      dup1\n      calldatasize\n      dup4\n      calldatacopy\n      dup1\n      dup3\n      add\n      swap2\n      pop\n      pop\n      swap1\n      pop\n    tag_250:\n      pop\n        /* \"contracts/AccessControl.sol\":6943:7016  address[] memory electedCandidatesAddresses = new address[](electedCount) */\n      swap1\n      pop\n        /* \"contracts/AccessControl.sol\":7026:7062  uint[] memory electedCandidatesVotes */\n      0x00\n        /* \"contracts/AccessControl.sol\":7076:7088  electedCount */\n      dup3\n        /* \"contracts/AccessControl.sol\":7065:7089  new uint[](electedCount) */\n      0xffffffffffffffff\n      dup2\n      gt\n      iszero\n      tag_251\n      jumpi\n      mstore(0x00, 0x4e487b7100000000000000000000000000000000000000000000000000000000)\n      mstore(0x04, 0x41)\n      revert(0x00, 0x24)\n    tag_251:\n      mload(0x40)\n      swap1\n      dup1\n      dup3\n      mstore\n      dup1\n      0x20\n      mul\n      0x20\n      add\n      dup3\n      add\n      0x40\n      mstore\n      dup1\n      iszero\n      tag_252\n      jumpi\n      dup2\n      0x20\n      add\n      0x20\n      dup3\n      mul\n      dup1\n      calldatasize\n      dup4\n      calldatacopy\n      dup1\n      dup3\n      add\n      swap2\n      pop\n      pop\n      swap1\n      pop\n    tag_252:\n      pop\n        /* \"contracts/AccessControl.sol\":7026:7089  uint[] memory electedCandidatesVotes = new uint[](electedCount) */\n      swap1\n      pop\n        /* \"contracts/AccessControl.sol\":7104:7110  uint i */\n      0x00\n        /* \"contracts/AccessControl.sol\":7099:7290  for (uint i = 0; i < electedCount; i++) {... */\n    tag_253:\n        /* \"contracts/AccessControl.sol\":7120:7132  electedCount */\n      dup4\n        /* \"contracts/AccessControl.sol\":7116:7117  i */\n      dup2\n        /* \"contracts/AccessControl.sol\":7116:7132  i < electedCount */\n      lt\n        /* \"contracts/AccessControl.sol\":7099:7290  for (uint i = 0; i < electedCount; i++) {... */\n      iszero\n      tag_254\n      jumpi\n        /* \"contracts/AccessControl.sol\":7185:7202  electedCandidates */\n      dup5\n        /* \"contracts/AccessControl.sol\":7203:7204  i */\n      dup2\n        /* \"contracts/AccessControl.sol\":7185:7205  electedCandidates[i] */\n      dup2\n      mload\n      dup2\n      lt\n      tag_256\n      jumpi\n      mstore(0x00, 0x4e487b7100000000000000000000000000000000000000000000000000000000)\n      mstore(0x04, 0x32)\n      revert(0x00, 0x24)\n    tag_256:\n      0x20\n      mul\n      0x20\n      add\n      add\n      mload\n        /* \"contracts/AccessControl.sol\":7153:7179  electedCandidatesAddresses */\n      dup4\n        /* \"contracts/AccessControl.sol\":7180:7181  i */\n      dup3\n        /* \"contracts/AccessControl.sol\":7153:7182  electedCandidatesAddresses[i] */\n      dup2\n      mload\n      dup2\n      lt\n      tag_257\n      jumpi\n      mstore(0x00, 0x4e487b7100000000000000000000000000000000000000000000000000000000)\n      mstore(0x04, 0x32)\n      revert(0x00, 0x24)\n    tag_257:\n      0x20\n      mul\n      0x20\n      add\n      add\n        /* \"contracts/AccessControl.sol\":7153:7205  electedCandidatesAddresses[i] = electedCandidates[i] */\n      swap1\n      0xffffffffffffffffffffffffffffffffffffffff\n      and\n      swap1\n      dup2\n      0xffffffffffffffffffffffffffffffffffffffff\n      and\n      dup2\n      mstore\n      pop\n      pop\n        /* \"contracts/AccessControl.sol\":7247:7257  voteCounts */\n      0x06\n        /* \"contracts/AccessControl.sol\":7247:7279  voteCounts[electedCandidates[i]] */\n      0x00\n        /* \"contracts/AccessControl.sol\":7258:7275  electedCandidates */\n      dup7\n        /* \"contracts/AccessControl.sol\":7276:7277  i */\n      dup4\n        /* \"contracts/AccessControl.sol\":7258:7278  electedCandidates[i] */\n      dup2\n      mload\n      dup2\n      lt\n      tag_258\n      jumpi\n      mstore(0x00, 0x4e487b7100000000000000000000000000000000000000000000000000000000)\n      mstore(0x04, 0x32)\n      revert(0x00, 0x24)\n    tag_258:\n      0x20\n      mul\n      0x20\n      add\n      add\n      mload\n        /* \"contracts/AccessControl.sol\":7247:7279  voteCounts[electedCandidates[i]] */\n      0xffffffffffffffffffffffffffffffffffffffff\n      and\n      0xffffffffffffffffffffffffffffffffffffffff\n      and\n      dup2\n      mstore\n      0x20\n      add\n      swap1\n      dup2\n      mstore\n      0x20\n      add\n      0x00\n      keccak256\n      sload\n        /* \"contracts/AccessControl.sol\":7219:7241  electedCandidatesVotes */\n      dup3\n        /* \"contracts/AccessControl.sol\":7242:7243  i */\n      dup3\n        /* \"contracts/AccessControl.sol\":7219:7244  electedCandidatesVotes[i] */\n      dup2\n      mload\n      dup2\n      lt\n      tag_259\n      jumpi\n      mstore(0x00, 0x4e487b7100000000000000000000000000000000000000000000000000000000)\n      mstore(0x04, 0x32)\n      revert(0x00, 0x24)\n    tag_259:\n      0x20\n      mul\n      0x20\n      add\n      add\n        /* \"contracts/AccessControl.sol\":7219:7279  electedCandidatesVotes[i] = voteCounts[electedCandidates[i]] */\n      dup2\n      dup2\n      mstore\n      pop\n      pop\n        /* \"contracts/AccessControl.sol\":7134:7137  i++ */\n      dup1\n      dup1\n      tag_260\n      swap1\n      tag_190\n      jump\t// in\n    tag_260:\n      swap2\n      pop\n      pop\n        /* \"contracts/AccessControl.sol\":7099:7290  for (uint i = 0; i < electedCount; i++) {... */\n      jump(tag_253)\n    tag_254:\n      pop\n        /* \"contracts/AccessControl.sol\":7304:7371  ResultFinalized(electedCandidatesAddresses, electedCandidatesVotes) */\n      0xa357b4a6831977270fccab93b7f0205f3139544cf0cf88952034db7c9a394f89\n        /* \"contracts/AccessControl.sol\":7320:7346  electedCandidatesAddresses */\n      dup3\n        /* \"contracts/AccessControl.sol\":7348:7370  electedCandidatesVotes */\n      dup3\n        /* \"contracts/AccessControl.sol\":7304:7371  ResultFinalized(electedCandidatesAddresses, electedCandidatesVotes) */\n      mload(0x40)\n      tag_261\n      swap3\n      swap2\n      swap1\n      tag_262\n      jump\t// in\n    tag_261:\n      mload(0x40)\n      dup1\n      swap2\n      sub\n      swap1\n      log1\n        /* \"contracts/AccessControl.sol\":1931:1932  _ */\n      pop\n      pop\n      pop\n      pop\n      pop\n      pop\n        /* \"contracts/AccessControl.sol\":5806:7378  function finalizeResult() public onlyAdmin {... */\n      jump\t// out\n        /* \"contracts/AccessControl.sol\":676:718  mapping(address => uint) public voteCounts */\n    tag_87:\n      mstore(0x20, 0x06)\n      dup1\n      0x00\n      mstore\n      keccak256(0x00, 0x40)\n      0x00\n      swap2\n      pop\n      swap1\n      pop\n      sload\n      dup2\n      jump\t// out\n        /* \"contracts/AccessControl.sol\":4912:5110  function getVoteCountForCandidate(address _candidate) public view returns (uint) {... */\n    tag_91:\n        /* \"contracts/AccessControl.sol\":4987:4991  uint */\n      0x00\n        /* \"contracts/AccessControl.sol\":5011:5034  isCandidate(_candidate) */\n      tag_264\n        /* \"contracts/AccessControl.sol\":5023:5033  _candidate */\n      dup3\n        /* \"contracts/AccessControl.sol\":5011:5022  isCandidate */\n      tag_118\n        /* \"contracts/AccessControl.sol\":5011:5034  isCandidate(_candidate) */\n      jump\t// in\n    tag_264:\n        /* \"contracts/AccessControl.sol\":5003:5064  require(isCandidate(_candidate), \"Invalid candidate address\") */\n      tag_265\n      jumpi\n      mload(0x40)\n      0x08c379a000000000000000000000000000000000000000000000000000000000\n      dup2\n      mstore\n      0x04\n      add\n      tag_266\n      swap1\n      tag_131\n      jump\t// in\n    tag_266:\n      mload(0x40)\n      dup1\n      swap2\n      sub\n      swap1\n      revert\n    tag_265:\n        /* \"contracts/AccessControl.sol\":5081:5091  voteCounts */\n      0x06\n        /* \"contracts/AccessControl.sol\":5081:5103  voteCounts[_candidate] */\n      0x00\n        /* \"contracts/AccessControl.sol\":5092:5102  _candidate */\n      dup4\n        /* \"contracts/AccessControl.sol\":5081:5103  voteCounts[_candidate] */\n      0xffffffffffffffffffffffffffffffffffffffff\n      and\n      0xffffffffffffffffffffffffffffffffffffffff\n      and\n      dup2\n      mstore\n      0x20\n      add\n      swap1\n      dup2\n      mstore\n      0x20\n      add\n      0x00\n      keccak256\n      sload\n        /* \"contracts/AccessControl.sol\":5074:5103  return voteCounts[_candidate] */\n      swap1\n      pop\n        /* \"contracts/AccessControl.sol\":4912:5110  function getVoteCountForCandidate(address _candidate) public view returns (uint) {... */\n      swap2\n      swap1\n      pop\n      jump\t// out\n        /* \"contracts/AccessControl.sol\":354:391  address[] public registeredCandidates */\n    tag_95:\n      0x03\n      dup2\n      dup2\n      sload\n      dup2\n      lt\n      tag_267\n      jumpi\n      0x00\n      dup1\n      revert\n    tag_267:\n      swap1\n      0x00\n      mstore\n      keccak256(0x00, 0x20)\n      add\n      0x00\n      swap2\n      pop\n      sload\n      swap1\n      0x0100\n      exp\n      swap1\n      div\n      0xffffffffffffffffffffffffffffffffffffffff\n      and\n      dup2\n      jump\t// out\n        /* \"contracts/AccessControl.sol\":7467:8220  function calculateResult() public view returns (Result[] memory) {... */\n    tag_98:\n        /* \"contracts/AccessControl.sol\":7515:7530  Result[] memory */\n      0x60\n        /* \"contracts/AccessControl.sol\":7616:7631  resultFinalized */\n      0x09\n      0x00\n      swap1\n      sload\n      swap1\n      0x0100\n      exp\n      swap1\n      div\n      0xff\n      and\n        /* \"contracts/AccessControl.sol\":7615:7631  !resultFinalized */\n      iszero\n        /* \"contracts/AccessControl.sol\":7607:7669  require(!resultFinalized, \"Result has already been finalized\") */\n      tag_270\n      jumpi\n      mload(0x40)\n      0x08c379a000000000000000000000000000000000000000000000000000000000\n      dup2\n      mstore\n      0x04\n      add\n      tag_271\n      swap1\n      tag_211\n      jump\t// in\n    tag_271:\n      mload(0x40)\n      dup1\n      swap2\n      sub\n      swap1\n      revert\n    tag_270:\n        /* \"contracts/AccessControl.sol\":7775:7797  Result[] memory result */\n      0x00\n        /* \"contracts/AccessControl.sol\":7813:7827  candidateCount */\n      sload(0x08)\n        /* \"contracts/AccessControl.sol\":7800:7828  new Result[](candidateCount) */\n      0xffffffffffffffff\n      dup2\n      gt\n      iszero\n      tag_272\n      jumpi\n      mstore(0x00, 0x4e487b7100000000000000000000000000000000000000000000000000000000)\n      mstore(0x04, 0x41)\n      revert(0x00, 0x24)\n    tag_272:\n      mload(0x40)\n      swap1\n      dup1\n      dup3\n      mstore\n      dup1\n      0x20\n      mul\n      0x20\n      add\n      dup3\n      add\n      0x40\n      mstore\n      dup1\n      iszero\n      tag_273\n      jumpi\n      dup2\n      0x20\n      add\n    tag_274:\n      tag_275\n      tag_276\n      jump\t// in\n    tag_275:\n      dup2\n      mstore\n      0x20\n      add\n      swap1\n      0x01\n      swap1\n      sub\n      swap1\n      dup2\n      tag_274\n      jumpi\n      swap1\n      pop\n    tag_273:\n      pop\n        /* \"contracts/AccessControl.sol\":7775:7828  Result[] memory result = new Result[](candidateCount) */\n      swap1\n      pop\n        /* \"contracts/AccessControl.sol\":7924:7930  uint i */\n      0x00\n        /* \"contracts/AccessControl.sol\":7919:8190  for (uint i = 0; i < candidateCount; i++) {... */\n    tag_277:\n        /* \"contracts/AccessControl.sol\":7940:7954  candidateCount */\n      sload(0x08)\n        /* \"contracts/AccessControl.sol\":7936:7937  i */\n      dup2\n        /* \"contracts/AccessControl.sol\":7936:7954  i < candidateCount */\n      lt\n        /* \"contracts/AccessControl.sol\":7919:8190  for (uint i = 0; i < candidateCount; i++) {... */\n      iszero\n      tag_278\n      jumpi\n        /* \"contracts/AccessControl.sol\":7975:7992  address candidate */\n      0x00\n        /* \"contracts/AccessControl.sol\":7995:8015  registeredCandidates */\n      0x03\n        /* \"contracts/AccessControl.sol\":8016:8017  i */\n      dup3\n        /* \"contracts/AccessControl.sol\":7995:8018  registeredCandidates[i] */\n      dup2\n      sload\n      dup2\n      lt\n      tag_280\n      jumpi\n      mstore(0x00, 0x4e487b7100000000000000000000000000000000000000000000000000000000)\n      mstore(0x04, 0x32)\n      revert(0x00, 0x24)\n    tag_280:\n      swap1\n      0x00\n      mstore\n      keccak256(0x00, 0x20)\n      add\n      0x00\n      swap1\n      sload\n      swap1\n      0x0100\n      exp\n      swap1\n      div\n      0xffffffffffffffffffffffffffffffffffffffff\n      and\n        /* \"contracts/AccessControl.sol\":7975:8018  address candidate = registeredCandidates[i] */\n      swap1\n      pop\n        /* \"contracts/AccessControl.sol\":8032:8050  string memory name */\n      0x00\n        /* \"contracts/AccessControl.sol\":8053:8067  candidateNames */\n      0x04\n        /* \"contracts/AccessControl.sol\":8053:8078  candidateNames[candidate] */\n      0x00\n        /* \"contracts/AccessControl.sol\":8068:8077  candidate */\n      dup4\n        /* \"contracts/AccessControl.sol\":8053:8078  candidateNames[candidate] */\n      0xffffffffffffffffffffffffffffffffffffffff\n      and\n      0xffffffffffffffffffffffffffffffffffffffff\n      and\n      dup2\n      mstore\n      0x20\n      add\n      swap1\n      dup2\n      mstore\n      0x20\n      add\n      0x00\n      keccak256\n        /* \"contracts/AccessControl.sol\":8032:8078  string memory name = candidateNames[candidate] */\n      dup1\n      sload\n      tag_282\n      swap1\n      tag_133\n      jump\t// in\n    tag_282:\n      dup1\n      0x1f\n      add\n      0x20\n      dup1\n      swap2\n      div\n      mul\n      0x20\n      add\n      mload(0x40)\n      swap1\n      dup2\n      add\n      0x40\n      mstore\n      dup1\n      swap3\n      swap2\n      swap1\n      dup2\n      dup2\n      mstore\n      0x20\n      add\n      dup3\n      dup1\n      sload\n      tag_283\n      swap1\n      tag_133\n      jump\t// in\n    tag_283:\n      dup1\n      iszero\n      tag_284\n      jumpi\n      dup1\n      0x1f\n      lt\n      tag_285\n      jumpi\n      0x0100\n      dup1\n      dup4\n      sload\n      div\n      mul\n      dup4\n      mstore\n      swap2\n      0x20\n      add\n      swap2\n      jump(tag_284)\n    tag_285:\n      dup3\n      add\n      swap2\n      swap1\n      0x00\n      mstore\n      keccak256(0x00, 0x20)\n      swap1\n    tag_286:\n      dup2\n      sload\n      dup2\n      mstore\n      swap1\n      0x01\n      add\n      swap1\n      0x20\n      add\n      dup1\n      dup4\n      gt\n      tag_286\n      jumpi\n      dup3\n      swap1\n      sub\n      0x1f\n      and\n      dup3\n      add\n      swap2\n    tag_284:\n      pop\n      pop\n      pop\n      pop\n      pop\n      swap1\n      pop\n        /* \"contracts/AccessControl.sol\":8092:8106  uint voteCount */\n      0x00\n        /* \"contracts/AccessControl.sol\":8109:8119  voteCounts */\n      0x06\n        /* \"contracts/AccessControl.sol\":8109:8130  voteCounts[candidate] */\n      0x00\n        /* \"contracts/AccessControl.sol\":8120:8129  candidate */\n      dup5\n        /* \"contracts/AccessControl.sol\":8109:8130  voteCounts[candidate] */\n      0xffffffffffffffffffffffffffffffffffffffff\n      and\n      0xffffffffffffffffffffffffffffffffffffffff\n      and\n      dup2\n      mstore\n      0x20\n      add\n      swap1\n      dup2\n      mstore\n      0x20\n      add\n      0x00\n      keccak256\n      sload\n        /* \"contracts/AccessControl.sol\":8092:8130  uint voteCount = voteCounts[candidate] */\n      swap1\n      pop\n        /* \"contracts/AccessControl.sol\":8156:8179  Result(name, voteCount) */\n      mload(0x40)\n      dup1\n      0x40\n      add\n      0x40\n      mstore\n      dup1\n        /* \"contracts/AccessControl.sol\":8163:8167  name */\n      dup4\n        /* \"contracts/AccessControl.sol\":8156:8179  Result(name, voteCount) */\n      dup2\n      mstore\n      0x20\n      add\n        /* \"contracts/AccessControl.sol\":8169:8178  voteCount */\n      dup3\n        /* \"contracts/AccessControl.sol\":8156:8179  Result(name, voteCount) */\n      dup2\n      mstore\n      pop\n        /* \"contracts/AccessControl.sol\":8144:8150  result */\n      dup6\n        /* \"contracts/AccessControl.sol\":8151:8152  i */\n      dup6\n        /* \"contracts/AccessControl.sol\":8144:8153  result[i] */\n      dup2\n      mload\n      dup2\n      lt\n      tag_287\n      jumpi\n      mstore(0x00, 0x4e487b7100000000000000000000000000000000000000000000000000000000)\n      mstore(0x04, 0x32)\n      revert(0x00, 0x24)\n    tag_287:\n      0x20\n      mul\n      0x20\n      add\n      add\n        /* \"contracts/AccessControl.sol\":8144:8179  result[i] = Result(name, voteCount) */\n      dup2\n      swap1\n      mstore\n      pop\n        /* \"contracts/AccessControl.sol\":7919:8190  for (uint i = 0; i < candidateCount; i++) {... */\n      pop\n      pop\n      pop\n        /* \"contracts/AccessControl.sol\":7956:7959  i++ */\n      dup1\n      dup1\n      tag_288\n      swap1\n      tag_190\n      jump\t// in\n    tag_288:\n      swap2\n      pop\n      pop\n        /* \"contracts/AccessControl.sol\":7919:8190  for (uint i = 0; i < candidateCount; i++) {... */\n      jump(tag_277)\n    tag_278:\n      pop\n        /* \"contracts/AccessControl.sol\":8207:8213  result */\n      dup1\n        /* \"contracts/AccessControl.sol\":8200:8213  return result */\n      swap2\n      pop\n      pop\n        /* \"contracts/AccessControl.sol\":7467:8220  function calculateResult() public view returns (Result[] memory) {... */\n      swap1\n      jump\t// out\n        /* \"contracts/AccessControl.sol\":457:505  mapping(address => string) public candidateNames */\n    tag_103:\n      mstore(0x20, 0x04)\n      dup1\n      0x00\n      mstore\n      keccak256(0x00, 0x40)\n      0x00\n      swap2\n      pop\n      swap1\n      pop\n      dup1\n      sload\n      tag_289\n      swap1\n      tag_133\n      jump\t// in\n    tag_289:\n      dup1\n      0x1f\n      add\n      0x20\n      dup1\n      swap2\n      div\n      mul\n      0x20\n      add\n      mload(0x40)\n      swap1\n      dup2\n      add\n      0x40\n      mstore\n      dup1\n      swap3\n      swap2\n      swap1\n      dup2\n      dup2\n      mstore\n      0x20\n      add\n      dup3\n      dup1\n      sload\n      tag_290\n      swap1\n      tag_133\n      jump\t// in\n    tag_290:\n      dup1\n      iszero\n      tag_291\n      jumpi\n      dup1\n      0x1f\n      lt\n      tag_292\n      jumpi\n      0x0100\n      dup1\n      dup4\n      sload\n      div\n      mul\n      dup4\n      mstore\n      swap2\n      0x20\n      add\n      swap2\n      jump(tag_291)\n    tag_292:\n      dup3\n      add\n      swap2\n      swap1\n      0x00\n      mstore\n      keccak256(0x00, 0x20)\n      swap1\n    tag_293:\n      dup2\n      sload\n      dup2\n      mstore\n      swap1\n      0x01\n      add\n      swap1\n      0x20\n      add\n      dup1\n      dup4\n      gt\n      tag_293\n      jumpi\n      dup3\n      swap1\n      sub\n      0x1f\n      and\n      dup3\n      add\n      swap2\n    tag_291:\n      pop\n      pop\n      pop\n      pop\n      pop\n      dup2\n      jump\t// out\n        /* \"contracts/AccessControl.sol\":4251:4507  function isVoter(address _address) public view returns (bool) {... */\n    tag_107:\n        /* \"contracts/AccessControl.sol\":4307:4311  bool */\n      0x00\n        /* \"contracts/AccessControl.sol\":4328:4334  uint i */\n      dup1\n        /* \"contracts/AccessControl.sol\":4337:4338  0 */\n      0x00\n        /* \"contracts/AccessControl.sol\":4328:4338  uint i = 0 */\n      swap1\n      pop\n        /* \"contracts/AccessControl.sol\":4323:4479  for (uint i = 0; i < registeredVoters.length; i++) {... */\n    tag_295:\n        /* \"contracts/AccessControl.sol\":4344:4360  registeredVoters */\n      0x02\n        /* \"contracts/AccessControl.sol\":4344:4367  registeredVoters.length */\n      dup1\n      sload\n      swap1\n      pop\n        /* \"contracts/AccessControl.sol\":4340:4341  i */\n      dup2\n        /* \"contracts/AccessControl.sol\":4340:4367  i < registeredVoters.length */\n      lt\n        /* \"contracts/AccessControl.sol\":4323:4479  for (uint i = 0; i < registeredVoters.length; i++) {... */\n      iszero\n      tag_296\n      jumpi\n        /* \"contracts/AccessControl.sol\":4415:4423  _address */\n      dup3\n        /* \"contracts/AccessControl.sol\":4392:4423  registeredVoters[i] == _address */\n      0xffffffffffffffffffffffffffffffffffffffff\n      and\n        /* \"contracts/AccessControl.sol\":4392:4408  registeredVoters */\n      0x02\n        /* \"contracts/AccessControl.sol\":4409:4410  i */\n      dup3\n        /* \"contracts/AccessControl.sol\":4392:4411  registeredVoters[i] */\n      dup2\n      sload\n      dup2\n      lt\n      tag_298\n      jumpi\n      mstore(0x00, 0x4e487b7100000000000000000000000000000000000000000000000000000000)\n      mstore(0x04, 0x32)\n      revert(0x00, 0x24)\n    tag_298:\n      swap1\n      0x00\n      mstore\n      keccak256(0x00, 0x20)\n      add\n      0x00\n      swap1\n      sload\n      swap1\n      0x0100\n      exp\n      swap1\n      div\n      0xffffffffffffffffffffffffffffffffffffffff\n      and\n        /* \"contracts/AccessControl.sol\":4392:4423  registeredVoters[i] == _address */\n      0xffffffffffffffffffffffffffffffffffffffff\n      and\n      eq\n        /* \"contracts/AccessControl.sol\":4388:4469  if (registeredVoters[i] == _address) {... */\n      iszero\n      tag_300\n      jumpi\n        /* \"contracts/AccessControl.sol\":4450:4454  true */\n      0x01\n        /* \"contracts/AccessControl.sol\":4443:4454  return true */\n      swap2\n      pop\n      pop\n      jump(tag_294)\n        /* \"contracts/AccessControl.sol\":4388:4469  if (registeredVoters[i] == _address) {... */\n    tag_300:\n        /* \"contracts/AccessControl.sol\":4369:4372  i++ */\n      dup1\n      dup1\n      tag_301\n      swap1\n      tag_190\n      jump\t// in\n    tag_301:\n      swap2\n      pop\n      pop\n        /* \"contracts/AccessControl.sol\":4323:4479  for (uint i = 0; i < registeredVoters.length; i++) {... */\n      jump(tag_295)\n    tag_296:\n      pop\n        /* \"contracts/AccessControl.sol\":4495:4500  false */\n      0x00\n        /* \"contracts/AccessControl.sol\":4488:4500  return false */\n      swap1\n      pop\n        /* \"contracts/AccessControl.sol\":4251:4507  function isVoter(address _address) public view returns (bool) {... */\n    tag_294:\n      swap2\n      swap1\n      pop\n      jump\t// out\n        /* \"contracts/AccessControl.sol\":896:922  uint public candidateCount */\n    tag_110:\n      sload(0x08)\n      dup2\n      jump\t// out\n        /* \"contracts/AccessControl.sol\":5461:5760  function getVoterName(address _voter) public view returns (string memory) {... */\n    tag_114:\n        /* \"contracts/AccessControl.sol\":5520:5533  string memory */\n      0x60\n        /* \"contracts/AccessControl.sol\":5550:5556  uint i */\n      0x00\n        /* \"contracts/AccessControl.sol\":5545:5713  for (uint i = 0; i < registeredVoters.length; i++) {... */\n    tag_303:\n        /* \"contracts/AccessControl.sol\":5566:5582  registeredVoters */\n      0x02\n        /* \"contracts/AccessControl.sol\":5566:5589  registeredVoters.length */\n      dup1\n      sload\n      swap1\n      pop\n        /* \"contracts/AccessControl.sol\":5562:5563  i */\n      dup2\n        /* \"contracts/AccessControl.sol\":5562:5589  i < registeredVoters.length */\n      lt\n        /* \"contracts/AccessControl.sol\":5545:5713  for (uint i = 0; i < registeredVoters.length; i++) {... */\n      iszero\n      tag_304\n      jumpi\n        /* \"contracts/AccessControl.sol\":5637:5643  _voter */\n      dup3\n        /* \"contracts/AccessControl.sol\":5614:5643  registeredVoters[i] == _voter */\n      0xffffffffffffffffffffffffffffffffffffffff\n      and\n        /* \"contracts/AccessControl.sol\":5614:5630  registeredVoters */\n      0x02\n        /* \"contracts/AccessControl.sol\":5631:5632  i */\n      dup3\n        /* \"contracts/AccessControl.sol\":5614:5633  registeredVoters[i] */\n      dup2\n      sload\n      dup2\n      lt\n      tag_306\n      jumpi\n      mstore(0x00, 0x4e487b7100000000000000000000000000000000000000000000000000000000)\n      mstore(0x04, 0x32)\n      revert(0x00, 0x24)\n    tag_306:\n      swap1\n      0x00\n      mstore\n      keccak256(0x00, 0x20)\n      add\n      0x00\n      swap1\n      sload\n      swap1\n      0x0100\n      exp\n      swap1\n      div\n      0xffffffffffffffffffffffffffffffffffffffff\n      and\n        /* \"contracts/AccessControl.sol\":5614:5643  registeredVoters[i] == _voter */\n      0xffffffffffffffffffffffffffffffffffffffff\n      and\n      eq\n        /* \"contracts/AccessControl.sol\":5610:5703  if (registeredVoters[i] == _voter) {... */\n      iszero\n      tag_308\n      jumpi\n        /* \"contracts/AccessControl.sol\":5670:5680  voterNames */\n      0x05\n        /* \"contracts/AccessControl.sol\":5670:5688  voterNames[_voter] */\n      0x00\n        /* \"contracts/AccessControl.sol\":5681:5687  _voter */\n      dup5\n        /* \"contracts/AccessControl.sol\":5670:5688  voterNames[_voter] */\n      0xffffffffffffffffffffffffffffffffffffffff\n      and\n      0xffffffffffffffffffffffffffffffffffffffff\n      and\n      dup2\n      mstore\n      0x20\n      add\n      swap1\n      dup2\n      mstore\n      0x20\n      add\n      0x00\n      keccak256\n        /* \"contracts/AccessControl.sol\":5663:5688  return voterNames[_voter] */\n      dup1\n      sload\n      tag_309\n      swap1\n      tag_133\n      jump\t// in\n    tag_309:\n      dup1\n      0x1f\n      add\n      0x20\n      dup1\n      swap2\n      div\n      mul\n      0x20\n      add\n      mload(0x40)\n      swap1\n      dup2\n      add\n      0x40\n      mstore\n      dup1\n      swap3\n      swap2\n      swap1\n      dup2\n      dup2\n      mstore\n      0x20\n      add\n      dup3\n      dup1\n      sload\n      tag_310\n      swap1\n      tag_133\n      jump\t// in\n    tag_310:\n      dup1\n      iszero\n      tag_311\n      jumpi\n      dup1\n      0x1f\n      lt\n      tag_312\n      jumpi\n      0x0100\n      dup1\n      dup4\n      sload\n      div\n      mul\n      dup4\n      mstore\n      swap2\n      0x20\n      add\n      swap2\n      jump(tag_311)\n    tag_312:\n      dup3\n      add\n      swap2\n      swap1\n      0x00\n      mstore\n      keccak256(0x00, 0x20)\n      swap1\n    tag_313:\n      dup2\n      sload\n      dup2\n      mstore\n      swap1\n      0x01\n      add\n      swap1\n      0x20\n      add\n      dup1\n      dup4\n      gt\n      tag_313\n      jumpi\n      dup3\n      swap1\n      sub\n      0x1f\n      and\n      dup3\n      add\n      swap2\n    tag_311:\n      pop\n      pop\n      pop\n      pop\n      pop\n      swap2\n      pop\n      pop\n      jump(tag_302)\n        /* \"contracts/AccessControl.sol\":5610:5703  if (registeredVoters[i] == _voter) {... */\n    tag_308:\n        /* \"contracts/AccessControl.sol\":5591:5594  i++ */\n      dup1\n      dup1\n      tag_314\n      swap1\n      tag_190\n      jump\t// in\n    tag_314:\n      swap2\n      pop\n      pop\n        /* \"contracts/AccessControl.sol\":5545:5713  for (uint i = 0; i < registeredVoters.length; i++) {... */\n      jump(tag_303)\n    tag_304:\n      pop\n        /* \"contracts/AccessControl.sol\":5722:5753  revert(\"Invalid voter address\") */\n      mload(0x40)\n      0x08c379a000000000000000000000000000000000000000000000000000000000\n      dup2\n      mstore\n      0x04\n      add\n      tag_315\n      swap1\n      tag_316\n      jump\t// in\n    tag_315:\n      mload(0x40)\n      dup1\n      swap2\n      sub\n      swap1\n      revert\n        /* \"contracts/AccessControl.sol\":5461:5760  function getVoterName(address _voter) public view returns (string memory) {... */\n    tag_302:\n      swap2\n      swap1\n      pop\n      jump\t// out\n        /* \"contracts/AccessControl.sol\":4578:4846  function isCandidate(address _address) public view returns (bool) {... */\n    tag_118:\n        /* \"contracts/AccessControl.sol\":4638:4642  bool */\n      0x00\n        /* \"contracts/AccessControl.sol\":4659:4665  uint i */\n      dup1\n        /* \"contracts/AccessControl.sol\":4668:4669  0 */\n      0x00\n        /* \"contracts/AccessControl.sol\":4659:4669  uint i = 0 */\n      swap1\n      pop\n        /* \"contracts/AccessControl.sol\":4654:4818  for (uint i = 0; i < registeredCandidates.length; i++) {... */\n    tag_318:\n        /* \"contracts/AccessControl.sol\":4675:4695  registeredCandidates */\n      0x03\n        /* \"contracts/AccessControl.sol\":4675:4702  registeredCandidates.length */\n      dup1\n      sload\n      swap1\n      pop\n        /* \"contracts/AccessControl.sol\":4671:4672  i */\n      dup2\n        /* \"contracts/AccessControl.sol\":4671:4702  i < registeredCandidates.length */\n      lt\n        /* \"contracts/AccessControl.sol\":4654:4818  for (uint i = 0; i < registeredCandidates.length; i++) {... */\n      iszero\n      tag_319\n      jumpi\n        /* \"contracts/AccessControl.sol\":4754:4762  _address */\n      dup3\n        /* \"contracts/AccessControl.sol\":4727:4762  registeredCandidates[i] == _address */\n      0xffffffffffffffffffffffffffffffffffffffff\n      and\n        /* \"contracts/AccessControl.sol\":4727:4747  registeredCandidates */\n      0x03\n        /* \"contracts/AccessControl.sol\":4748:4749  i */\n      dup3\n        /* \"contracts/AccessControl.sol\":4727:4750  registeredCandidates[i] */\n      dup2\n      sload\n      dup2\n      lt\n      tag_321\n      jumpi\n      mstore(0x00, 0x4e487b7100000000000000000000000000000000000000000000000000000000)\n      mstore(0x04, 0x32)\n      revert(0x00, 0x24)\n    tag_321:\n      swap1\n      0x00\n      mstore\n      keccak256(0x00, 0x20)\n      add\n      0x00\n      swap1\n      sload\n      swap1\n      0x0100\n      exp\n      swap1\n      div\n      0xffffffffffffffffffffffffffffffffffffffff\n      and\n        /* \"contracts/AccessControl.sol\":4727:4762  registeredCandidates[i] == _address */\n      0xffffffffffffffffffffffffffffffffffffffff\n      and\n      eq\n        /* \"contracts/AccessControl.sol\":4723:4808  if (registeredCandidates[i] == _address) {... */\n      iszero\n      tag_323\n      jumpi\n        /* \"contracts/AccessControl.sol\":4789:4793  true */\n      0x01\n        /* \"contracts/AccessControl.sol\":4782:4793  return true */\n      swap2\n      pop\n      pop\n      jump(tag_317)\n        /* \"contracts/AccessControl.sol\":4723:4808  if (registeredCandidates[i] == _address) {... */\n    tag_323:\n        /* \"contracts/AccessControl.sol\":4704:4707  i++ */\n      dup1\n      dup1\n      tag_324\n      swap1\n      tag_190\n      jump\t// in\n    tag_324:\n      swap2\n      pop\n      pop\n        /* \"contracts/AccessControl.sol\":4654:4818  for (uint i = 0; i < registeredCandidates.length; i++) {... */\n      jump(tag_318)\n    tag_319:\n      pop\n        /* \"contracts/AccessControl.sol\":4834:4839  false */\n      0x00\n        /* \"contracts/AccessControl.sol\":4827:4839  return false */\n      swap1\n      pop\n        /* \"contracts/AccessControl.sol\":4578:4846  function isCandidate(address _address) public view returns (bool) {... */\n    tag_317:\n      swap2\n      swap1\n      pop\n      jump\t// out\n        /* \"contracts/AccessControl.sol\":567:611  mapping(address => string) public voterNames */\n    tag_122:\n      mstore(0x20, 0x05)\n      dup1\n      0x00\n      mstore\n      keccak256(0x00, 0x40)\n      0x00\n      swap2\n      pop\n      swap1\n      pop\n      dup1\n      sload\n      tag_325\n      swap1\n      tag_133\n      jump\t// in\n    tag_325:\n      dup1\n      0x1f\n      add\n      0x20\n      dup1\n      swap2\n      div\n      mul\n      0x20\n      add\n      mload(0x40)\n      swap1\n      dup2\n      add\n      0x40\n      mstore\n      dup1\n      swap3\n      swap2\n      swap1\n      dup2\n      dup2\n      mstore\n      0x20\n      add\n      dup3\n      dup1\n      sload\n      tag_326\n      swap1\n      tag_133\n      jump\t// in\n    tag_326:\n      dup1\n      iszero\n      tag_327\n      jumpi\n      dup1\n      0x1f\n      lt\n      tag_328\n      jumpi\n      0x0100\n      dup1\n      dup4\n      sload\n      div\n      mul\n      dup4\n      mstore\n      swap2\n      0x20\n      add\n      swap2\n      jump(tag_327)\n    tag_328:\n      dup3\n      add\n      swap2\n      swap1\n      0x00\n      mstore\n      keccak256(0x00, 0x20)\n      swap1\n    tag_329:\n      dup2\n      sload\n      dup2\n      mstore\n      swap1\n      0x01\n      add\n      swap1\n      0x20\n      add\n      dup1\n      dup4\n      gt\n      tag_329\n      jumpi\n      dup3\n      swap1\n      sub\n      0x1f\n      and\n      dup3\n      add\n      swap2\n    tag_327:\n      pop\n      pop\n      pop\n      pop\n      pop\n      dup2\n      jump\t// out\n        /* \"contracts/AccessControl.sol\":86:106  address public admin */\n    tag_125:\n      0x00\n      dup1\n      sload\n      swap1\n      0x0100\n      exp\n      swap1\n      div\n      0xffffffffffffffffffffffffffffffffffffffff\n      and\n      dup2\n      jump\t// out\n    tag_175:\n      dup3\n      dup1\n      sload\n      tag_330\n      swap1\n      tag_133\n      jump\t// in\n    tag_330:\n      swap1\n      0x00\n      mstore\n      keccak256(0x00, 0x20)\n      swap1\n      0x1f\n      add\n      0x20\n      swap1\n      div\n      dup2\n      add\n      swap3\n      dup3\n      tag_332\n      jumpi\n      0x00\n      dup6\n      sstore\n      jump(tag_331)\n    tag_332:\n      dup3\n      0x1f\n      lt\n      tag_333\n      jumpi\n      dup1\n      mload\n      not(0xff)\n      and\n      dup4\n      dup1\n      add\n      or\n      dup6\n      sstore\n      jump(tag_331)\n    tag_333:\n      dup3\n      dup1\n      add\n      0x01\n      add\n      dup6\n      sstore\n      dup3\n      iszero\n      tag_331\n      jumpi\n      swap2\n      dup3\n      add\n    tag_334:\n      dup3\n      dup2\n      gt\n      iszero\n      tag_335\n      jumpi\n      dup3\n      mload\n      dup3\n      sstore\n      swap2\n      0x20\n      add\n      swap2\n      swap1\n      0x01\n      add\n      swap1\n      jump(tag_334)\n    tag_335:\n    tag_331:\n      pop\n      swap1\n      pop\n      tag_336\n      swap2\n      swap1\n      tag_337\n      jump\t// in\n    tag_336:\n      pop\n      swap1\n      jump\t// out\n    tag_276:\n      mload(0x40)\n      dup1\n      0x40\n      add\n      0x40\n      mstore\n      dup1\n      0x60\n      dup2\n      mstore\n      0x20\n      add\n      0x00\n      dup2\n      mstore\n      pop\n      swap1\n      jump\t// out\n    tag_337:\n    tag_338:\n      dup1\n      dup3\n      gt\n      iszero\n      tag_339\n      jumpi\n      0x00\n      dup2\n      0x00\n      swap1\n      sstore\n      pop\n      0x01\n      add\n      jump(tag_338)\n    tag_339:\n      pop\n      swap1\n      jump\t// out\n        /* \"#utility.yul\":7:351   */\n    tag_341:\n      0x00\n        /* \"#utility.yul\":110:175   */\n      tag_343\n        /* \"#utility.yul\":125:174   */\n      tag_344\n        /* \"#utility.yul\":167:173   */\n      dup5\n        /* \"#utility.yul\":125:174   */\n      tag_345\n      jump\t// in\n    tag_344:\n        /* \"#utility.yul\":110:175   */\n      tag_346\n      jump\t// in\n    tag_343:\n        /* \"#utility.yul\":101:175   */\n      swap1\n      pop\n        /* \"#utility.yul\":198:204   */\n      dup3\n        /* \"#utility.yul\":191:196   */\n      dup2\n        /* \"#utility.yul\":184:205   */\n      mstore\n        /* \"#utility.yul\":236:240   */\n      0x20\n        /* \"#utility.yul\":229:234   */\n      dup2\n        /* \"#utility.yul\":225:241   */\n      add\n        /* \"#utility.yul\":274:277   */\n      dup5\n        /* \"#utility.yul\":265:271   */\n      dup5\n        /* \"#utility.yul\":260:263   */\n      dup5\n        /* \"#utility.yul\":256:272   */\n      add\n        /* \"#utility.yul\":253:278   */\n      gt\n        /* \"#utility.yul\":250:252   */\n      iszero\n      tag_347\n      jumpi\n        /* \"#utility.yul\":291:292   */\n      0x00\n        /* \"#utility.yul\":288:289   */\n      dup1\n        /* \"#utility.yul\":281:293   */\n      revert\n        /* \"#utility.yul\":250:252   */\n    tag_347:\n        /* \"#utility.yul\":304:345   */\n      tag_348\n        /* \"#utility.yul\":338:344   */\n      dup5\n        /* \"#utility.yul\":333:336   */\n      dup3\n        /* \"#utility.yul\":328:331   */\n      dup6\n        /* \"#utility.yul\":304:345   */\n      tag_349\n      jump\t// in\n    tag_348:\n        /* \"#utility.yul\":91:351   */\n      pop\n      swap4\n      swap3\n      pop\n      pop\n      pop\n      jump\t// out\n        /* \"#utility.yul\":357:496   */\n    tag_350:\n      0x00\n        /* \"#utility.yul\":441:447   */\n      dup2\n        /* \"#utility.yul\":428:448   */\n      calldataload\n        /* \"#utility.yul\":419:448   */\n      swap1\n      pop\n        /* \"#utility.yul\":457:490   */\n      tag_352\n        /* \"#utility.yul\":484:489   */\n      dup2\n        /* \"#utility.yul\":457:490   */\n      tag_353\n      jump\t// in\n    tag_352:\n        /* \"#utility.yul\":409:496   */\n      swap3\n      swap2\n      pop\n      pop\n      jump\t// out\n        /* \"#utility.yul\":516:789   */\n    tag_354:\n      0x00\n        /* \"#utility.yul\":621:624   */\n      dup3\n        /* \"#utility.yul\":614:618   */\n      0x1f\n        /* \"#utility.yul\":606:612   */\n      dup4\n        /* \"#utility.yul\":602:619   */\n      add\n        /* \"#utility.yul\":598:625   */\n      slt\n        /* \"#utility.yul\":588:590   */\n      tag_356\n      jumpi\n        /* \"#utility.yul\":639:640   */\n      0x00\n        /* \"#utility.yul\":636:637   */\n      dup1\n        /* \"#utility.yul\":629:641   */\n      revert\n        /* \"#utility.yul\":588:590   */\n    tag_356:\n        /* \"#utility.yul\":679:685   */\n      dup2\n        /* \"#utility.yul\":666:686   */\n      calldataload\n        /* \"#utility.yul\":704:783   */\n      tag_357\n        /* \"#utility.yul\":779:782   */\n      dup5\n        /* \"#utility.yul\":771:777   */\n      dup3\n        /* \"#utility.yul\":764:768   */\n      0x20\n        /* \"#utility.yul\":756:762   */\n      dup7\n        /* \"#utility.yul\":752:769   */\n      add\n        /* \"#utility.yul\":704:783   */\n      tag_341\n      jump\t// in\n    tag_357:\n        /* \"#utility.yul\":695:783   */\n      swap2\n      pop\n        /* \"#utility.yul\":578:789   */\n      pop\n      swap3\n      swap2\n      pop\n      pop\n      jump\t// out\n        /* \"#utility.yul\":795:934   */\n    tag_358:\n      0x00\n        /* \"#utility.yul\":879:885   */\n      dup2\n        /* \"#utility.yul\":866:886   */\n      calldataload\n        /* \"#utility.yul\":857:886   */\n      swap1\n      pop\n        /* \"#utility.yul\":895:928   */\n      tag_360\n        /* \"#utility.yul\":922:927   */\n      dup2\n        /* \"#utility.yul\":895:928   */\n      tag_361\n      jump\t// in\n    tag_360:\n        /* \"#utility.yul\":847:934   */\n      swap3\n      swap2\n      pop\n      pop\n      jump\t// out\n        /* \"#utility.yul\":940:1202   */\n    tag_34:\n      0x00\n        /* \"#utility.yul\":1048:1050   */\n      0x20\n        /* \"#utility.yul\":1036:1045   */\n      dup3\n        /* \"#utility.yul\":1027:1034   */\n      dup5\n        /* \"#utility.yul\":1023:1046   */\n      sub\n        /* \"#utility.yul\":1019:1051   */\n      slt\n        /* \"#utility.yul\":1016:1018   */\n      iszero\n      tag_363\n      jumpi\n        /* \"#utility.yul\":1064:1065   */\n      0x00\n        /* \"#utility.yul\":1061:1062   */\n      dup1\n        /* \"#utility.yul\":1054:1066   */\n      revert\n        /* \"#utility.yul\":1016:1018   */\n    tag_363:\n        /* \"#utility.yul\":1107:1108   */\n      0x00\n        /* \"#utility.yul\":1132:1185   */\n      tag_364\n        /* \"#utility.yul\":1177:1184   */\n      dup5\n        /* \"#utility.yul\":1168:1174   */\n      dup3\n        /* \"#utility.yul\":1157:1166   */\n      dup6\n        /* \"#utility.yul\":1153:1175   */\n      add\n        /* \"#utility.yul\":1132:1185   */\n      tag_350\n      jump\t// in\n    tag_364:\n        /* \"#utility.yul\":1122:1185   */\n      swap2\n      pop\n        /* \"#utility.yul\":1078:1195   */\n      pop\n        /* \"#utility.yul\":1006:1202   */\n      swap3\n      swap2\n      pop\n      pop\n      jump\t// out\n        /* \"#utility.yul\":1208:1728   */\n    tag_75:\n      0x00\n      dup1\n        /* \"#utility.yul\":1343:1345   */\n      0x40\n        /* \"#utility.yul\":1331:1340   */\n      dup4\n        /* \"#utility.yul\":1322:1329   */\n      dup6\n        /* \"#utility.yul\":1318:1341   */\n      sub\n        /* \"#utility.yul\":1314:1346   */\n      slt\n        /* \"#utility.yul\":1311:1313   */\n      iszero\n      tag_366\n      jumpi\n        /* \"#utility.yul\":1359:1360   */\n      0x00\n        /* \"#utility.yul\":1356:1357   */\n      dup1\n        /* \"#utility.yul\":1349:1361   */\n      revert\n        /* \"#utility.yul\":1311:1313   */\n    tag_366:\n        /* \"#utility.yul\":1430:1431   */\n      0x00\n        /* \"#utility.yul\":1419:1428   */\n      dup4\n        /* \"#utility.yul\":1415:1432   */\n      add\n        /* \"#utility.yul\":1402:1433   */\n      calldataload\n        /* \"#utility.yul\":1460:1478   */\n      0xffffffffffffffff\n        /* \"#utility.yul\":1452:1458   */\n      dup2\n        /* \"#utility.yul\":1449:1479   */\n      gt\n        /* \"#utility.yul\":1446:1448   */\n      iszero\n      tag_367\n      jumpi\n        /* \"#utility.yul\":1492:1493   */\n      0x00\n        /* \"#utility.yul\":1489:1490   */\n      dup1\n        /* \"#utility.yul\":1482:1494   */\n      revert\n        /* \"#utility.yul\":1446:1448   */\n    tag_367:\n        /* \"#utility.yul\":1520:1583   */\n      tag_368\n        /* \"#utility.yul\":1575:1582   */\n      dup6\n        /* \"#utility.yul\":1566:1572   */\n      dup3\n        /* \"#utility.yul\":1555:1564   */\n      dup7\n        /* \"#utility.yul\":1551:1573   */\n      add\n        /* \"#utility.yul\":1520:1583   */\n      tag_354\n      jump\t// in\n    tag_368:\n        /* \"#utility.yul\":1510:1583   */\n      swap3\n      pop\n        /* \"#utility.yul\":1373:1593   */\n      pop\n        /* \"#utility.yul\":1632:1634   */\n      0x20\n        /* \"#utility.yul\":1658:1711   */\n      tag_369\n        /* \"#utility.yul\":1703:1710   */\n      dup6\n        /* \"#utility.yul\":1694:1700   */\n      dup3\n        /* \"#utility.yul\":1683:1692   */\n      dup7\n        /* \"#utility.yul\":1679:1701   */\n      add\n        /* \"#utility.yul\":1658:1711   */\n      tag_350\n      jump\t// in\n    tag_369:\n        /* \"#utility.yul\":1648:1711   */\n      swap2\n      pop\n        /* \"#utility.yul\":1603:1721   */\n      pop\n        /* \"#utility.yul\":1301:1728   */\n      swap3\n      pop\n      swap3\n      swap1\n      pop\n      jump\t// out\n        /* \"#utility.yul\":1734:1996   */\n    tag_48:\n      0x00\n        /* \"#utility.yul\":1842:1844   */\n      0x20\n        /* \"#utility.yul\":1830:1839   */\n      dup3\n        /* \"#utility.yul\":1821:1828   */\n      dup5\n        /* \"#utility.yul\":1817:1840   */\n      sub\n        /* \"#utility.yul\":1813:1845   */\n      slt\n        /* \"#utility.yul\":1810:1812   */\n      iszero\n      tag_371\n      jumpi\n        /* \"#utility.yul\":1858:1859   */\n      0x00\n        /* \"#utility.yul\":1855:1856   */\n      dup1\n        /* \"#utility.yul\":1848:1860   */\n      revert\n        /* \"#utility.yul\":1810:1812   */\n    tag_371:\n        /* \"#utility.yul\":1901:1902   */\n      0x00\n        /* \"#utility.yul\":1926:1979   */\n      tag_372\n        /* \"#utility.yul\":1971:1978   */\n      dup5\n        /* \"#utility.yul\":1962:1968   */\n      dup3\n        /* \"#utility.yul\":1951:1960   */\n      dup6\n        /* \"#utility.yul\":1947:1969   */\n      add\n        /* \"#utility.yul\":1926:1979   */\n      tag_358\n      jump\t// in\n    tag_372:\n        /* \"#utility.yul\":1916:1979   */\n      swap2\n      pop\n        /* \"#utility.yul\":1872:1989   */\n      pop\n        /* \"#utility.yul\":1800:1996   */\n      swap3\n      swap2\n      pop\n      pop\n      jump\t// out\n        /* \"#utility.yul\":2002:2181   */\n    tag_373:\n      0x00\n        /* \"#utility.yul\":2092:2138   */\n      tag_375\n        /* \"#utility.yul\":2134:2137   */\n      dup4\n        /* \"#utility.yul\":2126:2132   */\n      dup4\n        /* \"#utility.yul\":2092:2138   */\n      tag_376\n      jump\t// in\n    tag_375:\n        /* \"#utility.yul\":2170:2174   */\n      0x20\n        /* \"#utility.yul\":2165:2168   */\n      dup4\n        /* \"#utility.yul\":2161:2175   */\n      add\n        /* \"#utility.yul\":2147:2175   */\n      swap1\n      pop\n        /* \"#utility.yul\":2082:2181   */\n      swap3\n      swap2\n      pop\n      pop\n      jump\t// out\n        /* \"#utility.yul\":2187:2431   */\n    tag_377:\n      0x00\n        /* \"#utility.yul\":2335:2425   */\n      tag_379\n        /* \"#utility.yul\":2421:2424   */\n      dup4\n        /* \"#utility.yul\":2413:2419   */\n      dup4\n        /* \"#utility.yul\":2335:2425   */\n      tag_380\n      jump\t// in\n    tag_379:\n        /* \"#utility.yul\":2321:2425   */\n      swap1\n      pop\n        /* \"#utility.yul\":2311:2431   */\n      swap3\n      swap2\n      pop\n      pop\n      jump\t// out\n        /* \"#utility.yul\":2437:2616   */\n    tag_381:\n      0x00\n        /* \"#utility.yul\":2527:2573   */\n      tag_383\n        /* \"#utility.yul\":2569:2572   */\n      dup4\n        /* \"#utility.yul\":2561:2567   */\n      dup4\n        /* \"#utility.yul\":2527:2573   */\n      tag_384\n      jump\t// in\n    tag_383:\n        /* \"#utility.yul\":2605:2609   */\n      0x20\n        /* \"#utility.yul\":2600:2603   */\n      dup4\n        /* \"#utility.yul\":2596:2610   */\n      add\n        /* \"#utility.yul\":2582:2610   */\n      swap1\n      pop\n        /* \"#utility.yul\":2517:2616   */\n      swap3\n      swap2\n      pop\n      pop\n      jump\t// out\n        /* \"#utility.yul\":2622:2730   */\n    tag_376:\n        /* \"#utility.yul\":2699:2723   */\n      tag_386\n        /* \"#utility.yul\":2717:2722   */\n      dup2\n        /* \"#utility.yul\":2699:2723   */\n      tag_387\n      jump\t// in\n    tag_386:\n        /* \"#utility.yul\":2694:2697   */\n      dup3\n        /* \"#utility.yul\":2687:2724   */\n      mstore\n        /* \"#utility.yul\":2677:2730   */\n      pop\n      pop\n      jump\t// out\n        /* \"#utility.yul\":2736:2854   */\n    tag_388:\n        /* \"#utility.yul\":2823:2847   */\n      tag_390\n        /* \"#utility.yul\":2841:2846   */\n      dup2\n        /* \"#utility.yul\":2823:2847   */\n      tag_387\n      jump\t// in\n    tag_390:\n        /* \"#utility.yul\":2818:2821   */\n      dup3\n        /* \"#utility.yul\":2811:2848   */\n      mstore\n        /* \"#utility.yul\":2801:2854   */\n      pop\n      pop\n      jump\t// out\n        /* \"#utility.yul\":2890:3622   */\n    tag_391:\n      0x00\n        /* \"#utility.yul\":3038:3092   */\n      tag_393\n        /* \"#utility.yul\":3086:3091   */\n      dup3\n        /* \"#utility.yul\":3038:3092   */\n      tag_394\n      jump\t// in\n    tag_393:\n        /* \"#utility.yul\":3108:3194   */\n      tag_395\n        /* \"#utility.yul\":3187:3193   */\n      dup2\n        /* \"#utility.yul\":3182:3185   */\n      dup6\n        /* \"#utility.yul\":3108:3194   */\n      tag_396\n      jump\t// in\n    tag_395:\n        /* \"#utility.yul\":3101:3194   */\n      swap4\n      pop\n        /* \"#utility.yul\":3218:3274   */\n      tag_397\n        /* \"#utility.yul\":3268:3273   */\n      dup4\n        /* \"#utility.yul\":3218:3274   */\n      tag_398\n      jump\t// in\n    tag_397:\n        /* \"#utility.yul\":3297:3304   */\n      dup1\n        /* \"#utility.yul\":3328:3329   */\n      0x00\n        /* \"#utility.yul\":3313:3597   */\n    tag_399:\n        /* \"#utility.yul\":3338:3344   */\n      dup4\n        /* \"#utility.yul\":3335:3336   */\n      dup2\n        /* \"#utility.yul\":3332:3345   */\n      lt\n        /* \"#utility.yul\":3313:3597   */\n      iszero\n      tag_401\n      jumpi\n        /* \"#utility.yul\":3414:3420   */\n      dup2\n        /* \"#utility.yul\":3408:3421   */\n      mload\n        /* \"#utility.yul\":3441:3504   */\n      tag_402\n        /* \"#utility.yul\":3500:3503   */\n      dup9\n        /* \"#utility.yul\":3485:3498   */\n      dup3\n        /* \"#utility.yul\":3441:3504   */\n      tag_373\n      jump\t// in\n    tag_402:\n        /* \"#utility.yul\":3434:3504   */\n      swap8\n      pop\n        /* \"#utility.yul\":3527:3587   */\n      tag_403\n        /* \"#utility.yul\":3580:3586   */\n      dup4\n        /* \"#utility.yul\":3527:3587   */\n      tag_404\n      jump\t// in\n    tag_403:\n        /* \"#utility.yul\":3517:3587   */\n      swap3\n      pop\n        /* \"#utility.yul\":3373:3597   */\n      pop\n        /* \"#utility.yul\":3360:3361   */\n      0x01\n        /* \"#utility.yul\":3357:3358   */\n      dup2\n        /* \"#utility.yul\":3353:3362   */\n      add\n        /* \"#utility.yul\":3348:3362   */\n      swap1\n      pop\n        /* \"#utility.yul\":3313:3597   */\n      jump(tag_399)\n    tag_401:\n        /* \"#utility.yul\":3317:3331   */\n      pop\n        /* \"#utility.yul\":3613:3616   */\n      dup6\n        /* \"#utility.yul\":3606:3616   */\n      swap4\n      pop\n        /* \"#utility.yul\":3014:3622   */\n      pop\n      pop\n      pop\n      swap3\n      swap2\n      pop\n      pop\n      jump\t// out\n        /* \"#utility.yul\":3698:4785   */\n    tag_405:\n      0x00\n        /* \"#utility.yul\":3890:3966   */\n      tag_407\n        /* \"#utility.yul\":3960:3965   */\n      dup3\n        /* \"#utility.yul\":3890:3966   */\n      tag_408\n      jump\t// in\n    tag_407:\n        /* \"#utility.yul\":3982:4090   */\n      tag_409\n        /* \"#utility.yul\":4083:4089   */\n      dup2\n        /* \"#utility.yul\":4078:4081   */\n      dup6\n        /* \"#utility.yul\":3982:4090   */\n      tag_410\n      jump\t// in\n    tag_409:\n        /* \"#utility.yul\":3975:4090   */\n      swap4\n      pop\n        /* \"#utility.yul\":4116:4119   */\n      dup4\n        /* \"#utility.yul\":4161:4165   */\n      0x20\n        /* \"#utility.yul\":4153:4159   */\n      dup3\n        /* \"#utility.yul\":4149:4166   */\n      mul\n        /* \"#utility.yul\":4144:4147   */\n      dup6\n        /* \"#utility.yul\":4140:4167   */\n      add\n        /* \"#utility.yul\":4191:4269   */\n      tag_411\n        /* \"#utility.yul\":4263:4268   */\n      dup6\n        /* \"#utility.yul\":4191:4269   */\n      tag_412\n      jump\t// in\n    tag_411:\n        /* \"#utility.yul\":4292:4299   */\n      dup1\n        /* \"#utility.yul\":4323:4324   */\n      0x00\n        /* \"#utility.yul\":4308:4740   */\n    tag_413:\n        /* \"#utility.yul\":4333:4339   */\n      dup6\n        /* \"#utility.yul\":4330:4331   */\n      dup2\n        /* \"#utility.yul\":4327:4340   */\n      lt\n        /* \"#utility.yul\":4308:4740   */\n      iszero\n      tag_415\n      jumpi\n        /* \"#utility.yul\":4404:4413   */\n      dup5\n        /* \"#utility.yul\":4398:4402   */\n      dup5\n        /* \"#utility.yul\":4394:4414   */\n      sub\n        /* \"#utility.yul\":4389:4392   */\n      dup10\n        /* \"#utility.yul\":4382:4415   */\n      mstore\n        /* \"#utility.yul\":4455:4461   */\n      dup2\n        /* \"#utility.yul\":4449:4462   */\n      mload\n        /* \"#utility.yul\":4483:4591   */\n      tag_416\n        /* \"#utility.yul\":4586:4590   */\n      dup6\n        /* \"#utility.yul\":4571:4584   */\n      dup3\n        /* \"#utility.yul\":4483:4591   */\n      tag_377\n      jump\t// in\n    tag_416:\n        /* \"#utility.yul\":4475:4591   */\n      swap5\n      pop\n        /* \"#utility.yul\":4614:4696   */\n      tag_417\n        /* \"#utility.yul\":4689:4695   */\n      dup4\n        /* \"#utility.yul\":4614:4696   */\n      tag_418\n      jump\t// in\n    tag_417:\n        /* \"#utility.yul\":4604:4696   */\n      swap3\n      pop\n        /* \"#utility.yul\":4725:4729   */\n      0x20\n        /* \"#utility.yul\":4720:4723   */\n      dup11\n        /* \"#utility.yul\":4716:4730   */\n      add\n        /* \"#utility.yul\":4709:4730   */\n      swap10\n      pop\n        /* \"#utility.yul\":4368:4740   */\n      pop\n        /* \"#utility.yul\":4355:4356   */\n      0x01\n        /* \"#utility.yul\":4352:4353   */\n      dup2\n        /* \"#utility.yul\":4348:4357   */\n      add\n        /* \"#utility.yul\":4343:4357   */\n      swap1\n      pop\n        /* \"#utility.yul\":4308:4740   */\n      jump(tag_413)\n    tag_415:\n        /* \"#utility.yul\":4312:4326   */\n      pop\n        /* \"#utility.yul\":4756:4760   */\n      dup3\n        /* \"#utility.yul\":4749:4760   */\n      swap8\n      pop\n        /* \"#utility.yul\":4776:4779   */\n      dup8\n        /* \"#utility.yul\":4769:4779   */\n      swap6\n      pop\n        /* \"#utility.yul\":3866:4785   */\n      pop\n      pop\n      pop\n      pop\n      pop\n      swap3\n      swap2\n      pop\n      pop\n      jump\t// out\n        /* \"#utility.yul\":4821:5553   */\n    tag_419:\n      0x00\n        /* \"#utility.yul\":4969:5023   */\n      tag_421\n        /* \"#utility.yul\":5017:5022   */\n      dup3\n        /* \"#utility.yul\":4969:5023   */\n      tag_422\n      jump\t// in\n    tag_421:\n        /* \"#utility.yul\":5039:5125   */\n      tag_423\n        /* \"#utility.yul\":5118:5124   */\n      dup2\n        /* \"#utility.yul\":5113:5116   */\n      dup6\n        /* \"#utility.yul\":5039:5125   */\n      tag_424\n      jump\t// in\n    tag_423:\n        /* \"#utility.yul\":5032:5125   */\n      swap4\n      pop\n        /* \"#utility.yul\":5149:5205   */\n      tag_425\n        /* \"#utility.yul\":5199:5204   */\n      dup4\n        /* \"#utility.yul\":5149:5205   */\n      tag_426\n      jump\t// in\n    tag_425:\n        /* \"#utility.yul\":5228:5235   */\n      dup1\n        /* \"#utility.yul\":5259:5260   */\n      0x00\n        /* \"#utility.yul\":5244:5528   */\n    tag_427:\n        /* \"#utility.yul\":5269:5275   */\n      dup4\n        /* \"#utility.yul\":5266:5267   */\n      dup2\n        /* \"#utility.yul\":5263:5276   */\n      lt\n        /* \"#utility.yul\":5244:5528   */\n      iszero\n      tag_429\n      jumpi\n        /* \"#utility.yul\":5345:5351   */\n      dup2\n        /* \"#utility.yul\":5339:5352   */\n      mload\n        /* \"#utility.yul\":5372:5435   */\n      tag_430\n        /* \"#utility.yul\":5431:5434   */\n      dup9\n        /* \"#utility.yul\":5416:5429   */\n      dup3\n        /* \"#utility.yul\":5372:5435   */\n      tag_381\n      jump\t// in\n    tag_430:\n        /* \"#utility.yul\":5365:5435   */\n      swap8\n      pop\n        /* \"#utility.yul\":5458:5518   */\n      tag_431\n        /* \"#utility.yul\":5511:5517   */\n      dup4\n        /* \"#utility.yul\":5458:5518   */\n      tag_432\n      jump\t// in\n    tag_431:\n        /* \"#utility.yul\":5448:5518   */\n      swap3\n      pop\n        /* \"#utility.yul\":5304:5528   */\n      pop\n        /* \"#utility.yul\":5291:5292   */\n      0x01\n        /* \"#utility.yul\":5288:5289   */\n      dup2\n        /* \"#utility.yul\":5284:5293   */\n      add\n        /* \"#utility.yul\":5279:5293   */\n      swap1\n      pop\n        /* \"#utility.yul\":5244:5528   */\n      jump(tag_427)\n    tag_429:\n        /* \"#utility.yul\":5248:5262   */\n      pop\n        /* \"#utility.yul\":5544:5547   */\n      dup6\n        /* \"#utility.yul\":5537:5547   */\n      swap4\n      pop\n        /* \"#utility.yul\":4945:5553   */\n      pop\n      pop\n      pop\n      swap3\n      swap2\n      pop\n      pop\n      jump\t// out\n        /* \"#utility.yul\":5559:5668   */\n    tag_433:\n        /* \"#utility.yul\":5640:5661   */\n      tag_435\n        /* \"#utility.yul\":5655:5660   */\n      dup2\n        /* \"#utility.yul\":5640:5661   */\n      tag_436\n      jump\t// in\n    tag_435:\n        /* \"#utility.yul\":5635:5638   */\n      dup3\n        /* \"#utility.yul\":5628:5662   */\n      mstore\n        /* \"#utility.yul\":5618:5668   */\n      pop\n      pop\n      jump\t// out\n        /* \"#utility.yul\":5674:6018   */\n    tag_437:\n      0x00\n        /* \"#utility.yul\":5780:5819   */\n      tag_439\n        /* \"#utility.yul\":5813:5818   */\n      dup3\n        /* \"#utility.yul\":5780:5819   */\n      tag_440\n      jump\t// in\n    tag_439:\n        /* \"#utility.yul\":5835:5896   */\n      tag_441\n        /* \"#utility.yul\":5889:5895   */\n      dup2\n        /* \"#utility.yul\":5884:5887   */\n      dup6\n        /* \"#utility.yul\":5835:5896   */\n      tag_442\n      jump\t// in\n    tag_441:\n        /* \"#utility.yul\":5828:5896   */\n      swap4\n      pop\n        /* \"#utility.yul\":5905:5957   */\n      tag_443\n        /* \"#utility.yul\":5950:5956   */\n      dup2\n        /* \"#utility.yul\":5945:5948   */\n      dup6\n        /* \"#utility.yul\":5938:5942   */\n      0x20\n        /* \"#utility.yul\":5931:5936   */\n      dup7\n        /* \"#utility.yul\":5927:5943   */\n      add\n        /* \"#utility.yul\":5905:5957   */\n      tag_444\n      jump\t// in\n    tag_443:\n        /* \"#utility.yul\":5982:6011   */\n      tag_445\n        /* \"#utility.yul\":6004:6010   */\n      dup2\n        /* \"#utility.yul\":5982:6011   */\n      tag_446\n      jump\t// in\n    tag_445:\n        /* \"#utility.yul\":5977:5980   */\n      dup5\n        /* \"#utility.yul\":5973:6012   */\n      add\n        /* \"#utility.yul\":5966:6012   */\n      swap2\n      pop\n        /* \"#utility.yul\":5756:6018   */\n      pop\n      swap3\n      swap2\n      pop\n      pop\n      jump\t// out\n        /* \"#utility.yul\":6024:6388   */\n    tag_447:\n      0x00\n        /* \"#utility.yul\":6140:6179   */\n      tag_449\n        /* \"#utility.yul\":6173:6178   */\n      dup3\n        /* \"#utility.yul\":6140:6179   */\n      tag_440\n      jump\t// in\n    tag_449:\n        /* \"#utility.yul\":6195:6266   */\n      tag_450\n        /* \"#utility.yul\":6259:6265   */\n      dup2\n        /* \"#utility.yul\":6254:6257   */\n      dup6\n        /* \"#utility.yul\":6195:6266   */\n      tag_451\n      jump\t// in\n    tag_450:\n        /* \"#utility.yul\":6188:6266   */\n      swap4\n      pop\n        /* \"#utility.yul\":6275:6327   */\n      tag_452\n        /* \"#utility.yul\":6320:6326   */\n      dup2\n        /* \"#utility.yul\":6315:6318   */\n      dup6\n        /* \"#utility.yul\":6308:6312   */\n      0x20\n        /* \"#utility.yul\":6301:6306   */\n      dup7\n        /* \"#utility.yul\":6297:6313   */\n      add\n        /* \"#utility.yul\":6275:6327   */\n      tag_444\n      jump\t// in\n    tag_452:\n        /* \"#utility.yul\":6352:6381   */\n      tag_453\n        /* \"#utility.yul\":6374:6380   */\n      dup2\n        /* \"#utility.yul\":6352:6381   */\n      tag_446\n      jump\t// in\n    tag_453:\n        /* \"#utility.yul\":6347:6350   */\n      dup5\n        /* \"#utility.yul\":6343:6382   */\n      add\n        /* \"#utility.yul\":6336:6382   */\n      swap2\n      pop\n        /* \"#utility.yul\":6116:6388   */\n      pop\n      swap3\n      swap2\n      pop\n      pop\n      jump\t// out\n        /* \"#utility.yul\":6394:6723   */\n    tag_454:\n      0x00\n        /* \"#utility.yul\":6557:6624   */\n      tag_456\n        /* \"#utility.yul\":6621:6623   */\n      0x1f\n        /* \"#utility.yul\":6616:6619   */\n      dup4\n        /* \"#utility.yul\":6557:6624   */\n      tag_451\n      jump\t// in\n    tag_456:\n        /* \"#utility.yul\":6550:6624   */\n      swap2\n      pop\n        /* \"#utility.yul\":6654:6687   */\n      0x596f75206861766520616c7265616479206361737420796f757220766f746500\n        /* \"#utility.yul\":6650:6651   */\n      0x00\n        /* \"#utility.yul\":6645:6648   */\n      dup4\n        /* \"#utility.yul\":6641:6652   */\n      add\n        /* \"#utility.yul\":6634:6688   */\n      mstore\n        /* \"#utility.yul\":6714:6716   */\n      0x20\n        /* \"#utility.yul\":6709:6712   */\n      dup3\n        /* \"#utility.yul\":6705:6717   */\n      add\n        /* \"#utility.yul\":6698:6717   */\n      swap1\n      pop\n        /* \"#utility.yul\":6540:6723   */\n      swap2\n      swap1\n      pop\n      jump\t// out\n        /* \"#utility.yul\":6729:7048   */\n    tag_457:\n      0x00\n        /* \"#utility.yul\":6892:6959   */\n      tag_459\n        /* \"#utility.yul\":6956:6958   */\n      0x15\n        /* \"#utility.yul\":6951:6954   */\n      dup4\n        /* \"#utility.yul\":6892:6959   */\n      tag_451\n      jump\t// in\n    tag_459:\n        /* \"#utility.yul\":6885:6959   */\n      swap2\n      pop\n        /* \"#utility.yul\":6989:7012   */\n      0x4e6f2063616e6469646174657320656c65637465640000000000000000000000\n        /* \"#utility.yul\":6985:6986   */\n      0x00\n        /* \"#utility.yul\":6980:6983   */\n      dup4\n        /* \"#utility.yul\":6976:6987   */\n      add\n        /* \"#utility.yul\":6969:7013   */\n      mstore\n        /* \"#utility.yul\":7039:7041   */\n      0x20\n        /* \"#utility.yul\":7034:7037   */\n      dup3\n        /* \"#utility.yul\":7030:7042   */\n      add\n        /* \"#utility.yul\":7023:7042   */\n      swap1\n      pop\n        /* \"#utility.yul\":6875:7048   */\n      swap2\n      swap1\n      pop\n      jump\t// out\n        /* \"#utility.yul\":7054:7365   */\n    tag_460:\n      0x00\n        /* \"#utility.yul\":7217:7284   */\n      tag_462\n        /* \"#utility.yul\":7281:7283   */\n      0x0d\n        /* \"#utility.yul\":7276:7279   */\n      dup4\n        /* \"#utility.yul\":7217:7284   */\n      tag_451\n      jump\t// in\n    tag_462:\n        /* \"#utility.yul\":7210:7284   */\n      swap2\n      pop\n        /* \"#utility.yul\":7314:7329   */\n      0x4e6f20766f746573206361737400000000000000000000000000000000000000\n        /* \"#utility.yul\":7310:7311   */\n      0x00\n        /* \"#utility.yul\":7305:7308   */\n      dup4\n        /* \"#utility.yul\":7301:7312   */\n      add\n        /* \"#utility.yul\":7294:7330   */\n      mstore\n        /* \"#utility.yul\":7356:7358   */\n      0x20\n        /* \"#utility.yul\":7351:7354   */\n      dup3\n        /* \"#utility.yul\":7347:7359   */\n      add\n        /* \"#utility.yul\":7340:7359   */\n      swap1\n      pop\n        /* \"#utility.yul\":7200:7365   */\n      swap2\n      swap1\n      pop\n      jump\t// out\n        /* \"#utility.yul\":7371:7736   */\n    tag_463:\n      0x00\n        /* \"#utility.yul\":7534:7601   */\n      tag_465\n        /* \"#utility.yul\":7598:7600   */\n      0x21\n        /* \"#utility.yul\":7593:7596   */\n      dup4\n        /* \"#utility.yul\":7534:7601   */\n      tag_451\n      jump\t// in\n    tag_465:\n        /* \"#utility.yul\":7527:7601   */\n      swap2\n      pop\n        /* \"#utility.yul\":7631:7665   */\n      0x526573756c742068617320616c7265616479206265656e2066696e616c697a65\n        /* \"#utility.yul\":7627:7628   */\n      0x00\n        /* \"#utility.yul\":7622:7625   */\n      dup4\n        /* \"#utility.yul\":7618:7629   */\n      add\n        /* \"#utility.yul\":7611:7666   */\n      mstore\n        /* \"#utility.yul\":7697:7700   */\n      0x6400000000000000000000000000000000000000000000000000000000000000\n        /* \"#utility.yul\":7692:7694   */\n      0x20\n        /* \"#utility.yul\":7687:7690   */\n      dup4\n        /* \"#utility.yul\":7683:7695   */\n      add\n        /* \"#utility.yul\":7676:7701   */\n      mstore\n        /* \"#utility.yul\":7727:7729   */\n      0x40\n        /* \"#utility.yul\":7722:7725   */\n      dup3\n        /* \"#utility.yul\":7718:7730   */\n      add\n        /* \"#utility.yul\":7711:7730   */\n      swap1\n      pop\n        /* \"#utility.yul\":7517:7736   */\n      swap2\n      swap1\n      pop\n      jump\t// out\n        /* \"#utility.yul\":7742:8064   */\n    tag_466:\n      0x00\n        /* \"#utility.yul\":7905:7972   */\n      tag_468\n        /* \"#utility.yul\":7969:7971   */\n      0x18\n        /* \"#utility.yul\":7964:7967   */\n      dup4\n        /* \"#utility.yul\":7905:7972   */\n      tag_451\n      jump\t// in\n    tag_468:\n        /* \"#utility.yul\":7898:7972   */\n      swap2\n      pop\n        /* \"#utility.yul\":8002:8028   */\n      0x4465636973696f6e207261746520697320746f6f206c6f770000000000000000\n        /* \"#utility.yul\":7998:7999   */\n      0x00\n        /* \"#utility.yul\":7993:7996   */\n      dup4\n        /* \"#utility.yul\":7989:8000   */\n      add\n        /* \"#utility.yul\":7982:8029   */\n      mstore\n        /* \"#utility.yul\":8055:8057   */\n      0x20\n        /* \"#utility.yul\":8050:8053   */\n      dup3\n        /* \"#utility.yul\":8046:8058   */\n      add\n        /* \"#utility.yul\":8039:8058   */\n      swap1\n      pop\n        /* \"#utility.yul\":7888:8064   */\n      swap2\n      swap1\n      pop\n      jump\t// out\n        /* \"#utility.yul\":8070:8446   */\n    tag_469:\n      0x00\n        /* \"#utility.yul\":8233:8300   */\n      tag_471\n        /* \"#utility.yul\":8297:8299   */\n      0x2c\n        /* \"#utility.yul\":8292:8295   */\n      dup4\n        /* \"#utility.yul\":8233:8300   */\n      tag_451\n      jump\t// in\n    tag_471:\n        /* \"#utility.yul\":8226:8300   */\n      swap2\n      pop\n        /* \"#utility.yul\":8330:8364   */\n      0x4164647265737320697320616c72656164792072656769737465726564206173\n        /* \"#utility.yul\":8326:8327   */\n      0x00\n        /* \"#utility.yul\":8321:8324   */\n      dup4\n        /* \"#utility.yul\":8317:8328   */\n      add\n        /* \"#utility.yul\":8310:8365   */\n      mstore\n        /* \"#utility.yul\":8396:8410   */\n      0x20612063616e6469646174650000000000000000000000000000000000000000\n        /* \"#utility.yul\":8391:8393   */\n      0x20\n        /* \"#utility.yul\":8386:8389   */\n      dup4\n        /* \"#utility.yul\":8382:8394   */\n      add\n        /* \"#utility.yul\":8375:8411   */\n      mstore\n        /* \"#utility.yul\":8437:8439   */\n      0x40\n        /* \"#utility.yul\":8432:8435   */\n      dup3\n        /* \"#utility.yul\":8428:8440   */\n      add\n        /* \"#utility.yul\":8421:8440   */\n      swap1\n      pop\n        /* \"#utility.yul\":8216:8446   */\n      swap2\n      swap1\n      pop\n      jump\t// out\n        /* \"#utility.yul\":8452:8824   */\n    tag_472:\n      0x00\n        /* \"#utility.yul\":8615:8682   */\n      tag_474\n        /* \"#utility.yul\":8679:8681   */\n      0x28\n        /* \"#utility.yul\":8674:8677   */\n      dup4\n        /* \"#utility.yul\":8615:8682   */\n      tag_451\n      jump\t// in\n    tag_474:\n        /* \"#utility.yul\":8608:8682   */\n      swap2\n      pop\n        /* \"#utility.yul\":8712:8746   */\n      0x4164647265737320697320616c72656164792072656769737465726564206173\n        /* \"#utility.yul\":8708:8709   */\n      0x00\n        /* \"#utility.yul\":8703:8706   */\n      dup4\n        /* \"#utility.yul\":8699:8710   */\n      add\n        /* \"#utility.yul\":8692:8747   */\n      mstore\n        /* \"#utility.yul\":8778:8788   */\n      0x206120766f746572000000000000000000000000000000000000000000000000\n        /* \"#utility.yul\":8773:8775   */\n      0x20\n        /* \"#utility.yul\":8768:8771   */\n      dup4\n        /* \"#utility.yul\":8764:8776   */\n      add\n        /* \"#utility.yul\":8757:8789   */\n      mstore\n        /* \"#utility.yul\":8815:8817   */\n      0x40\n        /* \"#utility.yul\":8810:8813   */\n      dup3\n        /* \"#utility.yul\":8806:8818   */\n      add\n        /* \"#utility.yul\":8799:8818   */\n      swap1\n      pop\n        /* \"#utility.yul\":8598:8824   */\n      swap2\n      swap1\n      pop\n      jump\t// out\n        /* \"#utility.yul\":8830:9149   */\n    tag_475:\n      0x00\n        /* \"#utility.yul\":8993:9060   */\n      tag_477\n        /* \"#utility.yul\":9057:9059   */\n      0x15\n        /* \"#utility.yul\":9052:9055   */\n      dup4\n        /* \"#utility.yul\":8993:9060   */\n      tag_451\n      jump\t// in\n    tag_477:\n        /* \"#utility.yul\":8986:9060   */\n      swap2\n      pop\n        /* \"#utility.yul\":9090:9113   */\n      0x496e76616c696420766f74657220616464726573730000000000000000000000\n        /* \"#utility.yul\":9086:9087   */\n      0x00\n        /* \"#utility.yul\":9081:9084   */\n      dup4\n        /* \"#utility.yul\":9077:9088   */\n      add\n        /* \"#utility.yul\":9070:9114   */\n      mstore\n        /* \"#utility.yul\":9140:9142   */\n      0x20\n        /* \"#utility.yul\":9135:9138   */\n      dup3\n        /* \"#utility.yul\":9131:9143   */\n      add\n        /* \"#utility.yul\":9124:9143   */\n      swap1\n      pop\n        /* \"#utility.yul\":8976:9149   */\n      swap2\n      swap1\n      pop\n      jump\t// out\n        /* \"#utility.yul\":9155:9477   */\n    tag_478:\n      0x00\n        /* \"#utility.yul\":9318:9385   */\n      tag_480\n        /* \"#utility.yul\":9382:9384   */\n      0x18\n        /* \"#utility.yul\":9377:9380   */\n      dup4\n        /* \"#utility.yul\":9318:9385   */\n      tag_451\n      jump\t// in\n    tag_480:\n        /* \"#utility.yul\":9311:9385   */\n      swap2\n      pop\n        /* \"#utility.yul\":9415:9441   */\n      0x4e6f2063616e6469646174657320726567697374657265640000000000000000\n        /* \"#utility.yul\":9411:9412   */\n      0x00\n        /* \"#utility.yul\":9406:9409   */\n      dup4\n        /* \"#utility.yul\":9402:9413   */\n      add\n        /* \"#utility.yul\":9395:9442   */\n      mstore\n        /* \"#utility.yul\":9468:9470   */\n      0x20\n        /* \"#utility.yul\":9463:9466   */\n      dup3\n        /* \"#utility.yul\":9459:9471   */\n      add\n        /* \"#utility.yul\":9452:9471   */\n      swap1\n      pop\n        /* \"#utility.yul\":9301:9477   */\n      swap2\n      swap1\n      pop\n      jump\t// out\n        /* \"#utility.yul\":9483:9865   */\n    tag_481:\n      0x00\n        /* \"#utility.yul\":9646:9713   */\n      tag_483\n        /* \"#utility.yul\":9710:9712   */\n      0x32\n        /* \"#utility.yul\":9705:9708   */\n      dup4\n        /* \"#utility.yul\":9646:9713   */\n      tag_451\n      jump\t// in\n    tag_483:\n        /* \"#utility.yul\":9639:9713   */\n      swap2\n      pop\n        /* \"#utility.yul\":9743:9777   */\n      0x43616e6e6f74207265766f6b652061646d696e2070726976696c656765732066\n        /* \"#utility.yul\":9739:9740   */\n      0x00\n        /* \"#utility.yul\":9734:9737   */\n      dup4\n        /* \"#utility.yul\":9730:9741   */\n      add\n        /* \"#utility.yul\":9723:9778   */\n      mstore\n        /* \"#utility.yul\":9809:9829   */\n      0x726f6d20746865206d61696e2061646d696e0000000000000000000000000000\n        /* \"#utility.yul\":9804:9806   */\n      0x20\n        /* \"#utility.yul\":9799:9802   */\n      dup4\n        /* \"#utility.yul\":9795:9807   */\n      add\n        /* \"#utility.yul\":9788:9830   */\n      mstore\n        /* \"#utility.yul\":9856:9858   */\n      0x40\n        /* \"#utility.yul\":9851:9854   */\n      dup3\n        /* \"#utility.yul\":9847:9859   */\n      add\n        /* \"#utility.yul\":9840:9859   */\n      swap1\n      pop\n        /* \"#utility.yul\":9629:9865   */\n      swap2\n      swap1\n      pop\n      jump\t// out\n        /* \"#utility.yul\":9871:10194   */\n    tag_484:\n      0x00\n        /* \"#utility.yul\":10034:10101   */\n      tag_486\n        /* \"#utility.yul\":10098:10100   */\n      0x19\n        /* \"#utility.yul\":10093:10096   */\n      dup4\n        /* \"#utility.yul\":10034:10101   */\n      tag_451\n      jump\t// in\n    tag_486:\n        /* \"#utility.yul\":10027:10101   */\n      swap2\n      pop\n        /* \"#utility.yul\":10131:10158   */\n      0x496e76616c69642063616e646964617465206164647265737300000000000000\n        /* \"#utility.yul\":10127:10128   */\n      0x00\n        /* \"#utility.yul\":10122:10125   */\n      dup4\n        /* \"#utility.yul\":10118:10129   */\n      add\n        /* \"#utility.yul\":10111:10159   */\n      mstore\n        /* \"#utility.yul\":10185:10187   */\n      0x20\n        /* \"#utility.yul\":10180:10183   */\n      dup3\n        /* \"#utility.yul\":10176:10188   */\n      add\n        /* \"#utility.yul\":10169:10188   */\n      swap1\n      pop\n        /* \"#utility.yul\":10017:10194   */\n      swap2\n      swap1\n      pop\n      jump\t// out\n        /* \"#utility.yul\":10200:10565   */\n    tag_487:\n      0x00\n        /* \"#utility.yul\":10363:10430   */\n      tag_489\n        /* \"#utility.yul\":10427:10429   */\n      0x21\n        /* \"#utility.yul\":10422:10425   */\n      dup4\n        /* \"#utility.yul\":10363:10430   */\n      tag_451\n      jump\t// in\n    tag_489:\n        /* \"#utility.yul\":10356:10430   */\n      swap2\n      pop\n        /* \"#utility.yul\":10460:10494   */\n      0x4f6e6c792061646d696e2063616e2063616c6c20746869732066756e6374696f\n        /* \"#utility.yul\":10456:10457   */\n      0x00\n        /* \"#utility.yul\":10451:10454   */\n      dup4\n        /* \"#utility.yul\":10447:10458   */\n      add\n        /* \"#utility.yul\":10440:10495   */\n      mstore\n        /* \"#utility.yul\":10526:10529   */\n      0x6e00000000000000000000000000000000000000000000000000000000000000\n        /* \"#utility.yul\":10521:10523   */\n      0x20\n        /* \"#utility.yul\":10516:10519   */\n      dup4\n        /* \"#utility.yul\":10512:10524   */\n      add\n        /* \"#utility.yul\":10505:10530   */\n      mstore\n        /* \"#utility.yul\":10556:10558   */\n      0x40\n        /* \"#utility.yul\":10551:10554   */\n      dup3\n        /* \"#utility.yul\":10547:10559   */\n      add\n        /* \"#utility.yul\":10540:10559   */\n      swap1\n      pop\n        /* \"#utility.yul\":10346:10565   */\n      swap2\n      swap1\n      pop\n      jump\t// out\n        /* \"#utility.yul\":10571:10940   */\n    tag_490:\n      0x00\n        /* \"#utility.yul\":10734:10801   */\n      tag_492\n        /* \"#utility.yul\":10798:10800   */\n      0x25\n        /* \"#utility.yul\":10793:10796   */\n      dup4\n        /* \"#utility.yul\":10734:10801   */\n      tag_451\n      jump\t// in\n    tag_492:\n        /* \"#utility.yul\":10727:10801   */\n      swap2\n      pop\n        /* \"#utility.yul\":10831:10865   */\n      0x4f6e6c79207265676973746572656420766f746572732063616e206361737420\n        /* \"#utility.yul\":10827:10828   */\n      0x00\n        /* \"#utility.yul\":10822:10825   */\n      dup4\n        /* \"#utility.yul\":10818:10829   */\n      add\n        /* \"#utility.yul\":10811:10866   */\n      mstore\n        /* \"#utility.yul\":10897:10904   */\n      0x766f746573000000000000000000000000000000000000000000000000000000\n        /* \"#utility.yul\":10892:10894   */\n      0x20\n        /* \"#utility.yul\":10887:10890   */\n      dup4\n        /* \"#utility.yul\":10883:10895   */\n      add\n        /* \"#utility.yul\":10876:10905   */\n      mstore\n        /* \"#utility.yul\":10931:10933   */\n      0x40\n        /* \"#utility.yul\":10926:10929   */\n      dup3\n        /* \"#utility.yul\":10922:10934   */\n      add\n        /* \"#utility.yul\":10915:10934   */\n      swap1\n      pop\n        /* \"#utility.yul\":10717:10940   */\n      swap2\n      swap1\n      pop\n      jump\t// out\n        /* \"#utility.yul\":11012:11616   */\n    tag_380:\n      0x00\n        /* \"#utility.yul\":11151:11155   */\n      0x40\n        /* \"#utility.yul\":11146:11149   */\n      dup4\n        /* \"#utility.yul\":11142:11156   */\n      add\n        /* \"#utility.yul\":11247:11251   */\n      0x00\n        /* \"#utility.yul\":11240:11245   */\n      dup4\n        /* \"#utility.yul\":11236:11252   */\n      add\n        /* \"#utility.yul\":11230:11253   */\n      mload\n        /* \"#utility.yul\":11300:11303   */\n      dup5\n        /* \"#utility.yul\":11294:11298   */\n      dup3\n        /* \"#utility.yul\":11290:11304   */\n      sub\n        /* \"#utility.yul\":11283:11287   */\n      0x00\n        /* \"#utility.yul\":11278:11281   */\n      dup7\n        /* \"#utility.yul\":11274:11288   */\n      add\n        /* \"#utility.yul\":11267:11305   */\n      mstore\n        /* \"#utility.yul\":11326:11399   */\n      tag_494\n        /* \"#utility.yul\":11394:11398   */\n      dup3\n        /* \"#utility.yul\":11380:11392   */\n      dup3\n        /* \"#utility.yul\":11326:11399   */\n      tag_437\n      jump\t// in\n    tag_494:\n        /* \"#utility.yul\":11318:11399   */\n      swap2\n      pop\n        /* \"#utility.yul\":11166:11410   */\n      pop\n        /* \"#utility.yul\":11497:11501   */\n      0x20\n        /* \"#utility.yul\":11490:11495   */\n      dup4\n        /* \"#utility.yul\":11486:11502   */\n      add\n        /* \"#utility.yul\":11480:11503   */\n      mload\n        /* \"#utility.yul\":11516:11579   */\n      tag_495\n        /* \"#utility.yul\":11573:11577   */\n      0x20\n        /* \"#utility.yul\":11568:11571   */\n      dup7\n        /* \"#utility.yul\":11564:11578   */\n      add\n        /* \"#utility.yul\":11550:11562   */\n      dup3\n        /* \"#utility.yul\":11516:11579   */\n      tag_384\n      jump\t// in\n    tag_495:\n        /* \"#utility.yul\":11420:11589   */\n      pop\n        /* \"#utility.yul\":11606:11610   */\n      dup1\n        /* \"#utility.yul\":11599:11610   */\n      swap2\n      pop\n        /* \"#utility.yul\":11120:11616   */\n      pop\n      swap3\n      swap2\n      pop\n      pop\n      jump\t// out\n        /* \"#utility.yul\":11622:11730   */\n    tag_384:\n        /* \"#utility.yul\":11699:11723   */\n      tag_497\n        /* \"#utility.yul\":11717:11722   */\n      dup2\n        /* \"#utility.yul\":11699:11723   */\n      tag_498\n      jump\t// in\n    tag_497:\n        /* \"#utility.yul\":11694:11697   */\n      dup3\n        /* \"#utility.yul\":11687:11724   */\n      mstore\n        /* \"#utility.yul\":11677:11730   */\n      pop\n      pop\n      jump\t// out\n        /* \"#utility.yul\":11736:11854   */\n    tag_499:\n        /* \"#utility.yul\":11823:11847   */\n      tag_501\n        /* \"#utility.yul\":11841:11846   */\n      dup2\n        /* \"#utility.yul\":11823:11847   */\n      tag_498\n      jump\t// in\n    tag_501:\n        /* \"#utility.yul\":11818:11821   */\n      dup3\n        /* \"#utility.yul\":11811:11848   */\n      mstore\n        /* \"#utility.yul\":11801:11854   */\n      pop\n      pop\n      jump\t// out\n        /* \"#utility.yul\":11860:12082   */\n    tag_51:\n      0x00\n        /* \"#utility.yul\":11991:11993   */\n      0x20\n        /* \"#utility.yul\":11980:11989   */\n      dup3\n        /* \"#utility.yul\":11976:11994   */\n      add\n        /* \"#utility.yul\":11968:11994   */\n      swap1\n      pop\n        /* \"#utility.yul\":12004:12075   */\n      tag_503\n        /* \"#utility.yul\":12072:12073   */\n      0x00\n        /* \"#utility.yul\":12061:12070   */\n      dup4\n        /* \"#utility.yul\":12057:12074   */\n      add\n        /* \"#utility.yul\":12048:12054   */\n      dup5\n        /* \"#utility.yul\":12004:12075   */\n      tag_388\n      jump\t// in\n    tag_503:\n        /* \"#utility.yul\":11958:12082   */\n      swap3\n      swap2\n      pop\n      pop\n      jump\t// out\n        /* \"#utility.yul\":12088:12461   */\n    tag_59:\n      0x00\n        /* \"#utility.yul\":12269:12271   */\n      0x20\n        /* \"#utility.yul\":12258:12267   */\n      dup3\n        /* \"#utility.yul\":12254:12272   */\n      add\n        /* \"#utility.yul\":12246:12272   */\n      swap1\n      pop\n        /* \"#utility.yul\":12318:12327   */\n      dup2\n        /* \"#utility.yul\":12312:12316   */\n      dup2\n        /* \"#utility.yul\":12308:12328   */\n      sub\n        /* \"#utility.yul\":12304:12305   */\n      0x00\n        /* \"#utility.yul\":12293:12302   */\n      dup4\n        /* \"#utility.yul\":12289:12306   */\n      add\n        /* \"#utility.yul\":12282:12329   */\n      mstore\n        /* \"#utility.yul\":12346:12454   */\n      tag_505\n        /* \"#utility.yul\":12449:12453   */\n      dup2\n        /* \"#utility.yul\":12440:12446   */\n      dup5\n        /* \"#utility.yul\":12346:12454   */\n      tag_391\n      jump\t// in\n    tag_505:\n        /* \"#utility.yul\":12338:12454   */\n      swap1\n      pop\n        /* \"#utility.yul\":12236:12461   */\n      swap3\n      swap2\n      pop\n      pop\n      jump\t// out\n        /* \"#utility.yul\":12467:13101   */\n    tag_262:\n      0x00\n        /* \"#utility.yul\":12726:12728   */\n      0x40\n        /* \"#utility.yul\":12715:12724   */\n      dup3\n        /* \"#utility.yul\":12711:12729   */\n      add\n        /* \"#utility.yul\":12703:12729   */\n      swap1\n      pop\n        /* \"#utility.yul\":12775:12784   */\n      dup2\n        /* \"#utility.yul\":12769:12773   */\n      dup2\n        /* \"#utility.yul\":12765:12785   */\n      sub\n        /* \"#utility.yul\":12761:12762   */\n      0x00\n        /* \"#utility.yul\":12750:12759   */\n      dup4\n        /* \"#utility.yul\":12746:12763   */\n      add\n        /* \"#utility.yul\":12739:12786   */\n      mstore\n        /* \"#utility.yul\":12803:12911   */\n      tag_507\n        /* \"#utility.yul\":12906:12910   */\n      dup2\n        /* \"#utility.yul\":12897:12903   */\n      dup6\n        /* \"#utility.yul\":12803:12911   */\n      tag_391\n      jump\t// in\n    tag_507:\n        /* \"#utility.yul\":12795:12911   */\n      swap1\n      pop\n        /* \"#utility.yul\":12958:12967   */\n      dup2\n        /* \"#utility.yul\":12952:12956   */\n      dup2\n        /* \"#utility.yul\":12948:12968   */\n      sub\n        /* \"#utility.yul\":12943:12945   */\n      0x20\n        /* \"#utility.yul\":12932:12941   */\n      dup4\n        /* \"#utility.yul\":12928:12946   */\n      add\n        /* \"#utility.yul\":12921:12969   */\n      mstore\n        /* \"#utility.yul\":12986:13094   */\n      tag_508\n        /* \"#utility.yul\":13089:13093   */\n      dup2\n        /* \"#utility.yul\":13080:13086   */\n      dup5\n        /* \"#utility.yul\":12986:13094   */\n      tag_419\n      jump\t// in\n    tag_508:\n        /* \"#utility.yul\":12978:13094   */\n      swap1\n      pop\n        /* \"#utility.yul\":12693:13101   */\n      swap4\n      swap3\n      pop\n      pop\n      pop\n      jump\t// out\n        /* \"#utility.yul\":13107:13568   */\n    tag_100:\n      0x00\n        /* \"#utility.yul\":13332:13334   */\n      0x20\n        /* \"#utility.yul\":13321:13330   */\n      dup3\n        /* \"#utility.yul\":13317:13335   */\n      add\n        /* \"#utility.yul\":13309:13335   */\n      swap1\n      pop\n        /* \"#utility.yul\":13381:13390   */\n      dup2\n        /* \"#utility.yul\":13375:13379   */\n      dup2\n        /* \"#utility.yul\":13371:13391   */\n      sub\n        /* \"#utility.yul\":13367:13368   */\n      0x00\n        /* \"#utility.yul\":13356:13365   */\n      dup4\n        /* \"#utility.yul\":13352:13369   */\n      add\n        /* \"#utility.yul\":13345:13392   */\n      mstore\n        /* \"#utility.yul\":13409:13561   */\n      tag_510\n        /* \"#utility.yul\":13556:13560   */\n      dup2\n        /* \"#utility.yul\":13547:13553   */\n      dup5\n        /* \"#utility.yul\":13409:13561   */\n      tag_405\n      jump\t// in\n    tag_510:\n        /* \"#utility.yul\":13401:13561   */\n      swap1\n      pop\n        /* \"#utility.yul\":13299:13568   */\n      swap3\n      swap2\n      pop\n      pop\n      jump\t// out\n        /* \"#utility.yul\":13574:13784   */\n    tag_37:\n      0x00\n        /* \"#utility.yul\":13699:13701   */\n      0x20\n        /* \"#utility.yul\":13688:13697   */\n      dup3\n        /* \"#utility.yul\":13684:13702   */\n      add\n        /* \"#utility.yul\":13676:13702   */\n      swap1\n      pop\n        /* \"#utility.yul\":13712:13777   */\n      tag_512\n        /* \"#utility.yul\":13774:13775   */\n      0x00\n        /* \"#utility.yul\":13763:13772   */\n      dup4\n        /* \"#utility.yul\":13759:13776   */\n      add\n        /* \"#utility.yul\":13750:13756   */\n      dup5\n        /* \"#utility.yul\":13712:13777   */\n      tag_433\n      jump\t// in\n    tag_512:\n        /* \"#utility.yul\":13666:13784   */\n      swap3\n      swap2\n      pop\n      pop\n      jump\t// out\n        /* \"#utility.yul\":13790:14103   */\n    tag_45:\n      0x00\n        /* \"#utility.yul\":13941:13943   */\n      0x20\n        /* \"#utility.yul\":13930:13939   */\n      dup3\n        /* \"#utility.yul\":13926:13944   */\n      add\n        /* \"#utility.yul\":13918:13944   */\n      swap1\n      pop\n        /* \"#utility.yul\":13990:13999   */\n      dup2\n        /* \"#utility.yul\":13984:13988   */\n      dup2\n        /* \"#utility.yul\":13980:14000   */\n      sub\n        /* \"#utility.yul\":13976:13977   */\n      0x00\n        /* \"#utility.yul\":13965:13974   */\n      dup4\n        /* \"#utility.yul\":13961:13978   */\n      add\n        /* \"#utility.yul\":13954:14001   */\n      mstore\n        /* \"#utility.yul\":14018:14096   */\n      tag_514\n        /* \"#utility.yul\":14091:14095   */\n      dup2\n        /* \"#utility.yul\":14082:14088   */\n      dup5\n        /* \"#utility.yul\":14018:14096   */\n      tag_447\n      jump\t// in\n    tag_514:\n        /* \"#utility.yul\":14010:14096   */\n      swap1\n      pop\n        /* \"#utility.yul\":13908:14103   */\n      swap3\n      swap2\n      pop\n      pop\n      jump\t// out\n        /* \"#utility.yul\":14109:14532   */\n    tag_192:\n      0x00\n        /* \"#utility.yul\":14288:14290   */\n      0x40\n        /* \"#utility.yul\":14277:14286   */\n      dup3\n        /* \"#utility.yul\":14273:14291   */\n      add\n        /* \"#utility.yul\":14265:14291   */\n      swap1\n      pop\n        /* \"#utility.yul\":14337:14346   */\n      dup2\n        /* \"#utility.yul\":14331:14335   */\n      dup2\n        /* \"#utility.yul\":14327:14347   */\n      sub\n        /* \"#utility.yul\":14323:14324   */\n      0x00\n        /* \"#utility.yul\":14312:14321   */\n      dup4\n        /* \"#utility.yul\":14308:14325   */\n      add\n        /* \"#utility.yul\":14301:14348   */\n      mstore\n        /* \"#utility.yul\":14365:14443   */\n      tag_516\n        /* \"#utility.yul\":14438:14442   */\n      dup2\n        /* \"#utility.yul\":14429:14435   */\n      dup6\n        /* \"#utility.yul\":14365:14443   */\n      tag_447\n      jump\t// in\n    tag_516:\n        /* \"#utility.yul\":14357:14443   */\n      swap1\n      pop\n        /* \"#utility.yul\":14453:14525   */\n      tag_517\n        /* \"#utility.yul\":14521:14523   */\n      0x20\n        /* \"#utility.yul\":14510:14519   */\n      dup4\n        /* \"#utility.yul\":14506:14524   */\n      add\n        /* \"#utility.yul\":14497:14503   */\n      dup5\n        /* \"#utility.yul\":14453:14525   */\n      tag_388\n      jump\t// in\n    tag_517:\n        /* \"#utility.yul\":14255:14532   */\n      swap4\n      swap3\n      pop\n      pop\n      pop\n      jump\t// out\n        /* \"#utility.yul\":14538:14957   */\n    tag_203:\n      0x00\n        /* \"#utility.yul\":14742:14744   */\n      0x20\n        /* \"#utility.yul\":14731:14740   */\n      dup3\n        /* \"#utility.yul\":14727:14745   */\n      add\n        /* \"#utility.yul\":14719:14745   */\n      swap1\n      pop\n        /* \"#utility.yul\":14791:14800   */\n      dup2\n        /* \"#utility.yul\":14785:14789   */\n      dup2\n        /* \"#utility.yul\":14781:14801   */\n      sub\n        /* \"#utility.yul\":14777:14778   */\n      0x00\n        /* \"#utility.yul\":14766:14775   */\n      dup4\n        /* \"#utility.yul\":14762:14779   */\n      add\n        /* \"#utility.yul\":14755:14802   */\n      mstore\n        /* \"#utility.yul\":14819:14950   */\n      tag_519\n        /* \"#utility.yul\":14945:14949   */\n      dup2\n        /* \"#utility.yul\":14819:14950   */\n      tag_454\n      jump\t// in\n    tag_519:\n        /* \"#utility.yul\":14811:14950   */\n      swap1\n      pop\n        /* \"#utility.yul\":14709:14957   */\n      swap2\n      swap1\n      pop\n      jump\t// out\n        /* \"#utility.yul\":14963:15382   */\n    tag_248:\n      0x00\n        /* \"#utility.yul\":15167:15169   */\n      0x20\n        /* \"#utility.yul\":15156:15165   */\n      dup3\n        /* \"#utility.yul\":15152:15170   */\n      add\n        /* \"#utility.yul\":15144:15170   */\n      swap1\n      pop\n        /* \"#utility.yul\":15216:15225   */\n      dup2\n        /* \"#utility.yul\":15210:15214   */\n      dup2\n        /* \"#utility.yul\":15206:15226   */\n      sub\n        /* \"#utility.yul\":15202:15203   */\n      0x00\n        /* \"#utility.yul\":15191:15200   */\n      dup4\n        /* \"#utility.yul\":15187:15204   */\n      add\n        /* \"#utility.yul\":15180:15227   */\n      mstore\n        /* \"#utility.yul\":15244:15375   */\n      tag_521\n        /* \"#utility.yul\":15370:15374   */\n      dup2\n        /* \"#utility.yul\":15244:15375   */\n      tag_457\n      jump\t// in\n    tag_521:\n        /* \"#utility.yul\":15236:15375   */\n      swap1\n      pop\n        /* \"#utility.yul\":15134:15382   */\n      swap2\n      swap1\n      pop\n      jump\t// out\n        /* \"#utility.yul\":15388:15807   */\n    tag_225:\n      0x00\n        /* \"#utility.yul\":15592:15594   */\n      0x20\n        /* \"#utility.yul\":15581:15590   */\n      dup3\n        /* \"#utility.yul\":15577:15595   */\n      add\n        /* \"#utility.yul\":15569:15595   */\n      swap1\n      pop\n        /* \"#utility.yul\":15641:15650   */\n      dup2\n        /* \"#utility.yul\":15635:15639   */\n      dup2\n        /* \"#utility.yul\":15631:15651   */\n      sub\n        /* \"#utility.yul\":15627:15628   */\n      0x00\n        /* \"#utility.yul\":15616:15625   */\n      dup4\n        /* \"#utility.yul\":15612:15629   */\n      add\n        /* \"#utility.yul\":15605:15652   */\n      mstore\n        /* \"#utility.yul\":15669:15800   */\n      tag_523\n        /* \"#utility.yul\":15795:15799   */\n      dup2\n        /* \"#utility.yul\":15669:15800   */\n      tag_460\n      jump\t// in\n    tag_523:\n        /* \"#utility.yul\":15661:15800   */\n      swap1\n      pop\n        /* \"#utility.yul\":15559:15807   */\n      swap2\n      swap1\n      pop\n      jump\t// out\n        /* \"#utility.yul\":15813:16232   */\n    tag_211:\n      0x00\n        /* \"#utility.yul\":16017:16019   */\n      0x20\n        /* \"#utility.yul\":16006:16015   */\n      dup3\n        /* \"#utility.yul\":16002:16020   */\n      add\n        /* \"#utility.yul\":15994:16020   */\n      swap1\n      pop\n        /* \"#utility.yul\":16066:16075   */\n      dup2\n        /* \"#utility.yul\":16060:16064   */\n      dup2\n        /* \"#utility.yul\":16056:16076   */\n      sub\n        /* \"#utility.yul\":16052:16053   */\n      0x00\n        /* \"#utility.yul\":16041:16050   */\n      dup4\n        /* \"#utility.yul\":16037:16054   */\n      add\n        /* \"#utility.yul\":16030:16077   */\n      mstore\n        /* \"#utility.yul\":16094:16225   */\n      tag_525\n        /* \"#utility.yul\":16220:16224   */\n      dup2\n        /* \"#utility.yul\":16094:16225   */\n      tag_463\n      jump\t// in\n    tag_525:\n        /* \"#utility.yul\":16086:16225   */\n      swap1\n      pop\n        /* \"#utility.yul\":15984:16232   */\n      swap2\n      swap1\n      pop\n      jump\t// out\n        /* \"#utility.yul\":16238:16657   */\n    tag_232:\n      0x00\n        /* \"#utility.yul\":16442:16444   */\n      0x20\n        /* \"#utility.yul\":16431:16440   */\n      dup3\n        /* \"#utility.yul\":16427:16445   */\n      add\n        /* \"#utility.yul\":16419:16445   */\n      swap1\n      pop\n        /* \"#utility.yul\":16491:16500   */\n      dup2\n        /* \"#utility.yul\":16485:16489   */\n      dup2\n        /* \"#utility.yul\":16481:16501   */\n      sub\n        /* \"#utility.yul\":16477:16478   */\n      0x00\n        /* \"#utility.yul\":16466:16475   */\n      dup4\n        /* \"#utility.yul\":16462:16479   */\n      add\n        /* \"#utility.yul\":16455:16502   */\n      mstore\n        /* \"#utility.yul\":16519:16650   */\n      tag_527\n        /* \"#utility.yul\":16645:16649   */\n      dup2\n        /* \"#utility.yul\":16519:16650   */\n      tag_466\n      jump\t// in\n    tag_527:\n        /* \"#utility.yul\":16511:16650   */\n      swap1\n      pop\n        /* \"#utility.yul\":16409:16657   */\n      swap2\n      swap1\n      pop\n      jump\t// out\n        /* \"#utility.yul\":16663:17082   */\n    tag_172:\n      0x00\n        /* \"#utility.yul\":16867:16869   */\n      0x20\n        /* \"#utility.yul\":16856:16865   */\n      dup3\n        /* \"#utility.yul\":16852:16870   */\n      add\n        /* \"#utility.yul\":16844:16870   */\n      swap1\n      pop\n        /* \"#utility.yul\":16916:16925   */\n      dup2\n        /* \"#utility.yul\":16910:16914   */\n      dup2\n        /* \"#utility.yul\":16906:16926   */\n      sub\n        /* \"#utility.yul\":16902:16903   */\n      0x00\n        /* \"#utility.yul\":16891:16900   */\n      dup4\n        /* \"#utility.yul\":16887:16904   */\n      add\n        /* \"#utility.yul\":16880:16927   */\n      mstore\n        /* \"#utility.yul\":16944:17075   */\n      tag_529\n        /* \"#utility.yul\":17070:17074   */\n      dup2\n        /* \"#utility.yul\":16944:17075   */\n      tag_469\n      jump\t// in\n    tag_529:\n        /* \"#utility.yul\":16936:17075   */\n      swap1\n      pop\n        /* \"#utility.yul\":16834:17082   */\n      swap2\n      swap1\n      pop\n      jump\t// out\n        /* \"#utility.yul\":17088:17507   */\n    tag_168:\n      0x00\n        /* \"#utility.yul\":17292:17294   */\n      0x20\n        /* \"#utility.yul\":17281:17290   */\n      dup3\n        /* \"#utility.yul\":17277:17295   */\n      add\n        /* \"#utility.yul\":17269:17295   */\n      swap1\n      pop\n        /* \"#utility.yul\":17341:17350   */\n      dup2\n        /* \"#utility.yul\":17335:17339   */\n      dup2\n        /* \"#utility.yul\":17331:17351   */\n      sub\n        /* \"#utility.yul\":17327:17328   */\n      0x00\n        /* \"#utility.yul\":17316:17325   */\n      dup4\n        /* \"#utility.yul\":17312:17329   */\n      add\n        /* \"#utility.yul\":17305:17352   */\n      mstore\n        /* \"#utility.yul\":17369:17500   */\n      tag_531\n        /* \"#utility.yul\":17495:17499   */\n      dup2\n        /* \"#utility.yul\":17369:17500   */\n      tag_472\n      jump\t// in\n    tag_531:\n        /* \"#utility.yul\":17361:17500   */\n      swap1\n      pop\n        /* \"#utility.yul\":17259:17507   */\n      swap2\n      swap1\n      pop\n      jump\t// out\n        /* \"#utility.yul\":17513:17932   */\n    tag_316:\n      0x00\n        /* \"#utility.yul\":17717:17719   */\n      0x20\n        /* \"#utility.yul\":17706:17715   */\n      dup3\n        /* \"#utility.yul\":17702:17720   */\n      add\n        /* \"#utility.yul\":17694:17720   */\n      swap1\n      pop\n        /* \"#utility.yul\":17766:17775   */\n      dup2\n        /* \"#utility.yul\":17760:17764   */\n      dup2\n        /* \"#utility.yul\":17756:17776   */\n      sub\n        /* \"#utility.yul\":17752:17753   */\n      0x00\n        /* \"#utility.yul\":17741:17750   */\n      dup4\n        /* \"#utility.yul\":17737:17754   */\n      add\n        /* \"#utility.yul\":17730:17777   */\n      mstore\n        /* \"#utility.yul\":17794:17925   */\n      tag_533\n        /* \"#utility.yul\":17920:17924   */\n      dup2\n        /* \"#utility.yul\":17794:17925   */\n      tag_475\n      jump\t// in\n    tag_533:\n        /* \"#utility.yul\":17786:17925   */\n      swap1\n      pop\n        /* \"#utility.yul\":17684:17932   */\n      swap2\n      swap1\n      pop\n      jump\t// out\n        /* \"#utility.yul\":17938:18357   */\n    tag_214:\n      0x00\n        /* \"#utility.yul\":18142:18144   */\n      0x20\n        /* \"#utility.yul\":18131:18140   */\n      dup3\n        /* \"#utility.yul\":18127:18145   */\n      add\n        /* \"#utility.yul\":18119:18145   */\n      swap1\n      pop\n        /* \"#utility.yul\":18191:18200   */\n      dup2\n        /* \"#utility.yul\":18185:18189   */\n      dup2\n        /* \"#utility.yul\":18181:18201   */\n      sub\n        /* \"#utility.yul\":18177:18178   */\n      0x00\n        /* \"#utility.yul\":18166:18175   */\n      dup4\n        /* \"#utility.yul\":18162:18179   */\n      add\n        /* \"#utility.yul\":18155:18202   */\n      mstore\n        /* \"#utility.yul\":18219:18350   */\n      tag_535\n        /* \"#utility.yul\":18345:18349   */\n      dup2\n        /* \"#utility.yul\":18219:18350   */\n      tag_478\n      jump\t// in\n    tag_535:\n        /* \"#utility.yul\":18211:18350   */\n      swap1\n      pop\n        /* \"#utility.yul\":18109:18357   */\n      swap2\n      swap1\n      pop\n      jump\t// out\n        /* \"#utility.yul\":18363:18782   */\n    tag_150:\n      0x00\n        /* \"#utility.yul\":18567:18569   */\n      0x20\n        /* \"#utility.yul\":18556:18565   */\n      dup3\n        /* \"#utility.yul\":18552:18570   */\n      add\n        /* \"#utility.yul\":18544:18570   */\n      swap1\n      pop\n        /* \"#utility.yul\":18616:18625   */\n      dup2\n        /* \"#utility.yul\":18610:18614   */\n      dup2\n        /* \"#utility.yul\":18606:18626   */\n      sub\n        /* \"#utility.yul\":18602:18603   */\n      0x00\n        /* \"#utility.yul\":18591:18600   */\n      dup4\n        /* \"#utility.yul\":18587:18604   */\n      add\n        /* \"#utility.yul\":18580:18627   */\n      mstore\n        /* \"#utility.yul\":18644:18775   */\n      tag_537\n        /* \"#utility.yul\":18770:18774   */\n      dup2\n        /* \"#utility.yul\":18644:18775   */\n      tag_481\n      jump\t// in\n    tag_537:\n        /* \"#utility.yul\":18636:18775   */\n      swap1\n      pop\n        /* \"#utility.yul\":18534:18782   */\n      swap2\n      swap1\n      pop\n      jump\t// out\n        /* \"#utility.yul\":18788:19207   */\n    tag_131:\n      0x00\n        /* \"#utility.yul\":18992:18994   */\n      0x20\n        /* \"#utility.yul\":18981:18990   */\n      dup3\n        /* \"#utility.yul\":18977:18995   */\n      add\n        /* \"#utility.yul\":18969:18995   */\n      swap1\n      pop\n        /* \"#utility.yul\":19041:19050   */\n      dup2\n        /* \"#utility.yul\":19035:19039   */\n      dup2\n        /* \"#utility.yul\":19031:19051   */\n      sub\n        /* \"#utility.yul\":19027:19028   */\n      0x00\n        /* \"#utility.yul\":19016:19025   */\n      dup4\n        /* \"#utility.yul\":19012:19029   */\n      add\n        /* \"#utility.yul\":19005:19052   */\n      mstore\n        /* \"#utility.yul\":19069:19200   */\n      tag_539\n        /* \"#utility.yul\":19195:19199   */\n      dup2\n        /* \"#utility.yul\":19069:19200   */\n      tag_484\n      jump\t// in\n    tag_539:\n        /* \"#utility.yul\":19061:19200   */\n      swap1\n      pop\n        /* \"#utility.yul\":18959:19207   */\n      swap2\n      swap1\n      pop\n      jump\t// out\n        /* \"#utility.yul\":19213:19632   */\n    tag_146:\n      0x00\n        /* \"#utility.yul\":19417:19419   */\n      0x20\n        /* \"#utility.yul\":19406:19415   */\n      dup3\n        /* \"#utility.yul\":19402:19420   */\n      add\n        /* \"#utility.yul\":19394:19420   */\n      swap1\n      pop\n        /* \"#utility.yul\":19466:19475   */\n      dup2\n        /* \"#utility.yul\":19460:19464   */\n      dup2\n        /* \"#utility.yul\":19456:19476   */\n      sub\n        /* \"#utility.yul\":19452:19453   */\n      0x00\n        /* \"#utility.yul\":19441:19450   */\n      dup4\n        /* \"#utility.yul\":19437:19454   */\n      add\n        /* \"#utility.yul\":19430:19477   */\n      mstore\n        /* \"#utility.yul\":19494:19625   */\n      tag_541\n        /* \"#utility.yul\":19620:19624   */\n      dup2\n        /* \"#utility.yul\":19494:19625   */\n      tag_487\n      jump\t// in\n    tag_541:\n        /* \"#utility.yul\":19486:19625   */\n      swap1\n      pop\n        /* \"#utility.yul\":19384:19632   */\n      swap2\n      swap1\n      pop\n      jump\t// out\n        /* \"#utility.yul\":19638:20057   */\n    tag_197:\n      0x00\n        /* \"#utility.yul\":19842:19844   */\n      0x20\n        /* \"#utility.yul\":19831:19840   */\n      dup3\n        /* \"#utility.yul\":19827:19845   */\n      add\n        /* \"#utility.yul\":19819:19845   */\n      swap1\n      pop\n        /* \"#utility.yul\":19891:19900   */\n      dup2\n        /* \"#utility.yul\":19885:19889   */\n      dup2\n        /* \"#utility.yul\":19881:19901   */\n      sub\n        /* \"#utility.yul\":19877:19878   */\n      0x00\n        /* \"#utility.yul\":19866:19875   */\n      dup4\n        /* \"#utility.yul\":19862:19879   */\n      add\n        /* \"#utility.yul\":19855:19902   */\n      mstore\n        /* \"#utility.yul\":19919:20050   */\n      tag_543\n        /* \"#utility.yul\":20045:20049   */\n      dup2\n        /* \"#utility.yul\":19919:20050   */\n      tag_490\n      jump\t// in\n    tag_543:\n        /* \"#utility.yul\":19911:20050   */\n      swap1\n      pop\n        /* \"#utility.yul\":19809:20057   */\n      swap2\n      swap1\n      pop\n      jump\t// out\n        /* \"#utility.yul\":20063:20285   */\n    tag_66:\n      0x00\n        /* \"#utility.yul\":20194:20196   */\n      0x20\n        /* \"#utility.yul\":20183:20192   */\n      dup3\n        /* \"#utility.yul\":20179:20197   */\n      add\n        /* \"#utility.yul\":20171:20197   */\n      swap1\n      pop\n        /* \"#utility.yul\":20207:20278   */\n      tag_545\n        /* \"#utility.yul\":20275:20276   */\n      0x00\n        /* \"#utility.yul\":20264:20273   */\n      dup4\n        /* \"#utility.yul\":20260:20277   */\n      add\n        /* \"#utility.yul\":20251:20257   */\n      dup5\n        /* \"#utility.yul\":20207:20278   */\n      tag_499\n      jump\t// in\n    tag_545:\n        /* \"#utility.yul\":20161:20285   */\n      swap3\n      swap2\n      pop\n      pop\n      jump\t// out\n        /* \"#utility.yul\":20291:20574   */\n    tag_346:\n      0x00\n        /* \"#utility.yul\":20357:20359   */\n      0x40\n        /* \"#utility.yul\":20351:20360   */\n      mload\n        /* \"#utility.yul\":20341:20360   */\n      swap1\n      pop\n        /* \"#utility.yul\":20399:20403   */\n      dup2\n        /* \"#utility.yul\":20391:20397   */\n      dup2\n        /* \"#utility.yul\":20387:20404   */\n      add\n        /* \"#utility.yul\":20506:20512   */\n      dup2\n        /* \"#utility.yul\":20494:20504   */\n      dup2\n        /* \"#utility.yul\":20491:20513   */\n      lt\n        /* \"#utility.yul\":20470:20488   */\n      0xffffffffffffffff\n        /* \"#utility.yul\":20458:20468   */\n      dup3\n        /* \"#utility.yul\":20455:20489   */\n      gt\n        /* \"#utility.yul\":20452:20514   */\n      or\n        /* \"#utility.yul\":20449:20451   */\n      iszero\n      tag_547\n      jumpi\n        /* \"#utility.yul\":20517:20535   */\n      tag_548\n      tag_549\n      jump\t// in\n    tag_548:\n        /* \"#utility.yul\":20449:20451   */\n    tag_547:\n        /* \"#utility.yul\":20557:20567   */\n      dup1\n        /* \"#utility.yul\":20553:20555   */\n      0x40\n        /* \"#utility.yul\":20546:20568   */\n      mstore\n        /* \"#utility.yul\":20331:20574   */\n      pop\n      swap2\n      swap1\n      pop\n      jump\t// out\n        /* \"#utility.yul\":20580:20912   */\n    tag_345:\n      0x00\n        /* \"#utility.yul\":20732:20750   */\n      0xffffffffffffffff\n        /* \"#utility.yul\":20724:20730   */\n      dup3\n        /* \"#utility.yul\":20721:20751   */\n      gt\n        /* \"#utility.yul\":20718:20720   */\n      iszero\n      tag_551\n      jumpi\n        /* \"#utility.yul\":20754:20772   */\n      tag_552\n      tag_549\n      jump\t// in\n    tag_552:\n        /* \"#utility.yul\":20718:20720   */\n    tag_551:\n        /* \"#utility.yul\":20839:20843   */\n      0x1f\n        /* \"#utility.yul\":20835:20844   */\n      not\n        /* \"#utility.yul\":20828:20832   */\n      0x1f\n        /* \"#utility.yul\":20820:20826   */\n      dup4\n        /* \"#utility.yul\":20816:20833   */\n      add\n        /* \"#utility.yul\":20812:20845   */\n      and\n        /* \"#utility.yul\":20804:20845   */\n      swap1\n      pop\n        /* \"#utility.yul\":20900:20904   */\n      0x20\n        /* \"#utility.yul\":20894:20898   */\n      dup2\n        /* \"#utility.yul\":20890:20905   */\n      add\n        /* \"#utility.yul\":20882:20905   */\n      swap1\n      pop\n        /* \"#utility.yul\":20647:20912   */\n      swap2\n      swap1\n      pop\n      jump\t// out\n        /* \"#utility.yul\":20918:21050   */\n    tag_398:\n      0x00\n        /* \"#utility.yul\":21008:21011   */\n      dup2\n        /* \"#utility.yul\":21000:21011   */\n      swap1\n      pop\n        /* \"#utility.yul\":21038:21042   */\n      0x20\n        /* \"#utility.yul\":21033:21036   */\n      dup3\n        /* \"#utility.yul\":21029:21043   */\n      add\n        /* \"#utility.yul\":21021:21043   */\n      swap1\n      pop\n        /* \"#utility.yul\":20990:21050   */\n      swap2\n      swap1\n      pop\n      jump\t// out\n        /* \"#utility.yul\":21056:21210   */\n    tag_412:\n      0x00\n        /* \"#utility.yul\":21168:21171   */\n      dup2\n        /* \"#utility.yul\":21160:21171   */\n      swap1\n      pop\n        /* \"#utility.yul\":21198:21202   */\n      0x20\n        /* \"#utility.yul\":21193:21196   */\n      dup3\n        /* \"#utility.yul\":21189:21203   */\n      add\n        /* \"#utility.yul\":21181:21203   */\n      swap1\n      pop\n        /* \"#utility.yul\":21150:21210   */\n      swap2\n      swap1\n      pop\n      jump\t// out\n        /* \"#utility.yul\":21216:21348   */\n    tag_426:\n      0x00\n        /* \"#utility.yul\":21306:21309   */\n      dup2\n        /* \"#utility.yul\":21298:21309   */\n      swap1\n      pop\n        /* \"#utility.yul\":21336:21340   */\n      0x20\n        /* \"#utility.yul\":21331:21334   */\n      dup3\n        /* \"#utility.yul\":21327:21341   */\n      add\n        /* \"#utility.yul\":21319:21341   */\n      swap1\n      pop\n        /* \"#utility.yul\":21288:21348   */\n      swap2\n      swap1\n      pop\n      jump\t// out\n        /* \"#utility.yul\":21354:21468   */\n    tag_394:\n      0x00\n        /* \"#utility.yul\":21455:21460   */\n      dup2\n        /* \"#utility.yul\":21449:21461   */\n      mload\n        /* \"#utility.yul\":21439:21461   */\n      swap1\n      pop\n        /* \"#utility.yul\":21428:21468   */\n      swap2\n      swap1\n      pop\n      jump\t// out\n        /* \"#utility.yul\":21474:21610   */\n    tag_408:\n      0x00\n        /* \"#utility.yul\":21597:21602   */\n      dup2\n        /* \"#utility.yul\":21591:21603   */\n      mload\n        /* \"#utility.yul\":21581:21603   */\n      swap1\n      pop\n        /* \"#utility.yul\":21570:21610   */\n      swap2\n      swap1\n      pop\n      jump\t// out\n        /* \"#utility.yul\":21616:21730   */\n    tag_422:\n      0x00\n        /* \"#utility.yul\":21717:21722   */\n      dup2\n        /* \"#utility.yul\":21711:21723   */\n      mload\n        /* \"#utility.yul\":21701:21723   */\n      swap1\n      pop\n        /* \"#utility.yul\":21690:21730   */\n      swap2\n      swap1\n      pop\n      jump\t// out\n        /* \"#utility.yul\":21736:21835   */\n    tag_440:\n      0x00\n        /* \"#utility.yul\":21822:21827   */\n      dup2\n        /* \"#utility.yul\":21816:21828   */\n      mload\n        /* \"#utility.yul\":21806:21828   */\n      swap1\n      pop\n        /* \"#utility.yul\":21795:21835   */\n      swap2\n      swap1\n      pop\n      jump\t// out\n        /* \"#utility.yul\":21841:21954   */\n    tag_404:\n      0x00\n        /* \"#utility.yul\":21943:21947   */\n      0x20\n        /* \"#utility.yul\":21938:21941   */\n      dup3\n        /* \"#utility.yul\":21934:21948   */\n      add\n        /* \"#utility.yul\":21926:21948   */\n      swap1\n      pop\n        /* \"#utility.yul\":21916:21954   */\n      swap2\n      swap1\n      pop\n      jump\t// out\n        /* \"#utility.yul\":21960:22095   */\n    tag_418:\n      0x00\n        /* \"#utility.yul\":22084:22088   */\n      0x20\n        /* \"#utility.yul\":22079:22082   */\n      dup3\n        /* \"#utility.yul\":22075:22089   */\n      add\n        /* \"#utility.yul\":22067:22089   */\n      swap1\n      pop\n        /* \"#utility.yul\":22057:22095   */\n      swap2\n      swap1\n      pop\n      jump\t// out\n        /* \"#utility.yul\":22101:22214   */\n    tag_432:\n      0x00\n        /* \"#utility.yul\":22203:22207   */\n      0x20\n        /* \"#utility.yul\":22198:22201   */\n      dup3\n        /* \"#utility.yul\":22194:22208   */\n      add\n        /* \"#utility.yul\":22186:22208   */\n      swap1\n      pop\n        /* \"#utility.yul\":22176:22214   */\n      swap2\n      swap1\n      pop\n      jump\t// out\n        /* \"#utility.yul\":22220:22404   */\n    tag_396:\n      0x00\n        /* \"#utility.yul\":22353:22359   */\n      dup3\n        /* \"#utility.yul\":22348:22351   */\n      dup3\n        /* \"#utility.yul\":22341:22360   */\n      mstore\n        /* \"#utility.yul\":22393:22397   */\n      0x20\n        /* \"#utility.yul\":22388:22391   */\n      dup3\n        /* \"#utility.yul\":22384:22398   */\n      add\n        /* \"#utility.yul\":22369:22398   */\n      swap1\n      pop\n        /* \"#utility.yul\":22331:22404   */\n      swap3\n      swap2\n      pop\n      pop\n      jump\t// out\n        /* \"#utility.yul\":22410:22616   */\n    tag_410:\n      0x00\n        /* \"#utility.yul\":22565:22571   */\n      dup3\n        /* \"#utility.yul\":22560:22563   */\n      dup3\n        /* \"#utility.yul\":22553:22572   */\n      mstore\n        /* \"#utility.yul\":22605:22609   */\n      0x20\n        /* \"#utility.yul\":22600:22603   */\n      dup3\n        /* \"#utility.yul\":22596:22610   */\n      add\n        /* \"#utility.yul\":22581:22610   */\n      swap1\n      pop\n        /* \"#utility.yul\":22543:22616   */\n      swap3\n      swap2\n      pop\n      pop\n      jump\t// out\n        /* \"#utility.yul\":22622:22806   */\n    tag_424:\n      0x00\n        /* \"#utility.yul\":22755:22761   */\n      dup3\n        /* \"#utility.yul\":22750:22753   */\n      dup3\n        /* \"#utility.yul\":22743:22762   */\n      mstore\n        /* \"#utility.yul\":22795:22799   */\n      0x20\n        /* \"#utility.yul\":22790:22793   */\n      dup3\n        /* \"#utility.yul\":22786:22800   */\n      add\n        /* \"#utility.yul\":22771:22800   */\n      swap1\n      pop\n        /* \"#utility.yul\":22733:22806   */\n      swap3\n      swap2\n      pop\n      pop\n      jump\t// out\n        /* \"#utility.yul\":22812:22971   */\n    tag_442:\n      0x00\n        /* \"#utility.yul\":22920:22926   */\n      dup3\n        /* \"#utility.yul\":22915:22918   */\n      dup3\n        /* \"#utility.yul\":22908:22927   */\n      mstore\n        /* \"#utility.yul\":22960:22964   */\n      0x20\n        /* \"#utility.yul\":22955:22958   */\n      dup3\n        /* \"#utility.yul\":22951:22965   */\n      add\n        /* \"#utility.yul\":22936:22965   */\n      swap1\n      pop\n        /* \"#utility.yul\":22898:22971   */\n      swap3\n      swap2\n      pop\n      pop\n      jump\t// out\n        /* \"#utility.yul\":22977:23146   */\n    tag_451:\n      0x00\n        /* \"#utility.yul\":23095:23101   */\n      dup3\n        /* \"#utility.yul\":23090:23093   */\n      dup3\n        /* \"#utility.yul\":23083:23102   */\n      mstore\n        /* \"#utility.yul\":23135:23139   */\n      0x20\n        /* \"#utility.yul\":23130:23133   */\n      dup3\n        /* \"#utility.yul\":23126:23140   */\n      add\n        /* \"#utility.yul\":23111:23140   */\n      swap1\n      pop\n        /* \"#utility.yul\":23073:23146   */\n      swap3\n      swap2\n      pop\n      pop\n      jump\t// out\n        /* \"#utility.yul\":23152:23457   */\n    tag_221:\n      0x00\n        /* \"#utility.yul\":23211:23231   */\n      tag_569\n        /* \"#utility.yul\":23229:23230   */\n      dup3\n        /* \"#utility.yul\":23211:23231   */\n      tag_498\n      jump\t// in\n    tag_569:\n        /* \"#utility.yul\":23206:23231   */\n      swap2\n      pop\n        /* \"#utility.yul\":23245:23265   */\n      tag_570\n        /* \"#utility.yul\":23263:23264   */\n      dup4\n        /* \"#utility.yul\":23245:23265   */\n      tag_498\n      jump\t// in\n    tag_570:\n        /* \"#utility.yul\":23240:23265   */\n      swap3\n      pop\n        /* \"#utility.yul\":23399:23400   */\n      dup3\n        /* \"#utility.yul\":23331:23397   */\n      0xffffffffffffffffffffffffffffffffffffffffffffffffffffffffffffffff\n        /* \"#utility.yul\":23327:23401   */\n      sub\n        /* \"#utility.yul\":23324:23325   */\n      dup3\n        /* \"#utility.yul\":23321:23402   */\n      gt\n        /* \"#utility.yul\":23318:23320   */\n      iszero\n      tag_571\n      jumpi\n        /* \"#utility.yul\":23405:23423   */\n      tag_572\n      tag_573\n      jump\t// in\n    tag_572:\n        /* \"#utility.yul\":23318:23320   */\n    tag_571:\n        /* \"#utility.yul\":23449:23450   */\n      dup3\n        /* \"#utility.yul\":23446:23447   */\n      dup3\n        /* \"#utility.yul\":23442:23451   */\n      add\n        /* \"#utility.yul\":23435:23451   */\n      swap1\n      pop\n        /* \"#utility.yul\":23196:23457   */\n      swap3\n      swap2\n      pop\n      pop\n      jump\t// out\n        /* \"#utility.yul\":23463:23648   */\n    tag_229:\n      0x00\n        /* \"#utility.yul\":23520:23540   */\n      tag_575\n        /* \"#utility.yul\":23538:23539   */\n      dup3\n        /* \"#utility.yul\":23520:23540   */\n      tag_498\n      jump\t// in\n    tag_575:\n        /* \"#utility.yul\":23515:23540   */\n      swap2\n      pop\n        /* \"#utility.yul\":23554:23574   */\n      tag_576\n        /* \"#utility.yul\":23572:23573   */\n      dup4\n        /* \"#utility.yul\":23554:23574   */\n      tag_498\n      jump\t// in\n    tag_576:\n        /* \"#utility.yul\":23549:23574   */\n      swap3\n      pop\n        /* \"#utility.yul\":23593:23594   */\n      dup3\n        /* \"#utility.yul\":23583:23585   */\n      tag_577\n      jumpi\n        /* \"#utility.yul\":23598:23616   */\n      tag_578\n      tag_579\n      jump\t// in\n    tag_578:\n        /* \"#utility.yul\":23583:23585   */\n    tag_577:\n        /* \"#utility.yul\":23640:23641   */\n      dup3\n        /* \"#utility.yul\":23637:23638   */\n      dup3\n        /* \"#utility.yul\":23633:23642   */\n      div\n        /* \"#utility.yul\":23628:23642   */\n      swap1\n      pop\n        /* \"#utility.yul\":23505:23648   */\n      swap3\n      swap2\n      pop\n      pop\n      jump\t// out\n        /* \"#utility.yul\":23654:24002   */\n    tag_227:\n      0x00\n        /* \"#utility.yul\":23717:23737   */\n      tag_581\n        /* \"#utility.yul\":23735:23736   */\n      dup3\n        /* \"#utility.yul\":23717:23737   */\n      tag_498\n      jump\t// in\n    tag_581:\n        /* \"#utility.yul\":23712:23737   */\n      swap2\n      pop\n        /* \"#utility.yul\":23751:23771   */\n      tag_582\n        /* \"#utility.yul\":23769:23770   */\n      dup4\n        /* \"#utility.yul\":23751:23771   */\n      tag_498\n      jump\t// in\n    tag_582:\n        /* \"#utility.yul\":23746:23771   */\n      swap3\n      pop\n        /* \"#utility.yul\":23939:23940   */\n      dup2\n        /* \"#utility.yul\":23871:23937   */\n      0xffffffffffffffffffffffffffffffffffffffffffffffffffffffffffffffff\n        /* \"#utility.yul\":23867:23941   */\n      div\n        /* \"#utility.yul\":23864:23865   */\n      dup4\n        /* \"#utility.yul\":23861:23942   */\n      gt\n        /* \"#utility.yul\":23856:23857   */\n      dup3\n        /* \"#utility.yul\":23849:23858   */\n      iszero\n        /* \"#utility.yul\":23842:23859   */\n      iszero\n        /* \"#utility.yul\":23838:23943   */\n      and\n        /* \"#utility.yul\":23835:23837   */\n      iszero\n      tag_583\n      jumpi\n        /* \"#utility.yul\":23946:23964   */\n      tag_584\n      tag_573\n      jump\t// in\n    tag_584:\n        /* \"#utility.yul\":23835:23837   */\n    tag_583:\n        /* \"#utility.yul\":23994:23995   */\n      dup3\n        /* \"#utility.yul\":23991:23992   */\n      dup3\n        /* \"#utility.yul\":23987:23996   */\n      mul\n        /* \"#utility.yul\":23976:23996   */\n      swap1\n      pop\n        /* \"#utility.yul\":23702:24002   */\n      swap3\n      swap2\n      pop\n      pop\n      jump\t// out\n        /* \"#utility.yul\":24008:24104   */\n    tag_387:\n      0x00\n        /* \"#utility.yul\":24074:24098   */\n      tag_586\n        /* \"#utility.yul\":24092:24097   */\n      dup3\n        /* \"#utility.yul\":24074:24098   */\n      tag_587\n      jump\t// in\n    tag_586:\n        /* \"#utility.yul\":24063:24098   */\n      swap1\n      pop\n        /* \"#utility.yul\":24053:24104   */\n      swap2\n      swap1\n      pop\n      jump\t// out\n        /* \"#utility.yul\":24110:24200   */\n    tag_436:\n      0x00\n        /* \"#utility.yul\":24187:24192   */\n      dup2\n        /* \"#utility.yul\":24180:24193   */\n      iszero\n        /* \"#utility.yul\":24173:24194   */\n      iszero\n        /* \"#utility.yul\":24162:24194   */\n      swap1\n      pop\n        /* \"#utility.yul\":24152:24200   */\n      swap2\n      swap1\n      pop\n      jump\t// out\n        /* \"#utility.yul\":24206:24332   */\n    tag_587:\n      0x00\n        /* \"#utility.yul\":24283:24325   */\n      0xffffffffffffffffffffffffffffffffffffffff\n        /* \"#utility.yul\":24276:24281   */\n      dup3\n        /* \"#utility.yul\":24272:24326   */\n      and\n        /* \"#utility.yul\":24261:24326   */\n      swap1\n      pop\n        /* \"#utility.yul\":24251:24332   */\n      swap2\n      swap1\n      pop\n      jump\t// out\n        /* \"#utility.yul\":24338:24415   */\n    tag_498:\n      0x00\n        /* \"#utility.yul\":24404:24409   */\n      dup2\n        /* \"#utility.yul\":24393:24409   */\n      swap1\n      pop\n        /* \"#utility.yul\":24383:24415   */\n      swap2\n      swap1\n      pop\n      jump\t// out\n        /* \"#utility.yul\":24421:24575   */\n    tag_349:\n        /* \"#utility.yul\":24505:24511   */\n      dup3\n        /* \"#utility.yul\":24500:24503   */\n      dup2\n        /* \"#utility.yul\":24495:24498   */\n      dup4\n        /* \"#utility.yul\":24482:24512   */\n      calldatacopy\n        /* \"#utility.yul\":24567:24568   */\n      0x00\n        /* \"#utility.yul\":24558:24564   */\n      dup4\n        /* \"#utility.yul\":24553:24556   */\n      dup4\n        /* \"#utility.yul\":24549:24565   */\n      add\n        /* \"#utility.yul\":24542:24569   */\n      mstore\n        /* \"#utility.yul\":24472:24575   */\n      pop\n      pop\n      pop\n      jump\t// out\n        /* \"#utility.yul\":24581:24888   */\n    tag_444:\n        /* \"#utility.yul\":24649:24650   */\n      0x00\n        /* \"#utility.yul\":24659:24772   */\n    tag_593:\n        /* \"#utility.yul\":24673:24679   */\n      dup4\n        /* \"#utility.yul\":24670:24671   */\n      dup2\n        /* \"#utility.yul\":24667:24680   */\n      lt\n        /* \"#utility.yul\":24659:24772   */\n      iszero\n      tag_595\n      jumpi\n        /* \"#utility.yul\":24758:24759   */\n      dup1\n        /* \"#utility.yul\":24753:24756   */\n      dup3\n        /* \"#utility.yul\":24749:24760   */\n      add\n        /* \"#utility.yul\":24743:24761   */\n      mload\n        /* \"#utility.yul\":24739:24740   */\n      dup2\n        /* \"#utility.yul\":24734:24737   */\n      dup5\n        /* \"#utility.yul\":24730:24741   */\n      add\n        /* \"#utility.yul\":24723:24762   */\n      mstore\n        /* \"#utility.yul\":24695:24697   */\n      0x20\n        /* \"#utility.yul\":24692:24693   */\n      dup2\n        /* \"#utility.yul\":24688:24698   */\n      add\n        /* \"#utility.yul\":24683:24698   */\n      swap1\n      pop\n        /* \"#utility.yul\":24659:24772   */\n      jump(tag_593)\n    tag_595:\n        /* \"#utility.yul\":24790:24796   */\n      dup4\n        /* \"#utility.yul\":24787:24788   */\n      dup2\n        /* \"#utility.yul\":24784:24797   */\n      gt\n        /* \"#utility.yul\":24781:24783   */\n      iszero\n      tag_596\n      jumpi\n        /* \"#utility.yul\":24870:24871   */\n      0x00\n        /* \"#utility.yul\":24861:24867   */\n      dup5\n        /* \"#utility.yul\":24856:24859   */\n      dup5\n        /* \"#utility.yul\":24852:24868   */\n      add\n        /* \"#utility.yul\":24845:24872   */\n      mstore\n        /* \"#utility.yul\":24781:24783   */\n    tag_596:\n        /* \"#utility.yul\":24630:24888   */\n      pop\n      pop\n      pop\n      pop\n      jump\t// out\n        /* \"#utility.yul\":24894:25214   */\n    tag_133:\n      0x00\n        /* \"#utility.yul\":24975:24976   */\n      0x02\n        /* \"#utility.yul\":24969:24973   */\n      dup3\n        /* \"#utility.yul\":24965:24977   */\n      div\n        /* \"#utility.yul\":24955:24977   */\n      swap1\n      pop\n        /* \"#utility.yul\":25022:25023   */\n      0x01\n        /* \"#utility.yul\":25016:25020   */\n      dup3\n        /* \"#utility.yul\":25012:25024   */\n      and\n        /* \"#utility.yul\":25043:25061   */\n      dup1\n        /* \"#utility.yul\":25033:25035   */\n      tag_598\n      jumpi\n        /* \"#utility.yul\":25099:25103   */\n      0x7f\n        /* \"#utility.yul\":25091:25097   */\n      dup3\n        /* \"#utility.yul\":25087:25104   */\n      and\n        /* \"#utility.yul\":25077:25104   */\n      swap2\n      pop\n        /* \"#utility.yul\":25033:25035   */\n    tag_598:\n        /* \"#utility.yul\":25161:25163   */\n      0x20\n        /* \"#utility.yul\":25153:25159   */\n      dup3\n        /* \"#utility.yul\":25150:25164   */\n      lt\n        /* \"#utility.yul\":25130:25148   */\n      dup2\n        /* \"#utility.yul\":25127:25165   */\n      eq\n        /* \"#utility.yul\":25124:25126   */\n      iszero\n      tag_599\n      jumpi\n        /* \"#utility.yul\":25180:25198   */\n      tag_600\n      tag_601\n      jump\t// in\n    tag_600:\n        /* \"#utility.yul\":25124:25126   */\n    tag_599:\n        /* \"#utility.yul\":24945:25214   */\n      pop\n      swap2\n      swap1\n      pop\n      jump\t// out\n        /* \"#utility.yul\":25220:25453   */\n    tag_190:\n      0x00\n        /* \"#utility.yul\":25282:25306   */\n      tag_603\n        /* \"#utility.yul\":25300:25305   */\n      dup3\n        /* \"#utility.yul\":25282:25306   */\n      tag_498\n      jump\t// in\n    tag_603:\n        /* \"#utility.yul\":25273:25306   */\n      swap2\n      pop\n        /* \"#utility.yul\":25328:25394   */\n      0xffffffffffffffffffffffffffffffffffffffffffffffffffffffffffffffff\n        /* \"#utility.yul\":25321:25326   */\n      dup3\n        /* \"#utility.yul\":25318:25395   */\n      eq\n        /* \"#utility.yul\":25315:25317   */\n      iszero\n      tag_604\n      jumpi\n        /* \"#utility.yul\":25398:25416   */\n      tag_605\n      tag_573\n      jump\t// in\n    tag_605:\n        /* \"#utility.yul\":25315:25317   */\n    tag_604:\n        /* \"#utility.yul\":25445:25446   */\n      0x01\n        /* \"#utility.yul\":25438:25443   */\n      dup3\n        /* \"#utility.yul\":25434:25447   */\n      add\n        /* \"#utility.yul\":25427:25447   */\n      swap1\n      pop\n        /* \"#utility.yul\":25263:25453   */\n      swap2\n      swap1\n      pop\n      jump\t// out\n        /* \"#utility.yul\":25459:25639   */\n    tag_573:\n        /* \"#utility.yul\":25507:25584   */\n      0x4e487b7100000000000000000000000000000000000000000000000000000000\n        /* \"#utility.yul\":25504:25505   */\n      0x00\n        /* \"#utility.yul\":25497:25585   */\n      mstore\n        /* \"#utility.yul\":25604:25608   */\n      0x11\n        /* \"#utility.yul\":25601:25602   */\n      0x04\n        /* \"#utility.yul\":25594:25609   */\n      mstore\n        /* \"#utility.yul\":25628:25632   */\n      0x24\n        /* \"#utility.yul\":25625:25626   */\n      0x00\n        /* \"#utility.yul\":25618:25633   */\n      revert\n        /* \"#utility.yul\":25645:25825   */\n    tag_579:\n        /* \"#utility.yul\":25693:25770   */\n      0x4e487b7100000000000000000000000000000000000000000000000000000000\n        /* \"#utility.yul\":25690:25691   */\n      0x00\n        /* \"#utility.yul\":25683:25771   */\n      mstore\n        /* \"#utility.yul\":25790:25794   */\n      0x12\n        /* \"#utility.yul\":25787:25788   */\n      0x04\n        /* \"#utility.yul\":25780:25795   */\n      mstore\n        /* \"#utility.yul\":25814:25818   */\n      0x24\n        /* \"#utility.yul\":25811:25812   */\n      0x00\n        /* \"#utility.yul\":25804:25819   */\n      revert\n        /* \"#utility.yul\":25831:26011   */\n    tag_601:\n        /* \"#utility.yul\":25879:25956   */\n      0x4e487b7100000000000000000000000000000000000000000000000000000000\n        /* \"#utility.yul\":25876:25877   */\n      0x00\n        /* \"#utility.yul\":25869:25957   */\n      mstore\n        /* \"#utility.yul\":25976:25980   */\n      0x22\n        /* \"#utility.yul\":25973:25974   */\n      0x04\n        /* \"#utility.yul\":25966:25981   */\n      mstore\n        /* \"#utility.yul\":26000:26004   */\n      0x24\n        /* \"#utility.yul\":25997:25998   */\n      0x00\n        /* \"#utility.yul\":25990:26005   */\n      revert\n        /* \"#utility.yul\":26017:26197   */\n    tag_549:\n        /* \"#utility.yul\":26065:26142   */\n      0x4e487b7100000000000000000000000000000000000000000000000000000000\n        /* \"#utility.yul\":26062:26063   */\n      0x00\n        /* \"#utility.yul\":26055:26143   */\n      mstore\n        /* \"#utility.yul\":26162:26166   */\n      0x41\n        /* \"#utility.yul\":26159:26160   */\n      0x04\n        /* \"#utility.yul\":26152:26167   */\n      mstore\n        /* \"#utility.yul\":26186:26190   */\n      0x24\n        /* \"#utility.yul\":26183:26184   */\n      0x00\n        /* \"#utility.yul\":26176:26191   */\n      revert\n        /* \"#utility.yul\":26203:26305   */\n    tag_446:\n      0x00\n        /* \"#utility.yul\":26295:26297   */\n      0x1f\n        /* \"#utility.yul\":26291:26298   */\n      not\n        /* \"#utility.yul\":26286:26288   */\n      0x1f\n        /* \"#utility.yul\":26279:26284   */\n      dup4\n        /* \"#utility.yul\":26275:26289   */\n      add\n        /* \"#utility.yul\":26271:26299   */\n      and\n        /* \"#utility.yul\":26261:26299   */\n      swap1\n      pop\n        /* \"#utility.yul\":26251:26305   */\n      swap2\n      swap1\n      pop\n      jump\t// out\n        /* \"#utility.yul\":26311:26433   */\n    tag_353:\n        /* \"#utility.yul\":26384:26408   */\n      tag_612\n        /* \"#utility.yul\":26402:26407   */\n      dup2\n        /* \"#utility.yul\":26384:26408   */\n      tag_387\n      jump\t// in\n    tag_612:\n        /* \"#utility.yul\":26377:26382   */\n      dup2\n        /* \"#utility.yul\":26374:26409   */\n      eq\n        /* \"#utility.yul\":26364:26366   */\n      tag_613\n      jumpi\n        /* \"#utility.yul\":26423:26424   */\n      0x00\n        /* \"#utility.yul\":26420:26421   */\n      dup1\n        /* \"#utility.yul\":26413:26425   */\n      revert\n        /* \"#utility.yul\":26364:26366   */\n    tag_613:\n        /* \"#utility.yul\":26354:26433   */\n      pop\n      jump\t// out\n        /* \"#utility.yul\":26439:26561   */\n    tag_361:\n        /* \"#utility.yul\":26512:26536   */\n      tag_615\n        /* \"#utility.yul\":26530:26535   */\n      dup2\n        /* \"#utility.yul\":26512:26536   */\n      tag_498\n      jump\t// in\n    tag_615:\n        /* \"#utility.yul\":26505:26510   */\n      dup2\n        /* \"#utility.yul\":26502:26537   */\n      eq\n        /* \"#utility.yul\":26492:26494   */\n      tag_616\n      jumpi\n        /* \"#utility.yul\":26551:26552   */\n      0x00\n        /* \"#utility.yul\":26548:26549   */\n      dup1\n        /* \"#utility.yul\":26541:26553   */\n      revert\n        /* \"#utility.yul\":26492:26494   */\n    tag_616:\n        /* \"#utility.yul\":26482:26561   */\n      pop\n      jump\t// out\n\n    auxdata: 0xa26469706673582212204e76a2690f9f2bba678fa1910d5fefdd604d4ad70a594d7fc96c1e5b2b36f8b564736f6c63430008000033\n}\n",
				"bytecode": {
					"linkReferences": {},
					"object": "60806040523480156200001157600080fd5b50336000806101000a81548173ffffffffffffffffffffffffffffffffffffffff021916908373ffffffffffffffffffffffffffffffffffffffff16021790555060018060003373ffffffffffffffffffffffffffffffffffffffff1673ffffffffffffffffffffffffffffffffffffffff16815260200190815260200160002060006101000a81548160ff0219169083151502179055506000600960006101000a81548160ff0219169083151502179055503373ffffffffffffffffffffffffffffffffffffffff167f235bc17e7930760029e9f4d860a2a8089976de5b381cf8380fc11c1d88a1113360016040516200010d91906200012c565b60405180910390a262000155565b620001268162000149565b82525050565b60006020820190506200014360008301846200011b565b92915050565b60008115159050919050565b61316e80620001656000396000f3fe608060405234801561001057600080fd5b50600436106101735760003560e01c806353358fc4116100de5780639d605d8711610097578063c22b6b9d11610071578063c22b6b9d14610472578063d51b9e93146104a2578063f140cf91146104d2578063f851a4401461050257610173565b80639d605d87146103f4578063a7771ee314610424578063a9a981a31461045457610173565b806353358fc41461032057806361cac4181461033c57806366a267a9146103465780636b991a18146103765780636c7f5767146103a65780636e008b35146103d657610173565b80632d345670116101305780632d3456701461027457806330a563471461029057806335bb3e16146102ae578063396b9ae0146102ca5780634a075de2146102e85780634a2a84c51461030457610173565b806309eef43e146101785780631aae9ff3146101a85780631e0efcf3146101c65780632436e06b146101f657806324d7806c146102265780632bc4a6e714610256575b600080fd5b610192600480360381019061018d9190612327565b610520565b60405161019f9190612af6565b60405180910390f35b6101b0610540565b6040516101bd9190612af6565b60405180910390f35b6101e060048036038101906101db9190612327565b610553565b6040516101ed9190612b11565b60405180910390f35b610210600480360381019061020b91906123a4565b61066c565b60405161021d9190612a60565b60405180910390f35b610240600480360381019061023b9190612327565b6106ab565b60405161024d9190612af6565b60405180910390f35b61025e6106cb565b60405161026b9190612a7b565b60405180910390f35b61028e60048036038101906102899190612327565b610759565b005b61029861091e565b6040516102a59190612d03565b60405180910390f35b6102c860048036038101906102c39190612327565b610928565b005b6102d2610a5d565b6040516102df9190612a7b565b60405180910390f35b61030260048036038101906102fd9190612350565b610aeb565b005b61031e60048036038101906103199190612350565b610d12565b005b61033a60048036038101906103359190612327565b610f3c565b005b610344611163565b005b610360600480360381019061035b9190612327565b61193f565b60405161036d9190612d03565b60405180910390f35b610390600480360381019061038b9190612327565b611957565b60405161039d9190612d03565b60405180910390f35b6103c060048036038101906103bb91906123a4565b6119e8565b6040516103cd9190612a60565b60405180910390f35b6103de611a27565b6040516103eb9190612ad4565b60405180910390f35b61040e60048036038101906104099190612327565b611cf6565b60405161041b9190612b11565b60405180910390f35b61043e60048036038101906104399190612327565b611d96565b60405161044b9190612af6565b60405180910390f35b61045c611e6b565b6040516104699190612d03565b60405180910390f35b61048c60048036038101906104879190612327565b611e71565b6040516104999190612b11565b60405180910390f35b6104bc60048036038101906104b79190612327565b61203f565b6040516104c99190612af6565b60405180910390f35b6104ec60048036038101906104e79190612327565b612114565b6040516104f99190612b11565b60405180910390f35b61050a6121b4565b6040516105179190612a60565b60405180910390f35b60076020528060005260406000206000915054906101000a900460ff1681565b600960009054906101000a900460ff1681565b606061055e8261203f565b61059d576040517f08c379a000000000000000000000000000000000000000000000000000000000815260040161059490612ca3565b60405180910390fd5b600460008373ffffffffffffffffffffffffffffffffffffffff1673ffffffffffffffffffffffffffffffffffffffff16815260200190815260200160002080546105e790612fc2565b80601f016020809104026020016040519081016040528092919081815260200182805461061390612fc2565b80156106605780601f1061063557610100808354040283529160200191610660565b820191906000526020600020905b81548152906001019060200180831161064357829003601f168201915b50505050509050919050565b6002818154811061067c57600080fd5b906000526020600020016000915054906101000a900473ffffffffffffffffffffffffffffffffffffffff1681565b60016020528060005260406000206000915054906101000a900460ff1681565b6060600280548060200260200160405190810160405280929190818152602001828054801561074f57602002820191906000526020600020905b8160009054906101000a900473ffffffffffffffffffffffffffffffffffffffff1673ffffffffffffffffffffffffffffffffffffffff1681526020019060010190808311610705575b5050505050905090565b600160003373ffffffffffffffffffffffffffffffffffffffff1673ffffffffffffffffffffffffffffffffffffffff16815260200190815260200160002060009054906101000a900460ff166107e5576040517f08c379a00000000000000000000000000000000000000000000000000000000081526004016107dc90612cc3565b60405180910390fd5b60008054906101000a900473ffffffffffffffffffffffffffffffffffffffff1673ffffffffffffffffffffffffffffffffffffffff168173ffffffffffffffffffffffffffffffffffffffff161415610874576040517f08c379a000000000000000000000000000000000000000000000000000000000815260040161086b90612c83565b60405180910390fd5b6000600160008373ffffffffffffffffffffffffffffffffffffffff1673ffffffffffffffffffffffffffffffffffffffff16815260200190815260200160002060006101000a81548160ff0219169083151502179055508073ffffffffffffffffffffffffffffffffffffffff167f235bc17e7930760029e9f4d860a2a8089976de5b381cf8380fc11c1d88a1113360006040516109139190612af6565b60405180910390a250565b6000600854905090565b600160003373ffffffffffffffffffffffffffffffffffffffff1673ffffffffffffffffffffffffffffffffffffffff16815260200190815260200160002060009054906101000a900460ff166109b4576040517f08c379a00000000000000000000000000000000000000000000000000000000081526004016109ab90612cc3565b60405180910390fd5b60018060008373ffffffffffffffffffffffffffffffffffffffff1673ffffffffffffffffffffffffffffffffffffffff16815260200190815260200160002060006101000a81548160ff0219169083151502179055508073ffffffffffffffffffffffffffffffffffffffff167f235bc17e7930760029e9f4d860a2a8089976de5b381cf8380fc11c1d88a111336001604051610a529190612af6565b60405180910390a250565b60606003805480602002602001604051908101604052809291908181526020018280548015610ae157602002820191906000526020600020905b8160009054906101000a900473ffffffffffffffffffffffffffffffffffffffff1673ffffffffffffffffffffffffffffffffffffffff1681526020019060010190808311610a97575b5050505050905090565b600160003373ffffffffffffffffffffffffffffffffffffffff1673ffffffffffffffffffffffffffffffffffffffff16815260200190815260200160002060009054906101000a900460ff16610b77576040517f08c379a0000000000000000000000000000000000000000000000000000000008152600401610b6e90612cc3565b60405180910390fd5b610b8081611d96565b15610bc0576040517f08c379a0000000000000000000000000000000000000000000000000000000008152600401610bb790612c23565b60405180910390fd5b610bc98161203f565b15610c09576040517f08c379a0000000000000000000000000000000000000000000000000000000008152600401610c0090612c03565b60405180910390fd5b6002819080600181540180825580915050600190039060005260206000200160009091909190916101000a81548173ffffffffffffffffffffffffffffffffffffffff021916908373ffffffffffffffffffffffffffffffffffffffff16021790555081600560008373ffffffffffffffffffffffffffffffffffffffff1673ffffffffffffffffffffffffffffffffffffffff1681526020019081526020016000209080519060200190610cbf9291906121d8565b508073ffffffffffffffffffffffffffffffffffffffff167ffb56e28feaff07a8d23b3119a966e036ae7f64ff72a539debc67c6e8cd78721683604051610d069190612b11565b60405180910390a25050565b600160003373ffffffffffffffffffffffffffffffffffffffff1673ffffffffffffffffffffffffffffffffffffffff16815260200190815260200160002060009054906101000a900460ff16610d9e576040517f08c379a0000000000000000000000000000000000000000000000000000000008152600401610d9590612cc3565b60405180910390fd5b610da781611d96565b15610de7576040517f08c379a0000000000000000000000000000000000000000000000000000000008152600401610dde90612c23565b60405180910390fd5b610df08161203f565b15610e30576040517f08c379a0000000000000000000000000000000000000000000000000000000008152600401610e2790612c03565b60405180910390fd5b6003819080600181540180825580915050600190039060005260206000200160009091909190916101000a81548173ffffffffffffffffffffffffffffffffffffffff021916908373ffffffffffffffffffffffffffffffffffffffff16021790555081600460008373ffffffffffffffffffffffffffffffffffffffff1673ffffffffffffffffffffffffffffffffffffffff1681526020019081526020016000209080519060200190610ee69291906121d8565b5060086000815480929190610efa90612ff4565b91905055507f833f8a6afe89d971296f8882c8b9d117bc81d68f14aaabc47cc227218d8351688282604051610f30929190612b33565b60405180910390a15050565b610f4533611d96565b610f84576040517f08c379a0000000000000000000000000000000000000000000000000000000008152600401610f7b90612ce3565b60405180910390fd5b610f8d8161203f565b610fcc576040517f08c379a0000000000000000000000000000000000000000000000000000000008152600401610fc390612ca3565b60405180910390fd5b600760003373ffffffffffffffffffffffffffffffffffffffff1673ffffffffffffffffffffffffffffffffffffffff16815260200190815260200160002060009054906101000a900460ff1615611059576040517f08c379a000000000000000000000000000000000000000000000000000000000815260040161105090612b63565b60405180910390fd5b600660008273ffffffffffffffffffffffffffffffffffffffff1673ffffffffffffffffffffffffffffffffffffffff16815260200190815260200160002060008154809291906110a990612ff4565b91905055506001600760003373ffffffffffffffffffffffffffffffffffffffff1673ffffffffffffffffffffffffffffffffffffffff16815260200190815260200160002060006101000a81548160ff0219169083151502179055503373ffffffffffffffffffffffffffffffffffffffff168173ffffffffffffffffffffffffffffffffffffffff167f113ed09b18bb8fe2635af16f21d67464502d920ff1015abfe08dbe9a2971a7e260405160405180910390a350565b600160003373ffffffffffffffffffffffffffffffffffffffff1673ffffffffffffffffffffffffffffffffffffffff16815260200190815260200160002060009054906101000a900460ff166111ef576040517f08c379a00000000000000000000000000000000000000000000000000000000081526004016111e690612cc3565b60405180910390fd5b600960009054906101000a900460ff161561123f576040517f08c379a000000000000000000000000000000000000000000000000000000000815260040161123690612bc3565b60405180910390fd5b600060085411611284576040517f08c379a000000000000000000000000000000000000000000000000000000000815260040161127b90612c63565b60405180910390fd5b6000805b6008548110156113565760066000600383815481106112d0577f4e487b7100000000000000000000000000000000000000000000000000000000600052603260045260246000fd5b9060005260206000200160009054906101000a900473ffffffffffffffffffffffffffffffffffffffff1673ffffffffffffffffffffffffffffffffffffffff1673ffffffffffffffffffffffffffffffffffffffff16815260200190815260200160002054826113419190612e57565b9150808061134e90612ff4565b915050611288565b506000811161139a576040517f08c379a000000000000000000000000000000000000000000000000000000000815260040161139190612ba3565b60405180910390fd5b600060646008836113ab9190612ede565b6113b59190612ead565b9050600081116113fa576040517f08c379a00000000000000000000000000000000000000000000000000000000081526004016113f190612be3565b60405180910390fd5b600060085467ffffffffffffffff81111561143e577f4e487b7100000000000000000000000000000000000000000000000000000000600052604160045260246000fd5b60405190808252806020026020018201604052801561146c5781602001602082028036833780820191505090505b5090506000805b600854811015611621578360066000600384815481106114bc577f4e487b7100000000000000000000000000000000000000000000000000000000600052603260045260246000fd5b9060005260206000200160009054906101000a900473ffffffffffffffffffffffffffffffffffffffff1673ffffffffffffffffffffffffffffffffffffffff1673ffffffffffffffffffffffffffffffffffffffff168152602001908152602001600020541061160e5760038181548110611561577f4e487b7100000000000000000000000000000000000000000000000000000000600052603260045260246000fd5b9060005260206000200160009054906101000a900473ffffffffffffffffffffffffffffffffffffffff168383815181106115c5577f4e487b7100000000000000000000000000000000000000000000000000000000600052603260045260246000fd5b602002602001019073ffffffffffffffffffffffffffffffffffffffff16908173ffffffffffffffffffffffffffffffffffffffff1681525050818061160a90612ff4565b9250505b808061161990612ff4565b915050611473565b5060008111611665576040517f08c379a000000000000000000000000000000000000000000000000000000000815260040161165c90612b83565b60405180910390fd5b6001600960006101000a81548160ff02191690831515021790555060008167ffffffffffffffff8111156116c2577f4e487b7100000000000000000000000000000000000000000000000000000000600052604160045260246000fd5b6040519080825280602002602001820160405280156116f05781602001602082028036833780820191505090505b50905060008267ffffffffffffffff811115611735577f4e487b7100000000000000000000000000000000000000000000000000000000600052604160045260246000fd5b6040519080825280602002602001820160405280156117635781602001602082028036833780820191505090505b50905060005b838110156118fd578481815181106117aa577f4e487b7100000000000000000000000000000000000000000000000000000000600052603260045260246000fd5b60200260200101518382815181106117eb577f4e487b7100000000000000000000000000000000000000000000000000000000600052603260045260246000fd5b602002602001019073ffffffffffffffffffffffffffffffffffffffff16908173ffffffffffffffffffffffffffffffffffffffff168152505060066000868381518110611862577f4e487b7100000000000000000000000000000000000000000000000000000000600052603260045260246000fd5b602002602001015173ffffffffffffffffffffffffffffffffffffffff1673ffffffffffffffffffffffffffffffffffffffff168152602001908152602001600020548282815181106118de577f4e487b7100000000000000000000000000000000000000000000000000000000600052603260045260246000fd5b60200260200101818152505080806118f590612ff4565b915050611769565b507fa357b4a6831977270fccab93b7f0205f3139544cf0cf88952034db7c9a394f89828260405161192f929190612a9d565b60405180910390a1505050505050565b60066020528060005260406000206000915090505481565b60006119628261203f565b6119a1576040517f08c379a000000000000000000000000000000000000000000000000000000000815260040161199890612ca3565b60405180910390fd5b600660008373ffffffffffffffffffffffffffffffffffffffff1673ffffffffffffffffffffffffffffffffffffffff168152602001908152602001600020549050919050565b600381815481106119f857600080fd5b906000526020600020016000915054906101000a900473ffffffffffffffffffffffffffffffffffffffff1681565b6060600960009054906101000a900460ff1615611a79576040517f08c379a0000000000000000000000000000000000000000000000000000000008152600401611a7090612bc3565b60405180910390fd5b600060085467ffffffffffffffff811115611abd577f4e487b7100000000000000000000000000000000000000000000000000000000600052604160045260246000fd5b604051908082528060200260200182016040528015611af657816020015b611ae361225e565b815260200190600190039081611adb5790505b50905060005b600854811015611cee57600060038281548110611b42577f4e487b7100000000000000000000000000000000000000000000000000000000600052603260045260246000fd5b9060005260206000200160009054906101000a900473ffffffffffffffffffffffffffffffffffffffff1690506000600460008373ffffffffffffffffffffffffffffffffffffffff1673ffffffffffffffffffffffffffffffffffffffff1681526020019081526020016000208054611bbb90612fc2565b80601f0160208091040260200160405190810160405280929190818152602001828054611be790612fc2565b8015611c345780601f10611c0957610100808354040283529160200191611c34565b820191906000526020600020905b815481529060010190602001808311611c1757829003601f168201915b505050505090506000600660008473ffffffffffffffffffffffffffffffffffffffff1673ffffffffffffffffffffffffffffffffffffffff168152602001908152602001600020549050604051806040016040528083815260200182815250858581518110611ccd577f4e487b7100000000000000000000000000000000000000000000000000000000600052603260045260246000fd5b60200260200101819052505050508080611ce690612ff4565b915050611afc565b508091505090565b60046020528060005260406000206000915090508054611d1590612fc2565b80601f0160208091040260200160405190810160405280929190818152602001828054611d4190612fc2565b8015611d8e5780601f10611d6357610100808354040283529160200191611d8e565b820191906000526020600020905b815481529060010190602001808311611d7157829003601f168201915b505050505081565b600080600090505b600280549050811015611e60578273ffffffffffffffffffffffffffffffffffffffff1660028281548110611dfc577f4e487b7100000000000000000000000000000000000000000000000000000000600052603260045260246000fd5b9060005260206000200160009054906101000a900473ffffffffffffffffffffffffffffffffffffffff1673ffffffffffffffffffffffffffffffffffffffff161415611e4d576001915050611e66565b8080611e5890612ff4565b915050611d9e565b50600090505b919050565b60085481565b606060005b600280549050811015611ffe578273ffffffffffffffffffffffffffffffffffffffff1660028281548110611ed4577f4e487b7100000000000000000000000000000000000000000000000000000000600052603260045260246000fd5b9060005260206000200160009054906101000a900473ffffffffffffffffffffffffffffffffffffffff1673ffffffffffffffffffffffffffffffffffffffff161415611feb57600560008473ffffffffffffffffffffffffffffffffffffffff1673ffffffffffffffffffffffffffffffffffffffff1681526020019081526020016000208054611f6590612fc2565b80601f0160208091040260200160405190810160405280929190818152602001828054611f9190612fc2565b8015611fde5780601f10611fb357610100808354040283529160200191611fde565b820191906000526020600020905b815481529060010190602001808311611fc157829003601f168201915b505050505091505061203a565b8080611ff690612ff4565b915050611e76565b506040517f08c379a000000000000000000000000000000000000000000000000000000000815260040161203190612c43565b60405180910390fd5b919050565b600080600090505b600380549050811015612109578273ffffffffffffffffffffffffffffffffffffffff16600382815481106120a5577f4e487b7100000000000000000000000000000000000000000000000000000000600052603260045260246000fd5b9060005260206000200160009054906101000a900473ffffffffffffffffffffffffffffffffffffffff1673ffffffffffffffffffffffffffffffffffffffff1614156120f657600191505061210f565b808061210190612ff4565b915050612047565b50600090505b919050565b6005602052806000526040600020600091509050805461213390612fc2565b80601f016020809104026020016040519081016040528092919081815260200182805461215f90612fc2565b80156121ac5780601f10612181576101008083540402835291602001916121ac565b820191906000526020600020905b81548152906001019060200180831161218f57829003601f168201915b505050505081565b60008054906101000a900473ffffffffffffffffffffffffffffffffffffffff1681565b8280546121e490612fc2565b90600052602060002090601f016020900481019282612206576000855561224d565b82601f1061221f57805160ff191683800117855561224d565b8280016001018555821561224d579182015b8281111561224c578251825591602001919060010190612231565b5b50905061225a9190612278565b5090565b604051806040016040528060608152602001600081525090565b5b80821115612291576000816000905550600101612279565b5090565b60006122a86122a384612d4f565b612d1e565b9050828152602081018484840111156122c057600080fd5b6122cb848285612f80565b509392505050565b6000813590506122e28161310a565b92915050565b600082601f8301126122f957600080fd5b8135612309848260208601612295565b91505092915050565b60008135905061232181613121565b92915050565b60006020828403121561233957600080fd5b6000612347848285016122d3565b91505092915050565b6000806040838503121561236357600080fd5b600083013567ffffffffffffffff81111561237d57600080fd5b612389858286016122e8565b925050602061239a858286016122d3565b9150509250929050565b6000602082840312156123b657600080fd5b60006123c484828501612312565b91505092915050565b60006123d98383612411565b60208301905092915050565b60006123f18383612a05565b905092915050565b60006124058383612a42565b60208301905092915050565b61241a81612f38565b82525050565b61242981612f38565b82525050565b600061243a82612daf565b6124448185612e02565b935061244f83612d7f565b8060005b8381101561248057815161246788826123cd565b975061247283612ddb565b925050600181019050612453565b5085935050505092915050565b600061249882612dba565b6124a28185612e13565b9350836020820285016124b485612d8f565b8060005b858110156124f057848403895281516124d185826123e5565b94506124dc83612de8565b925060208a019950506001810190506124b8565b50829750879550505050505092915050565b600061250d82612dc5565b6125178185612e24565b935061252283612d9f565b8060005b8381101561255357815161253a88826123f9565b975061254583612df5565b925050600181019050612526565b5085935050505092915050565b61256981612f4a565b82525050565b600061257a82612dd0565b6125848185612e35565b9350612594818560208601612f8f565b61259d816130f9565b840191505092915050565b60006125b382612dd0565b6125bd8185612e46565b93506125cd818560208601612f8f565b6125d6816130f9565b840191505092915050565b60006125ee601f83612e46565b91507f596f75206861766520616c7265616479206361737420796f757220766f7465006000830152602082019050919050565b600061262e601583612e46565b91507f4e6f2063616e6469646174657320656c656374656400000000000000000000006000830152602082019050919050565b600061266e600d83612e46565b91507f4e6f20766f7465732063617374000000000000000000000000000000000000006000830152602082019050919050565b60006126ae602183612e46565b91507f526573756c742068617320616c7265616479206265656e2066696e616c697a6560008301527f64000000000000000000000000000000000000000000000000000000000000006020830152604082019050919050565b6000612714601883612e46565b91507f4465636973696f6e207261746520697320746f6f206c6f7700000000000000006000830152602082019050919050565b6000612754602c83612e46565b91507f4164647265737320697320616c7265616479207265676973746572656420617360008301527f20612063616e64696461746500000000000000000000000000000000000000006020830152604082019050919050565b60006127ba602883612e46565b91507f4164647265737320697320616c7265616479207265676973746572656420617360008301527f206120766f7465720000000000000000000000000000000000000000000000006020830152604082019050919050565b6000612820601583612e46565b91507f496e76616c696420766f746572206164647265737300000000000000000000006000830152602082019050919050565b6000612860601883612e46565b91507f4e6f2063616e64696461746573207265676973746572656400000000000000006000830152602082019050919050565b60006128a0603283612e46565b91507f43616e6e6f74207265766f6b652061646d696e2070726976696c65676573206660008301527f726f6d20746865206d61696e2061646d696e00000000000000000000000000006020830152604082019050919050565b6000612906601983612e46565b91507f496e76616c69642063616e6469646174652061646472657373000000000000006000830152602082019050919050565b6000612946602183612e46565b91507f4f6e6c792061646d696e2063616e2063616c6c20746869732066756e6374696f60008301527f6e000000000000000000000000000000000000000000000000000000000000006020830152604082019050919050565b60006129ac602583612e46565b91507f4f6e6c79207265676973746572656420766f746572732063616e20636173742060008301527f766f7465730000000000000000000000000000000000000000000000000000006020830152604082019050919050565b60006040830160008301518482036000860152612a22828261256f565b9150506020830151612a376020860182612a42565b508091505092915050565b612a4b81612f76565b82525050565b612a5a81612f76565b82525050565b6000602082019050612a756000830184612420565b92915050565b60006020820190508181036000830152612a95818461242f565b905092915050565b60006040820190508181036000830152612ab7818561242f565b90508181036020830152612acb8184612502565b90509392505050565b60006020820190508181036000830152612aee818461248d565b905092915050565b6000602082019050612b0b6000830184612560565b92915050565b60006020820190508181036000830152612b2b81846125a8565b905092915050565b60006040820190508181036000830152612b4d81856125a8565b9050612b5c6020830184612420565b9392505050565b60006020820190508181036000830152612b7c816125e1565b9050919050565b60006020820190508181036000830152612b9c81612621565b9050919050565b60006020820190508181036000830152612bbc81612661565b9050919050565b60006020820190508181036000830152612bdc816126a1565b9050919050565b60006020820190508181036000830152612bfc81612707565b9050919050565b60006020820190508181036000830152612c1c81612747565b9050919050565b60006020820190508181036000830152612c3c816127ad565b9050919050565b60006020820190508181036000830152612c5c81612813565b9050919050565b60006020820190508181036000830152612c7c81612853565b9050919050565b60006020820190508181036000830152612c9c81612893565b9050919050565b60006020820190508181036000830152612cbc816128f9565b9050919050565b60006020820190508181036000830152612cdc81612939565b9050919050565b60006020820190508181036000830152612cfc8161299f565b9050919050565b6000602082019050612d186000830184612a51565b92915050565b6000604051905081810181811067ffffffffffffffff82111715612d4557612d446130ca565b5b8060405250919050565b600067ffffffffffffffff821115612d6a57612d696130ca565b5b601f19601f8301169050602081019050919050565b6000819050602082019050919050565b6000819050602082019050919050565b6000819050602082019050919050565b600081519050919050565b600081519050919050565b600081519050919050565b600081519050919050565b6000602082019050919050565b6000602082019050919050565b6000602082019050919050565b600082825260208201905092915050565b600082825260208201905092915050565b600082825260208201905092915050565b600082825260208201905092915050565b600082825260208201905092915050565b6000612e6282612f76565b9150612e6d83612f76565b9250827fffffffffffffffffffffffffffffffffffffffffffffffffffffffffffffffff03821115612ea257612ea161303d565b5b828201905092915050565b6000612eb882612f76565b9150612ec383612f76565b925082612ed357612ed261306c565b5b828204905092915050565b6000612ee982612f76565b9150612ef483612f76565b9250817fffffffffffffffffffffffffffffffffffffffffffffffffffffffffffffffff0483118215151615612f2d57612f2c61303d565b5b828202905092915050565b6000612f4382612f56565b9050919050565b60008115159050919050565b600073ffffffffffffffffffffffffffffffffffffffff82169050919050565b6000819050919050565b82818337600083830152505050565b60005b83811015612fad578082015181840152602081019050612f92565b83811115612fbc576000848401525b50505050565b60006002820490506001821680612fda57607f821691505b60208210811415612fee57612fed61309b565b5b50919050565b6000612fff82612f76565b91507fffffffffffffffffffffffffffffffffffffffffffffffffffffffffffffffff8214156130325761303161303d565b5b600182019050919050565b7f4e487b7100000000000000000000000000000000000000000000000000000000600052601160045260246000fd5b7f4e487b7100000000000000000000000000000000000000000000000000000000600052601260045260246000fd5b7f4e487b7100000000000000000000000000000000000000000000000000000000600052602260045260246000fd5b7f4e487b7100000000000000000000000000000000000000000000000000000000600052604160045260246000fd5b6000601f19601f8301169050919050565b61311381612f38565b811461311e57600080fd5b50565b61312a81612f76565b811461313557600080fd5b5056fea26469706673582212204e76a2690f9f2bba678fa1910d5fefdd604d4ad70a594d7fc96c1e5b2b36f8b564736f6c63430008000033",
					"opcodes": "PUSH1 0x80 PUSH1 0x40 MSTORE CALLVALUE DUP1 ISZERO PUSH3 0x11 JUMPI PUSH1 0x0 DUP1 REVERT JUMPDEST POP CALLER PUSH1 0x0 DUP1 PUSH2 0x100 EXP DUP2 SLOAD DUP2 PUSH20 0xFFFFFFFFFFFFFFFFFFFFFFFFFFFFFFFFFFFFFFFF MUL NOT AND SWAP1 DUP4 PUSH20 0xFFFFFFFFFFFFFFFFFFFFFFFFFFFFFFFFFFFFFFFF AND MUL OR SWAP1 SSTORE POP PUSH1 0x1 DUP1 PUSH1 0x0 CALLER PUSH20 0xFFFFFFFFFFFFFFFFFFFFFFFFFFFFFFFFFFFFFFFF AND PUSH20 0xFFFFFFFFFFFFFFFFFFFFFFFFFFFFFFFFFFFFFFFF AND DUP2 MSTORE PUSH1 0x20 ADD SWAP1 DUP2 MSTORE PUSH1 0x20 ADD PUSH1 0x0 KECCAK256 PUSH1 0x0 PUSH2 0x100 EXP DUP2 SLOAD DUP2 PUSH1 0xFF MUL NOT AND SWAP1 DUP4 ISZERO ISZERO MUL OR SWAP1 SSTORE POP PUSH1 0x0 PUSH1 0x9 PUSH1 0x0 PUSH2 0x100 EXP DUP2 SLOAD DUP2 PUSH1 0xFF MUL NOT AND SWAP1 DUP4 ISZERO ISZERO MUL OR SWAP1 SSTORE POP CALLER PUSH20 0xFFFFFFFFFFFFFFFFFFFFFFFFFFFFFFFFFFFFFFFF AND PUSH32 0x235BC17E7930760029E9F4D860A2A8089976DE5B381CF8380FC11C1D88A11133 PUSH1 0x1 PUSH1 0x40 MLOAD PUSH3 0x10D SWAP2 SWAP1 PUSH3 0x12C JUMP JUMPDEST PUSH1 0x40 MLOAD DUP1 SWAP2 SUB SWAP1 LOG2 PUSH3 0x155 JUMP JUMPDEST PUSH3 0x126 DUP2 PUSH3 0x149 JUMP JUMPDEST DUP3 MSTORE POP POP JUMP JUMPDEST PUSH1 0x0 PUSH1 0x20 DUP3 ADD SWAP1 POP PUSH3 0x143 PUSH1 0x0 DUP4 ADD DUP5 PUSH3 0x11B JUMP JUMPDEST SWAP3 SWAP2 POP POP JUMP JUMPDEST PUSH1 0x0 DUP2 ISZERO ISZERO SWAP1 POP SWAP2 SWAP1 POP JUMP JUMPDEST PUSH2 0x316E DUP1 PUSH3 0x165 PUSH1 0x0 CODECOPY PUSH1 0x0 RETURN INVALID PUSH1 0x80 PUSH1 0x40 MSTORE CALLVALUE DUP1 ISZERO PUSH2 0x10 JUMPI PUSH1 0x0 DUP1 REVERT JUMPDEST POP PUSH1 0x4 CALLDATASIZE LT PUSH2 0x173 JUMPI PUSH1 0x0 CALLDATALOAD PUSH1 0xE0 SHR DUP1 PUSH4 0x53358FC4 GT PUSH2 0xDE JUMPI DUP1 PUSH4 0x9D605D87 GT PUSH2 0x97 JUMPI DUP1 PUSH4 0xC22B6B9D GT PUSH2 0x71 JUMPI DUP1 PUSH4 0xC22B6B9D EQ PUSH2 0x472 JUMPI DUP1 PUSH4 0xD51B9E93 EQ PUSH2 0x4A2 JUMPI DUP1 PUSH4 0xF140CF91 EQ PUSH2 0x4D2 JUMPI DUP1 PUSH4 0xF851A440 EQ PUSH2 0x502 JUMPI PUSH2 0x173 JUMP JUMPDEST DUP1 PUSH4 0x9D605D87 EQ PUSH2 0x3F4 JUMPI DUP1 PUSH4 0xA7771EE3 EQ PUSH2 0x424 JUMPI DUP1 PUSH4 0xA9A981A3 EQ PUSH2 0x454 JUMPI PUSH2 0x173 JUMP JUMPDEST DUP1 PUSH4 0x53358FC4 EQ PUSH2 0x320 JUMPI DUP1 PUSH4 0x61CAC418 EQ PUSH2 0x33C JUMPI DUP1 PUSH4 0x66A267A9 EQ PUSH2 0x346 JUMPI DUP1 PUSH4 0x6B991A18 EQ PUSH2 0x376 JUMPI DUP1 PUSH4 0x6C7F5767 EQ PUSH2 0x3A6 JUMPI DUP1 PUSH4 0x6E008B35 EQ PUSH2 0x3D6 JUMPI PUSH2 0x173 JUMP JUMPDEST DUP1 PUSH4 0x2D345670 GT PUSH2 0x130 JUMPI DUP1 PUSH4 0x2D345670 EQ PUSH2 0x274 JUMPI DUP1 PUSH4 0x30A56347 EQ PUSH2 0x290 JUMPI DUP1 PUSH4 0x35BB3E16 EQ PUSH2 0x2AE JUMPI DUP1 PUSH4 0x396B9AE0 EQ PUSH2 0x2CA JUMPI DUP1 PUSH4 0x4A075DE2 EQ PUSH2 0x2E8 JUMPI DUP1 PUSH4 0x4A2A84C5 EQ PUSH2 0x304 JUMPI PUSH2 0x173 JUMP JUMPDEST DUP1 PUSH4 0x9EEF43E EQ PUSH2 0x178 JUMPI DUP1 PUSH4 0x1AAE9FF3 EQ PUSH2 0x1A8 JUMPI DUP1 PUSH4 0x1E0EFCF3 EQ PUSH2 0x1C6 JUMPI DUP1 PUSH4 0x2436E06B EQ PUSH2 0x1F6 JUMPI DUP1 PUSH4 0x24D7806C EQ PUSH2 0x226 JUMPI DUP1 PUSH4 0x2BC4A6E7 EQ PUSH2 0x256 JUMPI JUMPDEST PUSH1 0x0 DUP1 REVERT JUMPDEST PUSH2 0x192 PUSH1 0x4 DUP1 CALLDATASIZE SUB DUP2 ADD SWAP1 PUSH2 0x18D SWAP2 SWAP1 PUSH2 0x2327 JUMP JUMPDEST PUSH2 0x520 JUMP JUMPDEST PUSH1 0x40 MLOAD PUSH2 0x19F SWAP2 SWAP1 PUSH2 0x2AF6 JUMP JUMPDEST PUSH1 0x40 MLOAD DUP1 SWAP2 SUB SWAP1 RETURN JUMPDEST PUSH2 0x1B0 PUSH2 0x540 JUMP JUMPDEST PUSH1 0x40 MLOAD PUSH2 0x1BD SWAP2 SWAP1 PUSH2 0x2AF6 JUMP JUMPDEST PUSH1 0x40 MLOAD DUP1 SWAP2 SUB SWAP1 RETURN JUMPDEST PUSH2 0x1E0 PUSH1 0x4 DUP1 CALLDATASIZE SUB DUP2 ADD SWAP1 PUSH2 0x1DB SWAP2 SWAP1 PUSH2 0x2327 JUMP JUMPDEST PUSH2 0x553 JUMP JUMPDEST PUSH1 0x40 MLOAD PUSH2 0x1ED SWAP2 SWAP1 PUSH2 0x2B11 JUMP JUMPDEST PUSH1 0x40 MLOAD DUP1 SWAP2 SUB SWAP1 RETURN JUMPDEST PUSH2 0x210 PUSH1 0x4 DUP1 CALLDATASIZE SUB DUP2 ADD SWAP1 PUSH2 0x20B SWAP2 SWAP1 PUSH2 0x23A4 JUMP JUMPDEST PUSH2 0x66C JUMP JUMPDEST PUSH1 0x40 MLOAD PUSH2 0x21D SWAP2 SWAP1 PUSH2 0x2A60 JUMP JUMPDEST PUSH1 0x40 MLOAD DUP1 SWAP2 SUB SWAP1 RETURN JUMPDEST PUSH2 0x240 PUSH1 0x4 DUP1 CALLDATASIZE SUB DUP2 ADD SWAP1 PUSH2 0x23B SWAP2 SWAP1 PUSH2 0x2327 JUMP JUMPDEST PUSH2 0x6AB JUMP JUMPDEST PUSH1 0x40 MLOAD PUSH2 0x24D SWAP2 SWAP1 PUSH2 0x2AF6 JUMP JUMPDEST PUSH1 0x40 MLOAD DUP1 SWAP2 SUB SWAP1 RETURN JUMPDEST PUSH2 0x25E PUSH2 0x6CB JUMP JUMPDEST PUSH1 0x40 MLOAD PUSH2 0x26B SWAP2 SWAP1 PUSH2 0x2A7B JUMP JUMPDEST PUSH1 0x40 MLOAD DUP1 SWAP2 SUB SWAP1 RETURN JUMPDEST PUSH2 0x28E PUSH1 0x4 DUP1 CALLDATASIZE SUB DUP2 ADD SWAP1 PUSH2 0x289 SWAP2 SWAP1 PUSH2 0x2327 JUMP JUMPDEST PUSH2 0x759 JUMP JUMPDEST STOP JUMPDEST PUSH2 0x298 PUSH2 0x91E JUMP JUMPDEST PUSH1 0x40 MLOAD PUSH2 0x2A5 SWAP2 SWAP1 PUSH2 0x2D03 JUMP JUMPDEST PUSH1 0x40 MLOAD DUP1 SWAP2 SUB SWAP1 RETURN JUMPDEST PUSH2 0x2C8 PUSH1 0x4 DUP1 CALLDATASIZE SUB DUP2 ADD SWAP1 PUSH2 0x2C3 SWAP2 SWAP1 PUSH2 0x2327 JUMP JUMPDEST PUSH2 0x928 JUMP JUMPDEST STOP JUMPDEST PUSH2 0x2D2 PUSH2 0xA5D JUMP JUMPDEST PUSH1 0x40 MLOAD PUSH2 0x2DF SWAP2 SWAP1 PUSH2 0x2A7B JUMP JUMPDEST PUSH1 0x40 MLOAD DUP1 SWAP2 SUB SWAP1 RETURN JUMPDEST PUSH2 0x302 PUSH1 0x4 DUP1 CALLDATASIZE SUB DUP2 ADD SWAP1 PUSH2 0x2FD SWAP2 SWAP1 PUSH2 0x2350 JUMP JUMPDEST PUSH2 0xAEB JUMP JUMPDEST STOP JUMPDEST PUSH2 0x31E PUSH1 0x4 DUP1 CALLDATASIZE SUB DUP2 ADD SWAP1 PUSH2 0x319 SWAP2 SWAP1 PUSH2 0x2350 JUMP JUMPDEST PUSH2 0xD12 JUMP JUMPDEST STOP JUMPDEST PUSH2 0x33A PUSH1 0x4 DUP1 CALLDATASIZE SUB DUP2 ADD SWAP1 PUSH2 0x335 SWAP2 SWAP1 PUSH2 0x2327 JUMP JUMPDEST PUSH2 0xF3C JUMP JUMPDEST STOP JUMPDEST PUSH2 0x344 PUSH2 0x1163 JUMP JUMPDEST STOP JUMPDEST PUSH2 0x360 PUSH1 0x4 DUP1 CALLDATASIZE SUB DUP2 ADD SWAP1 PUSH2 0x35B SWAP2 SWAP1 PUSH2 0x2327 JUMP JUMPDEST PUSH2 0x193F JUMP JUMPDEST PUSH1 0x40 MLOAD PUSH2 0x36D SWAP2 SWAP1 PUSH2 0x2D03 JUMP JUMPDEST PUSH1 0x40 MLOAD DUP1 SWAP2 SUB SWAP1 RETURN JUMPDEST PUSH2 0x390 PUSH1 0x4 DUP1 CALLDATASIZE SUB DUP2 ADD SWAP1 PUSH2 0x38B SWAP2 SWAP1 PUSH2 0x2327 JUMP JUMPDEST PUSH2 0x1957 JUMP JUMPDEST PUSH1 0x40 MLOAD PUSH2 0x39D SWAP2 SWAP1 PUSH2 0x2D03 JUMP JUMPDEST PUSH1 0x40 MLOAD DUP1 SWAP2 SUB SWAP1 RETURN JUMPDEST PUSH2 0x3C0 PUSH1 0x4 DUP1 CALLDATASIZE SUB DUP2 ADD SWAP1 PUSH2 0x3BB SWAP2 SWAP1 PUSH2 0x23A4 JUMP JUMPDEST PUSH2 0x19E8 JUMP JUMPDEST PUSH1 0x40 MLOAD PUSH2 0x3CD SWAP2 SWAP1 PUSH2 0x2A60 JUMP JUMPDEST PUSH1 0x40 MLOAD DUP1 SWAP2 SUB SWAP1 RETURN JUMPDEST PUSH2 0x3DE PUSH2 0x1A27 JUMP JUMPDEST PUSH1 0x40 MLOAD PUSH2 0x3EB SWAP2 SWAP1 PUSH2 0x2AD4 JUMP JUMPDEST PUSH1 0x40 MLOAD DUP1 SWAP2 SUB SWAP1 RETURN JUMPDEST PUSH2 0x40E PUSH1 0x4 DUP1 CALLDATASIZE SUB DUP2 ADD SWAP1 PUSH2 0x409 SWAP2 SWAP1 PUSH2 0x2327 JUMP JUMPDEST PUSH2 0x1CF6 JUMP JUMPDEST PUSH1 0x40 MLOAD PUSH2 0x41B SWAP2 SWAP1 PUSH2 0x2B11 JUMP JUMPDEST PUSH1 0x40 MLOAD DUP1 SWAP2 SUB SWAP1 RETURN JUMPDEST PUSH2 0x43E PUSH1 0x4 DUP1 CALLDATASIZE SUB DUP2 ADD SWAP1 PUSH2 0x439 SWAP2 SWAP1 PUSH2 0x2327 JUMP JUMPDEST PUSH2 0x1D96 JUMP JUMPDEST PUSH1 0x40 MLOAD PUSH2 0x44B SWAP2 SWAP1 PUSH2 0x2AF6 JUMP JUMPDEST PUSH1 0x40 MLOAD DUP1 SWAP2 SUB SWAP1 RETURN JUMPDEST PUSH2 0x45C PUSH2 0x1E6B JUMP JUMPDEST PUSH1 0x40 MLOAD PUSH2 0x469 SWAP2 SWAP1 PUSH2 0x2D03 JUMP JUMPDEST PUSH1 0x40 MLOAD DUP1 SWAP2 SUB SWAP1 RETURN JUMPDEST PUSH2 0x48C PUSH1 0x4 DUP1 CALLDATASIZE SUB DUP2 ADD SWAP1 PUSH2 0x487 SWAP2 SWAP1 PUSH2 0x2327 JUMP JUMPDEST PUSH2 0x1E71 JUMP JUMPDEST PUSH1 0x40 MLOAD PUSH2 0x499 SWAP2 SWAP1 PUSH2 0x2B11 JUMP JUMPDEST PUSH1 0x40 MLOAD DUP1 SWAP2 SUB SWAP1 RETURN JUMPDEST PUSH2 0x4BC PUSH1 0x4 DUP1 CALLDATASIZE SUB DUP2 ADD SWAP1 PUSH2 0x4B7 SWAP2 SWAP1 PUSH2 0x2327 JUMP JUMPDEST PUSH2 0x203F JUMP JUMPDEST PUSH1 0x40 MLOAD PUSH2 0x4C9 SWAP2 SWAP1 PUSH2 0x2AF6 JUMP JUMPDEST PUSH1 0x40 MLOAD DUP1 SWAP2 SUB SWAP1 RETURN JUMPDEST PUSH2 0x4EC PUSH1 0x4 DUP1 CALLDATASIZE SUB DUP2 ADD SWAP1 PUSH2 0x4E7 SWAP2 SWAP1 PUSH2 0x2327 JUMP JUMPDEST PUSH2 0x2114 JUMP JUMPDEST PUSH1 0x40 MLOAD PUSH2 0x4F9 SWAP2 SWAP1 PUSH2 0x2B11 JUMP JUMPDEST PUSH1 0x40 MLOAD DUP1 SWAP2 SUB SWAP1 RETURN JUMPDEST PUSH2 0x50A PUSH2 0x21B4 JUMP JUMPDEST PUSH1 0x40 MLOAD PUSH2 0x517 SWAP2 SWAP1 PUSH2 0x2A60 JUMP JUMPDEST PUSH1 0x40 MLOAD DUP1 SWAP2 SUB SWAP1 RETURN JUMPDEST PUSH1 0x7 PUSH1 0x20 MSTORE DUP1 PUSH1 0x0 MSTORE PUSH1 0x40 PUSH1 0x0 KECCAK256 PUSH1 0x0 SWAP2 POP SLOAD SWAP1 PUSH2 0x100 EXP SWAP1 DIV PUSH1 0xFF AND DUP2 JUMP JUMPDEST PUSH1 0x9 PUSH1 0x0 SWAP1 SLOAD SWAP1 PUSH2 0x100 EXP SWAP1 DIV PUSH1 0xFF AND DUP2 JUMP JUMPDEST PUSH1 0x60 PUSH2 0x55E DUP3 PUSH2 0x203F JUMP JUMPDEST PUSH2 0x59D JUMPI PUSH1 0x40 MLOAD PUSH32 0x8C379A000000000000000000000000000000000000000000000000000000000 DUP2 MSTORE PUSH1 0x4 ADD PUSH2 0x594 SWAP1 PUSH2 0x2CA3 JUMP JUMPDEST PUSH1 0x40 MLOAD DUP1 SWAP2 SUB SWAP1 REVERT JUMPDEST PUSH1 0x4 PUSH1 0x0 DUP4 PUSH20 0xFFFFFFFFFFFFFFFFFFFFFFFFFFFFFFFFFFFFFFFF AND PUSH20 0xFFFFFFFFFFFFFFFFFFFFFFFFFFFFFFFFFFFFFFFF AND DUP2 MSTORE PUSH1 0x20 ADD SWAP1 DUP2 MSTORE PUSH1 0x20 ADD PUSH1 0x0 KECCAK256 DUP1 SLOAD PUSH2 0x5E7 SWAP1 PUSH2 0x2FC2 JUMP JUMPDEST DUP1 PUSH1 0x1F ADD PUSH1 0x20 DUP1 SWAP2 DIV MUL PUSH1 0x20 ADD PUSH1 0x40 MLOAD SWAP1 DUP2 ADD PUSH1 0x40 MSTORE DUP1 SWAP3 SWAP2 SWAP1 DUP2 DUP2 MSTORE PUSH1 0x20 ADD DUP3 DUP1 SLOAD PUSH2 0x613 SWAP1 PUSH2 0x2FC2 JUMP JUMPDEST DUP1 ISZERO PUSH2 0x660 JUMPI DUP1 PUSH1 0x1F LT PUSH2 0x635 JUMPI PUSH2 0x100 DUP1 DUP4 SLOAD DIV MUL DUP4 MSTORE SWAP2 PUSH1 0x20 ADD SWAP2 PUSH2 0x660 JUMP JUMPDEST DUP3 ADD SWAP2 SWAP1 PUSH1 0x0 MSTORE PUSH1 0x20 PUSH1 0x0 KECCAK256 SWAP1 JUMPDEST DUP2 SLOAD DUP2 MSTORE SWAP1 PUSH1 0x1 ADD SWAP1 PUSH1 0x20 ADD DUP1 DUP4 GT PUSH2 0x643 JUMPI DUP3 SWAP1 SUB PUSH1 0x1F AND DUP3 ADD SWAP2 JUMPDEST POP POP POP POP POP SWAP1 POP SWAP2 SWAP1 POP JUMP JUMPDEST PUSH1 0x2 DUP2 DUP2 SLOAD DUP2 LT PUSH2 0x67C JUMPI PUSH1 0x0 DUP1 REVERT JUMPDEST SWAP1 PUSH1 0x0 MSTORE PUSH1 0x20 PUSH1 0x0 KECCAK256 ADD PUSH1 0x0 SWAP2 POP SLOAD SWAP1 PUSH2 0x100 EXP SWAP1 DIV PUSH20 0xFFFFFFFFFFFFFFFFFFFFFFFFFFFFFFFFFFFFFFFF AND DUP2 JUMP JUMPDEST PUSH1 0x1 PUSH1 0x20 MSTORE DUP1 PUSH1 0x0 MSTORE PUSH1 0x40 PUSH1 0x0 KECCAK256 PUSH1 0x0 SWAP2 POP SLOAD SWAP1 PUSH2 0x100 EXP SWAP1 DIV PUSH1 0xFF AND DUP2 JUMP JUMPDEST PUSH1 0x60 PUSH1 0x2 DUP1 SLOAD DUP1 PUSH1 0x20 MUL PUSH1 0x20 ADD PUSH1 0x40 MLOAD SWAP1 DUP2 ADD PUSH1 0x40 MSTORE DUP1 SWAP3 SWAP2 SWAP1 DUP2 DUP2 MSTORE PUSH1 0x20 ADD DUP3 DUP1 SLOAD DUP1 ISZERO PUSH2 0x74F JUMPI PUSH1 0x20 MUL DUP3 ADD SWAP2 SWAP1 PUSH1 0x0 MSTORE PUSH1 0x20 PUSH1 0x0 KECCAK256 SWAP1 JUMPDEST DUP2 PUSH1 0x0 SWAP1 SLOAD SWAP1 PUSH2 0x100 EXP SWAP1 DIV PUSH20 0xFFFFFFFFFFFFFFFFFFFFFFFFFFFFFFFFFFFFFFFF AND PUSH20 0xFFFFFFFFFFFFFFFFFFFFFFFFFFFFFFFFFFFFFFFF AND DUP2 MSTORE PUSH1 0x20 ADD SWAP1 PUSH1 0x1 ADD SWAP1 DUP1 DUP4 GT PUSH2 0x705 JUMPI JUMPDEST POP POP POP POP POP SWAP1 POP SWAP1 JUMP JUMPDEST PUSH1 0x1 PUSH1 0x0 CALLER PUSH20 0xFFFFFFFFFFFFFFFFFFFFFFFFFFFFFFFFFFFFFFFF AND PUSH20 0xFFFFFFFFFFFFFFFFFFFFFFFFFFFFFFFFFFFFFFFF AND DUP2 MSTORE PUSH1 0x20 ADD SWAP1 DUP2 MSTORE PUSH1 0x20 ADD PUSH1 0x0 KECCAK256 PUSH1 0x0 SWAP1 SLOAD SWAP1 PUSH2 0x100 EXP SWAP1 DIV PUSH1 0xFF AND PUSH2 0x7E5 JUMPI PUSH1 0x40 MLOAD PUSH32 0x8C379A000000000000000000000000000000000000000000000000000000000 DUP2 MSTORE PUSH1 0x4 ADD PUSH2 0x7DC SWAP1 PUSH2 0x2CC3 JUMP JUMPDEST PUSH1 0x40 MLOAD DUP1 SWAP2 SUB SWAP1 REVERT JUMPDEST PUSH1 0x0 DUP1 SLOAD SWAP1 PUSH2 0x100 EXP SWAP1 DIV PUSH20 0xFFFFFFFFFFFFFFFFFFFFFFFFFFFFFFFFFFFFFFFF AND PUSH20 0xFFFFFFFFFFFFFFFFFFFFFFFFFFFFFFFFFFFFFFFF AND DUP2 PUSH20 0xFFFFFFFFFFFFFFFFFFFFFFFFFFFFFFFFFFFFFFFF AND EQ ISZERO PUSH2 0x874 JUMPI PUSH1 0x40 MLOAD PUSH32 0x8C379A000000000000000000000000000000000000000000000000000000000 DUP2 MSTORE PUSH1 0x4 ADD PUSH2 0x86B SWAP1 PUSH2 0x2C83 JUMP JUMPDEST PUSH1 0x40 MLOAD DUP1 SWAP2 SUB SWAP1 REVERT JUMPDEST PUSH1 0x0 PUSH1 0x1 PUSH1 0x0 DUP4 PUSH20 0xFFFFFFFFFFFFFFFFFFFFFFFFFFFFFFFFFFFFFFFF AND PUSH20 0xFFFFFFFFFFFFFFFFFFFFFFFFFFFFFFFFFFFFFFFF AND DUP2 MSTORE PUSH1 0x20 ADD SWAP1 DUP2 MSTORE PUSH1 0x20 ADD PUSH1 0x0 KECCAK256 PUSH1 0x0 PUSH2 0x100 EXP DUP2 SLOAD DUP2 PUSH1 0xFF MUL NOT AND SWAP1 DUP4 ISZERO ISZERO MUL OR SWAP1 SSTORE POP DUP1 PUSH20 0xFFFFFFFFFFFFFFFFFFFFFFFFFFFFFFFFFFFFFFFF AND PUSH32 0x235BC17E7930760029E9F4D860A2A8089976DE5B381CF8380FC11C1D88A11133 PUSH1 0x0 PUSH1 0x40 MLOAD PUSH2 0x913 SWAP2 SWAP1 PUSH2 0x2AF6 JUMP JUMPDEST PUSH1 0x40 MLOAD DUP1 SWAP2 SUB SWAP1 LOG2 POP JUMP JUMPDEST PUSH1 0x0 PUSH1 0x8 SLOAD SWAP1 POP SWAP1 JUMP JUMPDEST PUSH1 0x1 PUSH1 0x0 CALLER PUSH20 0xFFFFFFFFFFFFFFFFFFFFFFFFFFFFFFFFFFFFFFFF AND PUSH20 0xFFFFFFFFFFFFFFFFFFFFFFFFFFFFFFFFFFFFFFFF AND DUP2 MSTORE PUSH1 0x20 ADD SWAP1 DUP2 MSTORE PUSH1 0x20 ADD PUSH1 0x0 KECCAK256 PUSH1 0x0 SWAP1 SLOAD SWAP1 PUSH2 0x100 EXP SWAP1 DIV PUSH1 0xFF AND PUSH2 0x9B4 JUMPI PUSH1 0x40 MLOAD PUSH32 0x8C379A000000000000000000000000000000000000000000000000000000000 DUP2 MSTORE PUSH1 0x4 ADD PUSH2 0x9AB SWAP1 PUSH2 0x2CC3 JUMP JUMPDEST PUSH1 0x40 MLOAD DUP1 SWAP2 SUB SWAP1 REVERT JUMPDEST PUSH1 0x1 DUP1 PUSH1 0x0 DUP4 PUSH20 0xFFFFFFFFFFFFFFFFFFFFFFFFFFFFFFFFFFFFFFFF AND PUSH20 0xFFFFFFFFFFFFFFFFFFFFFFFFFFFFFFFFFFFFFFFF AND DUP2 MSTORE PUSH1 0x20 ADD SWAP1 DUP2 MSTORE PUSH1 0x20 ADD PUSH1 0x0 KECCAK256 PUSH1 0x0 PUSH2 0x100 EXP DUP2 SLOAD DUP2 PUSH1 0xFF MUL NOT AND SWAP1 DUP4 ISZERO ISZERO MUL OR SWAP1 SSTORE POP DUP1 PUSH20 0xFFFFFFFFFFFFFFFFFFFFFFFFFFFFFFFFFFFFFFFF AND PUSH32 0x235BC17E7930760029E9F4D860A2A8089976DE5B381CF8380FC11C1D88A11133 PUSH1 0x1 PUSH1 0x40 MLOAD PUSH2 0xA52 SWAP2 SWAP1 PUSH2 0x2AF6 JUMP JUMPDEST PUSH1 0x40 MLOAD DUP1 SWAP2 SUB SWAP1 LOG2 POP JUMP JUMPDEST PUSH1 0x60 PUSH1 0x3 DUP1 SLOAD DUP1 PUSH1 0x20 MUL PUSH1 0x20 ADD PUSH1 0x40 MLOAD SWAP1 DUP2 ADD PUSH1 0x40 MSTORE DUP1 SWAP3 SWAP2 SWAP1 DUP2 DUP2 MSTORE PUSH1 0x20 ADD DUP3 DUP1 SLOAD DUP1 ISZERO PUSH2 0xAE1 JUMPI PUSH1 0x20 MUL DUP3 ADD SWAP2 SWAP1 PUSH1 0x0 MSTORE PUSH1 0x20 PUSH1 0x0 KECCAK256 SWAP1 JUMPDEST DUP2 PUSH1 0x0 SWAP1 SLOAD SWAP1 PUSH2 0x100 EXP SWAP1 DIV PUSH20 0xFFFFFFFFFFFFFFFFFFFFFFFFFFFFFFFFFFFFFFFF AND PUSH20 0xFFFFFFFFFFFFFFFFFFFFFFFFFFFFFFFFFFFFFFFF AND DUP2 MSTORE PUSH1 0x20 ADD SWAP1 PUSH1 0x1 ADD SWAP1 DUP1 DUP4 GT PUSH2 0xA97 JUMPI JUMPDEST POP POP POP POP POP SWAP1 POP SWAP1 JUMP JUMPDEST PUSH1 0x1 PUSH1 0x0 CALLER PUSH20 0xFFFFFFFFFFFFFFFFFFFFFFFFFFFFFFFFFFFFFFFF AND PUSH20 0xFFFFFFFFFFFFFFFFFFFFFFFFFFFFFFFFFFFFFFFF AND DUP2 MSTORE PUSH1 0x20 ADD SWAP1 DUP2 MSTORE PUSH1 0x20 ADD PUSH1 0x0 KECCAK256 PUSH1 0x0 SWAP1 SLOAD SWAP1 PUSH2 0x100 EXP SWAP1 DIV PUSH1 0xFF AND PUSH2 0xB77 JUMPI PUSH1 0x40 MLOAD PUSH32 0x8C379A000000000000000000000000000000000000000000000000000000000 DUP2 MSTORE PUSH1 0x4 ADD PUSH2 0xB6E SWAP1 PUSH2 0x2CC3 JUMP JUMPDEST PUSH1 0x40 MLOAD DUP1 SWAP2 SUB SWAP1 REVERT JUMPDEST PUSH2 0xB80 DUP2 PUSH2 0x1D96 JUMP JUMPDEST ISZERO PUSH2 0xBC0 JUMPI PUSH1 0x40 MLOAD PUSH32 0x8C379A000000000000000000000000000000000000000000000000000000000 DUP2 MSTORE PUSH1 0x4 ADD PUSH2 0xBB7 SWAP1 PUSH2 0x2C23 JUMP JUMPDEST PUSH1 0x40 MLOAD DUP1 SWAP2 SUB SWAP1 REVERT JUMPDEST PUSH2 0xBC9 DUP2 PUSH2 0x203F JUMP JUMPDEST ISZERO PUSH2 0xC09 JUMPI PUSH1 0x40 MLOAD PUSH32 0x8C379A000000000000000000000000000000000000000000000000000000000 DUP2 MSTORE PUSH1 0x4 ADD PUSH2 0xC00 SWAP1 PUSH2 0x2C03 JUMP JUMPDEST PUSH1 0x40 MLOAD DUP1 SWAP2 SUB SWAP1 REVERT JUMPDEST PUSH1 0x2 DUP2 SWAP1 DUP1 PUSH1 0x1 DUP2 SLOAD ADD DUP1 DUP3 SSTORE DUP1 SWAP2 POP POP PUSH1 0x1 SWAP1 SUB SWAP1 PUSH1 0x0 MSTORE PUSH1 0x20 PUSH1 0x0 KECCAK256 ADD PUSH1 0x0 SWAP1 SWAP2 SWAP1 SWAP2 SWAP1 SWAP2 PUSH2 0x100 EXP DUP2 SLOAD DUP2 PUSH20 0xFFFFFFFFFFFFFFFFFFFFFFFFFFFFFFFFFFFFFFFF MUL NOT AND SWAP1 DUP4 PUSH20 0xFFFFFFFFFFFFFFFFFFFFFFFFFFFFFFFFFFFFFFFF AND MUL OR SWAP1 SSTORE POP DUP2 PUSH1 0x5 PUSH1 0x0 DUP4 PUSH20 0xFFFFFFFFFFFFFFFFFFFFFFFFFFFFFFFFFFFFFFFF AND PUSH20 0xFFFFFFFFFFFFFFFFFFFFFFFFFFFFFFFFFFFFFFFF AND DUP2 MSTORE PUSH1 0x20 ADD SWAP1 DUP2 MSTORE PUSH1 0x20 ADD PUSH1 0x0 KECCAK256 SWAP1 DUP1 MLOAD SWAP1 PUSH1 0x20 ADD SWAP1 PUSH2 0xCBF SWAP3 SWAP2 SWAP1 PUSH2 0x21D8 JUMP JUMPDEST POP DUP1 PUSH20 0xFFFFFFFFFFFFFFFFFFFFFFFFFFFFFFFFFFFFFFFF AND PUSH32 0xFB56E28FEAFF07A8D23B3119A966E036AE7F64FF72A539DEBC67C6E8CD787216 DUP4 PUSH1 0x40 MLOAD PUSH2 0xD06 SWAP2 SWAP1 PUSH2 0x2B11 JUMP JUMPDEST PUSH1 0x40 MLOAD DUP1 SWAP2 SUB SWAP1 LOG2 POP POP JUMP JUMPDEST PUSH1 0x1 PUSH1 0x0 CALLER PUSH20 0xFFFFFFFFFFFFFFFFFFFFFFFFFFFFFFFFFFFFFFFF AND PUSH20 0xFFFFFFFFFFFFFFFFFFFFFFFFFFFFFFFFFFFFFFFF AND DUP2 MSTORE PUSH1 0x20 ADD SWAP1 DUP2 MSTORE PUSH1 0x20 ADD PUSH1 0x0 KECCAK256 PUSH1 0x0 SWAP1 SLOAD SWAP1 PUSH2 0x100 EXP SWAP1 DIV PUSH1 0xFF AND PUSH2 0xD9E JUMPI PUSH1 0x40 MLOAD PUSH32 0x8C379A000000000000000000000000000000000000000000000000000000000 DUP2 MSTORE PUSH1 0x4 ADD PUSH2 0xD95 SWAP1 PUSH2 0x2CC3 JUMP JUMPDEST PUSH1 0x40 MLOAD DUP1 SWAP2 SUB SWAP1 REVERT JUMPDEST PUSH2 0xDA7 DUP2 PUSH2 0x1D96 JUMP JUMPDEST ISZERO PUSH2 0xDE7 JUMPI PUSH1 0x40 MLOAD PUSH32 0x8C379A000000000000000000000000000000000000000000000000000000000 DUP2 MSTORE PUSH1 0x4 ADD PUSH2 0xDDE SWAP1 PUSH2 0x2C23 JUMP JUMPDEST PUSH1 0x40 MLOAD DUP1 SWAP2 SUB SWAP1 REVERT JUMPDEST PUSH2 0xDF0 DUP2 PUSH2 0x203F JUMP JUMPDEST ISZERO PUSH2 0xE30 JUMPI PUSH1 0x40 MLOAD PUSH32 0x8C379A000000000000000000000000000000000000000000000000000000000 DUP2 MSTORE PUSH1 0x4 ADD PUSH2 0xE27 SWAP1 PUSH2 0x2C03 JUMP JUMPDEST PUSH1 0x40 MLOAD DUP1 SWAP2 SUB SWAP1 REVERT JUMPDEST PUSH1 0x3 DUP2 SWAP1 DUP1 PUSH1 0x1 DUP2 SLOAD ADD DUP1 DUP3 SSTORE DUP1 SWAP2 POP POP PUSH1 0x1 SWAP1 SUB SWAP1 PUSH1 0x0 MSTORE PUSH1 0x20 PUSH1 0x0 KECCAK256 ADD PUSH1 0x0 SWAP1 SWAP2 SWAP1 SWAP2 SWAP1 SWAP2 PUSH2 0x100 EXP DUP2 SLOAD DUP2 PUSH20 0xFFFFFFFFFFFFFFFFFFFFFFFFFFFFFFFFFFFFFFFF MUL NOT AND SWAP1 DUP4 PUSH20 0xFFFFFFFFFFFFFFFFFFFFFFFFFFFFFFFFFFFFFFFF AND MUL OR SWAP1 SSTORE POP DUP2 PUSH1 0x4 PUSH1 0x0 DUP4 PUSH20 0xFFFFFFFFFFFFFFFFFFFFFFFFFFFFFFFFFFFFFFFF AND PUSH20 0xFFFFFFFFFFFFFFFFFFFFFFFFFFFFFFFFFFFFFFFF AND DUP2 MSTORE PUSH1 0x20 ADD SWAP1 DUP2 MSTORE PUSH1 0x20 ADD PUSH1 0x0 KECCAK256 SWAP1 DUP1 MLOAD SWAP1 PUSH1 0x20 ADD SWAP1 PUSH2 0xEE6 SWAP3 SWAP2 SWAP1 PUSH2 0x21D8 JUMP JUMPDEST POP PUSH1 0x8 PUSH1 0x0 DUP2 SLOAD DUP1 SWAP3 SWAP2 SWAP1 PUSH2 0xEFA SWAP1 PUSH2 0x2FF4 JUMP JUMPDEST SWAP2 SWAP1 POP SSTORE POP PUSH32 0x833F8A6AFE89D971296F8882C8B9D117BC81D68F14AAABC47CC227218D835168 DUP3 DUP3 PUSH1 0x40 MLOAD PUSH2 0xF30 SWAP3 SWAP2 SWAP1 PUSH2 0x2B33 JUMP JUMPDEST PUSH1 0x40 MLOAD DUP1 SWAP2 SUB SWAP1 LOG1 POP POP JUMP JUMPDEST PUSH2 0xF45 CALLER PUSH2 0x1D96 JUMP JUMPDEST PUSH2 0xF84 JUMPI PUSH1 0x40 MLOAD PUSH32 0x8C379A000000000000000000000000000000000000000000000000000000000 DUP2 MSTORE PUSH1 0x4 ADD PUSH2 0xF7B SWAP1 PUSH2 0x2CE3 JUMP JUMPDEST PUSH1 0x40 MLOAD DUP1 SWAP2 SUB SWAP1 REVERT JUMPDEST PUSH2 0xF8D DUP2 PUSH2 0x203F JUMP JUMPDEST PUSH2 0xFCC JUMPI PUSH1 0x40 MLOAD PUSH32 0x8C379A000000000000000000000000000000000000000000000000000000000 DUP2 MSTORE PUSH1 0x4 ADD PUSH2 0xFC3 SWAP1 PUSH2 0x2CA3 JUMP JUMPDEST PUSH1 0x40 MLOAD DUP1 SWAP2 SUB SWAP1 REVERT JUMPDEST PUSH1 0x7 PUSH1 0x0 CALLER PUSH20 0xFFFFFFFFFFFFFFFFFFFFFFFFFFFFFFFFFFFFFFFF AND PUSH20 0xFFFFFFFFFFFFFFFFFFFFFFFFFFFFFFFFFFFFFFFF AND DUP2 MSTORE PUSH1 0x20 ADD SWAP1 DUP2 MSTORE PUSH1 0x20 ADD PUSH1 0x0 KECCAK256 PUSH1 0x0 SWAP1 SLOAD SWAP1 PUSH2 0x100 EXP SWAP1 DIV PUSH1 0xFF AND ISZERO PUSH2 0x1059 JUMPI PUSH1 0x40 MLOAD PUSH32 0x8C379A000000000000000000000000000000000000000000000000000000000 DUP2 MSTORE PUSH1 0x4 ADD PUSH2 0x1050 SWAP1 PUSH2 0x2B63 JUMP JUMPDEST PUSH1 0x40 MLOAD DUP1 SWAP2 SUB SWAP1 REVERT JUMPDEST PUSH1 0x6 PUSH1 0x0 DUP3 PUSH20 0xFFFFFFFFFFFFFFFFFFFFFFFFFFFFFFFFFFFFFFFF AND PUSH20 0xFFFFFFFFFFFFFFFFFFFFFFFFFFFFFFFFFFFFFFFF AND DUP2 MSTORE PUSH1 0x20 ADD SWAP1 DUP2 MSTORE PUSH1 0x20 ADD PUSH1 0x0 KECCAK256 PUSH1 0x0 DUP2 SLOAD DUP1 SWAP3 SWAP2 SWAP1 PUSH2 0x10A9 SWAP1 PUSH2 0x2FF4 JUMP JUMPDEST SWAP2 SWAP1 POP SSTORE POP PUSH1 0x1 PUSH1 0x7 PUSH1 0x0 CALLER PUSH20 0xFFFFFFFFFFFFFFFFFFFFFFFFFFFFFFFFFFFFFFFF AND PUSH20 0xFFFFFFFFFFFFFFFFFFFFFFFFFFFFFFFFFFFFFFFF AND DUP2 MSTORE PUSH1 0x20 ADD SWAP1 DUP2 MSTORE PUSH1 0x20 ADD PUSH1 0x0 KECCAK256 PUSH1 0x0 PUSH2 0x100 EXP DUP2 SLOAD DUP2 PUSH1 0xFF MUL NOT AND SWAP1 DUP4 ISZERO ISZERO MUL OR SWAP1 SSTORE POP CALLER PUSH20 0xFFFFFFFFFFFFFFFFFFFFFFFFFFFFFFFFFFFFFFFF AND DUP2 PUSH20 0xFFFFFFFFFFFFFFFFFFFFFFFFFFFFFFFFFFFFFFFF AND PUSH32 0x113ED09B18BB8FE2635AF16F21D67464502D920FF1015ABFE08DBE9A2971A7E2 PUSH1 0x40 MLOAD PUSH1 0x40 MLOAD DUP1 SWAP2 SUB SWAP1 LOG3 POP JUMP JUMPDEST PUSH1 0x1 PUSH1 0x0 CALLER PUSH20 0xFFFFFFFFFFFFFFFFFFFFFFFFFFFFFFFFFFFFFFFF AND PUSH20 0xFFFFFFFFFFFFFFFFFFFFFFFFFFFFFFFFFFFFFFFF AND DUP2 MSTORE PUSH1 0x20 ADD SWAP1 DUP2 MSTORE PUSH1 0x20 ADD PUSH1 0x0 KECCAK256 PUSH1 0x0 SWAP1 SLOAD SWAP1 PUSH2 0x100 EXP SWAP1 DIV PUSH1 0xFF AND PUSH2 0x11EF JUMPI PUSH1 0x40 MLOAD PUSH32 0x8C379A000000000000000000000000000000000000000000000000000000000 DUP2 MSTORE PUSH1 0x4 ADD PUSH2 0x11E6 SWAP1 PUSH2 0x2CC3 JUMP JUMPDEST PUSH1 0x40 MLOAD DUP1 SWAP2 SUB SWAP1 REVERT JUMPDEST PUSH1 0x9 PUSH1 0x0 SWAP1 SLOAD SWAP1 PUSH2 0x100 EXP SWAP1 DIV PUSH1 0xFF AND ISZERO PUSH2 0x123F JUMPI PUSH1 0x40 MLOAD PUSH32 0x8C379A000000000000000000000000000000000000000000000000000000000 DUP2 MSTORE PUSH1 0x4 ADD PUSH2 0x1236 SWAP1 PUSH2 0x2BC3 JUMP JUMPDEST PUSH1 0x40 MLOAD DUP1 SWAP2 SUB SWAP1 REVERT JUMPDEST PUSH1 0x0 PUSH1 0x8 SLOAD GT PUSH2 0x1284 JUMPI PUSH1 0x40 MLOAD PUSH32 0x8C379A000000000000000000000000000000000000000000000000000000000 DUP2 MSTORE PUSH1 0x4 ADD PUSH2 0x127B SWAP1 PUSH2 0x2C63 JUMP JUMPDEST PUSH1 0x40 MLOAD DUP1 SWAP2 SUB SWAP1 REVERT JUMPDEST PUSH1 0x0 DUP1 JUMPDEST PUSH1 0x8 SLOAD DUP2 LT ISZERO PUSH2 0x1356 JUMPI PUSH1 0x6 PUSH1 0x0 PUSH1 0x3 DUP4 DUP2 SLOAD DUP2 LT PUSH2 0x12D0 JUMPI PUSH32 0x4E487B7100000000000000000000000000000000000000000000000000000000 PUSH1 0x0 MSTORE PUSH1 0x32 PUSH1 0x4 MSTORE PUSH1 0x24 PUSH1 0x0 REVERT JUMPDEST SWAP1 PUSH1 0x0 MSTORE PUSH1 0x20 PUSH1 0x0 KECCAK256 ADD PUSH1 0x0 SWAP1 SLOAD SWAP1 PUSH2 0x100 EXP SWAP1 DIV PUSH20 0xFFFFFFFFFFFFFFFFFFFFFFFFFFFFFFFFFFFFFFFF AND PUSH20 0xFFFFFFFFFFFFFFFFFFFFFFFFFFFFFFFFFFFFFFFF AND PUSH20 0xFFFFFFFFFFFFFFFFFFFFFFFFFFFFFFFFFFFFFFFF AND DUP2 MSTORE PUSH1 0x20 ADD SWAP1 DUP2 MSTORE PUSH1 0x20 ADD PUSH1 0x0 KECCAK256 SLOAD DUP3 PUSH2 0x1341 SWAP2 SWAP1 PUSH2 0x2E57 JUMP JUMPDEST SWAP2 POP DUP1 DUP1 PUSH2 0x134E SWAP1 PUSH2 0x2FF4 JUMP JUMPDEST SWAP2 POP POP PUSH2 0x1288 JUMP JUMPDEST POP PUSH1 0x0 DUP2 GT PUSH2 0x139A JUMPI PUSH1 0x40 MLOAD PUSH32 0x8C379A000000000000000000000000000000000000000000000000000000000 DUP2 MSTORE PUSH1 0x4 ADD PUSH2 0x1391 SWAP1 PUSH2 0x2BA3 JUMP JUMPDEST PUSH1 0x40 MLOAD DUP1 SWAP2 SUB SWAP1 REVERT JUMPDEST PUSH1 0x0 PUSH1 0x64 PUSH1 0x8 DUP4 PUSH2 0x13AB SWAP2 SWAP1 PUSH2 0x2EDE JUMP JUMPDEST PUSH2 0x13B5 SWAP2 SWAP1 PUSH2 0x2EAD JUMP JUMPDEST SWAP1 POP PUSH1 0x0 DUP2 GT PUSH2 0x13FA JUMPI PUSH1 0x40 MLOAD PUSH32 0x8C379A000000000000000000000000000000000000000000000000000000000 DUP2 MSTORE PUSH1 0x4 ADD PUSH2 0x13F1 SWAP1 PUSH2 0x2BE3 JUMP JUMPDEST PUSH1 0x40 MLOAD DUP1 SWAP2 SUB SWAP1 REVERT JUMPDEST PUSH1 0x0 PUSH1 0x8 SLOAD PUSH8 0xFFFFFFFFFFFFFFFF DUP2 GT ISZERO PUSH2 0x143E JUMPI PUSH32 0x4E487B7100000000000000000000000000000000000000000000000000000000 PUSH1 0x0 MSTORE PUSH1 0x41 PUSH1 0x4 MSTORE PUSH1 0x24 PUSH1 0x0 REVERT JUMPDEST PUSH1 0x40 MLOAD SWAP1 DUP1 DUP3 MSTORE DUP1 PUSH1 0x20 MUL PUSH1 0x20 ADD DUP3 ADD PUSH1 0x40 MSTORE DUP1 ISZERO PUSH2 0x146C JUMPI DUP2 PUSH1 0x20 ADD PUSH1 0x20 DUP3 MUL DUP1 CALLDATASIZE DUP4 CALLDATACOPY DUP1 DUP3 ADD SWAP2 POP POP SWAP1 POP JUMPDEST POP SWAP1 POP PUSH1 0x0 DUP1 JUMPDEST PUSH1 0x8 SLOAD DUP2 LT ISZERO PUSH2 0x1621 JUMPI DUP4 PUSH1 0x6 PUSH1 0x0 PUSH1 0x3 DUP5 DUP2 SLOAD DUP2 LT PUSH2 0x14BC JUMPI PUSH32 0x4E487B7100000000000000000000000000000000000000000000000000000000 PUSH1 0x0 MSTORE PUSH1 0x32 PUSH1 0x4 MSTORE PUSH1 0x24 PUSH1 0x0 REVERT JUMPDEST SWAP1 PUSH1 0x0 MSTORE PUSH1 0x20 PUSH1 0x0 KECCAK256 ADD PUSH1 0x0 SWAP1 SLOAD SWAP1 PUSH2 0x100 EXP SWAP1 DIV PUSH20 0xFFFFFFFFFFFFFFFFFFFFFFFFFFFFFFFFFFFFFFFF AND PUSH20 0xFFFFFFFFFFFFFFFFFFFFFFFFFFFFFFFFFFFFFFFF AND PUSH20 0xFFFFFFFFFFFFFFFFFFFFFFFFFFFFFFFFFFFFFFFF AND DUP2 MSTORE PUSH1 0x20 ADD SWAP1 DUP2 MSTORE PUSH1 0x20 ADD PUSH1 0x0 KECCAK256 SLOAD LT PUSH2 0x160E JUMPI PUSH1 0x3 DUP2 DUP2 SLOAD DUP2 LT PUSH2 0x1561 JUMPI PUSH32 0x4E487B7100000000000000000000000000000000000000000000000000000000 PUSH1 0x0 MSTORE PUSH1 0x32 PUSH1 0x4 MSTORE PUSH1 0x24 PUSH1 0x0 REVERT JUMPDEST SWAP1 PUSH1 0x0 MSTORE PUSH1 0x20 PUSH1 0x0 KECCAK256 ADD PUSH1 0x0 SWAP1 SLOAD SWAP1 PUSH2 0x100 EXP SWAP1 DIV PUSH20 0xFFFFFFFFFFFFFFFFFFFFFFFFFFFFFFFFFFFFFFFF AND DUP4 DUP4 DUP2 MLOAD DUP2 LT PUSH2 0x15C5 JUMPI PUSH32 0x4E487B7100000000000000000000000000000000000000000000000000000000 PUSH1 0x0 MSTORE PUSH1 0x32 PUSH1 0x4 MSTORE PUSH1 0x24 PUSH1 0x0 REVERT JUMPDEST PUSH1 0x20 MUL PUSH1 0x20 ADD ADD SWAP1 PUSH20 0xFFFFFFFFFFFFFFFFFFFFFFFFFFFFFFFFFFFFFFFF AND SWAP1 DUP2 PUSH20 0xFFFFFFFFFFFFFFFFFFFFFFFFFFFFFFFFFFFFFFFF AND DUP2 MSTORE POP POP DUP2 DUP1 PUSH2 0x160A SWAP1 PUSH2 0x2FF4 JUMP JUMPDEST SWAP3 POP POP JUMPDEST DUP1 DUP1 PUSH2 0x1619 SWAP1 PUSH2 0x2FF4 JUMP JUMPDEST SWAP2 POP POP PUSH2 0x1473 JUMP JUMPDEST POP PUSH1 0x0 DUP2 GT PUSH2 0x1665 JUMPI PUSH1 0x40 MLOAD PUSH32 0x8C379A000000000000000000000000000000000000000000000000000000000 DUP2 MSTORE PUSH1 0x4 ADD PUSH2 0x165C SWAP1 PUSH2 0x2B83 JUMP JUMPDEST PUSH1 0x40 MLOAD DUP1 SWAP2 SUB SWAP1 REVERT JUMPDEST PUSH1 0x1 PUSH1 0x9 PUSH1 0x0 PUSH2 0x100 EXP DUP2 SLOAD DUP2 PUSH1 0xFF MUL NOT AND SWAP1 DUP4 ISZERO ISZERO MUL OR SWAP1 SSTORE POP PUSH1 0x0 DUP2 PUSH8 0xFFFFFFFFFFFFFFFF DUP2 GT ISZERO PUSH2 0x16C2 JUMPI PUSH32 0x4E487B7100000000000000000000000000000000000000000000000000000000 PUSH1 0x0 MSTORE PUSH1 0x41 PUSH1 0x4 MSTORE PUSH1 0x24 PUSH1 0x0 REVERT JUMPDEST PUSH1 0x40 MLOAD SWAP1 DUP1 DUP3 MSTORE DUP1 PUSH1 0x20 MUL PUSH1 0x20 ADD DUP3 ADD PUSH1 0x40 MSTORE DUP1 ISZERO PUSH2 0x16F0 JUMPI DUP2 PUSH1 0x20 ADD PUSH1 0x20 DUP3 MUL DUP1 CALLDATASIZE DUP4 CALLDATACOPY DUP1 DUP3 ADD SWAP2 POP POP SWAP1 POP JUMPDEST POP SWAP1 POP PUSH1 0x0 DUP3 PUSH8 0xFFFFFFFFFFFFFFFF DUP2 GT ISZERO PUSH2 0x1735 JUMPI PUSH32 0x4E487B7100000000000000000000000000000000000000000000000000000000 PUSH1 0x0 MSTORE PUSH1 0x41 PUSH1 0x4 MSTORE PUSH1 0x24 PUSH1 0x0 REVERT JUMPDEST PUSH1 0x40 MLOAD SWAP1 DUP1 DUP3 MSTORE DUP1 PUSH1 0x20 MUL PUSH1 0x20 ADD DUP3 ADD PUSH1 0x40 MSTORE DUP1 ISZERO PUSH2 0x1763 JUMPI DUP2 PUSH1 0x20 ADD PUSH1 0x20 DUP3 MUL DUP1 CALLDATASIZE DUP4 CALLDATACOPY DUP1 DUP3 ADD SWAP2 POP POP SWAP1 POP JUMPDEST POP SWAP1 POP PUSH1 0x0 JUMPDEST DUP4 DUP2 LT ISZERO PUSH2 0x18FD JUMPI DUP5 DUP2 DUP2 MLOAD DUP2 LT PUSH2 0x17AA JUMPI PUSH32 0x4E487B7100000000000000000000000000000000000000000000000000000000 PUSH1 0x0 MSTORE PUSH1 0x32 PUSH1 0x4 MSTORE PUSH1 0x24 PUSH1 0x0 REVERT JUMPDEST PUSH1 0x20 MUL PUSH1 0x20 ADD ADD MLOAD DUP4 DUP3 DUP2 MLOAD DUP2 LT PUSH2 0x17EB JUMPI PUSH32 0x4E487B7100000000000000000000000000000000000000000000000000000000 PUSH1 0x0 MSTORE PUSH1 0x32 PUSH1 0x4 MSTORE PUSH1 0x24 PUSH1 0x0 REVERT JUMPDEST PUSH1 0x20 MUL PUSH1 0x20 ADD ADD SWAP1 PUSH20 0xFFFFFFFFFFFFFFFFFFFFFFFFFFFFFFFFFFFFFFFF AND SWAP1 DUP2 PUSH20 0xFFFFFFFFFFFFFFFFFFFFFFFFFFFFFFFFFFFFFFFF AND DUP2 MSTORE POP POP PUSH1 0x6 PUSH1 0x0 DUP7 DUP4 DUP2 MLOAD DUP2 LT PUSH2 0x1862 JUMPI PUSH32 0x4E487B7100000000000000000000000000000000000000000000000000000000 PUSH1 0x0 MSTORE PUSH1 0x32 PUSH1 0x4 MSTORE PUSH1 0x24 PUSH1 0x0 REVERT JUMPDEST PUSH1 0x20 MUL PUSH1 0x20 ADD ADD MLOAD PUSH20 0xFFFFFFFFFFFFFFFFFFFFFFFFFFFFFFFFFFFFFFFF AND PUSH20 0xFFFFFFFFFFFFFFFFFFFFFFFFFFFFFFFFFFFFFFFF AND DUP2 MSTORE PUSH1 0x20 ADD SWAP1 DUP2 MSTORE PUSH1 0x20 ADD PUSH1 0x0 KECCAK256 SLOAD DUP3 DUP3 DUP2 MLOAD DUP2 LT PUSH2 0x18DE JUMPI PUSH32 0x4E487B7100000000000000000000000000000000000000000000000000000000 PUSH1 0x0 MSTORE PUSH1 0x32 PUSH1 0x4 MSTORE PUSH1 0x24 PUSH1 0x0 REVERT JUMPDEST PUSH1 0x20 MUL PUSH1 0x20 ADD ADD DUP2 DUP2 MSTORE POP POP DUP1 DUP1 PUSH2 0x18F5 SWAP1 PUSH2 0x2FF4 JUMP JUMPDEST SWAP2 POP POP PUSH2 0x1769 JUMP JUMPDEST POP PUSH32 0xA357B4A6831977270FCCAB93B7F0205F3139544CF0CF88952034DB7C9A394F89 DUP3 DUP3 PUSH1 0x40 MLOAD PUSH2 0x192F SWAP3 SWAP2 SWAP1 PUSH2 0x2A9D JUMP JUMPDEST PUSH1 0x40 MLOAD DUP1 SWAP2 SUB SWAP1 LOG1 POP POP POP POP POP POP JUMP JUMPDEST PUSH1 0x6 PUSH1 0x20 MSTORE DUP1 PUSH1 0x0 MSTORE PUSH1 0x40 PUSH1 0x0 KECCAK256 PUSH1 0x0 SWAP2 POP SWAP1 POP SLOAD DUP2 JUMP JUMPDEST PUSH1 0x0 PUSH2 0x1962 DUP3 PUSH2 0x203F JUMP JUMPDEST PUSH2 0x19A1 JUMPI PUSH1 0x40 MLOAD PUSH32 0x8C379A000000000000000000000000000000000000000000000000000000000 DUP2 MSTORE PUSH1 0x4 ADD PUSH2 0x1998 SWAP1 PUSH2 0x2CA3 JUMP JUMPDEST PUSH1 0x40 MLOAD DUP1 SWAP2 SUB SWAP1 REVERT JUMPDEST PUSH1 0x6 PUSH1 0x0 DUP4 PUSH20 0xFFFFFFFFFFFFFFFFFFFFFFFFFFFFFFFFFFFFFFFF AND PUSH20 0xFFFFFFFFFFFFFFFFFFFFFFFFFFFFFFFFFFFFFFFF AND DUP2 MSTORE PUSH1 0x20 ADD SWAP1 DUP2 MSTORE PUSH1 0x20 ADD PUSH1 0x0 KECCAK256 SLOAD SWAP1 POP SWAP2 SWAP1 POP JUMP JUMPDEST PUSH1 0x3 DUP2 DUP2 SLOAD DUP2 LT PUSH2 0x19F8 JUMPI PUSH1 0x0 DUP1 REVERT JUMPDEST SWAP1 PUSH1 0x0 MSTORE PUSH1 0x20 PUSH1 0x0 KECCAK256 ADD PUSH1 0x0 SWAP2 POP SLOAD SWAP1 PUSH2 0x100 EXP SWAP1 DIV PUSH20 0xFFFFFFFFFFFFFFFFFFFFFFFFFFFFFFFFFFFFFFFF AND DUP2 JUMP JUMPDEST PUSH1 0x60 PUSH1 0x9 PUSH1 0x0 SWAP1 SLOAD SWAP1 PUSH2 0x100 EXP SWAP1 DIV PUSH1 0xFF AND ISZERO PUSH2 0x1A79 JUMPI PUSH1 0x40 MLOAD PUSH32 0x8C379A000000000000000000000000000000000000000000000000000000000 DUP2 MSTORE PUSH1 0x4 ADD PUSH2 0x1A70 SWAP1 PUSH2 0x2BC3 JUMP JUMPDEST PUSH1 0x40 MLOAD DUP1 SWAP2 SUB SWAP1 REVERT JUMPDEST PUSH1 0x0 PUSH1 0x8 SLOAD PUSH8 0xFFFFFFFFFFFFFFFF DUP2 GT ISZERO PUSH2 0x1ABD JUMPI PUSH32 0x4E487B7100000000000000000000000000000000000000000000000000000000 PUSH1 0x0 MSTORE PUSH1 0x41 PUSH1 0x4 MSTORE PUSH1 0x24 PUSH1 0x0 REVERT JUMPDEST PUSH1 0x40 MLOAD SWAP1 DUP1 DUP3 MSTORE DUP1 PUSH1 0x20 MUL PUSH1 0x20 ADD DUP3 ADD PUSH1 0x40 MSTORE DUP1 ISZERO PUSH2 0x1AF6 JUMPI DUP2 PUSH1 0x20 ADD JUMPDEST PUSH2 0x1AE3 PUSH2 0x225E JUMP JUMPDEST DUP2 MSTORE PUSH1 0x20 ADD SWAP1 PUSH1 0x1 SWAP1 SUB SWAP1 DUP2 PUSH2 0x1ADB JUMPI SWAP1 POP JUMPDEST POP SWAP1 POP PUSH1 0x0 JUMPDEST PUSH1 0x8 SLOAD DUP2 LT ISZERO PUSH2 0x1CEE JUMPI PUSH1 0x0 PUSH1 0x3 DUP3 DUP2 SLOAD DUP2 LT PUSH2 0x1B42 JUMPI PUSH32 0x4E487B7100000000000000000000000000000000000000000000000000000000 PUSH1 0x0 MSTORE PUSH1 0x32 PUSH1 0x4 MSTORE PUSH1 0x24 PUSH1 0x0 REVERT JUMPDEST SWAP1 PUSH1 0x0 MSTORE PUSH1 0x20 PUSH1 0x0 KECCAK256 ADD PUSH1 0x0 SWAP1 SLOAD SWAP1 PUSH2 0x100 EXP SWAP1 DIV PUSH20 0xFFFFFFFFFFFFFFFFFFFFFFFFFFFFFFFFFFFFFFFF AND SWAP1 POP PUSH1 0x0 PUSH1 0x4 PUSH1 0x0 DUP4 PUSH20 0xFFFFFFFFFFFFFFFFFFFFFFFFFFFFFFFFFFFFFFFF AND PUSH20 0xFFFFFFFFFFFFFFFFFFFFFFFFFFFFFFFFFFFFFFFF AND DUP2 MSTORE PUSH1 0x20 ADD SWAP1 DUP2 MSTORE PUSH1 0x20 ADD PUSH1 0x0 KECCAK256 DUP1 SLOAD PUSH2 0x1BBB SWAP1 PUSH2 0x2FC2 JUMP JUMPDEST DUP1 PUSH1 0x1F ADD PUSH1 0x20 DUP1 SWAP2 DIV MUL PUSH1 0x20 ADD PUSH1 0x40 MLOAD SWAP1 DUP2 ADD PUSH1 0x40 MSTORE DUP1 SWAP3 SWAP2 SWAP1 DUP2 DUP2 MSTORE PUSH1 0x20 ADD DUP3 DUP1 SLOAD PUSH2 0x1BE7 SWAP1 PUSH2 0x2FC2 JUMP JUMPDEST DUP1 ISZERO PUSH2 0x1C34 JUMPI DUP1 PUSH1 0x1F LT PUSH2 0x1C09 JUMPI PUSH2 0x100 DUP1 DUP4 SLOAD DIV MUL DUP4 MSTORE SWAP2 PUSH1 0x20 ADD SWAP2 PUSH2 0x1C34 JUMP JUMPDEST DUP3 ADD SWAP2 SWAP1 PUSH1 0x0 MSTORE PUSH1 0x20 PUSH1 0x0 KECCAK256 SWAP1 JUMPDEST DUP2 SLOAD DUP2 MSTORE SWAP1 PUSH1 0x1 ADD SWAP1 PUSH1 0x20 ADD DUP1 DUP4 GT PUSH2 0x1C17 JUMPI DUP3 SWAP1 SUB PUSH1 0x1F AND DUP3 ADD SWAP2 JUMPDEST POP POP POP POP POP SWAP1 POP PUSH1 0x0 PUSH1 0x6 PUSH1 0x0 DUP5 PUSH20 0xFFFFFFFFFFFFFFFFFFFFFFFFFFFFFFFFFFFFFFFF AND PUSH20 0xFFFFFFFFFFFFFFFFFFFFFFFFFFFFFFFFFFFFFFFF AND DUP2 MSTORE PUSH1 0x20 ADD SWAP1 DUP2 MSTORE PUSH1 0x20 ADD PUSH1 0x0 KECCAK256 SLOAD SWAP1 POP PUSH1 0x40 MLOAD DUP1 PUSH1 0x40 ADD PUSH1 0x40 MSTORE DUP1 DUP4 DUP2 MSTORE PUSH1 0x20 ADD DUP3 DUP2 MSTORE POP DUP6 DUP6 DUP2 MLOAD DUP2 LT PUSH2 0x1CCD JUMPI PUSH32 0x4E487B7100000000000000000000000000000000000000000000000000000000 PUSH1 0x0 MSTORE PUSH1 0x32 PUSH1 0x4 MSTORE PUSH1 0x24 PUSH1 0x0 REVERT JUMPDEST PUSH1 0x20 MUL PUSH1 0x20 ADD ADD DUP2 SWAP1 MSTORE POP POP POP POP DUP1 DUP1 PUSH2 0x1CE6 SWAP1 PUSH2 0x2FF4 JUMP JUMPDEST SWAP2 POP POP PUSH2 0x1AFC JUMP JUMPDEST POP DUP1 SWAP2 POP POP SWAP1 JUMP JUMPDEST PUSH1 0x4 PUSH1 0x20 MSTORE DUP1 PUSH1 0x0 MSTORE PUSH1 0x40 PUSH1 0x0 KECCAK256 PUSH1 0x0 SWAP2 POP SWAP1 POP DUP1 SLOAD PUSH2 0x1D15 SWAP1 PUSH2 0x2FC2 JUMP JUMPDEST DUP1 PUSH1 0x1F ADD PUSH1 0x20 DUP1 SWAP2 DIV MUL PUSH1 0x20 ADD PUSH1 0x40 MLOAD SWAP1 DUP2 ADD PUSH1 0x40 MSTORE DUP1 SWAP3 SWAP2 SWAP1 DUP2 DUP2 MSTORE PUSH1 0x20 ADD DUP3 DUP1 SLOAD PUSH2 0x1D41 SWAP1 PUSH2 0x2FC2 JUMP JUMPDEST DUP1 ISZERO PUSH2 0x1D8E JUMPI DUP1 PUSH1 0x1F LT PUSH2 0x1D63 JUMPI PUSH2 0x100 DUP1 DUP4 SLOAD DIV MUL DUP4 MSTORE SWAP2 PUSH1 0x20 ADD SWAP2 PUSH2 0x1D8E JUMP JUMPDEST DUP3 ADD SWAP2 SWAP1 PUSH1 0x0 MSTORE PUSH1 0x20 PUSH1 0x0 KECCAK256 SWAP1 JUMPDEST DUP2 SLOAD DUP2 MSTORE SWAP1 PUSH1 0x1 ADD SWAP1 PUSH1 0x20 ADD DUP1 DUP4 GT PUSH2 0x1D71 JUMPI DUP3 SWAP1 SUB PUSH1 0x1F AND DUP3 ADD SWAP2 JUMPDEST POP POP POP POP POP DUP2 JUMP JUMPDEST PUSH1 0x0 DUP1 PUSH1 0x0 SWAP1 POP JUMPDEST PUSH1 0x2 DUP1 SLOAD SWAP1 POP DUP2 LT ISZERO PUSH2 0x1E60 JUMPI DUP3 PUSH20 0xFFFFFFFFFFFFFFFFFFFFFFFFFFFFFFFFFFFFFFFF AND PUSH1 0x2 DUP3 DUP2 SLOAD DUP2 LT PUSH2 0x1DFC JUMPI PUSH32 0x4E487B7100000000000000000000000000000000000000000000000000000000 PUSH1 0x0 MSTORE PUSH1 0x32 PUSH1 0x4 MSTORE PUSH1 0x24 PUSH1 0x0 REVERT JUMPDEST SWAP1 PUSH1 0x0 MSTORE PUSH1 0x20 PUSH1 0x0 KECCAK256 ADD PUSH1 0x0 SWAP1 SLOAD SWAP1 PUSH2 0x100 EXP SWAP1 DIV PUSH20 0xFFFFFFFFFFFFFFFFFFFFFFFFFFFFFFFFFFFFFFFF AND PUSH20 0xFFFFFFFFFFFFFFFFFFFFFFFFFFFFFFFFFFFFFFFF AND EQ ISZERO PUSH2 0x1E4D JUMPI PUSH1 0x1 SWAP2 POP POP PUSH2 0x1E66 JUMP JUMPDEST DUP1 DUP1 PUSH2 0x1E58 SWAP1 PUSH2 0x2FF4 JUMP JUMPDEST SWAP2 POP POP PUSH2 0x1D9E JUMP JUMPDEST POP PUSH1 0x0 SWAP1 POP JUMPDEST SWAP2 SWAP1 POP JUMP JUMPDEST PUSH1 0x8 SLOAD DUP2 JUMP JUMPDEST PUSH1 0x60 PUSH1 0x0 JUMPDEST PUSH1 0x2 DUP1 SLOAD SWAP1 POP DUP2 LT ISZERO PUSH2 0x1FFE JUMPI DUP3 PUSH20 0xFFFFFFFFFFFFFFFFFFFFFFFFFFFFFFFFFFFFFFFF AND PUSH1 0x2 DUP3 DUP2 SLOAD DUP2 LT PUSH2 0x1ED4 JUMPI PUSH32 0x4E487B7100000000000000000000000000000000000000000000000000000000 PUSH1 0x0 MSTORE PUSH1 0x32 PUSH1 0x4 MSTORE PUSH1 0x24 PUSH1 0x0 REVERT JUMPDEST SWAP1 PUSH1 0x0 MSTORE PUSH1 0x20 PUSH1 0x0 KECCAK256 ADD PUSH1 0x0 SWAP1 SLOAD SWAP1 PUSH2 0x100 EXP SWAP1 DIV PUSH20 0xFFFFFFFFFFFFFFFFFFFFFFFFFFFFFFFFFFFFFFFF AND PUSH20 0xFFFFFFFFFFFFFFFFFFFFFFFFFFFFFFFFFFFFFFFF AND EQ ISZERO PUSH2 0x1FEB JUMPI PUSH1 0x5 PUSH1 0x0 DUP5 PUSH20 0xFFFFFFFFFFFFFFFFFFFFFFFFFFFFFFFFFFFFFFFF AND PUSH20 0xFFFFFFFFFFFFFFFFFFFFFFFFFFFFFFFFFFFFFFFF AND DUP2 MSTORE PUSH1 0x20 ADD SWAP1 DUP2 MSTORE PUSH1 0x20 ADD PUSH1 0x0 KECCAK256 DUP1 SLOAD PUSH2 0x1F65 SWAP1 PUSH2 0x2FC2 JUMP JUMPDEST DUP1 PUSH1 0x1F ADD PUSH1 0x20 DUP1 SWAP2 DIV MUL PUSH1 0x20 ADD PUSH1 0x40 MLOAD SWAP1 DUP2 ADD PUSH1 0x40 MSTORE DUP1 SWAP3 SWAP2 SWAP1 DUP2 DUP2 MSTORE PUSH1 0x20 ADD DUP3 DUP1 SLOAD PUSH2 0x1F91 SWAP1 PUSH2 0x2FC2 JUMP JUMPDEST DUP1 ISZERO PUSH2 0x1FDE JUMPI DUP1 PUSH1 0x1F LT PUSH2 0x1FB3 JUMPI PUSH2 0x100 DUP1 DUP4 SLOAD DIV MUL DUP4 MSTORE SWAP2 PUSH1 0x20 ADD SWAP2 PUSH2 0x1FDE JUMP JUMPDEST DUP3 ADD SWAP2 SWAP1 PUSH1 0x0 MSTORE PUSH1 0x20 PUSH1 0x0 KECCAK256 SWAP1 JUMPDEST DUP2 SLOAD DUP2 MSTORE SWAP1 PUSH1 0x1 ADD SWAP1 PUSH1 0x20 ADD DUP1 DUP4 GT PUSH2 0x1FC1 JUMPI DUP3 SWAP1 SUB PUSH1 0x1F AND DUP3 ADD SWAP2 JUMPDEST POP POP POP POP POP SWAP2 POP POP PUSH2 0x203A JUMP JUMPDEST DUP1 DUP1 PUSH2 0x1FF6 SWAP1 PUSH2 0x2FF4 JUMP JUMPDEST SWAP2 POP POP PUSH2 0x1E76 JUMP JUMPDEST POP PUSH1 0x40 MLOAD PUSH32 0x8C379A000000000000000000000000000000000000000000000000000000000 DUP2 MSTORE PUSH1 0x4 ADD PUSH2 0x2031 SWAP1 PUSH2 0x2C43 JUMP JUMPDEST PUSH1 0x40 MLOAD DUP1 SWAP2 SUB SWAP1 REVERT JUMPDEST SWAP2 SWAP1 POP JUMP JUMPDEST PUSH1 0x0 DUP1 PUSH1 0x0 SWAP1 POP JUMPDEST PUSH1 0x3 DUP1 SLOAD SWAP1 POP DUP2 LT ISZERO PUSH2 0x2109 JUMPI DUP3 PUSH20 0xFFFFFFFFFFFFFFFFFFFFFFFFFFFFFFFFFFFFFFFF AND PUSH1 0x3 DUP3 DUP2 SLOAD DUP2 LT PUSH2 0x20A5 JUMPI PUSH32 0x4E487B7100000000000000000000000000000000000000000000000000000000 PUSH1 0x0 MSTORE PUSH1 0x32 PUSH1 0x4 MSTORE PUSH1 0x24 PUSH1 0x0 REVERT JUMPDEST SWAP1 PUSH1 0x0 MSTORE PUSH1 0x20 PUSH1 0x0 KECCAK256 ADD PUSH1 0x0 SWAP1 SLOAD SWAP1 PUSH2 0x100 EXP SWAP1 DIV PUSH20 0xFFFFFFFFFFFFFFFFFFFFFFFFFFFFFFFFFFFFFFFF AND PUSH20 0xFFFFFFFFFFFFFFFFFFFFFFFFFFFFFFFFFFFFFFFF AND EQ ISZERO PUSH2 0x20F6 JUMPI PUSH1 0x1 SWAP2 POP POP PUSH2 0x210F JUMP JUMPDEST DUP1 DUP1 PUSH2 0x2101 SWAP1 PUSH2 0x2FF4 JUMP JUMPDEST SWAP2 POP POP PUSH2 0x2047 JUMP JUMPDEST POP PUSH1 0x0 SWAP1 POP JUMPDEST SWAP2 SWAP1 POP JUMP JUMPDEST PUSH1 0x5 PUSH1 0x20 MSTORE DUP1 PUSH1 0x0 MSTORE PUSH1 0x40 PUSH1 0x0 KECCAK256 PUSH1 0x0 SWAP2 POP SWAP1 POP DUP1 SLOAD PUSH2 0x2133 SWAP1 PUSH2 0x2FC2 JUMP JUMPDEST DUP1 PUSH1 0x1F ADD PUSH1 0x20 DUP1 SWAP2 DIV MUL PUSH1 0x20 ADD PUSH1 0x40 MLOAD SWAP1 DUP2 ADD PUSH1 0x40 MSTORE DUP1 SWAP3 SWAP2 SWAP1 DUP2 DUP2 MSTORE PUSH1 0x20 ADD DUP3 DUP1 SLOAD PUSH2 0x215F SWAP1 PUSH2 0x2FC2 JUMP JUMPDEST DUP1 ISZERO PUSH2 0x21AC JUMPI DUP1 PUSH1 0x1F LT PUSH2 0x2181 JUMPI PUSH2 0x100 DUP1 DUP4 SLOAD DIV MUL DUP4 MSTORE SWAP2 PUSH1 0x20 ADD SWAP2 PUSH2 0x21AC JUMP JUMPDEST DUP3 ADD SWAP2 SWAP1 PUSH1 0x0 MSTORE PUSH1 0x20 PUSH1 0x0 KECCAK256 SWAP1 JUMPDEST DUP2 SLOAD DUP2 MSTORE SWAP1 PUSH1 0x1 ADD SWAP1 PUSH1 0x20 ADD DUP1 DUP4 GT PUSH2 0x218F JUMPI DUP3 SWAP1 SUB PUSH1 0x1F AND DUP3 ADD SWAP2 JUMPDEST POP POP POP POP POP DUP2 JUMP JUMPDEST PUSH1 0x0 DUP1 SLOAD SWAP1 PUSH2 0x100 EXP SWAP1 DIV PUSH20 0xFFFFFFFFFFFFFFFFFFFFFFFFFFFFFFFFFFFFFFFF AND DUP2 JUMP JUMPDEST DUP3 DUP1 SLOAD PUSH2 0x21E4 SWAP1 PUSH2 0x2FC2 JUMP JUMPDEST SWAP1 PUSH1 0x0 MSTORE PUSH1 0x20 PUSH1 0x0 KECCAK256 SWAP1 PUSH1 0x1F ADD PUSH1 0x20 SWAP1 DIV DUP2 ADD SWAP3 DUP3 PUSH2 0x2206 JUMPI PUSH1 0x0 DUP6 SSTORE PUSH2 0x224D JUMP JUMPDEST DUP3 PUSH1 0x1F LT PUSH2 0x221F JUMPI DUP1 MLOAD PUSH1 0xFF NOT AND DUP4 DUP1 ADD OR DUP6 SSTORE PUSH2 0x224D JUMP JUMPDEST DUP3 DUP1 ADD PUSH1 0x1 ADD DUP6 SSTORE DUP3 ISZERO PUSH2 0x224D JUMPI SWAP2 DUP3 ADD JUMPDEST DUP3 DUP2 GT ISZERO PUSH2 0x224C JUMPI DUP3 MLOAD DUP3 SSTORE SWAP2 PUSH1 0x20 ADD SWAP2 SWAP1 PUSH1 0x1 ADD SWAP1 PUSH2 0x2231 JUMP JUMPDEST JUMPDEST POP SWAP1 POP PUSH2 0x225A SWAP2 SWAP1 PUSH2 0x2278 JUMP JUMPDEST POP SWAP1 JUMP JUMPDEST PUSH1 0x40 MLOAD DUP1 PUSH1 0x40 ADD PUSH1 0x40 MSTORE DUP1 PUSH1 0x60 DUP2 MSTORE PUSH1 0x20 ADD PUSH1 0x0 DUP2 MSTORE POP SWAP1 JUMP JUMPDEST JUMPDEST DUP1 DUP3 GT ISZERO PUSH2 0x2291 JUMPI PUSH1 0x0 DUP2 PUSH1 0x0 SWAP1 SSTORE POP PUSH1 0x1 ADD PUSH2 0x2279 JUMP JUMPDEST POP SWAP1 JUMP JUMPDEST PUSH1 0x0 PUSH2 0x22A8 PUSH2 0x22A3 DUP5 PUSH2 0x2D4F JUMP JUMPDEST PUSH2 0x2D1E JUMP JUMPDEST SWAP1 POP DUP3 DUP2 MSTORE PUSH1 0x20 DUP2 ADD DUP5 DUP5 DUP5 ADD GT ISZERO PUSH2 0x22C0 JUMPI PUSH1 0x0 DUP1 REVERT JUMPDEST PUSH2 0x22CB DUP5 DUP3 DUP6 PUSH2 0x2F80 JUMP JUMPDEST POP SWAP4 SWAP3 POP POP POP JUMP JUMPDEST PUSH1 0x0 DUP2 CALLDATALOAD SWAP1 POP PUSH2 0x22E2 DUP2 PUSH2 0x310A JUMP JUMPDEST SWAP3 SWAP2 POP POP JUMP JUMPDEST PUSH1 0x0 DUP3 PUSH1 0x1F DUP4 ADD SLT PUSH2 0x22F9 JUMPI PUSH1 0x0 DUP1 REVERT JUMPDEST DUP2 CALLDATALOAD PUSH2 0x2309 DUP5 DUP3 PUSH1 0x20 DUP7 ADD PUSH2 0x2295 JUMP JUMPDEST SWAP2 POP POP SWAP3 SWAP2 POP POP JUMP JUMPDEST PUSH1 0x0 DUP2 CALLDATALOAD SWAP1 POP PUSH2 0x2321 DUP2 PUSH2 0x3121 JUMP JUMPDEST SWAP3 SWAP2 POP POP JUMP JUMPDEST PUSH1 0x0 PUSH1 0x20 DUP3 DUP5 SUB SLT ISZERO PUSH2 0x2339 JUMPI PUSH1 0x0 DUP1 REVERT JUMPDEST PUSH1 0x0 PUSH2 0x2347 DUP5 DUP3 DUP6 ADD PUSH2 0x22D3 JUMP JUMPDEST SWAP2 POP POP SWAP3 SWAP2 POP POP JUMP JUMPDEST PUSH1 0x0 DUP1 PUSH1 0x40 DUP4 DUP6 SUB SLT ISZERO PUSH2 0x2363 JUMPI PUSH1 0x0 DUP1 REVERT JUMPDEST PUSH1 0x0 DUP4 ADD CALLDATALOAD PUSH8 0xFFFFFFFFFFFFFFFF DUP2 GT ISZERO PUSH2 0x237D JUMPI PUSH1 0x0 DUP1 REVERT JUMPDEST PUSH2 0x2389 DUP6 DUP3 DUP7 ADD PUSH2 0x22E8 JUMP JUMPDEST SWAP3 POP POP PUSH1 0x20 PUSH2 0x239A DUP6 DUP3 DUP7 ADD PUSH2 0x22D3 JUMP JUMPDEST SWAP2 POP POP SWAP3 POP SWAP3 SWAP1 POP JUMP JUMPDEST PUSH1 0x0 PUSH1 0x20 DUP3 DUP5 SUB SLT ISZERO PUSH2 0x23B6 JUMPI PUSH1 0x0 DUP1 REVERT JUMPDEST PUSH1 0x0 PUSH2 0x23C4 DUP5 DUP3 DUP6 ADD PUSH2 0x2312 JUMP JUMPDEST SWAP2 POP POP SWAP3 SWAP2 POP POP JUMP JUMPDEST PUSH1 0x0 PUSH2 0x23D9 DUP4 DUP4 PUSH2 0x2411 JUMP JUMPDEST PUSH1 0x20 DUP4 ADD SWAP1 POP SWAP3 SWAP2 POP POP JUMP JUMPDEST PUSH1 0x0 PUSH2 0x23F1 DUP4 DUP4 PUSH2 0x2A05 JUMP JUMPDEST SWAP1 POP SWAP3 SWAP2 POP POP JUMP JUMPDEST PUSH1 0x0 PUSH2 0x2405 DUP4 DUP4 PUSH2 0x2A42 JUMP JUMPDEST PUSH1 0x20 DUP4 ADD SWAP1 POP SWAP3 SWAP2 POP POP JUMP JUMPDEST PUSH2 0x241A DUP2 PUSH2 0x2F38 JUMP JUMPDEST DUP3 MSTORE POP POP JUMP JUMPDEST PUSH2 0x2429 DUP2 PUSH2 0x2F38 JUMP JUMPDEST DUP3 MSTORE POP POP JUMP JUMPDEST PUSH1 0x0 PUSH2 0x243A DUP3 PUSH2 0x2DAF JUMP JUMPDEST PUSH2 0x2444 DUP2 DUP6 PUSH2 0x2E02 JUMP JUMPDEST SWAP4 POP PUSH2 0x244F DUP4 PUSH2 0x2D7F JUMP JUMPDEST DUP1 PUSH1 0x0 JUMPDEST DUP4 DUP2 LT ISZERO PUSH2 0x2480 JUMPI DUP2 MLOAD PUSH2 0x2467 DUP9 DUP3 PUSH2 0x23CD JUMP JUMPDEST SWAP8 POP PUSH2 0x2472 DUP4 PUSH2 0x2DDB JUMP JUMPDEST SWAP3 POP POP PUSH1 0x1 DUP2 ADD SWAP1 POP PUSH2 0x2453 JUMP JUMPDEST POP DUP6 SWAP4 POP POP POP POP SWAP3 SWAP2 POP POP JUMP JUMPDEST PUSH1 0x0 PUSH2 0x2498 DUP3 PUSH2 0x2DBA JUMP JUMPDEST PUSH2 0x24A2 DUP2 DUP6 PUSH2 0x2E13 JUMP JUMPDEST SWAP4 POP DUP4 PUSH1 0x20 DUP3 MUL DUP6 ADD PUSH2 0x24B4 DUP6 PUSH2 0x2D8F JUMP JUMPDEST DUP1 PUSH1 0x0 JUMPDEST DUP6 DUP2 LT ISZERO PUSH2 0x24F0 JUMPI DUP5 DUP5 SUB DUP10 MSTORE DUP2 MLOAD PUSH2 0x24D1 DUP6 DUP3 PUSH2 0x23E5 JUMP JUMPDEST SWAP5 POP PUSH2 0x24DC DUP4 PUSH2 0x2DE8 JUMP JUMPDEST SWAP3 POP PUSH1 0x20 DUP11 ADD SWAP10 POP POP PUSH1 0x1 DUP2 ADD SWAP1 POP PUSH2 0x24B8 JUMP JUMPDEST POP DUP3 SWAP8 POP DUP8 SWAP6 POP POP POP POP POP POP SWAP3 SWAP2 POP POP JUMP JUMPDEST PUSH1 0x0 PUSH2 0x250D DUP3 PUSH2 0x2DC5 JUMP JUMPDEST PUSH2 0x2517 DUP2 DUP6 PUSH2 0x2E24 JUMP JUMPDEST SWAP4 POP PUSH2 0x2522 DUP4 PUSH2 0x2D9F JUMP JUMPDEST DUP1 PUSH1 0x0 JUMPDEST DUP4 DUP2 LT ISZERO PUSH2 0x2553 JUMPI DUP2 MLOAD PUSH2 0x253A DUP9 DUP3 PUSH2 0x23F9 JUMP JUMPDEST SWAP8 POP PUSH2 0x2545 DUP4 PUSH2 0x2DF5 JUMP JUMPDEST SWAP3 POP POP PUSH1 0x1 DUP2 ADD SWAP1 POP PUSH2 0x2526 JUMP JUMPDEST POP DUP6 SWAP4 POP POP POP POP SWAP3 SWAP2 POP POP JUMP JUMPDEST PUSH2 0x2569 DUP2 PUSH2 0x2F4A JUMP JUMPDEST DUP3 MSTORE POP POP JUMP JUMPDEST PUSH1 0x0 PUSH2 0x257A DUP3 PUSH2 0x2DD0 JUMP JUMPDEST PUSH2 0x2584 DUP2 DUP6 PUSH2 0x2E35 JUMP JUMPDEST SWAP4 POP PUSH2 0x2594 DUP2 DUP6 PUSH1 0x20 DUP7 ADD PUSH2 0x2F8F JUMP JUMPDEST PUSH2 0x259D DUP2 PUSH2 0x30F9 JUMP JUMPDEST DUP5 ADD SWAP2 POP POP SWAP3 SWAP2 POP POP JUMP JUMPDEST PUSH1 0x0 PUSH2 0x25B3 DUP3 PUSH2 0x2DD0 JUMP JUMPDEST PUSH2 0x25BD DUP2 DUP6 PUSH2 0x2E46 JUMP JUMPDEST SWAP4 POP PUSH2 0x25CD DUP2 DUP6 PUSH1 0x20 DUP7 ADD PUSH2 0x2F8F JUMP JUMPDEST PUSH2 0x25D6 DUP2 PUSH2 0x30F9 JUMP JUMPDEST DUP5 ADD SWAP2 POP POP SWAP3 SWAP2 POP POP JUMP JUMPDEST PUSH1 0x0 PUSH2 0x25EE PUSH1 0x1F DUP4 PUSH2 0x2E46 JUMP JUMPDEST SWAP2 POP PUSH32 0x596F75206861766520616C7265616479206361737420796F757220766F746500 PUSH1 0x0 DUP4 ADD MSTORE PUSH1 0x20 DUP3 ADD SWAP1 POP SWAP2 SWAP1 POP JUMP JUMPDEST PUSH1 0x0 PUSH2 0x262E PUSH1 0x15 DUP4 PUSH2 0x2E46 JUMP JUMPDEST SWAP2 POP PUSH32 0x4E6F2063616E6469646174657320656C65637465640000000000000000000000 PUSH1 0x0 DUP4 ADD MSTORE PUSH1 0x20 DUP3 ADD SWAP1 POP SWAP2 SWAP1 POP JUMP JUMPDEST PUSH1 0x0 PUSH2 0x266E PUSH1 0xD DUP4 PUSH2 0x2E46 JUMP JUMPDEST SWAP2 POP PUSH32 0x4E6F20766F746573206361737400000000000000000000000000000000000000 PUSH1 0x0 DUP4 ADD MSTORE PUSH1 0x20 DUP3 ADD SWAP1 POP SWAP2 SWAP1 POP JUMP JUMPDEST PUSH1 0x0 PUSH2 0x26AE PUSH1 0x21 DUP4 PUSH2 0x2E46 JUMP JUMPDEST SWAP2 POP PUSH32 0x526573756C742068617320616C7265616479206265656E2066696E616C697A65 PUSH1 0x0 DUP4 ADD MSTORE PUSH32 0x6400000000000000000000000000000000000000000000000000000000000000 PUSH1 0x20 DUP4 ADD MSTORE PUSH1 0x40 DUP3 ADD SWAP1 POP SWAP2 SWAP1 POP JUMP JUMPDEST PUSH1 0x0 PUSH2 0x2714 PUSH1 0x18 DUP4 PUSH2 0x2E46 JUMP JUMPDEST SWAP2 POP PUSH32 0x4465636973696F6E207261746520697320746F6F206C6F770000000000000000 PUSH1 0x0 DUP4 ADD MSTORE PUSH1 0x20 DUP3 ADD SWAP1 POP SWAP2 SWAP1 POP JUMP JUMPDEST PUSH1 0x0 PUSH2 0x2754 PUSH1 0x2C DUP4 PUSH2 0x2E46 JUMP JUMPDEST SWAP2 POP PUSH32 0x4164647265737320697320616C72656164792072656769737465726564206173 PUSH1 0x0 DUP4 ADD MSTORE PUSH32 0x20612063616E6469646174650000000000000000000000000000000000000000 PUSH1 0x20 DUP4 ADD MSTORE PUSH1 0x40 DUP3 ADD SWAP1 POP SWAP2 SWAP1 POP JUMP JUMPDEST PUSH1 0x0 PUSH2 0x27BA PUSH1 0x28 DUP4 PUSH2 0x2E46 JUMP JUMPDEST SWAP2 POP PUSH32 0x4164647265737320697320616C72656164792072656769737465726564206173 PUSH1 0x0 DUP4 ADD MSTORE PUSH32 0x206120766F746572000000000000000000000000000000000000000000000000 PUSH1 0x20 DUP4 ADD MSTORE PUSH1 0x40 DUP3 ADD SWAP1 POP SWAP2 SWAP1 POP JUMP JUMPDEST PUSH1 0x0 PUSH2 0x2820 PUSH1 0x15 DUP4 PUSH2 0x2E46 JUMP JUMPDEST SWAP2 POP PUSH32 0x496E76616C696420766F74657220616464726573730000000000000000000000 PUSH1 0x0 DUP4 ADD MSTORE PUSH1 0x20 DUP3 ADD SWAP1 POP SWAP2 SWAP1 POP JUMP JUMPDEST PUSH1 0x0 PUSH2 0x2860 PUSH1 0x18 DUP4 PUSH2 0x2E46 JUMP JUMPDEST SWAP2 POP PUSH32 0x4E6F2063616E6469646174657320726567697374657265640000000000000000 PUSH1 0x0 DUP4 ADD MSTORE PUSH1 0x20 DUP3 ADD SWAP1 POP SWAP2 SWAP1 POP JUMP JUMPDEST PUSH1 0x0 PUSH2 0x28A0 PUSH1 0x32 DUP4 PUSH2 0x2E46 JUMP JUMPDEST SWAP2 POP PUSH32 0x43616E6E6F74207265766F6B652061646D696E2070726976696C656765732066 PUSH1 0x0 DUP4 ADD MSTORE PUSH32 0x726F6D20746865206D61696E2061646D696E0000000000000000000000000000 PUSH1 0x20 DUP4 ADD MSTORE PUSH1 0x40 DUP3 ADD SWAP1 POP SWAP2 SWAP1 POP JUMP JUMPDEST PUSH1 0x0 PUSH2 0x2906 PUSH1 0x19 DUP4 PUSH2 0x2E46 JUMP JUMPDEST SWAP2 POP PUSH32 0x496E76616C69642063616E646964617465206164647265737300000000000000 PUSH1 0x0 DUP4 ADD MSTORE PUSH1 0x20 DUP3 ADD SWAP1 POP SWAP2 SWAP1 POP JUMP JUMPDEST PUSH1 0x0 PUSH2 0x2946 PUSH1 0x21 DUP4 PUSH2 0x2E46 JUMP JUMPDEST SWAP2 POP PUSH32 0x4F6E6C792061646D696E2063616E2063616C6C20746869732066756E6374696F PUSH1 0x0 DUP4 ADD MSTORE PUSH32 0x6E00000000000000000000000000000000000000000000000000000000000000 PUSH1 0x20 DUP4 ADD MSTORE PUSH1 0x40 DUP3 ADD SWAP1 POP SWAP2 SWAP1 POP JUMP JUMPDEST PUSH1 0x0 PUSH2 0x29AC PUSH1 0x25 DUP4 PUSH2 0x2E46 JUMP JUMPDEST SWAP2 POP PUSH32 0x4F6E6C79207265676973746572656420766F746572732063616E206361737420 PUSH1 0x0 DUP4 ADD MSTORE PUSH32 0x766F746573000000000000000000000000000000000000000000000000000000 PUSH1 0x20 DUP4 ADD MSTORE PUSH1 0x40 DUP3 ADD SWAP1 POP SWAP2 SWAP1 POP JUMP JUMPDEST PUSH1 0x0 PUSH1 0x40 DUP4 ADD PUSH1 0x0 DUP4 ADD MLOAD DUP5 DUP3 SUB PUSH1 0x0 DUP7 ADD MSTORE PUSH2 0x2A22 DUP3 DUP3 PUSH2 0x256F JUMP JUMPDEST SWAP2 POP POP PUSH1 0x20 DUP4 ADD MLOAD PUSH2 0x2A37 PUSH1 0x20 DUP7 ADD DUP3 PUSH2 0x2A42 JUMP JUMPDEST POP DUP1 SWAP2 POP POP SWAP3 SWAP2 POP POP JUMP JUMPDEST PUSH2 0x2A4B DUP2 PUSH2 0x2F76 JUMP JUMPDEST DUP3 MSTORE POP POP JUMP JUMPDEST PUSH2 0x2A5A DUP2 PUSH2 0x2F76 JUMP JUMPDEST DUP3 MSTORE POP POP JUMP JUMPDEST PUSH1 0x0 PUSH1 0x20 DUP3 ADD SWAP1 POP PUSH2 0x2A75 PUSH1 0x0 DUP4 ADD DUP5 PUSH2 0x2420 JUMP JUMPDEST SWAP3 SWAP2 POP POP JUMP JUMPDEST PUSH1 0x0 PUSH1 0x20 DUP3 ADD SWAP1 POP DUP2 DUP2 SUB PUSH1 0x0 DUP4 ADD MSTORE PUSH2 0x2A95 DUP2 DUP5 PUSH2 0x242F JUMP JUMPDEST SWAP1 POP SWAP3 SWAP2 POP POP JUMP JUMPDEST PUSH1 0x0 PUSH1 0x40 DUP3 ADD SWAP1 POP DUP2 DUP2 SUB PUSH1 0x0 DUP4 ADD MSTORE PUSH2 0x2AB7 DUP2 DUP6 PUSH2 0x242F JUMP JUMPDEST SWAP1 POP DUP2 DUP2 SUB PUSH1 0x20 DUP4 ADD MSTORE PUSH2 0x2ACB DUP2 DUP5 PUSH2 0x2502 JUMP JUMPDEST SWAP1 POP SWAP4 SWAP3 POP POP POP JUMP JUMPDEST PUSH1 0x0 PUSH1 0x20 DUP3 ADD SWAP1 POP DUP2 DUP2 SUB PUSH1 0x0 DUP4 ADD MSTORE PUSH2 0x2AEE DUP2 DUP5 PUSH2 0x248D JUMP JUMPDEST SWAP1 POP SWAP3 SWAP2 POP POP JUMP JUMPDEST PUSH1 0x0 PUSH1 0x20 DUP3 ADD SWAP1 POP PUSH2 0x2B0B PUSH1 0x0 DUP4 ADD DUP5 PUSH2 0x2560 JUMP JUMPDEST SWAP3 SWAP2 POP POP JUMP JUMPDEST PUSH1 0x0 PUSH1 0x20 DUP3 ADD SWAP1 POP DUP2 DUP2 SUB PUSH1 0x0 DUP4 ADD MSTORE PUSH2 0x2B2B DUP2 DUP5 PUSH2 0x25A8 JUMP JUMPDEST SWAP1 POP SWAP3 SWAP2 POP POP JUMP JUMPDEST PUSH1 0x0 PUSH1 0x40 DUP3 ADD SWAP1 POP DUP2 DUP2 SUB PUSH1 0x0 DUP4 ADD MSTORE PUSH2 0x2B4D DUP2 DUP6 PUSH2 0x25A8 JUMP JUMPDEST SWAP1 POP PUSH2 0x2B5C PUSH1 0x20 DUP4 ADD DUP5 PUSH2 0x2420 JUMP JUMPDEST SWAP4 SWAP3 POP POP POP JUMP JUMPDEST PUSH1 0x0 PUSH1 0x20 DUP3 ADD SWAP1 POP DUP2 DUP2 SUB PUSH1 0x0 DUP4 ADD MSTORE PUSH2 0x2B7C DUP2 PUSH2 0x25E1 JUMP JUMPDEST SWAP1 POP SWAP2 SWAP1 POP JUMP JUMPDEST PUSH1 0x0 PUSH1 0x20 DUP3 ADD SWAP1 POP DUP2 DUP2 SUB PUSH1 0x0 DUP4 ADD MSTORE PUSH2 0x2B9C DUP2 PUSH2 0x2621 JUMP JUMPDEST SWAP1 POP SWAP2 SWAP1 POP JUMP JUMPDEST PUSH1 0x0 PUSH1 0x20 DUP3 ADD SWAP1 POP DUP2 DUP2 SUB PUSH1 0x0 DUP4 ADD MSTORE PUSH2 0x2BBC DUP2 PUSH2 0x2661 JUMP JUMPDEST SWAP1 POP SWAP2 SWAP1 POP JUMP JUMPDEST PUSH1 0x0 PUSH1 0x20 DUP3 ADD SWAP1 POP DUP2 DUP2 SUB PUSH1 0x0 DUP4 ADD MSTORE PUSH2 0x2BDC DUP2 PUSH2 0x26A1 JUMP JUMPDEST SWAP1 POP SWAP2 SWAP1 POP JUMP JUMPDEST PUSH1 0x0 PUSH1 0x20 DUP3 ADD SWAP1 POP DUP2 DUP2 SUB PUSH1 0x0 DUP4 ADD MSTORE PUSH2 0x2BFC DUP2 PUSH2 0x2707 JUMP JUMPDEST SWAP1 POP SWAP2 SWAP1 POP JUMP JUMPDEST PUSH1 0x0 PUSH1 0x20 DUP3 ADD SWAP1 POP DUP2 DUP2 SUB PUSH1 0x0 DUP4 ADD MSTORE PUSH2 0x2C1C DUP2 PUSH2 0x2747 JUMP JUMPDEST SWAP1 POP SWAP2 SWAP1 POP JUMP JUMPDEST PUSH1 0x0 PUSH1 0x20 DUP3 ADD SWAP1 POP DUP2 DUP2 SUB PUSH1 0x0 DUP4 ADD MSTORE PUSH2 0x2C3C DUP2 PUSH2 0x27AD JUMP JUMPDEST SWAP1 POP SWAP2 SWAP1 POP JUMP JUMPDEST PUSH1 0x0 PUSH1 0x20 DUP3 ADD SWAP1 POP DUP2 DUP2 SUB PUSH1 0x0 DUP4 ADD MSTORE PUSH2 0x2C5C DUP2 PUSH2 0x2813 JUMP JUMPDEST SWAP1 POP SWAP2 SWAP1 POP JUMP JUMPDEST PUSH1 0x0 PUSH1 0x20 DUP3 ADD SWAP1 POP DUP2 DUP2 SUB PUSH1 0x0 DUP4 ADD MSTORE PUSH2 0x2C7C DUP2 PUSH2 0x2853 JUMP JUMPDEST SWAP1 POP SWAP2 SWAP1 POP JUMP JUMPDEST PUSH1 0x0 PUSH1 0x20 DUP3 ADD SWAP1 POP DUP2 DUP2 SUB PUSH1 0x0 DUP4 ADD MSTORE PUSH2 0x2C9C DUP2 PUSH2 0x2893 JUMP JUMPDEST SWAP1 POP SWAP2 SWAP1 POP JUMP JUMPDEST PUSH1 0x0 PUSH1 0x20 DUP3 ADD SWAP1 POP DUP2 DUP2 SUB PUSH1 0x0 DUP4 ADD MSTORE PUSH2 0x2CBC DUP2 PUSH2 0x28F9 JUMP JUMPDEST SWAP1 POP SWAP2 SWAP1 POP JUMP JUMPDEST PUSH1 0x0 PUSH1 0x20 DUP3 ADD SWAP1 POP DUP2 DUP2 SUB PUSH1 0x0 DUP4 ADD MSTORE PUSH2 0x2CDC DUP2 PUSH2 0x2939 JUMP JUMPDEST SWAP1 POP SWAP2 SWAP1 POP JUMP JUMPDEST PUSH1 0x0 PUSH1 0x20 DUP3 ADD SWAP1 POP DUP2 DUP2 SUB PUSH1 0x0 DUP4 ADD MSTORE PUSH2 0x2CFC DUP2 PUSH2 0x299F JUMP JUMPDEST SWAP1 POP SWAP2 SWAP1 POP JUMP JUMPDEST PUSH1 0x0 PUSH1 0x20 DUP3 ADD SWAP1 POP PUSH2 0x2D18 PUSH1 0x0 DUP4 ADD DUP5 PUSH2 0x2A51 JUMP JUMPDEST SWAP3 SWAP2 POP POP JUMP JUMPDEST PUSH1 0x0 PUSH1 0x40 MLOAD SWAP1 POP DUP2 DUP2 ADD DUP2 DUP2 LT PUSH8 0xFFFFFFFFFFFFFFFF DUP3 GT OR ISZERO PUSH2 0x2D45 JUMPI PUSH2 0x2D44 PUSH2 0x30CA JUMP JUMPDEST JUMPDEST DUP1 PUSH1 0x40 MSTORE POP SWAP2 SWAP1 POP JUMP JUMPDEST PUSH1 0x0 PUSH8 0xFFFFFFFFFFFFFFFF DUP3 GT ISZERO PUSH2 0x2D6A JUMPI PUSH2 0x2D69 PUSH2 0x30CA JUMP JUMPDEST JUMPDEST PUSH1 0x1F NOT PUSH1 0x1F DUP4 ADD AND SWAP1 POP PUSH1 0x20 DUP2 ADD SWAP1 POP SWAP2 SWAP1 POP JUMP JUMPDEST PUSH1 0x0 DUP2 SWAP1 POP PUSH1 0x20 DUP3 ADD SWAP1 POP SWAP2 SWAP1 POP JUMP JUMPDEST PUSH1 0x0 DUP2 SWAP1 POP PUSH1 0x20 DUP3 ADD SWAP1 POP SWAP2 SWAP1 POP JUMP JUMPDEST PUSH1 0x0 DUP2 SWAP1 POP PUSH1 0x20 DUP3 ADD SWAP1 POP SWAP2 SWAP1 POP JUMP JUMPDEST PUSH1 0x0 DUP2 MLOAD SWAP1 POP SWAP2 SWAP1 POP JUMP JUMPDEST PUSH1 0x0 DUP2 MLOAD SWAP1 POP SWAP2 SWAP1 POP JUMP JUMPDEST PUSH1 0x0 DUP2 MLOAD SWAP1 POP SWAP2 SWAP1 POP JUMP JUMPDEST PUSH1 0x0 DUP2 MLOAD SWAP1 POP SWAP2 SWAP1 POP JUMP JUMPDEST PUSH1 0x0 PUSH1 0x20 DUP3 ADD SWAP1 POP SWAP2 SWAP1 POP JUMP JUMPDEST PUSH1 0x0 PUSH1 0x20 DUP3 ADD SWAP1 POP SWAP2 SWAP1 POP JUMP JUMPDEST PUSH1 0x0 PUSH1 0x20 DUP3 ADD SWAP1 POP SWAP2 SWAP1 POP JUMP JUMPDEST PUSH1 0x0 DUP3 DUP3 MSTORE PUSH1 0x20 DUP3 ADD SWAP1 POP SWAP3 SWAP2 POP POP JUMP JUMPDEST PUSH1 0x0 DUP3 DUP3 MSTORE PUSH1 0x20 DUP3 ADD SWAP1 POP SWAP3 SWAP2 POP POP JUMP JUMPDEST PUSH1 0x0 DUP3 DUP3 MSTORE PUSH1 0x20 DUP3 ADD SWAP1 POP SWAP3 SWAP2 POP POP JUMP JUMPDEST PUSH1 0x0 DUP3 DUP3 MSTORE PUSH1 0x20 DUP3 ADD SWAP1 POP SWAP3 SWAP2 POP POP JUMP JUMPDEST PUSH1 0x0 DUP3 DUP3 MSTORE PUSH1 0x20 DUP3 ADD SWAP1 POP SWAP3 SWAP2 POP POP JUMP JUMPDEST PUSH1 0x0 PUSH2 0x2E62 DUP3 PUSH2 0x2F76 JUMP JUMPDEST SWAP2 POP PUSH2 0x2E6D DUP4 PUSH2 0x2F76 JUMP JUMPDEST SWAP3 POP DUP3 PUSH32 0xFFFFFFFFFFFFFFFFFFFFFFFFFFFFFFFFFFFFFFFFFFFFFFFFFFFFFFFFFFFFFFFF SUB DUP3 GT ISZERO PUSH2 0x2EA2 JUMPI PUSH2 0x2EA1 PUSH2 0x303D JUMP JUMPDEST JUMPDEST DUP3 DUP3 ADD SWAP1 POP SWAP3 SWAP2 POP POP JUMP JUMPDEST PUSH1 0x0 PUSH2 0x2EB8 DUP3 PUSH2 0x2F76 JUMP JUMPDEST SWAP2 POP PUSH2 0x2EC3 DUP4 PUSH2 0x2F76 JUMP JUMPDEST SWAP3 POP DUP3 PUSH2 0x2ED3 JUMPI PUSH2 0x2ED2 PUSH2 0x306C JUMP JUMPDEST JUMPDEST DUP3 DUP3 DIV SWAP1 POP SWAP3 SWAP2 POP POP JUMP JUMPDEST PUSH1 0x0 PUSH2 0x2EE9 DUP3 PUSH2 0x2F76 JUMP JUMPDEST SWAP2 POP PUSH2 0x2EF4 DUP4 PUSH2 0x2F76 JUMP JUMPDEST SWAP3 POP DUP2 PUSH32 0xFFFFFFFFFFFFFFFFFFFFFFFFFFFFFFFFFFFFFFFFFFFFFFFFFFFFFFFFFFFFFFFF DIV DUP4 GT DUP3 ISZERO ISZERO AND ISZERO PUSH2 0x2F2D JUMPI PUSH2 0x2F2C PUSH2 0x303D JUMP JUMPDEST JUMPDEST DUP3 DUP3 MUL SWAP1 POP SWAP3 SWAP2 POP POP JUMP JUMPDEST PUSH1 0x0 PUSH2 0x2F43 DUP3 PUSH2 0x2F56 JUMP JUMPDEST SWAP1 POP SWAP2 SWAP1 POP JUMP JUMPDEST PUSH1 0x0 DUP2 ISZERO ISZERO SWAP1 POP SWAP2 SWAP1 POP JUMP JUMPDEST PUSH1 0x0 PUSH20 0xFFFFFFFFFFFFFFFFFFFFFFFFFFFFFFFFFFFFFFFF DUP3 AND SWAP1 POP SWAP2 SWAP1 POP JUMP JUMPDEST PUSH1 0x0 DUP2 SWAP1 POP SWAP2 SWAP1 POP JUMP JUMPDEST DUP3 DUP2 DUP4 CALLDATACOPY PUSH1 0x0 DUP4 DUP4 ADD MSTORE POP POP POP JUMP JUMPDEST PUSH1 0x0 JUMPDEST DUP4 DUP2 LT ISZERO PUSH2 0x2FAD JUMPI DUP1 DUP3 ADD MLOAD DUP2 DUP5 ADD MSTORE PUSH1 0x20 DUP2 ADD SWAP1 POP PUSH2 0x2F92 JUMP JUMPDEST DUP4 DUP2 GT ISZERO PUSH2 0x2FBC JUMPI PUSH1 0x0 DUP5 DUP5 ADD MSTORE JUMPDEST POP POP POP POP JUMP JUMPDEST PUSH1 0x0 PUSH1 0x2 DUP3 DIV SWAP1 POP PUSH1 0x1 DUP3 AND DUP1 PUSH2 0x2FDA JUMPI PUSH1 0x7F DUP3 AND SWAP2 POP JUMPDEST PUSH1 0x20 DUP3 LT DUP2 EQ ISZERO PUSH2 0x2FEE JUMPI PUSH2 0x2FED PUSH2 0x309B JUMP JUMPDEST JUMPDEST POP SWAP2 SWAP1 POP JUMP JUMPDEST PUSH1 0x0 PUSH2 0x2FFF DUP3 PUSH2 0x2F76 JUMP JUMPDEST SWAP2 POP PUSH32 0xFFFFFFFFFFFFFFFFFFFFFFFFFFFFFFFFFFFFFFFFFFFFFFFFFFFFFFFFFFFFFFFF DUP3 EQ ISZERO PUSH2 0x3032 JUMPI PUSH2 0x3031 PUSH2 0x303D JUMP JUMPDEST JUMPDEST PUSH1 0x1 DUP3 ADD SWAP1 POP SWAP2 SWAP1 POP JUMP JUMPDEST PUSH32 0x4E487B7100000000000000000000000000000000000000000000000000000000 PUSH1 0x0 MSTORE PUSH1 0x11 PUSH1 0x4 MSTORE PUSH1 0x24 PUSH1 0x0 REVERT JUMPDEST PUSH32 0x4E487B7100000000000000000000000000000000000000000000000000000000 PUSH1 0x0 MSTORE PUSH1 0x12 PUSH1 0x4 MSTORE PUSH1 0x24 PUSH1 0x0 REVERT JUMPDEST PUSH32 0x4E487B7100000000000000000000000000000000000000000000000000000000 PUSH1 0x0 MSTORE PUSH1 0x22 PUSH1 0x4 MSTORE PUSH1 0x24 PUSH1 0x0 REVERT JUMPDEST PUSH32 0x4E487B7100000000000000000000000000000000000000000000000000000000 PUSH1 0x0 MSTORE PUSH1 0x41 PUSH1 0x4 MSTORE PUSH1 0x24 PUSH1 0x0 REVERT JUMPDEST PUSH1 0x0 PUSH1 0x1F NOT PUSH1 0x1F DUP4 ADD AND SWAP1 POP SWAP2 SWAP1 POP JUMP JUMPDEST PUSH2 0x3113 DUP2 PUSH2 0x2F38 JUMP JUMPDEST DUP2 EQ PUSH2 0x311E JUMPI PUSH1 0x0 DUP1 REVERT JUMPDEST POP JUMP JUMPDEST PUSH2 0x312A DUP2 PUSH2 0x2F76 JUMP JUMPDEST DUP2 EQ PUSH2 0x3135 JUMPI PUSH1 0x0 DUP1 REVERT JUMPDEST POP JUMP INVALID LOG2 PUSH5 0x6970667358 0x22 SLT KECCAK256 0x4E PUSH23 0xA2690F9F2BBA678FA1910D5FEFDD604D4AD70A594D7FC9 PUSH13 0x1E5B2B36F8B564736F6C634300 ADDMOD STOP STOP CALLER "
				},
				"gasEstimates": {
					"creation": {
						"codeDepositCost": "2530800",
						"executionCost": "67008",
						"totalCost": "2597808"
					},
					"external": {
						"addCandidate(string,address)": "infinite",
						"admin()": "1321",
						"calculateResult()": "infinite",
						"candidateCount()": "1218",
						"candidateNames(address)": "infinite",
						"castVote(address)": "infinite",
						"finalizeResult()": "infinite",
						"getCandidateCount()": "1182",
						"getCandidateName(address)": "infinite",
						"getRegisteredCandidates()": "infinite",
						"getRegisteredVoters()": "infinite",
						"getVoteCountForCandidate(address)": "infinite",
						"getVoterName(address)": "infinite",
						"grantAdmin(address)": "24002",
						"hasVoted(address)": "1569",
						"isAdmin(address)": "1657",
						"isCandidate(address)": "infinite",
						"isVoter(address)": "infinite",
						"registerVoter(string,address)": "infinite",
						"registeredCandidates(uint256)": "2467",
						"registeredVoters(uint256)": "2446",
						"resultFinalized()": "1217",
						"revokeAdmin(address)": "24829",
						"voteCounts(address)": "1581",
						"voterNames(address)": "infinite"
					},
					"internal": {
						"sortResult(struct AccessControl.Result memory[] memory)": "infinite",
						"toString(uint256)": "infinite"
					}
				},
				"methodIdentifiers": {
					"addCandidate(string,address)": "4a2a84c5",
					"admin()": "f851a440",
					"calculateResult()": "6e008b35",
					"candidateCount()": "a9a981a3",
					"candidateNames(address)": "9d605d87",
					"castVote(address)": "53358fc4",
					"finalizeResult()": "61cac418",
					"getCandidateCount()": "30a56347",
					"getCandidateName(address)": "1e0efcf3",
					"getRegisteredCandidates()": "396b9ae0",
					"getRegisteredVoters()": "2bc4a6e7",
					"getVoteCountForCandidate(address)": "6b991a18",
					"getVoterName(address)": "c22b6b9d",
					"grantAdmin(address)": "35bb3e16",
					"hasVoted(address)": "09eef43e",
					"isAdmin(address)": "24d7806c",
					"isCandidate(address)": "d51b9e93",
					"isVoter(address)": "a7771ee3",
					"registerVoter(string,address)": "4a075de2",
					"registeredCandidates(uint256)": "6c7f5767",
					"registeredVoters(uint256)": "2436e06b",
					"resultFinalized()": "1aae9ff3",
					"revokeAdmin(address)": "2d345670",
					"voteCounts(address)": "66a267a9",
					"voterNames(address)": "f140cf91"
				}
			},
			"storageLayout": {
				"storage": [
					{
						"astId": 3,
						"contract": "contracts/AccessControl.sol:AccessControl",
						"label": "admin",
						"offset": 0,
						"slot": "0",
						"type": "t_address"
					},
					{
						"astId": 7,
						"contract": "contracts/AccessControl.sol:AccessControl",
						"label": "isAdmin",
						"offset": 0,
						"slot": "1",
						"type": "t_mapping(t_address,t_bool)"
					},
					{
						"astId": 10,
						"contract": "contracts/AccessControl.sol:AccessControl",
						"label": "registeredVoters",
						"offset": 0,
						"slot": "2",
						"type": "t_array(t_address)dyn_storage"
					},
					{
						"astId": 13,
						"contract": "contracts/AccessControl.sol:AccessControl",
						"label": "registeredCandidates",
						"offset": 0,
						"slot": "3",
						"type": "t_array(t_address)dyn_storage"
					},
					{
						"astId": 17,
						"contract": "contracts/AccessControl.sol:AccessControl",
						"label": "candidateNames",
						"offset": 0,
						"slot": "4",
						"type": "t_mapping(t_address,t_string_storage)"
					},
					{
						"astId": 21,
						"contract": "contracts/AccessControl.sol:AccessControl",
						"label": "voterNames",
						"offset": 0,
						"slot": "5",
						"type": "t_mapping(t_address,t_string_storage)"
					},
					{
						"astId": 25,
						"contract": "contracts/AccessControl.sol:AccessControl",
						"label": "voteCounts",
						"offset": 0,
						"slot": "6",
						"type": "t_mapping(t_address,t_uint256)"
					},
					{
						"astId": 29,
						"contract": "contracts/AccessControl.sol:AccessControl",
						"label": "hasVoted",
						"offset": 0,
						"slot": "7",
						"type": "t_mapping(t_address,t_bool)"
					},
					{
						"astId": 31,
						"contract": "contracts/AccessControl.sol:AccessControl",
						"label": "candidateCount",
						"offset": 0,
						"slot": "8",
						"type": "t_uint256"
					},
					{
						"astId": 33,
						"contract": "contracts/AccessControl.sol:AccessControl",
						"label": "resultFinalized",
						"offset": 0,
						"slot": "9",
						"type": "t_bool"
					}
				],
				"types": {
					"t_address": {
						"encoding": "inplace",
						"label": "address",
						"numberOfBytes": "20"
					},
					"t_array(t_address)dyn_storage": {
						"base": "t_address",
						"encoding": "dynamic_array",
						"label": "address[]",
						"numberOfBytes": "32"
					},
					"t_bool": {
						"encoding": "inplace",
						"label": "bool",
						"numberOfBytes": "1"
					},
					"t_mapping(t_address,t_bool)": {
						"encoding": "mapping",
						"key": "t_address",
						"label": "mapping(address => bool)",
						"numberOfBytes": "32",
						"value": "t_bool"
					},
					"t_mapping(t_address,t_string_storage)": {
						"encoding": "mapping",
						"key": "t_address",
						"label": "mapping(address => string)",
						"numberOfBytes": "32",
						"value": "t_string_storage"
					},
					"t_mapping(t_address,t_uint256)": {
						"encoding": "mapping",
						"key": "t_address",
						"label": "mapping(address => uint256)",
						"numberOfBytes": "32",
						"value": "t_uint256"
					},
					"t_string_storage": {
						"encoding": "bytes",
						"label": "string",
						"numberOfBytes": "32"
					},
					"t_uint256": {
						"encoding": "inplace",
						"label": "uint256",
						"numberOfBytes": "32"
					}
				}
			},
			"userdoc": {
				"kind": "user",
				"methods": {},
				"version": 1
			}
		}
	}
}